{
  "contractName": "LavaWallet",
  "abi": [
    {
      "inputs": [
        {
          "name": "relayKingContractAddress",
          "type": "address"
        }
      ],
      "payable": false,
      "stateMutability": "nonpayable",
      "type": "constructor"
    },
    {
      "payable": true,
      "stateMutability": "payable",
      "type": "fallback"
    },
    {
      "anonymous": false,
      "inputs": [
        {
          "indexed": false,
          "name": "token",
          "type": "address"
        },
        {
          "indexed": false,
          "name": "user",
          "type": "address"
        },
        {
          "indexed": false,
          "name": "amount",
          "type": "uint256"
        },
        {
          "indexed": false,
          "name": "balance",
          "type": "uint256"
        }
      ],
      "name": "Deposit",
      "type": "event"
    },
    {
      "anonymous": false,
      "inputs": [
        {
          "indexed": false,
          "name": "token",
          "type": "address"
        },
        {
          "indexed": false,
          "name": "user",
          "type": "address"
        },
        {
          "indexed": false,
          "name": "amount",
          "type": "uint256"
        },
        {
          "indexed": false,
          "name": "balance",
          "type": "uint256"
        }
      ],
      "name": "Withdraw",
      "type": "event"
    },
    {
      "anonymous": false,
      "inputs": [
        {
          "indexed": true,
          "name": "from",
          "type": "address"
        },
        {
          "indexed": true,
          "name": "to",
          "type": "address"
        },
        {
          "indexed": false,
          "name": "token",
          "type": "address"
        },
        {
          "indexed": false,
          "name": "tokens",
          "type": "uint256"
        }
      ],
      "name": "Transfer",
      "type": "event"
    },
    {
      "anonymous": false,
      "inputs": [
        {
          "indexed": true,
          "name": "tokenOwner",
          "type": "address"
        },
        {
          "indexed": true,
          "name": "spender",
          "type": "address"
        },
        {
          "indexed": false,
          "name": "token",
          "type": "address"
        },
        {
          "indexed": false,
          "name": "tokens",
          "type": "uint256"
        }
      ],
      "name": "Approval",
      "type": "event"
    },
    {
      "constant": true,
      "inputs": [],
      "name": "getDomainTypehash",
      "outputs": [
        {
          "name": "",
          "type": "bytes32"
        }
      ],
      "payable": false,
      "stateMutability": "pure",
      "type": "function"
    },
    {
      "constant": true,
      "inputs": [],
      "name": "getLavaPacketTypehash",
      "outputs": [
        {
          "name": "",
          "type": "bytes32"
        }
      ],
      "payable": false,
      "stateMutability": "pure",
      "type": "function"
    },
    {
      "constant": true,
      "inputs": [
        {
          "components": [
            {
              "name": "name",
              "type": "string"
            },
            {
              "name": "verifyingContract",
              "type": "address"
            }
          ],
          "name": "eip712Domain",
          "type": "tuple"
        }
      ],
      "name": "getDomainHash",
      "outputs": [
        {
          "name": "",
          "type": "bytes32"
        }
      ],
      "payable": false,
      "stateMutability": "pure",
      "type": "function"
    },
    {
      "constant": true,
      "inputs": [
        {
          "components": [
            {
              "name": "methodName",
              "type": "bytes"
            },
            {
              "name": "relayAuthority",
              "type": "address"
            },
            {
              "name": "from",
              "type": "address"
            },
            {
              "name": "to",
              "type": "address"
            },
            {
              "name": "wallet",
              "type": "address"
            },
            {
              "name": "token",
              "type": "address"
            },
            {
              "name": "tokens",
              "type": "uint256"
            },
            {
              "name": "relayerRewardToken",
              "type": "address"
            },
            {
              "name": "relayerRewardAmount",
              "type": "uint256"
            },
            {
              "name": "expires",
              "type": "uint256"
            },
            {
              "name": "nonce",
              "type": "uint256"
            }
          ],
          "name": "packet",
          "type": "tuple"
        }
      ],
      "name": "getLavaPacketHash",
      "outputs": [
        {
          "name": "",
          "type": "bytes32"
        }
      ],
      "payable": false,
      "stateMutability": "pure",
      "type": "function"
    },
    {
      "constant": false,
      "inputs": [
        {
          "name": "from",
          "type": "address"
        },
        {
          "name": "token",
          "type": "address"
        },
        {
          "name": "tokens",
          "type": "uint256"
        }
      ],
      "name": "depositTokens",
      "outputs": [
        {
          "name": "success",
          "type": "bool"
        }
      ],
      "payable": false,
      "stateMutability": "nonpayable",
      "type": "function"
    },
    {
      "constant": false,
      "inputs": [
        {
          "name": "token",
          "type": "address"
        },
        {
          "name": "tokens",
          "type": "uint256"
        }
      ],
      "name": "withdrawTokens",
      "outputs": [
        {
          "name": "success",
          "type": "bool"
        }
      ],
      "payable": false,
      "stateMutability": "nonpayable",
      "type": "function"
    },
    {
      "constant": false,
      "inputs": [
        {
          "name": "from",
          "type": "address"
        },
        {
          "name": "to",
          "type": "address"
        },
        {
          "name": "token",
          "type": "address"
        },
        {
          "name": "tokens",
          "type": "uint256"
        }
      ],
      "name": "withdrawTokensFrom",
      "outputs": [
        {
          "name": "success",
          "type": "bool"
        }
      ],
      "payable": false,
      "stateMutability": "nonpayable",
      "type": "function"
    },
    {
      "constant": true,
      "inputs": [
        {
          "name": "token",
          "type": "address"
        },
        {
          "name": "user",
          "type": "address"
        }
      ],
      "name": "balanceOf",
      "outputs": [
        {
          "name": "",
          "type": "uint256"
        }
      ],
      "payable": false,
      "stateMutability": "view",
      "type": "function"
    },
    {
      "constant": true,
      "inputs": [
        {
          "name": "token",
          "type": "address"
        },
        {
          "name": "tokenOwner",
          "type": "address"
        },
        {
          "name": "spender",
          "type": "address"
        }
      ],
      "name": "allowance",
      "outputs": [
        {
          "name": "remaining",
          "type": "uint256"
        }
      ],
      "payable": false,
      "stateMutability": "view",
      "type": "function"
    },
    {
      "constant": false,
      "inputs": [
        {
          "name": "spender",
          "type": "address"
        },
        {
          "name": "token",
          "type": "address"
        },
        {
          "name": "tokens",
          "type": "uint256"
        }
      ],
      "name": "approveTokens",
      "outputs": [
        {
          "name": "success",
          "type": "bool"
        }
      ],
      "payable": false,
      "stateMutability": "nonpayable",
      "type": "function"
    },
    {
      "constant": false,
      "inputs": [
        {
          "name": "to",
          "type": "address"
        },
        {
          "name": "token",
          "type": "address"
        },
        {
          "name": "tokens",
          "type": "uint256"
        }
      ],
      "name": "transferTokens",
      "outputs": [
        {
          "name": "success",
          "type": "bool"
        }
      ],
      "payable": false,
      "stateMutability": "nonpayable",
      "type": "function"
    },
    {
      "constant": false,
      "inputs": [
        {
          "name": "from",
          "type": "address"
        },
        {
          "name": "to",
          "type": "address"
        },
        {
          "name": "token",
          "type": "address"
        },
        {
          "name": "tokens",
          "type": "uint256"
        }
      ],
      "name": "transferTokensFrom",
      "outputs": [
        {
          "name": "success",
          "type": "bool"
        }
      ],
      "payable": false,
      "stateMutability": "nonpayable",
      "type": "function"
    },
    {
      "constant": true,
      "inputs": [
        {
          "components": [
            {
              "name": "methodName",
              "type": "bytes"
            },
            {
              "name": "relayAuthority",
              "type": "address"
            },
            {
              "name": "from",
              "type": "address"
            },
            {
              "name": "to",
              "type": "address"
            },
            {
              "name": "wallet",
              "type": "address"
            },
            {
              "name": "token",
              "type": "address"
            },
            {
              "name": "tokens",
              "type": "uint256"
            },
            {
              "name": "relayerRewardToken",
              "type": "address"
            },
            {
              "name": "relayerRewardAmount",
              "type": "uint256"
            },
            {
              "name": "expires",
              "type": "uint256"
            },
            {
              "name": "nonce",
              "type": "uint256"
            }
          ],
          "name": "packet",
          "type": "tuple"
        }
      ],
      "name": "getLavaTypedDataHash",
      "outputs": [
        {
          "name": "",
          "type": "bytes32"
        }
      ],
      "payable": false,
      "stateMutability": "view",
      "type": "function"
    },
    {
      "constant": false,
      "inputs": [
        {
          "components": [
            {
              "name": "methodName",
              "type": "bytes"
            },
            {
              "name": "relayAuthority",
              "type": "address"
            },
            {
              "name": "from",
              "type": "address"
            },
            {
              "name": "to",
              "type": "address"
            },
            {
              "name": "wallet",
              "type": "address"
            },
            {
              "name": "token",
              "type": "address"
            },
            {
              "name": "tokens",
              "type": "uint256"
            },
            {
              "name": "relayerRewardToken",
              "type": "address"
            },
            {
              "name": "relayerRewardAmount",
              "type": "uint256"
            },
            {
              "name": "expires",
              "type": "uint256"
            },
            {
              "name": "nonce",
              "type": "uint256"
            }
          ],
          "name": "packet",
          "type": "tuple"
        },
        {
          "name": "signature",
          "type": "bytes"
        }
      ],
      "name": "approveTokensWithSignature",
      "outputs": [
        {
          "name": "success",
          "type": "bool"
        }
      ],
      "payable": false,
      "stateMutability": "nonpayable",
      "type": "function"
    },
    {
      "constant": false,
      "inputs": [
        {
          "components": [
            {
              "name": "methodName",
              "type": "bytes"
            },
            {
              "name": "relayAuthority",
              "type": "address"
            },
            {
              "name": "from",
              "type": "address"
            },
            {
              "name": "to",
              "type": "address"
            },
            {
              "name": "wallet",
              "type": "address"
            },
            {
              "name": "token",
              "type": "address"
            },
            {
              "name": "tokens",
              "type": "uint256"
            },
            {
              "name": "relayerRewardToken",
              "type": "address"
            },
            {
              "name": "relayerRewardAmount",
              "type": "uint256"
            },
            {
              "name": "expires",
              "type": "uint256"
            },
            {
              "name": "nonce",
              "type": "uint256"
            }
          ],
          "name": "packet",
          "type": "tuple"
        },
        {
          "name": "signature",
          "type": "bytes"
        }
      ],
      "name": "transferTokensWithSignature",
      "outputs": [
        {
          "name": "success",
          "type": "bool"
        }
      ],
      "payable": false,
      "stateMutability": "nonpayable",
      "type": "function"
    },
    {
      "constant": false,
      "inputs": [
        {
          "components": [
            {
              "name": "methodName",
              "type": "bytes"
            },
            {
              "name": "relayAuthority",
              "type": "address"
            },
            {
              "name": "from",
              "type": "address"
            },
            {
              "name": "to",
              "type": "address"
            },
            {
              "name": "wallet",
              "type": "address"
            },
            {
              "name": "token",
              "type": "address"
            },
            {
              "name": "tokens",
              "type": "uint256"
            },
            {
              "name": "relayerRewardToken",
              "type": "address"
            },
            {
              "name": "relayerRewardAmount",
              "type": "uint256"
            },
            {
              "name": "expires",
              "type": "uint256"
            },
            {
              "name": "nonce",
              "type": "uint256"
            }
          ],
          "name": "packet",
          "type": "tuple"
        },
        {
          "name": "signature",
          "type": "bytes"
        }
      ],
      "name": "withdrawTokensWithSignature",
      "outputs": [
        {
          "name": "success",
          "type": "bool"
        }
      ],
      "payable": false,
      "stateMutability": "nonpayable",
      "type": "function"
    },
    {
      "constant": false,
      "inputs": [
        {
          "components": [
            {
              "name": "methodName",
              "type": "bytes"
            },
            {
              "name": "relayAuthority",
              "type": "address"
            },
            {
              "name": "from",
              "type": "address"
            },
            {
              "name": "to",
              "type": "address"
            },
            {
              "name": "wallet",
              "type": "address"
            },
            {
              "name": "token",
              "type": "address"
            },
            {
              "name": "tokens",
              "type": "uint256"
            },
            {
              "name": "relayerRewardToken",
              "type": "address"
            },
            {
              "name": "relayerRewardAmount",
              "type": "uint256"
            },
            {
              "name": "expires",
              "type": "uint256"
            },
            {
              "name": "nonce",
              "type": "uint256"
            }
          ],
          "name": "packet",
          "type": "tuple"
        },
        {
          "name": "signature",
          "type": "bytes"
        }
      ],
      "name": "burnSignature",
      "outputs": [
        {
          "name": "success",
          "type": "bool"
        }
      ],
      "payable": false,
      "stateMutability": "nonpayable",
      "type": "function"
    },
    {
      "constant": true,
      "inputs": [
        {
          "name": "digest",
          "type": "bytes32"
        }
      ],
      "name": "signatureBurnStatus",
      "outputs": [
        {
          "name": "",
          "type": "uint256"
        }
      ],
      "payable": false,
      "stateMutability": "view",
      "type": "function"
    },
    {
      "constant": false,
      "inputs": [
        {
          "name": "from",
          "type": "address"
        },
        {
          "name": "tokens",
          "type": "uint256"
        },
        {
          "name": "token",
          "type": "address"
        },
        {
          "name": "data",
          "type": "bytes"
        }
      ],
      "name": "receiveApproval",
      "outputs": [
        {
          "name": "success",
          "type": "bool"
        }
      ],
      "payable": false,
      "stateMutability": "nonpayable",
      "type": "function"
    },
    {
      "constant": false,
      "inputs": [
        {
          "components": [
            {
              "name": "methodName",
              "type": "bytes"
            },
            {
              "name": "relayAuthority",
              "type": "address"
            },
            {
              "name": "from",
              "type": "address"
            },
            {
              "name": "to",
              "type": "address"
            },
            {
              "name": "wallet",
              "type": "address"
            },
            {
              "name": "token",
              "type": "address"
            },
            {
              "name": "tokens",
              "type": "uint256"
            },
            {
              "name": "relayerRewardToken",
              "type": "address"
            },
            {
              "name": "relayerRewardAmount",
              "type": "uint256"
            },
            {
              "name": "expires",
              "type": "uint256"
            },
            {
              "name": "nonce",
              "type": "uint256"
            }
          ],
          "name": "packet",
          "type": "tuple"
        },
        {
          "name": "signature",
          "type": "bytes"
        }
      ],
      "name": "approveAndCall",
      "outputs": [
        {
          "name": "success",
          "type": "bool"
        }
      ],
      "payable": false,
      "stateMutability": "nonpayable",
      "type": "function"
    }
  ],
  "bytecode": "0x60806040523480156200001157600080fd5b506040516020806200362983398101806040526200003391908101906200026e565b80600360006101000a81548173ffffffffffffffffffffffffffffffffffffffff021916908373ffffffffffffffffffffffffffffffffffffffff160217905550620000ed60408051908101604052806040805190810160405280600b81526020017f4c6176612057616c6c657400000000000000000000000000000000000000000081525081526020013073ffffffffffffffffffffffffffffffffffffffff16815250620000fe640100000000026401000000009004565b600481600019169055505062000343565b600060405180807f454950373132446f6d61696e28737472696e67206e616d652c6164647265737381526020017f20766572696679696e67436f6e747261637429000000000000000000000000008152506033019050604051809103902082600001516040518082805190602001908083835b60208310151562000198578051825260208201915060208101905060208303925062000171565b6001836020036101000a03801982511681845116808217855250505050505090500191505060405180910390208360200151604051602001620001de93929190620002bc565b6040516020818303038152906040526040518082805190602001908083835b602083101515620002245780518252602082019150602081019050602083039250620001fd565b6001836020036101000a03801982511681845116808217855250505050505090500191505060405180910390209050919050565b600062000266825162000323565b905092915050565b6000602082840312156200028157600080fd5b6000620002918482850162000258565b91505092915050565b620002a581620002f9565b82525050565b620002b68162000319565b82525050565b6000606082019050620002d36000830186620002ab565b620002e26020830185620002ab565b620002f160408301846200029a565b949350505050565b600073ffffffffffffffffffffffffffffffffffffffff82169050919050565b6000819050919050565b600073ffffffffffffffffffffffffffffffffffffffff82169050919050565b6132d680620003536000396000f300608060405260043610610112576000357c0100000000000000000000000000000000000000000000000000000000900463ffffffff16806306b091f914610117578063094171101461015457806339dc5ef2146101915780633fb75b63146101ce57806346bc07a41461020b5780634b17bdd8146102485780635a26ab2c146102855780636eecb7c2146102c257806383f15d4c146102ed5780638f4ffcb11461032a578063912d6e2814610367578063927da105146103a4578063a2332de0146103e1578063a64b6e5f1461041e578063a9d66ce61461045b578063b0e0ef0914610498578063c375ba8a146104d5578063c5c1abd914610500578063f7888aec1461053d578063f80955bb1461057a575b600080fd5b34801561012357600080fd5b5061013e60048036036101399190810190612b23565b6105b7565b60405161014b9190612e9b565b60405180910390f35b34801561016057600080fd5b5061017b60048036036101769190810190612c03565b61083c565b6040516101889190613007565b60405180910390f35b34801561019d57600080fd5b506101b860048036036101b39190810190612ad4565b610861565b6040516101c59190612e9b565b60405180910390f35b3480156101da57600080fd5b506101f560048036036101f09190810190612cae565b610ae9565b6040516102029190612e9b565b60405180910390f35b34801561021757600080fd5b50610232600480360361022d9190810190612cae565b610b8d565b60405161023f9190612e9b565b60405180910390f35b34801561025457600080fd5b5061026f600480360361026a9190810190612a71565b610c0a565b60405161027c9190612e9b565b60405180910390f35b34801561029157600080fd5b506102ac60048036036102a79190810190612c2c565b611022565b6040516102b99190612eb6565b60405180910390f35b3480156102ce57600080fd5b506102d7611176565b6040516102e49190612eb6565b60405180910390f35b3480156102f957600080fd5b50610314600480360361030f9190810190612c6d565b6111d9565b6040516103219190612eb6565b60405180910390f35b34801561033657600080fd5b50610351600480360361034c9190810190612b5f565b6112b3565b60405161035e9190612e9b565b60405180910390f35b34801561037357600080fd5b5061038e60048036036103899190810190612ad4565b6112ca565b60405161039b9190612e9b565b60405180910390f35b3480156103b057600080fd5b506103cb60048036036103c69190810190612a22565b6113fc565b6040516103d89190613007565b60405180910390f35b3480156103ed57600080fd5b5061040860048036036104039190810190612cae565b6114c1565b6040516104159190612e9b565b60405180910390f35b34801561042a57600080fd5b5061044560048036036104409190810190612ad4565b611591565b6040516104529190612e9b565b60405180910390f35b34801561046757600080fd5b50610482600480360361047d9190810190612cae565b61181f565b60405161048f9190612e9b565b60405180910390f35b3480156104a457600080fd5b506104bf60048036036104ba9190810190612a71565b6118c3565b6040516104cc9190612e9b565b60405180910390f35b3480156104e157600080fd5b506104ea611cd3565b6040516104f79190612eb6565b60405180910390f35b34801561050c57600080fd5b5061052760048036036105229190810190612c6d565b611cf3565b6040516105349190612eb6565b60405180910390f35b34801561054957600080fd5b50610564600480360361055f91908101906129e6565b611e3d565b6040516105719190613007565b60405180910390f35b34801561058657600080fd5b506105a1600480360361059c9190810190612cae565b611ec3565b6040516105ae9190612e9b565b60405180910390f35b6000610647826000808673ffffffffffffffffffffffffffffffffffffffff1673ffffffffffffffffffffffffffffffffffffffff16815260200190815260200160002060003373ffffffffffffffffffffffffffffffffffffffff1673ffffffffffffffffffffffffffffffffffffffff16815260200190815260200160002054611fb690919063ffffffff16565b6000808573ffffffffffffffffffffffffffffffffffffffff1673ffffffffffffffffffffffffffffffffffffffff16815260200190815260200160002060003373ffffffffffffffffffffffffffffffffffffffff1673ffffffffffffffffffffffffffffffffffffffff168152602001908152602001600020819055508273ffffffffffffffffffffffffffffffffffffffff1663a9059cbb33846040518363ffffffff167c010000000000000000000000000000000000000000000000000000000002815260040161071d929190612e26565b602060405180830381600087803b15801561073757600080fd5b505af115801561074b573d6000803e3d6000fd5b505050506040513d601f19601f8201168201806040525061076f9190810190612bda565b151561077a57600080fd5b7ff341246adaac6f497bc2a656f546ab9e182111d630394f0c57c710a59a2cb5678333846000808873ffffffffffffffffffffffffffffffffffffffff1673ffffffffffffffffffffffffffffffffffffffff16815260200190815260200160002060003373ffffffffffffffffffffffffffffffffffffffff1673ffffffffffffffffffffffffffffffffffffffff1681526020019081526020016000205460405161082a9493929190612daa565b60405180910390a16001905092915050565b6000600260008360001916600019168152602001908152602001600020549050919050565b60008273ffffffffffffffffffffffffffffffffffffffff166323b872dd8530856040518463ffffffff167c01000000000000000000000000000000000000000000000000000000000281526004016108bc93929190612def565b602060405180830381600087803b1580156108d657600080fd5b505af11580156108ea573d6000803e3d6000fd5b505050506040513d601f19601f8201168201806040525061090e9190810190612bda565b151561091957600080fd5b6109a7826000808673ffffffffffffffffffffffffffffffffffffffff1673ffffffffffffffffffffffffffffffffffffffff16815260200190815260200160002060008773ffffffffffffffffffffffffffffffffffffffff1673ffffffffffffffffffffffffffffffffffffffff16815260200190815260200160002054611fcf90919063ffffffff16565b6000808573ffffffffffffffffffffffffffffffffffffffff1673ffffffffffffffffffffffffffffffffffffffff16815260200190815260200160002060008673ffffffffffffffffffffffffffffffffffffffff1673ffffffffffffffffffffffffffffffffffffffff168152602001908152602001600020819055507fdcbc1c05240f31ff3ad067ef1ee35ce4997762752e3a095284754544f4c709d78385846000808873ffffffffffffffffffffffffffffffffffffffff1673ffffffffffffffffffffffffffffffffffffffff16815260200190815260200160002060008973ffffffffffffffffffffffffffffffffffffffff1673ffffffffffffffffffffffffffffffffffffffff16815260200190815260200160002054604051610ad69493929190612daa565b60405180910390a1600190509392505050565b600080610b2f6040805190810160405280600881526020017f77697468647261770000000000000000000000000000000000000000000000008152508560000151611fed565b1515610b3a57600080fd5b610b43846111d9565b9050610b50848285612131565b1515610b5b57600080fd5b610b77846040015185606001518660a001518760c001516118c3565b1515610b8257600080fd5b600191505092915050565b600080610bd36040805190810160405280600781526020017f617070726f7665000000000000000000000000000000000000000000000000008152508560000151611fed565b1515610bde57600080fd5b610be7846111d9565b9050610bf4848285612131565b1515610bff57600080fd5b600191505092915050565b6000610c9a826000808673ffffffffffffffffffffffffffffffffffffffff1673ffffffffffffffffffffffffffffffffffffffff16815260200190815260200160002060008873ffffffffffffffffffffffffffffffffffffffff1673ffffffffffffffffffffffffffffffffffffffff16815260200190815260200160002054611fb690919063ffffffff16565b6000808573ffffffffffffffffffffffffffffffffffffffff1673ffffffffffffffffffffffffffffffffffffffff16815260200190815260200160002060008773ffffffffffffffffffffffffffffffffffffffff1673ffffffffffffffffffffffffffffffffffffffff16815260200190815260200160002081905550610de582600160008673ffffffffffffffffffffffffffffffffffffffff1673ffffffffffffffffffffffffffffffffffffffff16815260200190815260200160002060008873ffffffffffffffffffffffffffffffffffffffff1673ffffffffffffffffffffffffffffffffffffffff16815260200190815260200160002060008773ffffffffffffffffffffffffffffffffffffffff1673ffffffffffffffffffffffffffffffffffffffff16815260200190815260200160002054611fb690919063ffffffff16565b600160008573ffffffffffffffffffffffffffffffffffffffff1673ffffffffffffffffffffffffffffffffffffffff16815260200190815260200160002060008773ffffffffffffffffffffffffffffffffffffffff1673ffffffffffffffffffffffffffffffffffffffff16815260200190815260200160002060008673ffffffffffffffffffffffffffffffffffffffff1673ffffffffffffffffffffffffffffffffffffffff16815260200190815260200160002081905550610f30826000808673ffffffffffffffffffffffffffffffffffffffff1673ffffffffffffffffffffffffffffffffffffffff16815260200190815260200160002060008773ffffffffffffffffffffffffffffffffffffffff1673ffffffffffffffffffffffffffffffffffffffff16815260200190815260200160002054611fcf90919063ffffffff16565b6000808573ffffffffffffffffffffffffffffffffffffffff1673ffffffffffffffffffffffffffffffffffffffff16815260200190815260200160002060008673ffffffffffffffffffffffffffffffffffffffff1673ffffffffffffffffffffffffffffffffffffffff168152602001908152602001600020819055508473ffffffffffffffffffffffffffffffffffffffff168373ffffffffffffffffffffffffffffffffffffffff167fd1398bee19313d6bf672ccb116e51f4a1a947e91c757907f51fbb5b5e56c698f868560405161100e929190612e26565b60405180910390a360019050949350505050565b600060405180807f454950373132446f6d61696e28737472696e67206e616d652c6164647265737381526020017f20766572696679696e67436f6e747261637429000000000000000000000000008152506033019050604051809103902082600001516040518082805190602001908083835b6020831015156110ba5780518252602082019150602081019050602083039250611095565b6001836020036101000a038019825116818451168082178552505050505050905001915050604051809103902083602001516040516020016110fe93929190612ed1565b6040516020818303038152906040526040518082805190602001908083835b602083101515611142578051825260208201915060208101905060208303925061111d565b6001836020036101000a03801982511681845116808217855250505050505090500191505060405180910390209050919050565b600060405180807f454950373132446f6d61696e28737472696e67206e616d652c6164647265737381526020017f20766572696679696e67436f6e7472616374290000000000000000000000000081525060330190506040518091039020905090565b6000806004546111e884611cf3565b60405160200180807f190100000000000000000000000000000000000000000000000000000000000081525060020183600019166000191681526020018260001916600019168152602001925050506040516020818303038152906040526040518082805190602001908083835b60208310151561127b5780518252602082019150602081019050602083039250611256565b6001836020036101000a0380198251168184511680821785525050505050509050019150506040518091039020905080915050919050565b60006112c0858486610861565b9050949350505050565b600081600160008573ffffffffffffffffffffffffffffffffffffffff1673ffffffffffffffffffffffffffffffffffffffff16815260200190815260200160002060003373ffffffffffffffffffffffffffffffffffffffff1673ffffffffffffffffffffffffffffffffffffffff16815260200190815260200160002060008673ffffffffffffffffffffffffffffffffffffffff1673ffffffffffffffffffffffffffffffffffffffff168152602001908152602001600020819055508273ffffffffffffffffffffffffffffffffffffffff163373ffffffffffffffffffffffffffffffffffffffff167fa0175360a15bca328baf7ea85c7b784d58b222a50d0ce760b10dba336d226a6186856040516113e9929190612e26565b60405180910390a3600190509392505050565b6000600160008573ffffffffffffffffffffffffffffffffffffffff1673ffffffffffffffffffffffffffffffffffffffff16815260200190815260200160002060008473ffffffffffffffffffffffffffffffffffffffff1673ffffffffffffffffffffffffffffffffffffffff16815260200190815260200160002060008373ffffffffffffffffffffffffffffffffffffffff1673ffffffffffffffffffffffffffffffffffffffff1681526020019081526020016000205490509392505050565b6000806114cd846111d9565b90506114da848285612131565b15156114e557600080fd5b836060015173ffffffffffffffffffffffffffffffffffffffff16638f4ffcb185604001518660c001518760a0015188600001516040518563ffffffff167c01000000000000000000000000000000000000000000000000000000000281526004016115549493929190612e4f565b600060405180830381600087803b15801561156e57600080fd5b505af1158015611582573d6000803e3d6000fd5b50505050600191505092915050565b6000611621826000808673ffffffffffffffffffffffffffffffffffffffff1673ffffffffffffffffffffffffffffffffffffffff16815260200190815260200160002060003373ffffffffffffffffffffffffffffffffffffffff1673ffffffffffffffffffffffffffffffffffffffff16815260200190815260200160002054611fb690919063ffffffff16565b6000808573ffffffffffffffffffffffffffffffffffffffff1673ffffffffffffffffffffffffffffffffffffffff16815260200190815260200160002060003373ffffffffffffffffffffffffffffffffffffffff1673ffffffffffffffffffffffffffffffffffffffff1681526020019081526020016000208190555061172e826000808673ffffffffffffffffffffffffffffffffffffffff1673ffffffffffffffffffffffffffffffffffffffff16815260200190815260200160002060008773ffffffffffffffffffffffffffffffffffffffff1673ffffffffffffffffffffffffffffffffffffffff16815260200190815260200160002054611fcf90919063ffffffff16565b6000808573ffffffffffffffffffffffffffffffffffffffff1673ffffffffffffffffffffffffffffffffffffffff16815260200190815260200160002060008673ffffffffffffffffffffffffffffffffffffffff1673ffffffffffffffffffffffffffffffffffffffff168152602001908152602001600020819055508273ffffffffffffffffffffffffffffffffffffffff163373ffffffffffffffffffffffffffffffffffffffff167fd1398bee19313d6bf672ccb116e51f4a1a947e91c757907f51fbb5b5e56c698f868560405161180c929190612e26565b60405180910390a3600190509392505050565b6000806118656040805190810160405280600881526020017f7472616e736665720000000000000000000000000000000000000000000000008152508560000151611fed565b151561187057600080fd5b611879846111d9565b9050611886848285612131565b151561189157600080fd5b6118ad846040015185606001518660a001518760c00151610c0a565b15156118b857600080fd5b600191505092915050565b6000611953826000808673ffffffffffffffffffffffffffffffffffffffff1673ffffffffffffffffffffffffffffffffffffffff16815260200190815260200160002060008873ffffffffffffffffffffffffffffffffffffffff1673ffffffffffffffffffffffffffffffffffffffff16815260200190815260200160002054611fb690919063ffffffff16565b6000808573ffffffffffffffffffffffffffffffffffffffff1673ffffffffffffffffffffffffffffffffffffffff16815260200190815260200160002060008773ffffffffffffffffffffffffffffffffffffffff1673ffffffffffffffffffffffffffffffffffffffff16815260200190815260200160002081905550611a9e82600160008673ffffffffffffffffffffffffffffffffffffffff1673ffffffffffffffffffffffffffffffffffffffff16815260200190815260200160002060008873ffffffffffffffffffffffffffffffffffffffff1673ffffffffffffffffffffffffffffffffffffffff16815260200190815260200160002060008773ffffffffffffffffffffffffffffffffffffffff1673ffffffffffffffffffffffffffffffffffffffff16815260200190815260200160002054611fb690919063ffffffff16565b600160008573ffffffffffffffffffffffffffffffffffffffff1673ffffffffffffffffffffffffffffffffffffffff16815260200190815260200160002060008773ffffffffffffffffffffffffffffffffffffffff1673ffffffffffffffffffffffffffffffffffffffff16815260200190815260200160002060008673ffffffffffffffffffffffffffffffffffffffff1673ffffffffffffffffffffffffffffffffffffffff168152602001908152602001600020819055508273ffffffffffffffffffffffffffffffffffffffff1663a9059cbb85846040518363ffffffff167c0100000000000000000000000000000000000000000000000000000000028152600401611bb2929190612e26565b602060405180830381600087803b158015611bcc57600080fd5b505af1158015611be0573d6000803e3d6000fd5b505050506040513d601f19601f82011682018060405250611c049190810190612bda565b1515611c0f57600080fd5b7ff341246adaac6f497bc2a656f546ab9e182111d630394f0c57c710a59a2cb5678386846000808873ffffffffffffffffffffffffffffffffffffffff1673ffffffffffffffffffffffffffffffffffffffff16815260200190815260200160002060008a73ffffffffffffffffffffffffffffffffffffffff1673ffffffffffffffffffffffffffffffffffffffff16815260200190815260200160002054604051611cbf9493929190612daa565b60405180910390a160019050949350505050565b600060405180806131d160cc913960cc0190506040518091039020905090565b600060405180806131d160cc913960cc019050604051809103902082600001516040518082805190602001908083835b602083101515611d485780518252602082019150602081019050602083039250611d23565b6001836020036101000a038019825116818451168082178552505050505050905001915050604051809103902083602001518460400151856060015186608001518760a001518860c001518960e001518a61010001518b61012001518c6101400151604051602001611dc59c9b9a99989796959493929190612f08565b6040516020818303038152906040526040518082805190602001908083835b602083101515611e095780518252602082019150602081019050602083039250611de4565b6001836020036101000a03801982511681845116808217855250505050505090500191505060405180910390209050919050565b60008060008473ffffffffffffffffffffffffffffffffffffffff1673ffffffffffffffffffffffffffffffffffffffff16815260200190815260200160002060008373ffffffffffffffffffffffffffffffffffffffff1673ffffffffffffffffffffffffffffffffffffffff16815260200190815260200160002054905092915050565b600080600080611ed2866111d9565b9250611ede83866125f8565b9150856040015173ffffffffffffffffffffffffffffffffffffffff168273ffffffffffffffffffffffffffffffffffffffff16141515611f1e57600080fd5b3373ffffffffffffffffffffffffffffffffffffffff16866040015173ffffffffffffffffffffffffffffffffffffffff16141515611f5c57600080fd5b6002600084600019166000191681526020019081526020016000205490506002806000856000191660001916815260200190815260200160002081905550600081141515611fa957600080fd5b6001935050505092915050565b6000828211151515611fc457fe5b818303905092915050565b6000808284019050838110151515611fe357fe5b8091505092915050565b60008082518451141515612004576000915061212a565b600090505b835181101561212557828181518110151561202057fe5b9060200101517f010000000000000000000000000000000000000000000000000000000000000090047f0100000000000000000000000000000000000000000000000000000000000000027effffffffffffffffffffffffffffffffffffffffffffffffffffffffffffff1916848281518110151561209b57fe5b9060200101517f010000000000000000000000000000000000000000000000000000000000000090047f0100000000000000000000000000000000000000000000000000000000000000027effffffffffffffffffffffffffffffffffffffffffffffffffffffffffffff1916141515612118576000915061212a565b8080600101915050612009565b600191505b5092915050565b600080600080866020015173ffffffffffffffffffffffffffffffffffffffff1614806121a3575061216686602001516126c0565b1580156121a25750856020015173ffffffffffffffffffffffffffffffffffffffff163373ffffffffffffffffffffffffffffffffffffffff16145b5b8061228d57506121b686602001516126c0565b801561228c5750856020015173ffffffffffffffffffffffffffffffffffffffff16638c0636866040518163ffffffff167c0100000000000000000000000000000000000000000000000000000000028152600401602060405180830381600087803b15801561222557600080fd5b505af1158015612239573d6000803e3d6000fd5b505050506040513d601f19601f8201168201806040525061225d91908101906129bd565b73ffffffffffffffffffffffffffffffffffffffff163373ffffffffffffffffffffffffffffffffffffffff16145b5b151561229857600080fd5b6122a285856125f8565b91508173ffffffffffffffffffffffffffffffffffffffff16866040015173ffffffffffffffffffffffffffffffffffffffff161415156122e257600080fd5b856101200151431015156122f557600080fd5b60026000866000191660001916815260200190815260200160002054905060016002600087600019166000191681526020019081526020016000208190555060008114151561234357600080fd5b856101000151600160008860e0015173ffffffffffffffffffffffffffffffffffffffff1673ffffffffffffffffffffffffffffffffffffffff1681526020019081526020016000206000886040015173ffffffffffffffffffffffffffffffffffffffff1673ffffffffffffffffffffffffffffffffffffffff16815260200190815260200160002060003373ffffffffffffffffffffffffffffffffffffffff1673ffffffffffffffffffffffffffffffffffffffff168152602001908152602001600020819055508560e0015173ffffffffffffffffffffffffffffffffffffffff16866040015173ffffffffffffffffffffffffffffffffffffffff167fa0175360a15bca328baf7ea85c7b784d58b222a50d0ce760b10dba336d226a613389610100015160405161247a929190612e26565b60405180910390a361249b8660400151338860e00151896101000151610c0a565b15156124a657600080fd5b8560c00151600160008860a0015173ffffffffffffffffffffffffffffffffffffffff1673ffffffffffffffffffffffffffffffffffffffff1681526020019081526020016000206000886040015173ffffffffffffffffffffffffffffffffffffffff1673ffffffffffffffffffffffffffffffffffffffff1681526020019081526020016000206000886060015173ffffffffffffffffffffffffffffffffffffffff1673ffffffffffffffffffffffffffffffffffffffff168152602001908152602001600020819055508560a0015173ffffffffffffffffffffffffffffffffffffffff16866040015173ffffffffffffffffffffffffffffffffffffffff167fa0175360a15bca328baf7ea85c7b784d58b222a50d0ce760b10dba336d226a6188606001518960c001516040516125e3929190612e26565b60405180910390a36001925050509392505050565b6000806000806041855114151561261257600093506126b7565b6020850151925060408501519150606085015160001a9050601b8160ff16101561263d57601b810190505b601b8160ff16141580156126555750601c8160ff1614155b1561266357600093506126b7565b600186828585604051600081526020016040526040516126869493929190612fc2565b60206040516020810390808403906000865af11580156126aa573d6000803e3d6000fd5b5050506020604051035193505b50505092915050565b600080823b905060008111915050919050565b60006126df823561312b565b905092915050565b60006126f3825161312b565b905092915050565b6000612707825161314b565b905092915050565b600061271b8235613157565b905092915050565b600082601f830112151561273657600080fd5b81356127496127448261304f565b613022565b9150808252602083016020830185838301111561276557600080fd5b61277083828461317d565b50505092915050565b600082601f830112151561278c57600080fd5b813561279f61279a8261307b565b613022565b915080825260208301602083018583830111156127bb57600080fd5b6127c683828461317d565b50505092915050565b600082601f83011215156127e257600080fd5b81356127f56127f0826130a7565b613022565b9150808252602083016020830185838301111561281157600080fd5b61281c83828461317d565b50505092915050565b60006040828403121561283757600080fd5b6128416040613022565b9050600082013567ffffffffffffffff81111561285d57600080fd5b612869848285016127cf565b600083015250602061287d848285016126d3565b60208301525092915050565b6000610160828403121561289c57600080fd5b6128a7610160613022565b9050600082013567ffffffffffffffff8111156128c357600080fd5b6128cf84828501612723565b60008301525060206128e3848285016126d3565b60208301525060406128f7848285016126d3565b604083015250606061290b848285016126d3565b606083015250608061291f848285016126d3565b60808301525060a0612933848285016126d3565b60a08301525060c0612947848285016129a9565b60c08301525060e061295b848285016126d3565b60e083015250610100612970848285016129a9565b61010083015250610120612986848285016129a9565b6101208301525061014061299c848285016129a9565b6101408301525092915050565b60006129b58235613161565b905092915050565b6000602082840312156129cf57600080fd5b60006129dd848285016126e7565b91505092915050565b600080604083850312156129f957600080fd5b6000612a07858286016126d3565b9250506020612a18858286016126d3565b9150509250929050565b600080600060608486031215612a3757600080fd5b6000612a45868287016126d3565b9350506020612a56868287016126d3565b9250506040612a67868287016126d3565b9150509250925092565b60008060008060808587031215612a8757600080fd5b6000612a95878288016126d3565b9450506020612aa6878288016126d3565b9350506040612ab7878288016126d3565b9250506060612ac8878288016129a9565b91505092959194509250565b600080600060608486031215612ae957600080fd5b6000612af7868287016126d3565b9350506020612b08868287016126d3565b9250506040612b19868287016129a9565b9150509250925092565b60008060408385031215612b3657600080fd5b6000612b44858286016126d3565b9250506020612b55858286016129a9565b9150509250929050565b60008060008060808587031215612b7557600080fd5b6000612b83878288016126d3565b9450506020612b94878288016129a9565b9350506040612ba5878288016126d3565b925050606085013567ffffffffffffffff811115612bc257600080fd5b612bce87828801612779565b91505092959194509250565b600060208284031215612bec57600080fd5b6000612bfa848285016126fb565b91505092915050565b600060208284031215612c1557600080fd5b6000612c238482850161270f565b91505092915050565b600060208284031215612c3e57600080fd5b600082013567ffffffffffffffff811115612c5857600080fd5b612c6484828501612825565b91505092915050565b600060208284031215612c7f57600080fd5b600082013567ffffffffffffffff811115612c9957600080fd5b612ca584828501612889565b91505092915050565b60008060408385031215612cc157600080fd5b600083013567ffffffffffffffff811115612cdb57600080fd5b612ce785828601612889565b925050602083013567ffffffffffffffff811115612d0457600080fd5b612d1085828601612779565b9150509250929050565b612d23816130de565b82525050565b612d32816130fe565b82525050565b612d418161310a565b82525050565b6000612d52826130d3565b808452612d6681602086016020860161318c565b612d6f816131bf565b602085010191505092915050565b612d868161316b565b82525050565b612d9581613114565b82525050565b612da48161311e565b82525050565b6000608082019050612dbf6000830187612d1a565b612dcc6020830186612d1a565b612dd96040830185612d8c565b612de66060830184612d8c565b95945050505050565b6000606082019050612e046000830186612d1a565b612e116020830185612d7d565b612e1e6040830184612d8c565b949350505050565b6000604082019050612e3b6000830185612d1a565b612e486020830184612d8c565b9392505050565b6000608082019050612e646000830187612d1a565b612e716020830186612d8c565b612e7e6040830185612d1a565b8181036060830152612e908184612d47565b905095945050505050565b6000602082019050612eb06000830184612d29565b92915050565b6000602082019050612ecb6000830184612d38565b92915050565b6000606082019050612ee66000830186612d38565b612ef36020830185612d38565b612f006040830184612d1a565b949350505050565b600061018082019050612f1e600083018f612d38565b612f2b602083018e612d38565b612f38604083018d612d1a565b612f45606083018c612d1a565b612f52608083018b612d1a565b612f5f60a083018a612d1a565b612f6c60c0830189612d1a565b612f7960e0830188612d8c565b612f87610100830187612d1a565b612f95610120830186612d8c565b612fa3610140830185612d8c565b612fb1610160830184612d8c565b9d9c50505050505050505050505050565b6000608082019050612fd76000830187612d38565b612fe46020830186612d9b565b612ff16040830185612d38565b612ffe6060830184612d38565b95945050505050565b600060208201905061301c6000830184612d8c565b92915050565b6000604051905081810181811067ffffffffffffffff8211171561304557600080fd5b8060405250919050565b600067ffffffffffffffff82111561306657600080fd5b601f19601f8301169050602081019050919050565b600067ffffffffffffffff82111561309257600080fd5b601f19601f8301169050602081019050919050565b600067ffffffffffffffff8211156130be57600080fd5b601f19601f8301169050602081019050919050565b600081519050919050565b600073ffffffffffffffffffffffffffffffffffffffff82169050919050565b60008115159050919050565b6000819050919050565b6000819050919050565b600060ff82169050919050565b600073ffffffffffffffffffffffffffffffffffffffff82169050919050565b60008115159050919050565b6000819050919050565b6000819050919050565b6000613176826130de565b9050919050565b82818337600083830152505050565b60005b838110156131aa57808201518184015260208101905061318f565b838111156131b9576000848401525b50505050565b6000601f19601f830116905091905056004c6176615061636b6574286279746573206d6574686f644e616d652c616464726573732072656c6179417574686f726974792c616464726573732066726f6d2c6164647265737320746f2c616464726573732077616c6c65742c6164647265737320746f6b656e2c75696e7432353620746f6b656e732c616464726573732072656c61796572526577617264546f6b656e2c75696e743235362072656c61796572526577617264416d6f756e742c75696e7432353620657870697265732c75696e74323536206e6f6e636529a265627a7a72305820653927c7f3fd3b1cc3dd3bc3e8a1ffae1dffa1a200f8566f4a75233e5c6c49606c6578706572696d656e74616cf50037",
  "source": "pragma solidity ^0.4.24;\n\n\npragma experimental ABIEncoderV2;\n\n/**\n * @title SafeMath\n * @dev Math operations with safety checks that throw on error\n */\nlibrary SafeMath {\n\n  /**\n  * @dev Multiplies two numbers, throws on overflow.\n  */\n  function mul(uint256 a, uint256 b) internal pure returns (uint256) {\n    if (a == 0) {\n      return 0;\n    }\n    uint256 c = a * b;\n    assert(c / a == b);\n    return c;\n  }\n\n  /**\n  * @dev Integer division of two numbers, truncating the quotient.\n  */\n  function div(uint256 a, uint256 b) internal pure returns (uint256) {\n    // assert(b > 0); // Solidity automatically throws when dividing by 0\n    uint256 c = a / b;\n    // assert(a == b * c + a % b); // There is no case in which this doesn't hold\n    return c;\n  }\n\n  /**\n  * @dev Substracts two numbers, throws on overflow (i.e. if subtrahend is greater than minuend).\n  */\n  function sub(uint256 a, uint256 b) internal pure returns (uint256) {\n    assert(b <= a);\n    return a - b;\n  }\n\n  /**\n  * @dev Adds two numbers, throws on overflow.\n  */\n  function add(uint256 a, uint256 b) internal pure returns (uint256) {\n    uint256 c = a + b;\n    assert(c >= a);\n    return c;\n  }\n}\n\n\ncontract ECRecovery {\n\n  /**\n   * @dev Recover signer address from a message by using their signature\n   * @param hash bytes32 message, the hash is the signed message. What is recovered is the signer address.\n   * @param sig bytes signature, the signature is generated using web3.eth.sign()\n   */\n  function recover(bytes32 hash, bytes sig) internal  pure returns (address) {\n    bytes32 r;\n    bytes32 s;\n    uint8 v;\n\n    //Check the signature length\n    if (sig.length != 65) {\n      return (address(0));\n    }\n\n    // Divide the signature in r, s and v variables\n    assembly {\n      r := mload(add(sig, 32))\n      s := mload(add(sig, 64))\n      v := byte(0, mload(add(sig, 96)))\n    }\n\n    // Version of signature should be 27 or 28, but 0 and 1 are also possible versions\n    if (v < 27) {\n      v += 27;\n    }\n\n    // If the version is correct return the signer address\n    if (v != 27 && v != 28) {\n      return (address(0));\n    } else {\n      return ecrecover(hash, v, r, s);\n    }\n  }\n\n}\n\n\n\n/*\n\nThis is a token wallet contract\n\nStore your tokens in this contract to give them super powers\n\nTokens can be spent from the contract with only an ecSignature from the owner - onchain approve is not needed\n\n\n*/\n\ncontract ERC20Interface {\n    function totalSupply() public constant returns (uint);\n    function balanceOf(address tokenOwner) public constant returns (uint balance);\n    function allowance(address tokenOwner, address spender) public constant returns (uint remaining);\n    function transfer(address to, uint tokens) public returns (bool success);\n    function approve(address spender, uint tokens) public returns (bool success);\n    function transferFrom(address from, address to, uint tokens) public returns (bool success);\n\n    event Transfer(address indexed from, address indexed to, uint tokens);\n    event Approval(address indexed tokenOwner, address indexed spender, uint tokens);\n}\ncontract ERC918Interface {\n  function totalSupply() public constant returns (uint);\n  function getMiningDifficulty() public constant returns (uint);\n  function getMiningTarget() public constant returns (uint);\n  function getMiningReward() public constant returns (uint);\n  function balanceOf(address tokenOwner) public constant returns (uint balance);\n\n  function mint(uint256 nonce, bytes32 challenge_digest) public returns (bool success);\n\n  event Mint(address indexed from, uint reward_amount, uint epochCount, bytes32 newChallengeNumber);\n\n}\n\n/*contract MiningKingInterface {\n    function getMiningKing() public returns (address);\n    function transferKing(address newKing) public;\n    function mint(uint256 nonce, bytes32 challenge_digest) returns (bool);\n\n    event TransferKing(address from, address to);\n}*/\n\ncontract RelayAuthorityInterface {\n    function getRelayAuthority() public returns (address);\n}\n\ncontract ApproveAndCallFallBack {\n    function receiveApproval(address from, uint256 tokens, address token, bytes data) public;\n}\n\n\n\n\n\n\ncontract LavaWallet is ECRecovery{\n\n  using SafeMath for uint;\n\n  // balances[tokenContractAddress][EthereumAccountAddress] = 0\n   mapping(address => mapping (address => uint256)) balances;\n\n   //token => owner => spender : amount\n   mapping(address => mapping (address => mapping (address => uint256))) allowed;\n\n   //mapping(address => uint256) depositedTokens;\n\n   mapping(bytes32 => uint256) burnedSignatures;\n\n   address relayKingContract;\n\n  event Deposit(address token, address user, uint amount, uint balance);\n  event Withdraw(address token, address user, uint amount, uint balance);\n  event Transfer(address indexed from, address indexed to,address token, uint tokens);\n  event Approval(address indexed tokenOwner, address indexed spender,address token, uint tokens);\n\n\n\n  struct EIP712Domain {\n      string  name;\n      address verifyingContract;\n  }\n\n\n  struct LavaPacket {\n    bytes methodName;\n    address relayAuthority; //either a contract or an account\n    address from;\n    address to;\n    address wallet;  //this contract address\n    address token;\n    uint256 tokens;\n    address relayerRewardToken;\n    uint256 relayerRewardAmount;\n    uint256 expires;\n    uint256 nonce;\n  }\n\n\n  /*\n      MUST update these if architecture changes !!\n      MAKE SURE there are no spaces !\n  */\n  bytes32 constant EIP712DOMAIN_TYPEHASH = keccak256(\n      \"EIP712Domain(string name,address verifyingContract)\"\n  );\n\n  bytes32 constant LAVAPACKET_TYPEHASH = keccak256(\n      \"LavaPacket(bytes methodName,address relayAuthority,address from,address to,address wallet,address token,uint256 tokens,address relayerRewardToken,uint256 relayerRewardAmount,uint256 expires,uint256 nonce)\"\n  );\n\n\n\n  function getDomainTypehash()   pure returns (bytes32) {\n      return EIP712DOMAIN_TYPEHASH;\n  }\n\n    function getLavaPacketTypehash()   pure returns (bytes32) {\n      return LAVAPACKET_TYPEHASH;\n  }\n\n\n\n\n  function getDomainHash(EIP712Domain eip712Domain)  pure returns (bytes32) {\n        return keccak256(abi.encode(\n            EIP712DOMAIN_TYPEHASH,\n            keccak256(bytes(eip712Domain.name)),\n            eip712Domain.verifyingContract\n        ));\n    }\n\n    function getLavaPacketHash(LavaPacket packet)  pure returns (bytes32) {\n        return keccak256(abi.encode(\n            LAVAPACKET_TYPEHASH,\n            keccak256(bytes(packet.methodName)),\n            packet.relayAuthority,\n            packet.from,\n            packet.to,\n            packet.wallet,\n            packet.token,\n            packet.tokens,\n            packet.relayerRewardToken,\n            packet.relayerRewardAmount,\n            packet.expires,\n            packet.nonce\n        ));\n    }\n\n\n\n bytes32 DOMAIN_SEPARATOR;\n\nconstructor(address relayKingContractAddress )  {\n    relayKingContract = relayKingContractAddress;\n\n    DOMAIN_SEPARATOR = getDomainHash(EIP712Domain({\n           name: \"Lava Wallet\",\n           verifyingContract: this\n          // verifyingContract: 0xCcCCccccCCCCcCCCCCCcCcCccCcCCCcCcccccccC //comment this out\n       }));\n  }\n\n\n  //do not allow ether to enter\n  function() public payable {\n      revert();\n  }\n\n\n   //Remember you need pre-approval for this - nice with ApproveAndCall\n  function depositTokens(address from, address token, uint256 tokens ) public returns (bool success)\n  {\n      //we already have approval so lets do a transferFrom - transfer the tokens into this contract\n\n      if(!ERC20Interface(token).transferFrom(from, this, tokens)) revert();\n\n\n      balances[token][from] = balances[token][from].add(tokens);\n  //    depositedTokens[token] = depositedTokens[token].add(tokens);\n\n      emit Deposit(token, from, tokens, balances[token][from]);\n\n      return true;\n  }\n\n\n  //No approve needed, only from msg.sender\n  function withdrawTokens(address token, uint256 tokens) public returns (bool success){\n     balances[token][msg.sender] = balances[token][msg.sender].sub(tokens);\n\n     require(ERC20Interface(token).transfer(msg.sender, tokens));\n\n\n     emit Withdraw(token, msg.sender, tokens, balances[token][msg.sender]);\n     return true;\n  }\n\n  //Requires approval so it can be public\n  function withdrawTokensFrom( address from, address to,address token,  uint tokens) public returns (bool success) {\n       balances[token][from] = balances[token][from].sub(tokens);\n       allowed[token][from][to] = allowed[token][from][to].sub(tokens);\n\n      require(ERC20Interface(token).transfer(to, tokens));\n\n\n      emit Withdraw(token, from, tokens, balances[token][from]);\n      return true;\n  }\n\n\n  function balanceOf(address token,address user) public constant returns (uint) {\n       return balances[token][user];\n   }\n\n\n\n   function allowance(address token, address tokenOwner, address spender) public constant returns (uint remaining) {\n\n       return allowed[token][tokenOwner][spender];\n\n   }\n\n\n\n\n  //Can also be used to remove approval by using a 'tokens' value of 0.  P.S. it makes no sense to do an ApproveTokensFrom\n  function approveTokens(address spender, address token, uint tokens) public returns (bool success) {\n      allowed[token][msg.sender][spender] = tokens;\n      emit Approval(msg.sender, token, spender, tokens);\n      return true;\n  }\n\n  ///transfer tokens within the lava balances\n  //No approve needed, only from msg.sender\n   function transferTokens(address to, address token, uint tokens) public returns (bool success) {\n        balances[token][msg.sender] = balances[token][msg.sender].sub(tokens);\n        balances[token][to] = balances[token][to].add(tokens);\n        emit Transfer(msg.sender, token, to, tokens);\n        return true;\n    }\n\n\n    ///transfer tokens within the lava balances\n    //Can be public because it requires approval\n   function transferTokensFrom( address from, address to,address token,  uint tokens) public returns (bool success) {\n       balances[token][from] = balances[token][from].sub(tokens);\n       allowed[token][from][to] = allowed[token][from][to].sub(tokens);\n       balances[token][to] = balances[token][to].add(tokens);\n       emit Transfer(token, from, to, tokens);\n       return true;\n   }\n\n\n\n  // function getLavaPacket(address from,)\n\n   //This replaces getLavaTypedDataHash .. how to handle methodName?\n\n   function getLavaTypedDataHash(LavaPacket packet) public  constant returns (bytes32) {\n\n\n          // Note: we need to use `encodePacked` here instead of `encode`.\n          bytes32 digest = keccak256(abi.encodePacked(\n              \"\\x19\\x01\",\n              DOMAIN_SEPARATOR,\n              getLavaPacketHash(packet)\n          ));\n          return digest;\n      }\n\n\n\n   //Nonce is the same thing as a 'check number'\n   //EIP 712\n/*   function getLavaTypedDataHash(bytes methodName, LavaPacket packet ) public constant returns (bytes32)\n   {\n\n\n         bytes32 hardcodedSchemaHash = 0x8fd4f9177556bbc74d0710c8bdda543afd18cc84d92d64b5620d5f1881dceb37; //with methodName\n\n\n        bytes32 typedDataHash = sha3(\n            hardcodedSchemaHash,\n            sha3(methodName,packet.from,packet.to,this,packet.token,packet.tokens,packet.relayerReward,packet.expires,packet.nonce)\n          );\n\n        return typedDataHash;\n   }*/\n\n\n\n\n\n\n\n\n   function _tokenApprovalWithSignature(  LavaPacket packet, bytes32 sigHash, bytes signature) internal returns (bool success)\n   {\n\n       /*\n        Always allow relaying if the specified relayAuthority is 0.\n        If the authority address is not a contract, allow it to relay\n        If the authority address is a contract, allow its defined 'getAuthority()' delegate to relay\n       */\n\n       require( packet.relayAuthority == 0x0\n         || (!addressContainsContract(packet.relayAuthority) && msg.sender == packet.relayAuthority)\n         || (addressContainsContract(packet.relayAuthority) && msg.sender == RelayAuthorityInterface(packet.relayAuthority).getRelayAuthority())  );\n\n\n\n      address recoveredSignatureSigner = recover(sigHash,signature);\n\n\n       //make sure the signer is the depositor of the tokens\n       require(packet.from == recoveredSignatureSigner);\n\n\n       //make sure the signature has not expired\n       require(block.number < packet.expires);\n\n       uint burnedSignature = burnedSignatures[sigHash];\n       burnedSignatures[sigHash] = 0x1; //spent\n       require(burnedSignature == 0x0 );\n\n       //approve the relayer reward\n       allowed[packet.relayerRewardToken][packet.from][msg.sender] = packet.relayerRewardAmount;\n       emit Approval(packet.from, packet.relayerRewardToken, msg.sender, packet.relayerRewardAmount);\n\n       //transferRelayerReward\n       require(transferTokensFrom(packet.from, msg.sender, packet.relayerRewardToken, packet.relayerRewardAmount));\n\n       //approve transfer of tokens\n       allowed[packet.token][packet.from][packet.to] = packet.tokens;\n      emit Approval(packet.from, packet.token, packet.to, packet.tokens);\n\n\n       return true;\n   }\n\n\n\n   function approveTokensWithSignature(LavaPacket packet, bytes signature) public returns (bool success)\n   {\n       require(bytesEqual('approve',bytes(packet.methodName)));\n\n       bytes32 sigHash = getLavaTypedDataHash(packet);\n\n       require(_tokenApprovalWithSignature(packet,sigHash,signature));\n\n\n       return true;\n   }\n\n\n   //the tokens remain in lava wallet\n  function transferTokensWithSignature(LavaPacket packet, bytes signature) public returns (bool success)\n  {\n\n      require(bytesEqual('transfer',bytes(packet.methodName)));\n\n      //check to make sure that signature == ecrecover signature\n      bytes32 sigHash = getLavaTypedDataHash(packet);\n\n      require(_tokenApprovalWithSignature(packet,sigHash,signature));\n\n      //it can be requested that fewer tokens be sent that were approved -- the whole approval will be invalidated though\n      require(transferTokensFrom( packet.from, packet.to, packet.token, packet.tokens));\n\n\n      return true;\n\n  }\n\n\n  //the tokens remain in lava wallet\n function withdrawTokensWithSignature(LavaPacket packet, bytes signature) public returns (bool success)\n {\n     require(bytesEqual('withdraw',bytes(packet.methodName)));\n\n     //check to make sure that signature == ecrecover signature\n     bytes32 sigHash = getLavaTypedDataHash(packet);\n\n     require(_tokenApprovalWithSignature(packet,sigHash,signature));\n\n     //it can be requested that fewer tokens be sent that were approved -- the whole approval will be invalidated though\n     require(withdrawTokensFrom( packet.from, packet.to, packet.token, packet.tokens));\n\n\n     return true;\n\n }\n\n\n\n\n\n     function burnSignature( LavaPacket packet,  bytes signature) public returns (bool success)\n     {\n\n\n        bytes32 sigHash = getLavaTypedDataHash( packet);\n\n         address recoveredSignatureSigner = recover(sigHash,signature);\n\n         //make sure the invalidator is the signer\n         require(recoveredSignatureSigner == packet.from);\n\n         //only the original packet owner can burn signature, not a relay\n         require(packet.from == msg.sender);\n\n         //make sure this signature has never been used\n         uint burnedSignature = burnedSignatures[sigHash];\n         burnedSignatures[sigHash] = 0x2; //invalidated\n         require(burnedSignature == 0x0);\n\n         return true;\n     }\n\n\n     function signatureBurnStatus(bytes32 digest) public view returns (uint)\n     {\n       return (burnedSignatures[digest]);\n     }\n\n\n\n\n       /*\n         Receive approval to spend tokens and perform any action all in one transaction\n       */\n     function receiveApproval(address from, uint256 tokens, address token, bytes data) public returns (bool success) {\n\n\n       return depositTokens(from, token, tokens );\n\n     }\n\n     /*\n      Approve lava tokens for a smart contract and call the contracts receiveApproval method all in one fell swoop\n\n\n      */\n     function approveAndCall( LavaPacket packet, bytes signature ) public returns (bool success)   {\n\n      // address from, address to, address token, uint256 tokens, uint256 relayerReward,  uint256 expires, uint256 nonce\n\n        bytes32 sigHash = getLavaTypedDataHash( packet);\n\n\n\n        require(_tokenApprovalWithSignature(packet,sigHash,signature));\n\n        ApproveAndCallFallBack(packet.to).receiveApproval(packet.from, packet.tokens, packet.token, bytes(packet.methodName));\n\n        return true;\n     }\n\n\n\n     function addressContainsContract(address _to) view internal returns (bool)\n     {\n       uint codeLength;\n\n        assembly {\n            // Retrieve the size of the code on target address, this needs assembly .\n            codeLength := extcodesize(_to)\n        }\n\n         return (codeLength>0);\n     }\n\n\n     function bytesEqual(bytes b1,bytes b2) pure internal returns (bool)\n        {\n          if(b1.length != b2.length) return false;\n\n          for (uint i=0; i<b1.length; i++) {\n            if(b1[i] != b2[i]) return false;\n          }\n\n          return true;\n        }\n\n\n}\n",
  "sourcePath": "/home/andy/dev/lava-wallet/contracts/LavaWallet.sol",
  "compiler": {
    "name": "solc",
    "version": "0.4.24+commit.e67f0147.Emscripten.clang"
  },
  "schemaVersion": "2.0.1",
  "updatedAt": "2018-11-13T00:04:44.804Z"
}