{
  "contractName": "LavaWallet",
  "abi": [
    {
      "constant": false,
      "inputs": [],
      "name": "acceptOwnership",
      "outputs": [],
      "payable": false,
      "stateMutability": "nonpayable",
      "type": "function"
    },
    {
      "constant": true,
      "inputs": [],
      "name": "owner",
      "outputs": [
        {
          "name": "",
          "type": "address"
        }
      ],
      "payable": false,
      "stateMutability": "view",
      "type": "function"
    },
    {
      "constant": true,
      "inputs": [],
      "name": "newOwner",
      "outputs": [
        {
          "name": "",
          "type": "address"
        }
      ],
      "payable": false,
      "stateMutability": "view",
      "type": "function"
    },
    {
      "constant": false,
      "inputs": [
        {
          "name": "_newOwner",
          "type": "address"
        }
      ],
      "name": "transferOwnership",
      "outputs": [],
      "payable": false,
      "stateMutability": "nonpayable",
      "type": "function"
    },
    {
      "inputs": [],
      "payable": false,
      "stateMutability": "nonpayable",
      "type": "constructor"
    },
    {
      "payable": true,
      "stateMutability": "payable",
      "type": "fallback"
    },
    {
      "anonymous": false,
      "inputs": [
        {
          "indexed": false,
          "name": "token",
          "type": "address"
        },
        {
          "indexed": false,
          "name": "user",
          "type": "address"
        },
        {
          "indexed": false,
          "name": "amount",
          "type": "uint256"
        },
        {
          "indexed": false,
          "name": "balance",
          "type": "uint256"
        }
      ],
      "name": "Deposit",
      "type": "event"
    },
    {
      "anonymous": false,
      "inputs": [
        {
          "indexed": false,
          "name": "token",
          "type": "address"
        },
        {
          "indexed": false,
          "name": "user",
          "type": "address"
        },
        {
          "indexed": false,
          "name": "amount",
          "type": "uint256"
        },
        {
          "indexed": false,
          "name": "balance",
          "type": "uint256"
        }
      ],
      "name": "Withdraw",
      "type": "event"
    },
    {
      "anonymous": false,
      "inputs": [
        {
          "indexed": true,
          "name": "from",
          "type": "address"
        },
        {
          "indexed": true,
          "name": "to",
          "type": "address"
        },
        {
          "indexed": false,
          "name": "token",
          "type": "address"
        },
        {
          "indexed": false,
          "name": "tokens",
          "type": "uint256"
        }
      ],
      "name": "Transfer",
      "type": "event"
    },
    {
      "anonymous": false,
      "inputs": [
        {
          "indexed": true,
          "name": "tokenOwner",
          "type": "address"
        },
        {
          "indexed": true,
          "name": "spender",
          "type": "address"
        },
        {
          "indexed": false,
          "name": "token",
          "type": "address"
        },
        {
          "indexed": false,
          "name": "tokens",
          "type": "uint256"
        }
      ],
      "name": "Approval",
      "type": "event"
    },
    {
      "anonymous": false,
      "inputs": [
        {
          "indexed": true,
          "name": "_from",
          "type": "address"
        },
        {
          "indexed": true,
          "name": "_to",
          "type": "address"
        }
      ],
      "name": "OwnershipTransferred",
      "type": "event"
    },
    {
      "constant": false,
      "inputs": [
        {
          "name": "from",
          "type": "address"
        },
        {
          "name": "token",
          "type": "address"
        },
        {
          "name": "tokens",
          "type": "uint256"
        }
      ],
      "name": "depositTokens",
      "outputs": [
        {
          "name": "success",
          "type": "bool"
        }
      ],
      "payable": false,
      "stateMutability": "nonpayable",
      "type": "function"
    },
    {
      "constant": false,
      "inputs": [
        {
          "name": "token",
          "type": "address"
        },
        {
          "name": "tokens",
          "type": "uint256"
        }
      ],
      "name": "withdrawTokens",
      "outputs": [],
      "payable": false,
      "stateMutability": "nonpayable",
      "type": "function"
    },
    {
      "constant": false,
      "inputs": [
        {
          "name": "from",
          "type": "address"
        },
        {
          "name": "to",
          "type": "address"
        },
        {
          "name": "token",
          "type": "address"
        },
        {
          "name": "tokens",
          "type": "uint256"
        }
      ],
      "name": "withdrawTokensFrom",
      "outputs": [
        {
          "name": "success",
          "type": "bool"
        }
      ],
      "payable": false,
      "stateMutability": "nonpayable",
      "type": "function"
    },
    {
      "constant": true,
      "inputs": [
        {
          "name": "token",
          "type": "address"
        },
        {
          "name": "user",
          "type": "address"
        }
      ],
      "name": "balanceOf",
      "outputs": [
        {
          "name": "",
          "type": "uint256"
        }
      ],
      "payable": false,
      "stateMutability": "view",
      "type": "function"
    },
    {
      "constant": false,
      "inputs": [
        {
          "name": "spender",
          "type": "address"
        },
        {
          "name": "token",
          "type": "address"
        },
        {
          "name": "tokens",
          "type": "uint256"
        }
      ],
      "name": "approveTokens",
      "outputs": [
        {
          "name": "success",
          "type": "bool"
        }
      ],
      "payable": false,
      "stateMutability": "nonpayable",
      "type": "function"
    },
    {
      "constant": false,
      "inputs": [
        {
          "name": "to",
          "type": "address"
        },
        {
          "name": "token",
          "type": "address"
        },
        {
          "name": "tokens",
          "type": "uint256"
        }
      ],
      "name": "transferTokens",
      "outputs": [
        {
          "name": "success",
          "type": "bool"
        }
      ],
      "payable": false,
      "stateMutability": "nonpayable",
      "type": "function"
    },
    {
      "constant": false,
      "inputs": [
        {
          "name": "from",
          "type": "address"
        },
        {
          "name": "to",
          "type": "address"
        },
        {
          "name": "token",
          "type": "address"
        },
        {
          "name": "tokens",
          "type": "uint256"
        }
      ],
      "name": "transferTokensFrom",
      "outputs": [
        {
          "name": "success",
          "type": "bool"
        }
      ],
      "payable": false,
      "stateMutability": "nonpayable",
      "type": "function"
    },
    {
      "constant": true,
      "inputs": [
        {
          "name": "from",
          "type": "address"
        },
        {
          "name": "to",
          "type": "address"
        },
        {
          "name": "token",
          "type": "address"
        },
        {
          "name": "tokens",
          "type": "uint256"
        },
        {
          "name": "relayerReward",
          "type": "uint256"
        },
        {
          "name": "expires",
          "type": "uint256"
        },
        {
          "name": "nonce",
          "type": "uint256"
        }
      ],
      "name": "getLavaTypedDataHash",
      "outputs": [
        {
          "name": "",
          "type": "bytes32"
        }
      ],
      "payable": false,
      "stateMutability": "view",
      "type": "function"
    },
    {
      "constant": false,
      "inputs": [
        {
          "name": "from",
          "type": "address"
        },
        {
          "name": "to",
          "type": "address"
        },
        {
          "name": "token",
          "type": "address"
        },
        {
          "name": "tokens",
          "type": "uint256"
        },
        {
          "name": "relayerReward",
          "type": "uint256"
        },
        {
          "name": "expires",
          "type": "uint256"
        },
        {
          "name": "nonce",
          "type": "uint256"
        },
        {
          "name": "signature",
          "type": "bytes"
        }
      ],
      "name": "approveTokensWithSignature",
      "outputs": [
        {
          "name": "success",
          "type": "bool"
        }
      ],
      "payable": false,
      "stateMutability": "nonpayable",
      "type": "function"
    },
    {
      "constant": false,
      "inputs": [
        {
          "name": "from",
          "type": "address"
        },
        {
          "name": "to",
          "type": "address"
        },
        {
          "name": "token",
          "type": "address"
        },
        {
          "name": "tokens",
          "type": "uint256"
        },
        {
          "name": "relayerReward",
          "type": "uint256"
        },
        {
          "name": "expires",
          "type": "uint256"
        },
        {
          "name": "nonce",
          "type": "uint256"
        },
        {
          "name": "signature",
          "type": "bytes"
        }
      ],
      "name": "transferTokensFromWithSignature",
      "outputs": [
        {
          "name": "success",
          "type": "bool"
        }
      ],
      "payable": false,
      "stateMutability": "nonpayable",
      "type": "function"
    },
    {
      "constant": false,
      "inputs": [
        {
          "name": "from",
          "type": "address"
        },
        {
          "name": "to",
          "type": "address"
        },
        {
          "name": "token",
          "type": "address"
        },
        {
          "name": "tokens",
          "type": "uint256"
        },
        {
          "name": "relayerReward",
          "type": "uint256"
        },
        {
          "name": "expires",
          "type": "uint256"
        },
        {
          "name": "nonce",
          "type": "uint256"
        },
        {
          "name": "signature",
          "type": "bytes"
        }
      ],
      "name": "withdrawTokensFromWithSignature",
      "outputs": [
        {
          "name": "success",
          "type": "bool"
        }
      ],
      "payable": false,
      "stateMutability": "nonpayable",
      "type": "function"
    },
    {
      "constant": true,
      "inputs": [
        {
          "name": "token",
          "type": "address"
        },
        {
          "name": "tokenOwner",
          "type": "address"
        },
        {
          "name": "spender",
          "type": "address"
        }
      ],
      "name": "tokenAllowance",
      "outputs": [
        {
          "name": "remaining",
          "type": "uint256"
        }
      ],
      "payable": false,
      "stateMutability": "view",
      "type": "function"
    },
    {
      "constant": false,
      "inputs": [
        {
          "name": "from",
          "type": "address"
        },
        {
          "name": "to",
          "type": "address"
        },
        {
          "name": "token",
          "type": "address"
        },
        {
          "name": "tokens",
          "type": "uint256"
        },
        {
          "name": "relayerReward",
          "type": "uint256"
        },
        {
          "name": "expires",
          "type": "uint256"
        },
        {
          "name": "nonce",
          "type": "uint256"
        },
        {
          "name": "signature",
          "type": "bytes"
        }
      ],
      "name": "burnSignature",
      "outputs": [
        {
          "name": "success",
          "type": "bool"
        }
      ],
      "payable": false,
      "stateMutability": "nonpayable",
      "type": "function"
    },
    {
      "constant": true,
      "inputs": [
        {
          "name": "digest",
          "type": "bytes32"
        }
      ],
      "name": "signatureBurnStatus",
      "outputs": [
        {
          "name": "",
          "type": "uint256"
        }
      ],
      "payable": false,
      "stateMutability": "view",
      "type": "function"
    },
    {
      "constant": false,
      "inputs": [
        {
          "name": "from",
          "type": "address"
        },
        {
          "name": "tokens",
          "type": "uint256"
        },
        {
          "name": "token",
          "type": "address"
        },
        {
          "name": "data",
          "type": "bytes"
        }
      ],
      "name": "receiveApproval",
      "outputs": [
        {
          "name": "success",
          "type": "bool"
        }
      ],
      "payable": false,
      "stateMutability": "nonpayable",
      "type": "function"
    },
    {
      "constant": false,
      "inputs": [
        {
          "name": "from",
          "type": "address"
        },
        {
          "name": "to",
          "type": "address"
        },
        {
          "name": "token",
          "type": "address"
        },
        {
          "name": "tokens",
          "type": "uint256"
        },
        {
          "name": "relayerReward",
          "type": "uint256"
        },
        {
          "name": "expires",
          "type": "uint256"
        },
        {
          "name": "nonce",
          "type": "uint256"
        },
        {
          "name": "signature",
          "type": "bytes"
        },
        {
          "name": "data",
          "type": "bytes"
        }
      ],
      "name": "approveAndCall",
      "outputs": [
        {
          "name": "success",
          "type": "bool"
        }
      ],
      "payable": false,
      "stateMutability": "nonpayable",
      "type": "function"
    },
    {
      "constant": false,
      "inputs": [
        {
          "name": "tokenAddress",
          "type": "address"
        },
        {
          "name": "tokens",
          "type": "uint256"
        }
      ],
      "name": "transferAnyERC20Token",
      "outputs": [
        {
          "name": "success",
          "type": "bool"
        }
      ],
      "payable": false,
      "stateMutability": "nonpayable",
      "type": "function"
    }
  ],
  "bytecode": "0x6060604052341561000f57600080fd5b336000806101000a81548173ffffffffffffffffffffffffffffffffffffffff021916908373ffffffffffffffffffffffffffffffffffffffff16021790555061340d8061005e6000396000f30060606040526004361061011d576000357c0100000000000000000000000000000000000000000000000000000000900463ffffffff16806306b091f914610122578063094171101461016457806320acbc831461019f57806339dc5ef2146102955780633e9ed7e41461030e5780634b17bdd81461040457806379ba50971461049c5780638da5cb5b146104b15780638e8758d8146105065780638f4ffcb114610591578063912d6e281461064d578063a51fbb3f146106c6578063a64b6e5f146107bc578063a9ff2a5e14610835578063b0e0ef091461092b578063c6d2cb6a146109c3578063d4ee1d9014610a7a578063dc39d06d14610acf578063dc47e5b714610b29578063f2fde38b14610c62578063f7888aec14610c9b575b600080fd5b341561012d57600080fd5b610162600480803573ffffffffffffffffffffffffffffffffffffffff16906020019091908035906020019091905050610d07565b005b341561016f57600080fd5b6101896004808035600019169060200190919050506110a3565b6040518082815260200191505060405180910390f35b34156101aa57600080fd5b61027b600480803573ffffffffffffffffffffffffffffffffffffffff1690602001909190803573ffffffffffffffffffffffffffffffffffffffff1690602001909190803573ffffffffffffffffffffffffffffffffffffffff1690602001909190803590602001909190803590602001909190803590602001909190803590602001909190803590602001908201803590602001908080601f016020809104026020016040519081016040528093929190818152602001838380828437820191505050505050919050506110c8565b604051808215151515815260200191505060405180910390f35b34156102a057600080fd5b6102f4600480803573ffffffffffffffffffffffffffffffffffffffff1690602001909190803573ffffffffffffffffffffffffffffffffffffffff16906020019091908035906020019091905050611137565b604051808215151515815260200191505060405180910390f35b341561031957600080fd5b6103ea600480803573ffffffffffffffffffffffffffffffffffffffff1690602001909190803573ffffffffffffffffffffffffffffffffffffffff1690602001909190803573ffffffffffffffffffffffffffffffffffffffff1690602001909190803590602001909190803590602001909190803590602001909190803590602001909190803590602001908201803590602001908080601f01602080910402602001604051908101604052809392919081815260200183838082843782019150505050505091905050611510565b604051808215151515815260200191505060405180910390f35b341561040f57600080fd5b610482600480803573ffffffffffffffffffffffffffffffffffffffff1690602001909190803573ffffffffffffffffffffffffffffffffffffffff1690602001909190803573ffffffffffffffffffffffffffffffffffffffff16906020019091908035906020019091905050611701565b604051808215151515815260200191505060405180910390f35b34156104a757600080fd5b6104af611b4f565b005b34156104bc57600080fd5b6104c4611cee565b604051808273ffffffffffffffffffffffffffffffffffffffff1673ffffffffffffffffffffffffffffffffffffffff16815260200191505060405180910390f35b341561051157600080fd5b61057b600480803573ffffffffffffffffffffffffffffffffffffffff1690602001909190803573ffffffffffffffffffffffffffffffffffffffff1690602001909190803573ffffffffffffffffffffffffffffffffffffffff16906020019091905050611d13565b6040518082815260200191505060405180910390f35b341561059c57600080fd5b610633600480803573ffffffffffffffffffffffffffffffffffffffff1690602001909190803590602001909190803573ffffffffffffffffffffffffffffffffffffffff1690602001909190803590602001908201803590602001908080601f01602080910402602001604051908101604052809392919081815260200183838082843782019150505050505091905050611dd8565b604051808215151515815260200191505060405180910390f35b341561065857600080fd5b6106ac600480803573ffffffffffffffffffffffffffffffffffffffff1690602001909190803573ffffffffffffffffffffffffffffffffffffffff16906020019091908035906020019091905050611def565b604051808215151515815260200191505060405180910390f35b34156106d157600080fd5b6107a2600480803573ffffffffffffffffffffffffffffffffffffffff1690602001909190803573ffffffffffffffffffffffffffffffffffffffff1690602001909190803573ffffffffffffffffffffffffffffffffffffffff1690602001909190803590602001909190803590602001909190803590602001909190803590602001909190803590602001908201803590602001908080601f01602080910402602001604051908101604052809392919081815260200183838082843782019150505050505091905050611f53565b604051808215151515815260200191505060405180910390f35b34156107c757600080fd5b61081b600480803573ffffffffffffffffffffffffffffffffffffffff1690602001909190803573ffffffffffffffffffffffffffffffffffffffff16906020019091908035906020019091905050611fab565b604051808215151515815260200191505060405180910390f35b341561084057600080fd5b610911600480803573ffffffffffffffffffffffffffffffffffffffff1690602001909190803573ffffffffffffffffffffffffffffffffffffffff1690602001909190803573ffffffffffffffffffffffffffffffffffffffff1690602001909190803590602001909190803590602001909190803590602001909190803590602001909190803590602001908201803590602001908080601f0160208091040260200160405190810160405280939291908181526020018383808284378201915050505050509190505061226f565b604051808215151515815260200191505060405180910390f35b341561093657600080fd5b6109a9600480803573ffffffffffffffffffffffffffffffffffffffff1690602001909190803573ffffffffffffffffffffffffffffffffffffffff1690602001909190803573ffffffffffffffffffffffffffffffffffffffff169060200190919080359060200190919050506122de565b604051808215151515815260200191505060405180910390f35b34156109ce57600080fd5b610a5c600480803573ffffffffffffffffffffffffffffffffffffffff1690602001909190803573ffffffffffffffffffffffffffffffffffffffff1690602001909190803573ffffffffffffffffffffffffffffffffffffffff1690602001909190803590602001909190803590602001909190803590602001909190803590602001909190505061280d565b60405180826000191660001916815260200191505060405180910390f35b3415610a8557600080fd5b610a8d6129b1565b604051808273ffffffffffffffffffffffffffffffffffffffff1673ffffffffffffffffffffffffffffffffffffffff16815260200191505060405180910390f35b3415610ada57600080fd5b610b0f600480803573ffffffffffffffffffffffffffffffffffffffff169060200190919080359060200190919050506129d7565b604051808215151515815260200191505060405180910390f35b3415610b3457600080fd5b610c48600480803573ffffffffffffffffffffffffffffffffffffffff1690602001909190803573ffffffffffffffffffffffffffffffffffffffff1690602001909190803573ffffffffffffffffffffffffffffffffffffffff1690602001909190803590602001909190803590602001909190803590602001909190803590602001909190803590602001908201803590602001908080601f0160208091040260200160405190810160405280939291908181526020018383808284378201915050505050509190803590602001908201803590602001908080601f01602080910402602001604051908101604052809392919081815260200183838082843782019150505050505091905050612c55565b604051808215151515815260200191505060405180910390f35b3415610c6d57600080fd5b610c99600480803573ffffffffffffffffffffffffffffffffffffffff16906020019091905050612dfb565b005b3415610ca657600080fd5b610cf1600480803573ffffffffffffffffffffffffffffffffffffffff1690602001909190803573ffffffffffffffffffffffffffffffffffffffff16906020019091905050612e9a565b6040518082815260200191505060405180910390f35b610d9681600260008573ffffffffffffffffffffffffffffffffffffffff1673ffffffffffffffffffffffffffffffffffffffff16815260200190815260200160002060003373ffffffffffffffffffffffffffffffffffffffff1673ffffffffffffffffffffffffffffffffffffffff16815260200190815260200160002054612f2190919063ffffffff16565b600260008473ffffffffffffffffffffffffffffffffffffffff1673ffffffffffffffffffffffffffffffffffffffff16815260200190815260200160002060003373ffffffffffffffffffffffffffffffffffffffff1673ffffffffffffffffffffffffffffffffffffffff16815260200190815260200160002081905550610e6881600460008573ffffffffffffffffffffffffffffffffffffffff1673ffffffffffffffffffffffffffffffffffffffff16815260200190815260200160002054612f2190919063ffffffff16565b600460008473ffffffffffffffffffffffffffffffffffffffff1673ffffffffffffffffffffffffffffffffffffffff168152602001908152602001600020819055508173ffffffffffffffffffffffffffffffffffffffff1663a9059cbb33836000604051602001526040518363ffffffff167c0100000000000000000000000000000000000000000000000000000000028152600401808373ffffffffffffffffffffffffffffffffffffffff1673ffffffffffffffffffffffffffffffffffffffff16815260200182815260200192505050602060405180830381600087803b1515610f5657600080fd5b6102c65a03f11515610f6757600080fd5b505050604051805190501515610f7c57600080fd5b7ff341246adaac6f497bc2a656f546ab9e182111d630394f0c57c710a59a2cb567823383600260008773ffffffffffffffffffffffffffffffffffffffff1673ffffffffffffffffffffffffffffffffffffffff16815260200190815260200160002060003373ffffffffffffffffffffffffffffffffffffffff1673ffffffffffffffffffffffffffffffffffffffff16815260200190815260200160002054604051808573ffffffffffffffffffffffffffffffffffffffff1673ffffffffffffffffffffffffffffffffffffffff1681526020018473ffffffffffffffffffffffffffffffffffffffff1673ffffffffffffffffffffffffffffffffffffffff16815260200183815260200182815260200194505050505060405180910390a15050565b6000600560008360001916600019168152602001908152602001600020549050919050565b6000806010848115156110d757fe5b06905060038114806110e95750600081145b15156110f457600080fd5b6111048a8a8a8a8a8a8a8a612f3a565b151561110f57600080fd5b61111b8a8a8a8a6122de565b151561112657600080fd5b600191505098975050505050505050565b60008273ffffffffffffffffffffffffffffffffffffffff166323b872dd8530856000604051602001526040518463ffffffff167c0100000000000000000000000000000000000000000000000000000000028152600401808473ffffffffffffffffffffffffffffffffffffffff1673ffffffffffffffffffffffffffffffffffffffff1681526020018373ffffffffffffffffffffffffffffffffffffffff1673ffffffffffffffffffffffffffffffffffffffff1681526020018281526020019350505050602060405180830381600087803b151561121857600080fd5b6102c65a03f1151561122957600080fd5b50505060405180519050151561123e57600080fd5b6112cd82600260008673ffffffffffffffffffffffffffffffffffffffff1673ffffffffffffffffffffffffffffffffffffffff16815260200190815260200160002060008773ffffffffffffffffffffffffffffffffffffffff1673ffffffffffffffffffffffffffffffffffffffff168152602001908152602001600020546133c390919063ffffffff16565b600260008573ffffffffffffffffffffffffffffffffffffffff1673ffffffffffffffffffffffffffffffffffffffff16815260200190815260200160002060008673ffffffffffffffffffffffffffffffffffffffff1673ffffffffffffffffffffffffffffffffffffffff1681526020019081526020016000208190555061139f82600460008673ffffffffffffffffffffffffffffffffffffffff1673ffffffffffffffffffffffffffffffffffffffff168152602001908152602001600020546133c390919063ffffffff16565b600460008573ffffffffffffffffffffffffffffffffffffffff1673ffffffffffffffffffffffffffffffffffffffff168152602001908152602001600020819055507fdcbc1c05240f31ff3ad067ef1ee35ce4997762752e3a095284754544f4c709d7838584600260008873ffffffffffffffffffffffffffffffffffffffff1673ffffffffffffffffffffffffffffffffffffffff16815260200190815260200160002060008973ffffffffffffffffffffffffffffffffffffffff1673ffffffffffffffffffffffffffffffffffffffff16815260200190815260200160002054604051808573ffffffffffffffffffffffffffffffffffffffff1673ffffffffffffffffffffffffffffffffffffffff1681526020018473ffffffffffffffffffffffffffffffffffffffff1673ffffffffffffffffffffffffffffffffffffffff16815260200183815260200182815260200194505050505060405180910390a1600190509392505050565b6000806000806115258c8c8c8c8c8c8c61280d565b925073__ECRecovery____________________________6319045a2584876000604051602001526040518363ffffffff167c010000000000000000000000000000000000000000000000000000000002815260040180836000191660001916815260200180602001828103825283818151815260200191508051906020019080838360005b838110156115c55780820151818401526020810190506115aa565b50505050905090810190601f1680156115f25780820380516001836020036101000a031916815260200191505b50935050505060206040518083038186803b151561160f57600080fd5b6102c65a03f4151561162057600080fd5b5050506040518051905091508b73ffffffffffffffffffffffffffffffffffffffff168273ffffffffffffffffffffffffffffffffffffffff1614151561166657600080fd5b3373ffffffffffffffffffffffffffffffffffffffff168c73ffffffffffffffffffffffffffffffffffffffff161415156116a057600080fd5b6005600084600019166000191681526020019081526020016000205490506002600560008560001916600019168152602001908152602001600020819055506000811415156116ee57600080fd5b6001935050505098975050505050505050565b600061179282600260008673ffffffffffffffffffffffffffffffffffffffff1673ffffffffffffffffffffffffffffffffffffffff16815260200190815260200160002060008873ffffffffffffffffffffffffffffffffffffffff1673ffffffffffffffffffffffffffffffffffffffff16815260200190815260200160002054612f2190919063ffffffff16565b600260008573ffffffffffffffffffffffffffffffffffffffff1673ffffffffffffffffffffffffffffffffffffffff16815260200190815260200160002060008773ffffffffffffffffffffffffffffffffffffffff1673ffffffffffffffffffffffffffffffffffffffff168152602001908152602001600020819055506118de82600360008673ffffffffffffffffffffffffffffffffffffffff1673ffffffffffffffffffffffffffffffffffffffff16815260200190815260200160002060008873ffffffffffffffffffffffffffffffffffffffff1673ffffffffffffffffffffffffffffffffffffffff16815260200190815260200160002060008773ffffffffffffffffffffffffffffffffffffffff1673ffffffffffffffffffffffffffffffffffffffff16815260200190815260200160002054612f2190919063ffffffff16565b600360008573ffffffffffffffffffffffffffffffffffffffff1673ffffffffffffffffffffffffffffffffffffffff16815260200190815260200160002060008773ffffffffffffffffffffffffffffffffffffffff1673ffffffffffffffffffffffffffffffffffffffff16815260200190815260200160002060008673ffffffffffffffffffffffffffffffffffffffff1673ffffffffffffffffffffffffffffffffffffffff16815260200190815260200160002081905550611a2a82600260008673ffffffffffffffffffffffffffffffffffffffff1673ffffffffffffffffffffffffffffffffffffffff16815260200190815260200160002060008773ffffffffffffffffffffffffffffffffffffffff1673ffffffffffffffffffffffffffffffffffffffff168152602001908152602001600020546133c390919063ffffffff16565b600260008573ffffffffffffffffffffffffffffffffffffffff1673ffffffffffffffffffffffffffffffffffffffff16815260200190815260200160002060008673ffffffffffffffffffffffffffffffffffffffff1673ffffffffffffffffffffffffffffffffffffffff168152602001908152602001600020819055508473ffffffffffffffffffffffffffffffffffffffff168373ffffffffffffffffffffffffffffffffffffffff167fd1398bee19313d6bf672ccb116e51f4a1a947e91c757907f51fbb5b5e56c698f8685604051808373ffffffffffffffffffffffffffffffffffffffff1673ffffffffffffffffffffffffffffffffffffffff1681526020018281526020019250505060405180910390a360019050949350505050565b600160009054906101000a900473ffffffffffffffffffffffffffffffffffffffff1673ffffffffffffffffffffffffffffffffffffffff163373ffffffffffffffffffffffffffffffffffffffff16141515611bab57600080fd5b600160009054906101000a900473ffffffffffffffffffffffffffffffffffffffff1673ffffffffffffffffffffffffffffffffffffffff166000809054906101000a900473ffffffffffffffffffffffffffffffffffffffff1673ffffffffffffffffffffffffffffffffffffffff167f8be0079c531659141344cd1fd0a4f28419497f9722a3daafe3b4186f6b6457e060405160405180910390a3600160009054906101000a900473ffffffffffffffffffffffffffffffffffffffff166000806101000a81548173ffffffffffffffffffffffffffffffffffffffff021916908373ffffffffffffffffffffffffffffffffffffffff1602179055506000600160006101000a81548173ffffffffffffffffffffffffffffffffffffffff021916908373ffffffffffffffffffffffffffffffffffffffff160217905550565b6000809054906101000a900473ffffffffffffffffffffffffffffffffffffffff1681565b6000600360008573ffffffffffffffffffffffffffffffffffffffff1673ffffffffffffffffffffffffffffffffffffffff16815260200190815260200160002060008473ffffffffffffffffffffffffffffffffffffffff1673ffffffffffffffffffffffffffffffffffffffff16815260200190815260200160002060008373ffffffffffffffffffffffffffffffffffffffff1673ffffffffffffffffffffffffffffffffffffffff1681526020019081526020016000205490509392505050565b6000611de5858486611137565b9050949350505050565b600081600360008573ffffffffffffffffffffffffffffffffffffffff1673ffffffffffffffffffffffffffffffffffffffff16815260200190815260200160002060003373ffffffffffffffffffffffffffffffffffffffff1673ffffffffffffffffffffffffffffffffffffffff16815260200190815260200160002060008673ffffffffffffffffffffffffffffffffffffffff1673ffffffffffffffffffffffffffffffffffffffff168152602001908152602001600020819055508273ffffffffffffffffffffffffffffffffffffffff163373ffffffffffffffffffffffffffffffffffffffff167fa0175360a15bca328baf7ea85c7b784d58b222a50d0ce760b10dba336d226a618685604051808373ffffffffffffffffffffffffffffffffffffffff1673ffffffffffffffffffffffffffffffffffffffff1681526020018281526020019250505060405180910390a3600190509392505050565b600080601084811515611f6257fe5b0690506000811480611f745750600181145b1515611f7f57600080fd5b611f8f8a8a8a8a8a8a8a8a612f3a565b1515611f9a57600080fd5b600191505098975050505050505050565b600061203c82600260008673ffffffffffffffffffffffffffffffffffffffff1673ffffffffffffffffffffffffffffffffffffffff16815260200190815260200160002060003373ffffffffffffffffffffffffffffffffffffffff1673ffffffffffffffffffffffffffffffffffffffff16815260200190815260200160002054612f2190919063ffffffff16565b600260008573ffffffffffffffffffffffffffffffffffffffff1673ffffffffffffffffffffffffffffffffffffffff16815260200190815260200160002060003373ffffffffffffffffffffffffffffffffffffffff1673ffffffffffffffffffffffffffffffffffffffff1681526020019081526020016000208190555061214b82600260008673ffffffffffffffffffffffffffffffffffffffff1673ffffffffffffffffffffffffffffffffffffffff16815260200190815260200160002060008773ffffffffffffffffffffffffffffffffffffffff1673ffffffffffffffffffffffffffffffffffffffff168152602001908152602001600020546133c390919063ffffffff16565b600260008573ffffffffffffffffffffffffffffffffffffffff1673ffffffffffffffffffffffffffffffffffffffff16815260200190815260200160002060008673ffffffffffffffffffffffffffffffffffffffff1673ffffffffffffffffffffffffffffffffffffffff168152602001908152602001600020819055508273ffffffffffffffffffffffffffffffffffffffff163373ffffffffffffffffffffffffffffffffffffffff167fd1398bee19313d6bf672ccb116e51f4a1a947e91c757907f51fbb5b5e56c698f8685604051808373ffffffffffffffffffffffffffffffffffffffff1673ffffffffffffffffffffffffffffffffffffffff1681526020018281526020019250505060405180910390a3600190509392505050565b60008060108481151561227e57fe5b06905060028114806122905750600081145b151561229b57600080fd5b6122ab8a8a8a8a8a8a8a8a612f3a565b15156122b657600080fd5b6122c28a8a8a8a611701565b15156122cd57600080fd5b600191505098975050505050505050565b600061236f82600260008673ffffffffffffffffffffffffffffffffffffffff1673ffffffffffffffffffffffffffffffffffffffff16815260200190815260200160002060008873ffffffffffffffffffffffffffffffffffffffff1673ffffffffffffffffffffffffffffffffffffffff16815260200190815260200160002054612f2190919063ffffffff16565b600260008573ffffffffffffffffffffffffffffffffffffffff1673ffffffffffffffffffffffffffffffffffffffff16815260200190815260200160002060008773ffffffffffffffffffffffffffffffffffffffff1673ffffffffffffffffffffffffffffffffffffffff1681526020019081526020016000208190555061244182600460008673ffffffffffffffffffffffffffffffffffffffff1673ffffffffffffffffffffffffffffffffffffffff16815260200190815260200160002054612f2190919063ffffffff16565b600460008573ffffffffffffffffffffffffffffffffffffffff1673ffffffffffffffffffffffffffffffffffffffff1681526020019081526020016000208190555061255082600360008673ffffffffffffffffffffffffffffffffffffffff1673ffffffffffffffffffffffffffffffffffffffff16815260200190815260200160002060008873ffffffffffffffffffffffffffffffffffffffff1673ffffffffffffffffffffffffffffffffffffffff16815260200190815260200160002060008773ffffffffffffffffffffffffffffffffffffffff1673ffffffffffffffffffffffffffffffffffffffff16815260200190815260200160002054612f2190919063ffffffff16565b600360008573ffffffffffffffffffffffffffffffffffffffff1673ffffffffffffffffffffffffffffffffffffffff16815260200190815260200160002060008773ffffffffffffffffffffffffffffffffffffffff1673ffffffffffffffffffffffffffffffffffffffff16815260200190815260200160002060008673ffffffffffffffffffffffffffffffffffffffff1673ffffffffffffffffffffffffffffffffffffffff168152602001908152602001600020819055508273ffffffffffffffffffffffffffffffffffffffff1663a9059cbb85846000604051602001526040518363ffffffff167c0100000000000000000000000000000000000000000000000000000000028152600401808373ffffffffffffffffffffffffffffffffffffffff1673ffffffffffffffffffffffffffffffffffffffff16815260200182815260200192505050602060405180830381600087803b15156126b857600080fd5b6102c65a03f115156126c957600080fd5b5050506040518051905015156126de57600080fd5b7ff341246adaac6f497bc2a656f546ab9e182111d630394f0c57c710a59a2cb567838684600260008873ffffffffffffffffffffffffffffffffffffffff1673ffffffffffffffffffffffffffffffffffffffff16815260200190815260200160002060008a73ffffffffffffffffffffffffffffffffffffffff1673ffffffffffffffffffffffffffffffffffffffff16815260200190815260200160002054604051808573ffffffffffffffffffffffffffffffffffffffff1673ffffffffffffffffffffffffffffffffffffffff1681526020018473ffffffffffffffffffffffffffffffffffffffff1673ffffffffffffffffffffffffffffffffffffffff16815260200183815260200182815260200194505050505060405180910390a160019050949350505050565b60008060007f313236b6cd8d12125421e44528d8f5ba070a781aeac3e5ae45e314b818734ec36001029150818a8a308b8b8b8b8b604051808973ffffffffffffffffffffffffffffffffffffffff1673ffffffffffffffffffffffffffffffffffffffff166c010000000000000000000000000281526014018873ffffffffffffffffffffffffffffffffffffffff1673ffffffffffffffffffffffffffffffffffffffff166c010000000000000000000000000281526014018773ffffffffffffffffffffffffffffffffffffffff1673ffffffffffffffffffffffffffffffffffffffff166c010000000000000000000000000281526014018673ffffffffffffffffffffffffffffffffffffffff1673ffffffffffffffffffffffffffffffffffffffff166c01000000000000000000000000028152601401858152602001848152602001838152602001828152602001985050505050505050506040518091039020604051808360001916600019168152602001826000191660001916815260200192505050604051809103902090508092505050979650505050505050565b600160009054906101000a900473ffffffffffffffffffffffffffffffffffffffff1681565b60008060008060009054906101000a900473ffffffffffffffffffffffffffffffffffffffff1673ffffffffffffffffffffffffffffffffffffffff163373ffffffffffffffffffffffffffffffffffffffff16141515612a3757600080fd5b8473ffffffffffffffffffffffffffffffffffffffff166370a08231306000604051602001526040518263ffffffff167c0100000000000000000000000000000000000000000000000000000000028152600401808273ffffffffffffffffffffffffffffffffffffffff1673ffffffffffffffffffffffffffffffffffffffff168152602001915050602060405180830381600087803b1515612ada57600080fd5b6102c65a03f11515612aeb57600080fd5b505050604051805190509150612b49600460008773ffffffffffffffffffffffffffffffffffffffff1673ffffffffffffffffffffffffffffffffffffffff1681526020019081526020016000205483612f2190919063ffffffff16565b9050808411151515612b5757fe5b8473ffffffffffffffffffffffffffffffffffffffff1663a9059cbb6000809054906101000a900473ffffffffffffffffffffffffffffffffffffffff16866000604051602001526040518363ffffffff167c0100000000000000000000000000000000000000000000000000000000028152600401808373ffffffffffffffffffffffffffffffffffffffff1673ffffffffffffffffffffffffffffffffffffffff16815260200182815260200192505050602060405180830381600087803b1515612c2357600080fd5b6102c65a03f11515612c3457600080fd5b505050604051805190501515612c4957600080fd5b60019250505092915050565b600080601085811515612c6457fe5b06905060048110151515612c7757600080fd5b612c878b8b8b8b8b8b8b8b612f3a565b1515612c9257600080fd5b8973ffffffffffffffffffffffffffffffffffffffff16638f4ffcb18c8a8c876040518563ffffffff167c0100000000000000000000000000000000000000000000000000000000028152600401808573ffffffffffffffffffffffffffffffffffffffff1673ffffffffffffffffffffffffffffffffffffffff1681526020018481526020018373ffffffffffffffffffffffffffffffffffffffff1673ffffffffffffffffffffffffffffffffffffffff16815260200180602001828103825283818151815260200191508051906020019080838360005b83811015612d87578082015181840152602081019050612d6c565b50505050905090810190601f168015612db45780820380516001836020036101000a031916815260200191505b5095505050505050600060405180830381600087803b1515612dd557600080fd5b6102c65a03f11515612de657600080fd5b50505060019150509998505050505050505050565b6000809054906101000a900473ffffffffffffffffffffffffffffffffffffffff1673ffffffffffffffffffffffffffffffffffffffff163373ffffffffffffffffffffffffffffffffffffffff16141515612e5657600080fd5b80600160006101000a81548173ffffffffffffffffffffffffffffffffffffffff021916908373ffffffffffffffffffffffffffffffffffffffff16021790555050565b6000600260008473ffffffffffffffffffffffffffffffffffffffff1673ffffffffffffffffffffffffffffffffffffffff16815260200190815260200160002060008373ffffffffffffffffffffffffffffffffffffffff1673ffffffffffffffffffffffffffffffffffffffff16815260200190815260200160002054905092915050565b6000828211151515612f2f57fe5b818303905092915050565b600080600080612f4f8c8c8c8c8c8c8c61280d565b925073__ECRecovery____________________________6319045a2584876000604051602001526040518363ffffffff167c010000000000000000000000000000000000000000000000000000000002815260040180836000191660001916815260200180602001828103825283818151815260200191508051906020019080838360005b83811015612fef578082015181840152602081019050612fd4565b50505050905090810190601f16801561301c5780820380516001836020036101000a031916815260200191505b50935050505060206040518083038186803b151561303957600080fd5b6102c65a03f4151561304a57600080fd5b5050506040518051905091508173ffffffffffffffffffffffffffffffffffffffff168c73ffffffffffffffffffffffffffffffffffffffff1614151561309057600080fd5b8643111561309d57600080fd5b6005600084600019166000191681526020019081526020016000205490506001600560008560001916600019168152602001908152602001600020819055506000811415156130eb57600080fd5b87600360008c73ffffffffffffffffffffffffffffffffffffffff1673ffffffffffffffffffffffffffffffffffffffff16815260200190815260200160002060008e73ffffffffffffffffffffffffffffffffffffffff1673ffffffffffffffffffffffffffffffffffffffff16815260200190815260200160002060003373ffffffffffffffffffffffffffffffffffffffff1673ffffffffffffffffffffffffffffffffffffffff168152602001908152602001600020819055508973ffffffffffffffffffffffffffffffffffffffff168c73ffffffffffffffffffffffffffffffffffffffff167fa0175360a15bca328baf7ea85c7b784d58b222a50d0ce760b10dba336d226a61338b604051808373ffffffffffffffffffffffffffffffffffffffff1673ffffffffffffffffffffffffffffffffffffffff1681526020018281526020019250505060405180910390a361324e8c338c8b611701565b151561325957600080fd5b88600360008c73ffffffffffffffffffffffffffffffffffffffff1673ffffffffffffffffffffffffffffffffffffffff16815260200190815260200160002060008e73ffffffffffffffffffffffffffffffffffffffff1673ffffffffffffffffffffffffffffffffffffffff16815260200190815260200160002060008d73ffffffffffffffffffffffffffffffffffffffff1673ffffffffffffffffffffffffffffffffffffffff168152602001908152602001600020819055508973ffffffffffffffffffffffffffffffffffffffff168c73ffffffffffffffffffffffffffffffffffffffff167fa0175360a15bca328baf7ea85c7b784d58b222a50d0ce760b10dba336d226a618d8c604051808373ffffffffffffffffffffffffffffffffffffffff1673ffffffffffffffffffffffffffffffffffffffff1681526020018281526020019250505060405180910390a36001935050505098975050505050505050565b60008082840190508381101515156133d757fe5b80915050929150505600a165627a7a72305820071026df4516855033efa6a8a27d069b8c402089de643a1fa98b2c86323de5e60029",
  "source": "pragma solidity ^0.4.18;\n\nimport \"./ECRecovery.sol\";\n\nimport \"./SafeMath.sol\";\n\n\n/*\n\nThis is a token wallet contract\n\nStore your tokens in this contract to give them super powers\n\nTokens can be spent from the contract with only an ecSignature from the owner - onchain approve is not needed\n\n\n*/\n\ncontract ERC20Interface {\n    function totalSupply() public constant returns (uint);\n    function balanceOf(address tokenOwner) public constant returns (uint balance);\n    function allowance(address tokenOwner, address spender) public constant returns (uint remaining);\n    function transfer(address to, uint tokens) public returns (bool success);\n    function approve(address spender, uint tokens) public returns (bool success);\n    function transferFrom(address from, address to, uint tokens) public returns (bool success);\n\n    event Transfer(address indexed from, address indexed to, uint tokens);\n    event Approval(address indexed tokenOwner, address indexed spender, uint tokens);\n}\n\n\n\ncontract ApproveAndCallFallBack {\n\n    function receiveApproval(address from, uint256 tokens, address token, bytes data) public;\n\n}\n\n\n\ncontract Owned {\n\n    address public owner;\n\n    address public newOwner;\n\n\n    event OwnershipTransferred(address indexed _from, address indexed _to);\n\n\n    function Owned() public {\n\n        owner = msg.sender;\n\n    }\n\n\n    modifier onlyOwner {\n\n        require(msg.sender == owner);\n\n        _;\n\n    }\n\n\n    function transferOwnership(address _newOwner) public onlyOwner {\n\n        newOwner = _newOwner;\n\n    }\n\n    function acceptOwnership() public {\n\n        require(msg.sender == newOwner);\n\n        OwnershipTransferred(owner, newOwner);\n\n        owner = newOwner;\n\n        newOwner = address(0);\n\n    }\n\n}\n\n\n\n\n\ncontract LavaWallet is Owned {\n\n\n  using SafeMath for uint;\n\n  // balances[tokenContractAddress][EthereumAccountAddress] = 0\n   mapping(address => mapping (address => uint256)) balances;\n\n   //token => owner => spender : amount\n   mapping(address => mapping (address => mapping (address => uint256))) allowed;\n\n   mapping(address => uint256) depositedTokens;\n\n   mapping(bytes32 => uint256) burnedSignatures;\n\n\n  event Deposit(address token, address user, uint amount, uint balance);\n  event Withdraw(address token, address user, uint amount, uint balance);\n  event Transfer(address indexed from, address indexed to,address token, uint tokens);\n  event Approval(address indexed tokenOwner, address indexed spender,address token, uint tokens);\n\n  function LavaWallet() public  {\n\n  }\n\n\n  //do not allow ether to enter\n  function() public payable {\n      revert();\n  }\n\n\n   //Remember you need pre-approval for this - nice with ApproveAndCall\n  function depositTokens(address from, address token, uint256 tokens ) public returns (bool success)\n  {\n      //we already have approval so lets do a transferFrom - transfer the tokens into this contract\n\n      if(!ERC20Interface(token).transferFrom(from, this, tokens)) revert();\n\n\n      balances[token][from] = balances[token][from].add(tokens);\n      depositedTokens[token] = depositedTokens[token].add(tokens);\n\n      Deposit(token, from, tokens, balances[token][from]);\n\n      return true;\n  }\n\n\n  //No approve needed, only from msg.sender\n  function withdrawTokens(address token, uint256 tokens) public {\n    balances[token][msg.sender] = balances[token][msg.sender].sub(tokens);\n    depositedTokens[token] = depositedTokens[token].sub(tokens);\n\n    if(!ERC20Interface(token).transfer(msg.sender, tokens)) revert();\n\n\n    Withdraw(token, msg.sender, tokens, balances[token][msg.sender]);\n  }\n\n  //Requires approval so it can be public\n  function withdrawTokensFrom( address from, address to,address token,  uint tokens) public returns (bool success) {\n      balances[token][from] = balances[token][from].sub(tokens);\n      depositedTokens[token] = depositedTokens[token].sub(tokens);\n      allowed[token][from][to] = allowed[token][from][to].sub(tokens);\n\n      if(!ERC20Interface(token).transfer(to, tokens)) revert();\n\n\n      Withdraw(token, from, tokens, balances[token][from]);\n      return true;\n  }\n\n\n  function balanceOf(address token,address user) public constant returns (uint) {\n       return balances[token][user];\n   }\n\n\n\n  //Can also be used to remove approval by using a 'tokens' value of 0\n  function approveTokens(address spender, address token, uint tokens) public returns (bool success) {\n      allowed[token][msg.sender][spender] = tokens;\n      Approval(msg.sender, token, spender, tokens);\n      return true;\n  }\n\n\n  //No approve needed, only from msg.sender\n   function transferTokens(address to, address token, uint tokens) public returns (bool success) {\n        balances[token][msg.sender] = balances[token][msg.sender].sub(tokens);\n        balances[token][to] = balances[token][to].add(tokens);\n        Transfer(msg.sender, token, to, tokens);\n        return true;\n    }\n\n\n    //Can be public because it requires approval\n   function transferTokensFrom( address from, address to,address token,  uint tokens) public returns (bool success) {\n       balances[token][from] = balances[token][from].sub(tokens);\n       allowed[token][from][to] = allowed[token][from][to].sub(tokens);\n       balances[token][to] = balances[token][to].add(tokens);\n       Transfer(token, from, to, tokens);\n       return true;\n   }\n\n   //Nonce is the same thing as a 'check number'\n   //EIP 712\n   function getLavaTypedDataHash( address from, address to, address token, uint256 tokens, uint256 relayerReward,\n                                     uint256 expires, uint256 nonce) public constant returns (bytes32)\n   {\n        bytes32 hardcodedSchemaHash = 0x313236b6cd8d12125421e44528d8f5ba070a781aeac3e5ae45e314b818734ec3 ;\n\n        bytes32 typedDataHash = sha3(\n            hardcodedSchemaHash,\n            sha3(from,to,this,token,tokens,relayerReward,expires,nonce)\n          );\n\n        return typedDataHash;\n   }\n\n\n   function tokenApprovalWithSignature(address from, address to, address token, uint256 tokens, uint256 relayerReward,\n                                     uint256 expires, uint256 nonce, bytes signature) internal returns (bool success)\n   {\n\n       bytes32 sigHash = getLavaTypedDataHash(from,to,token,tokens,relayerReward,expires,nonce);\n\n       address recoveredSignatureSigner = ECRecovery.recover(sigHash,signature);\n\n       //make sure the signer is the depositor of the tokens\n       if(from != recoveredSignatureSigner) revert();\n\n       //make sure the signature has not expired\n       if(block.number > expires) revert();\n\n       uint burnedSignature = burnedSignatures[sigHash];\n       burnedSignatures[sigHash] = 0x1; //spent\n       if(burnedSignature != 0x0 ) revert();\n\n       //approve the relayer reward\n       allowed[token][from][msg.sender] = relayerReward;\n       Approval(from, token, msg.sender, relayerReward);\n\n       //transferRelayerReward\n       if(!transferTokensFrom(from, msg.sender, token, relayerReward)) revert();\n\n       //approve transfer of tokens\n       allowed[token][from][to] = tokens;\n       Approval(from, token, to, tokens);\n\n\n       return true;\n   }\n\n   function approveTokensWithSignature(address from, address to, address token, uint256 tokens, uint256 relayerReward,\n                                     uint256 expires, uint256 nonce, bytes signature) public returns (bool success)\n   {\n       //nonce must end in 0 or 1\n       uint endOfNonce = nonce % 16;\n\n       require(endOfNonce == 0 || endOfNonce == 1);\n\n\n       if(!tokenApprovalWithSignature(from,to,token,tokens,relayerReward,expires,nonce,signature)) revert();\n\n\n       return true;\n   }\n\n   //the tokens remain in lava wallet\n  function transferTokensFromWithSignature(address from, address to,  address token, uint256 tokens,  uint256 relayerReward,\n                                    uint256 expires, uint256 nonce, bytes signature) public returns (bool success)\n  {\n    uint endOfNonce = nonce % 16;\n\n    require(endOfNonce == 2 || endOfNonce == 0);\n\n      //check to make sure that signature == ecrecover signature\n\n      if(!tokenApprovalWithSignature(from,to,token,tokens,relayerReward,expires,nonce,signature)) revert();\n\n      //it can be requested that fewer tokens be sent that were approved -- the whole approval will be invalidated though\n      if(!transferTokensFrom( from, to, token, tokens)) revert();\n\n\n      return true;\n\n  }\n\n   //The tokens are withdrawn from the lava wallet and transferred into the To account\n  function withdrawTokensFromWithSignature(address from, address to,  address token, uint256 tokens,  uint256 relayerReward,\n                                    uint256 expires, uint256 nonce, bytes signature) public returns (bool success)\n  {\n      uint endOfNonce = nonce % 16;\n\n      require(endOfNonce == 3 || endOfNonce == 0);\n      //check to make sure that signature == ecrecover signature\n\n      if(!tokenApprovalWithSignature(from,to,token,tokens,relayerReward,expires,nonce,signature)) revert();\n\n      //it can be requested that fewer tokens be sent that were approved -- the whole approval will be invalidated though\n      if(!withdrawTokensFrom( from, to, token, tokens)) revert();\n\n\n      return true;\n\n  }\n\n\n\n\n    function tokenAllowance(address token, address tokenOwner, address spender) public constant returns (uint remaining) {\n\n        return allowed[token][tokenOwner][spender];\n\n    }\n\n\n\n     function burnSignature(address from, address to, address token, uint256 tokens, uint256 relayerReward, uint256 expires, uint256 nonce,  bytes signature) public returns (bool success)\n     {\n\n        bytes32 sigHash = getLavaTypedDataHash(from,to,token,tokens,relayerReward,expires,nonce);\n\n\n         address recoveredSignatureSigner = ECRecovery.recover(sigHash,signature);\n\n         //make sure the invalidator is the signer\n         if(recoveredSignatureSigner != from) revert();\n\n         //only the original packet owner can burn signature, not a relay\n         if(from != msg.sender) revert();\n\n         //make sure this signature has never been used\n         uint burnedSignature = burnedSignatures[sigHash];\n         burnedSignatures[sigHash] = 0x2; //invalidated\n         if(burnedSignature != 0x0 ) revert();\n\n         return true;\n     }\n\n\n     //2 is burned\n     //1 is redeemed\n     function signatureBurnStatus(bytes32 digest) public view returns (uint)\n     {\n       return (burnedSignatures[digest]);\n     }\n\n\n\n\n       /*\n         Receive approval to spend tokens and perform any action all in one transaction\n       */\n     function receiveApproval(address from, uint256 tokens, address token, bytes data) public returns (bool success) {\n\n\n       return depositTokens(from, token, tokens );\n\n     }\n\n     /*\n      Approve lava tokens for a smart contract and call the contracts receiveApproval method all in one fell swoop\n      */\n     function approveAndCall(address from, address to, address token, uint256 tokens, uint256 relayerReward,\n                                       uint256 expires, uint256 nonce, bytes signature,  bytes data) public returns (bool success) {\n         uint endOfNonce = nonce % 16;\n\n         require(endOfNonce >= 4);\n\n         if(!tokenApprovalWithSignature(from,to,token,tokens,relayerReward,expires,nonce,signature)) revert();\n\n          ApproveAndCallFallBack(to).receiveApproval(from, tokens, token, data);\n\n         return true;\n\n     }\n\n\n\n // ------------------------------------------------------------------------\n\n // Owner can transfer out any accidentally sent ERC20 tokens\n // Owner CANNOT transfer out tokens which were purposefully deposited\n\n // ------------------------------------------------------------------------\n\n function transferAnyERC20Token(address tokenAddress, uint tokens) public onlyOwner returns (bool success) {\n\n    //find actual balance of the contract\n     uint tokenBalance = ERC20Interface(tokenAddress).balanceOf(this);\n\n     //find number of accidentally deposited tokens (actual - purposefully deposited)\n     uint undepositedTokens = tokenBalance.sub(depositedTokens[tokenAddress]);\n\n     //only allow withdrawing of accidentally deposited tokens\n     assert(tokens <= undepositedTokens);\n\n     if(!ERC20Interface(tokenAddress).transfer(owner, tokens)) revert();\n\n\n\n     return true;\n\n }\n\n\n\n\n}\n",
  "sourcePath": "/home/andy/dev/lava-wallet/contracts/LavaWallet.sol",
  "compiler": {
    "name": "solc",
    "version": "0.4.19+commit.c4cbbb05.Emscripten.clang"
  },
  "schemaVersion": "2.0.0",
  "updatedAt": "2018-06-13T20:38:03.510Z"
}