{
  "contractName": "LavaWallet",
  "abi": [
    {
      "inputs": [],
      "payable": false,
      "stateMutability": "nonpayable",
      "type": "constructor"
    },
    {
      "payable": true,
      "stateMutability": "payable",
      "type": "fallback"
    },
    {
      "anonymous": false,
      "inputs": [
        {
          "indexed": false,
          "name": "token",
          "type": "address"
        },
        {
          "indexed": false,
          "name": "user",
          "type": "address"
        },
        {
          "indexed": false,
          "name": "amount",
          "type": "uint256"
        },
        {
          "indexed": false,
          "name": "balance",
          "type": "uint256"
        }
      ],
      "name": "Deposit",
      "type": "event"
    },
    {
      "anonymous": false,
      "inputs": [
        {
          "indexed": false,
          "name": "token",
          "type": "address"
        },
        {
          "indexed": false,
          "name": "user",
          "type": "address"
        },
        {
          "indexed": false,
          "name": "amount",
          "type": "uint256"
        },
        {
          "indexed": false,
          "name": "balance",
          "type": "uint256"
        }
      ],
      "name": "Withdraw",
      "type": "event"
    },
    {
      "anonymous": false,
      "inputs": [
        {
          "indexed": true,
          "name": "from",
          "type": "address"
        },
        {
          "indexed": true,
          "name": "to",
          "type": "address"
        },
        {
          "indexed": false,
          "name": "token",
          "type": "address"
        },
        {
          "indexed": false,
          "name": "tokens",
          "type": "uint256"
        }
      ],
      "name": "Transfer",
      "type": "event"
    },
    {
      "anonymous": false,
      "inputs": [
        {
          "indexed": true,
          "name": "tokenOwner",
          "type": "address"
        },
        {
          "indexed": true,
          "name": "spender",
          "type": "address"
        },
        {
          "indexed": false,
          "name": "token",
          "type": "address"
        },
        {
          "indexed": false,
          "name": "tokens",
          "type": "uint256"
        }
      ],
      "name": "Approval",
      "type": "event"
    },
    {
      "constant": true,
      "inputs": [],
      "name": "getLavaPacketTypehash",
      "outputs": [
        {
          "name": "",
          "type": "bytes32"
        }
      ],
      "payable": false,
      "stateMutability": "pure",
      "type": "function"
    },
    {
      "constant": true,
      "inputs": [
        {
          "components": [
            {
              "name": "methodName",
              "type": "string"
            },
            {
              "name": "relayAuthority",
              "type": "address"
            },
            {
              "name": "from",
              "type": "address"
            },
            {
              "name": "to",
              "type": "address"
            },
            {
              "name": "wallet",
              "type": "address"
            },
            {
              "name": "token",
              "type": "address"
            },
            {
              "name": "tokens",
              "type": "uint256"
            },
            {
              "name": "relayerRewardToken",
              "type": "address"
            },
            {
              "name": "relayerRewardTokens",
              "type": "uint256"
            },
            {
              "name": "expires",
              "type": "uint256"
            },
            {
              "name": "nonce",
              "type": "uint256"
            }
          ],
          "name": "packet",
          "type": "tuple"
        }
      ],
      "name": "getLavaPacketHash",
      "outputs": [
        {
          "name": "",
          "type": "bytes32"
        }
      ],
      "payable": false,
      "stateMutability": "pure",
      "type": "function"
    },
    {
      "constant": false,
      "inputs": [
        {
          "name": "from",
          "type": "address"
        },
        {
          "name": "token",
          "type": "address"
        },
        {
          "name": "tokens",
          "type": "uint256"
        }
      ],
      "name": "depositTokens",
      "outputs": [
        {
          "name": "success",
          "type": "bool"
        }
      ],
      "payable": false,
      "stateMutability": "nonpayable",
      "type": "function"
    },
    {
      "constant": false,
      "inputs": [
        {
          "name": "token",
          "type": "address"
        },
        {
          "name": "tokens",
          "type": "uint256"
        }
      ],
      "name": "withdrawTokens",
      "outputs": [
        {
          "name": "success",
          "type": "bool"
        }
      ],
      "payable": false,
      "stateMutability": "nonpayable",
      "type": "function"
    },
    {
      "constant": false,
      "inputs": [
        {
          "name": "from",
          "type": "address"
        },
        {
          "name": "to",
          "type": "address"
        },
        {
          "name": "token",
          "type": "address"
        },
        {
          "name": "tokens",
          "type": "uint256"
        }
      ],
      "name": "withdrawTokensFrom",
      "outputs": [
        {
          "name": "success",
          "type": "bool"
        }
      ],
      "payable": false,
      "stateMutability": "nonpayable",
      "type": "function"
    },
    {
      "constant": true,
      "inputs": [
        {
          "name": "token",
          "type": "address"
        },
        {
          "name": "user",
          "type": "address"
        }
      ],
      "name": "balanceOf",
      "outputs": [
        {
          "name": "",
          "type": "uint256"
        }
      ],
      "payable": false,
      "stateMutability": "view",
      "type": "function"
    },
    {
      "constant": true,
      "inputs": [
        {
          "name": "token",
          "type": "address"
        },
        {
          "name": "tokenOwner",
          "type": "address"
        },
        {
          "name": "spender",
          "type": "address"
        }
      ],
      "name": "allowance",
      "outputs": [
        {
          "name": "remaining",
          "type": "uint256"
        }
      ],
      "payable": false,
      "stateMutability": "view",
      "type": "function"
    },
    {
      "constant": false,
      "inputs": [
        {
          "name": "spender",
          "type": "address"
        },
        {
          "name": "token",
          "type": "address"
        },
        {
          "name": "tokens",
          "type": "uint256"
        }
      ],
      "name": "approveTokens",
      "outputs": [
        {
          "name": "success",
          "type": "bool"
        }
      ],
      "payable": false,
      "stateMutability": "nonpayable",
      "type": "function"
    },
    {
      "constant": false,
      "inputs": [
        {
          "name": "to",
          "type": "address"
        },
        {
          "name": "token",
          "type": "address"
        },
        {
          "name": "tokens",
          "type": "uint256"
        }
      ],
      "name": "transferTokens",
      "outputs": [
        {
          "name": "success",
          "type": "bool"
        }
      ],
      "payable": false,
      "stateMutability": "nonpayable",
      "type": "function"
    },
    {
      "constant": false,
      "inputs": [
        {
          "name": "from",
          "type": "address"
        },
        {
          "name": "to",
          "type": "address"
        },
        {
          "name": "token",
          "type": "address"
        },
        {
          "name": "tokens",
          "type": "uint256"
        }
      ],
      "name": "transferTokensFrom",
      "outputs": [
        {
          "name": "success",
          "type": "bool"
        }
      ],
      "payable": false,
      "stateMutability": "nonpayable",
      "type": "function"
    },
    {
      "constant": true,
      "inputs": [
        {
          "components": [
            {
              "name": "methodName",
              "type": "string"
            },
            {
              "name": "relayAuthority",
              "type": "address"
            },
            {
              "name": "from",
              "type": "address"
            },
            {
              "name": "to",
              "type": "address"
            },
            {
              "name": "wallet",
              "type": "address"
            },
            {
              "name": "token",
              "type": "address"
            },
            {
              "name": "tokens",
              "type": "uint256"
            },
            {
              "name": "relayerRewardToken",
              "type": "address"
            },
            {
              "name": "relayerRewardTokens",
              "type": "uint256"
            },
            {
              "name": "expires",
              "type": "uint256"
            },
            {
              "name": "nonce",
              "type": "uint256"
            }
          ],
          "name": "packet",
          "type": "tuple"
        }
      ],
      "name": "getLavaTypedDataHash",
      "outputs": [
        {
          "name": "",
          "type": "bytes32"
        }
      ],
      "payable": false,
      "stateMutability": "view",
      "type": "function"
    },
    {
      "constant": false,
      "inputs": [
        {
          "components": [
            {
              "name": "methodName",
              "type": "string"
            },
            {
              "name": "relayAuthority",
              "type": "address"
            },
            {
              "name": "from",
              "type": "address"
            },
            {
              "name": "to",
              "type": "address"
            },
            {
              "name": "wallet",
              "type": "address"
            },
            {
              "name": "token",
              "type": "address"
            },
            {
              "name": "tokens",
              "type": "uint256"
            },
            {
              "name": "relayerRewardToken",
              "type": "address"
            },
            {
              "name": "relayerRewardTokens",
              "type": "uint256"
            },
            {
              "name": "expires",
              "type": "uint256"
            },
            {
              "name": "nonce",
              "type": "uint256"
            }
          ],
          "name": "packet",
          "type": "tuple"
        },
        {
          "name": "signature",
          "type": "bytes"
        }
      ],
      "name": "approveTokensWithSignature",
      "outputs": [
        {
          "name": "success",
          "type": "bool"
        }
      ],
      "payable": false,
      "stateMutability": "nonpayable",
      "type": "function"
    },
    {
      "constant": false,
      "inputs": [
        {
          "components": [
            {
              "name": "methodName",
              "type": "string"
            },
            {
              "name": "relayAuthority",
              "type": "address"
            },
            {
              "name": "from",
              "type": "address"
            },
            {
              "name": "to",
              "type": "address"
            },
            {
              "name": "wallet",
              "type": "address"
            },
            {
              "name": "token",
              "type": "address"
            },
            {
              "name": "tokens",
              "type": "uint256"
            },
            {
              "name": "relayerRewardToken",
              "type": "address"
            },
            {
              "name": "relayerRewardTokens",
              "type": "uint256"
            },
            {
              "name": "expires",
              "type": "uint256"
            },
            {
              "name": "nonce",
              "type": "uint256"
            }
          ],
          "name": "packet",
          "type": "tuple"
        },
        {
          "name": "signature",
          "type": "bytes"
        }
      ],
      "name": "transferTokensWithSignature",
      "outputs": [
        {
          "name": "success",
          "type": "bool"
        }
      ],
      "payable": false,
      "stateMutability": "nonpayable",
      "type": "function"
    },
    {
      "constant": false,
      "inputs": [
        {
          "components": [
            {
              "name": "methodName",
              "type": "string"
            },
            {
              "name": "relayAuthority",
              "type": "address"
            },
            {
              "name": "from",
              "type": "address"
            },
            {
              "name": "to",
              "type": "address"
            },
            {
              "name": "wallet",
              "type": "address"
            },
            {
              "name": "token",
              "type": "address"
            },
            {
              "name": "tokens",
              "type": "uint256"
            },
            {
              "name": "relayerRewardToken",
              "type": "address"
            },
            {
              "name": "relayerRewardTokens",
              "type": "uint256"
            },
            {
              "name": "expires",
              "type": "uint256"
            },
            {
              "name": "nonce",
              "type": "uint256"
            }
          ],
          "name": "packet",
          "type": "tuple"
        },
        {
          "name": "signature",
          "type": "bytes"
        }
      ],
      "name": "withdrawTokensWithSignature",
      "outputs": [
        {
          "name": "success",
          "type": "bool"
        }
      ],
      "payable": false,
      "stateMutability": "nonpayable",
      "type": "function"
    },
    {
      "constant": false,
      "inputs": [
        {
          "components": [
            {
              "name": "methodName",
              "type": "string"
            },
            {
              "name": "relayAuthority",
              "type": "address"
            },
            {
              "name": "from",
              "type": "address"
            },
            {
              "name": "to",
              "type": "address"
            },
            {
              "name": "wallet",
              "type": "address"
            },
            {
              "name": "token",
              "type": "address"
            },
            {
              "name": "tokens",
              "type": "uint256"
            },
            {
              "name": "relayerRewardToken",
              "type": "address"
            },
            {
              "name": "relayerRewardTokens",
              "type": "uint256"
            },
            {
              "name": "expires",
              "type": "uint256"
            },
            {
              "name": "nonce",
              "type": "uint256"
            }
          ],
          "name": "packet",
          "type": "tuple"
        },
        {
          "name": "signature",
          "type": "bytes"
        }
      ],
      "name": "burnSignature",
      "outputs": [
        {
          "name": "success",
          "type": "bool"
        }
      ],
      "payable": false,
      "stateMutability": "nonpayable",
      "type": "function"
    },
    {
      "constant": true,
      "inputs": [
        {
          "name": "digest",
          "type": "bytes32"
        }
      ],
      "name": "signatureBurnStatus",
      "outputs": [
        {
          "name": "",
          "type": "uint256"
        }
      ],
      "payable": false,
      "stateMutability": "view",
      "type": "function"
    },
    {
      "constant": false,
      "inputs": [
        {
          "name": "from",
          "type": "address"
        },
        {
          "name": "tokens",
          "type": "uint256"
        },
        {
          "name": "token",
          "type": "address"
        },
        {
          "name": "data",
          "type": "bytes"
        }
      ],
      "name": "receiveApproval",
      "outputs": [
        {
          "name": "success",
          "type": "bool"
        }
      ],
      "payable": false,
      "stateMutability": "nonpayable",
      "type": "function"
    },
    {
      "constant": false,
      "inputs": [
        {
          "components": [
            {
              "name": "methodName",
              "type": "string"
            },
            {
              "name": "relayAuthority",
              "type": "address"
            },
            {
              "name": "from",
              "type": "address"
            },
            {
              "name": "to",
              "type": "address"
            },
            {
              "name": "wallet",
              "type": "address"
            },
            {
              "name": "token",
              "type": "address"
            },
            {
              "name": "tokens",
              "type": "uint256"
            },
            {
              "name": "relayerRewardToken",
              "type": "address"
            },
            {
              "name": "relayerRewardTokens",
              "type": "uint256"
            },
            {
              "name": "expires",
              "type": "uint256"
            },
            {
              "name": "nonce",
              "type": "uint256"
            }
          ],
          "name": "packet",
          "type": "tuple"
        },
        {
          "name": "signature",
          "type": "bytes"
        }
      ],
      "name": "approveAndCall",
      "outputs": [
        {
          "name": "success",
          "type": "bool"
        }
      ],
      "payable": false,
      "stateMutability": "nonpayable",
      "type": "function"
    }
  ],
  "bytecode": "0x608060405234801561001057600080fd5b50613019806100206000396000f3006080604052600436106100fc576000357c0100000000000000000000000000000000000000000000000000000000900463ffffffff16806306b091f914610101578063094171101461013e57806339dc5ef21461017b5780633ba3a427146101b85780634b17bdd8146101f5578063775fe570146102325780638f4ffcb11461026f578063912d6e28146102ac578063927da105146102e9578063a1b54f6814610326578063a64b6e5f14610363578063b0e0ef09146103a0578063bc6e4db7146103dd578063c375ba8a1461041a578063c4608b2914610445578063d13c1a4214610482578063f7888aec146104bf578063fbed3dd8146104fc575b600080fd5b34801561010d57600080fd5b5061012860048036036101239190810190612909565b610539565b6040516101359190612c40565b60405180910390f35b34801561014a57600080fd5b50610165600480360361016091908101906129e9565b6107be565b6040516101729190612d75565b60405180910390f35b34801561018757600080fd5b506101a2600480360361019d91908101906128ba565b6107e3565b6040516101af9190612c40565b60405180910390f35b3480156101c457600080fd5b506101df60048036036101da9190810190612a12565b610a6b565b6040516101ec9190612c5b565b60405180910390f35b34801561020157600080fd5b5061021c60048036036102179190810190612857565b610bb5565b6040516102299190612c40565b60405180910390f35b34801561023e57600080fd5b5061025960048036036102549190810190612a12565b610fcd565b6040516102669190612c5b565b60405180910390f35b34801561027b57600080fd5b5061029660048036036102919190810190612945565b611095565b6040516102a39190612c40565b60405180910390f35b3480156102b857600080fd5b506102d360048036036102ce91908101906128ba565b6110ac565b6040516102e09190612c40565b60405180910390f35b3480156102f557600080fd5b50610310600480360361030b9190810190612808565b6111de565b60405161031d9190612d75565b60405180910390f35b34801561033257600080fd5b5061034d60048036036103489190810190612a53565b6112a3565b60405161035a9190612c40565b60405180910390f35b34801561036f57600080fd5b5061038a600480360361038591908101906128ba565b611347565b6040516103979190612c40565b60405180910390f35b3480156103ac57600080fd5b506103c760048036036103c29190810190612857565b6115d5565b6040516103d49190612c40565b60405180910390f35b3480156103e957600080fd5b5061040460048036036103ff9190810190612a53565b6119e5565b6040516104119190612c40565b60405180910390f35b34801561042657600080fd5b5061042f611a89565b60405161043c9190612c5b565b60405180910390f35b34801561045157600080fd5b5061046c60048036036104679190810190612a53565b611aa9565b6040516104799190612c40565b60405180910390f35b34801561048e57600080fd5b506104a960048036036104a49190810190612a53565b611b9c565b6040516104b69190612c40565b60405180910390f35b3480156104cb57600080fd5b506104e660048036036104e191908101906127cc565b611d53565b6040516104f39190612d75565b60405180910390f35b34801561050857600080fd5b50610523600480360361051e9190810190612a53565b611dd9565b6040516105309190612c40565b60405180910390f35b60006105c9826000808673ffffffffffffffffffffffffffffffffffffffff1673ffffffffffffffffffffffffffffffffffffffff16815260200190815260200160002060003373ffffffffffffffffffffffffffffffffffffffff1673ffffffffffffffffffffffffffffffffffffffff16815260200190815260200160002054611e5690919063ffffffff16565b6000808573ffffffffffffffffffffffffffffffffffffffff1673ffffffffffffffffffffffffffffffffffffffff16815260200190815260200160002060003373ffffffffffffffffffffffffffffffffffffffff1673ffffffffffffffffffffffffffffffffffffffff168152602001908152602001600020819055508273ffffffffffffffffffffffffffffffffffffffff1663a9059cbb33846040518363ffffffff167c010000000000000000000000000000000000000000000000000000000002815260040161069f929190612bcb565b602060405180830381600087803b1580156106b957600080fd5b505af11580156106cd573d6000803e3d6000fd5b505050506040513d601f19601f820116820180604052506106f191908101906129c0565b15156106fc57600080fd5b7ff341246adaac6f497bc2a656f546ab9e182111d630394f0c57c710a59a2cb5678333846000808873ffffffffffffffffffffffffffffffffffffffff1673ffffffffffffffffffffffffffffffffffffffff16815260200190815260200160002060003373ffffffffffffffffffffffffffffffffffffffff1673ffffffffffffffffffffffffffffffffffffffff168152602001908152602001600020546040516107ac9493929190612b4f565b60405180910390a16001905092915050565b6000600260008360001916600019168152602001908152602001600020549050919050565b60008273ffffffffffffffffffffffffffffffffffffffff166323b872dd8530856040518463ffffffff167c010000000000000000000000000000000000000000000000000000000002815260040161083e93929190612b94565b602060405180830381600087803b15801561085857600080fd5b505af115801561086c573d6000803e3d6000fd5b505050506040513d601f19601f8201168201806040525061089091908101906129c0565b151561089b57600080fd5b610929826000808673ffffffffffffffffffffffffffffffffffffffff1673ffffffffffffffffffffffffffffffffffffffff16815260200190815260200160002060008773ffffffffffffffffffffffffffffffffffffffff1673ffffffffffffffffffffffffffffffffffffffff16815260200190815260200160002054611e6f90919063ffffffff16565b6000808573ffffffffffffffffffffffffffffffffffffffff1673ffffffffffffffffffffffffffffffffffffffff16815260200190815260200160002060008673ffffffffffffffffffffffffffffffffffffffff1673ffffffffffffffffffffffffffffffffffffffff168152602001908152602001600020819055507fdcbc1c05240f31ff3ad067ef1ee35ce4997762752e3a095284754544f4c709d78385846000808873ffffffffffffffffffffffffffffffffffffffff1673ffffffffffffffffffffffffffffffffffffffff16815260200190815260200160002060008973ffffffffffffffffffffffffffffffffffffffff1673ffffffffffffffffffffffffffffffffffffffff16815260200190815260200160002054604051610a589493929190612b4f565b60405180910390a1600190509392505050565b60006040518080612f1360cd913960cd019050604051809103902082600001516040518082805190602001908083835b602083101515610ac05780518252602082019150602081019050602083039250610a9b565b6001836020036101000a038019825116818451168082178552505050505050905001915050604051809103902083602001518460400151856060015186608001518760a001518860c001518960e001518a61010001518b61012001518c6101400151604051602001610b3d9c9b9a99989796959493929190612c76565b6040516020818303038152906040526040518082805190602001908083835b602083101515610b815780518252602082019150602081019050602083039250610b5c565b6001836020036101000a03801982511681845116808217855250505050505090500191505060405180910390209050919050565b6000610c45826000808673ffffffffffffffffffffffffffffffffffffffff1673ffffffffffffffffffffffffffffffffffffffff16815260200190815260200160002060008873ffffffffffffffffffffffffffffffffffffffff1673ffffffffffffffffffffffffffffffffffffffff16815260200190815260200160002054611e5690919063ffffffff16565b6000808573ffffffffffffffffffffffffffffffffffffffff1673ffffffffffffffffffffffffffffffffffffffff16815260200190815260200160002060008773ffffffffffffffffffffffffffffffffffffffff1673ffffffffffffffffffffffffffffffffffffffff16815260200190815260200160002081905550610d9082600160008673ffffffffffffffffffffffffffffffffffffffff1673ffffffffffffffffffffffffffffffffffffffff16815260200190815260200160002060008873ffffffffffffffffffffffffffffffffffffffff1673ffffffffffffffffffffffffffffffffffffffff16815260200190815260200160002060008773ffffffffffffffffffffffffffffffffffffffff1673ffffffffffffffffffffffffffffffffffffffff16815260200190815260200160002054611e5690919063ffffffff16565b600160008573ffffffffffffffffffffffffffffffffffffffff1673ffffffffffffffffffffffffffffffffffffffff16815260200190815260200160002060008773ffffffffffffffffffffffffffffffffffffffff1673ffffffffffffffffffffffffffffffffffffffff16815260200190815260200160002060008673ffffffffffffffffffffffffffffffffffffffff1673ffffffffffffffffffffffffffffffffffffffff16815260200190815260200160002081905550610edb826000808673ffffffffffffffffffffffffffffffffffffffff1673ffffffffffffffffffffffffffffffffffffffff16815260200190815260200160002060008773ffffffffffffffffffffffffffffffffffffffff1673ffffffffffffffffffffffffffffffffffffffff16815260200190815260200160002054611e6f90919063ffffffff16565b6000808573ffffffffffffffffffffffffffffffffffffffff1673ffffffffffffffffffffffffffffffffffffffff16815260200190815260200160002060008673ffffffffffffffffffffffffffffffffffffffff1673ffffffffffffffffffffffffffffffffffffffff168152602001908152602001600020819055508473ffffffffffffffffffffffffffffffffffffffff168373ffffffffffffffffffffffffffffffffffffffff167fd1398bee19313d6bf672ccb116e51f4a1a947e91c757907f51fbb5b5e56c698f8685604051610fb9929190612bcb565b60405180910390a360019050949350505050565b600080610fd983610a6b565b60405160200180807f190100000000000000000000000000000000000000000000000000000000000081525060020182600019166000191681526020019150506040516020818303038152906040526040518082805190602001908083835b60208310151561105d5780518252602082019150602081019050602083039250611038565b6001836020036101000a0380198251168184511680821785525050505050509050019150506040518091039020905080915050919050565b60006110a28584866107e3565b9050949350505050565b600081600160008573ffffffffffffffffffffffffffffffffffffffff1673ffffffffffffffffffffffffffffffffffffffff16815260200190815260200160002060003373ffffffffffffffffffffffffffffffffffffffff1673ffffffffffffffffffffffffffffffffffffffff16815260200190815260200160002060008673ffffffffffffffffffffffffffffffffffffffff1673ffffffffffffffffffffffffffffffffffffffff168152602001908152602001600020819055508273ffffffffffffffffffffffffffffffffffffffff163373ffffffffffffffffffffffffffffffffffffffff167fa0175360a15bca328baf7ea85c7b784d58b222a50d0ce760b10dba336d226a6186856040516111cb929190612bcb565b60405180910390a3600190509392505050565b6000600160008573ffffffffffffffffffffffffffffffffffffffff1673ffffffffffffffffffffffffffffffffffffffff16815260200190815260200160002060008473ffffffffffffffffffffffffffffffffffffffff1673ffffffffffffffffffffffffffffffffffffffff16815260200190815260200160002060008373ffffffffffffffffffffffffffffffffffffffff1673ffffffffffffffffffffffffffffffffffffffff1681526020019081526020016000205490509392505050565b6000806112e96040805190810160405280600881526020017f77697468647261770000000000000000000000000000000000000000000000008152508560000151611e8d565b15156112f457600080fd5b6112fd84610fcd565b905061130a848285611fd1565b151561131557600080fd5b611331846040015185606001518660a001518760c001516115d5565b151561133c57600080fd5b600191505092915050565b60006113d7826000808673ffffffffffffffffffffffffffffffffffffffff1673ffffffffffffffffffffffffffffffffffffffff16815260200190815260200160002060003373ffffffffffffffffffffffffffffffffffffffff1673ffffffffffffffffffffffffffffffffffffffff16815260200190815260200160002054611e5690919063ffffffff16565b6000808573ffffffffffffffffffffffffffffffffffffffff1673ffffffffffffffffffffffffffffffffffffffff16815260200190815260200160002060003373ffffffffffffffffffffffffffffffffffffffff1673ffffffffffffffffffffffffffffffffffffffff168152602001908152602001600020819055506114e4826000808673ffffffffffffffffffffffffffffffffffffffff1673ffffffffffffffffffffffffffffffffffffffff16815260200190815260200160002060008773ffffffffffffffffffffffffffffffffffffffff1673ffffffffffffffffffffffffffffffffffffffff16815260200190815260200160002054611e6f90919063ffffffff16565b6000808573ffffffffffffffffffffffffffffffffffffffff1673ffffffffffffffffffffffffffffffffffffffff16815260200190815260200160002060008673ffffffffffffffffffffffffffffffffffffffff1673ffffffffffffffffffffffffffffffffffffffff168152602001908152602001600020819055508273ffffffffffffffffffffffffffffffffffffffff163373ffffffffffffffffffffffffffffffffffffffff167fd1398bee19313d6bf672ccb116e51f4a1a947e91c757907f51fbb5b5e56c698f86856040516115c2929190612bcb565b60405180910390a3600190509392505050565b60006116a382600160008673ffffffffffffffffffffffffffffffffffffffff1673ffffffffffffffffffffffffffffffffffffffff16815260200190815260200160002060008873ffffffffffffffffffffffffffffffffffffffff1673ffffffffffffffffffffffffffffffffffffffff16815260200190815260200160002060008773ffffffffffffffffffffffffffffffffffffffff1673ffffffffffffffffffffffffffffffffffffffff16815260200190815260200160002054611e5690919063ffffffff16565b600160008573ffffffffffffffffffffffffffffffffffffffff1673ffffffffffffffffffffffffffffffffffffffff16815260200190815260200160002060008773ffffffffffffffffffffffffffffffffffffffff1673ffffffffffffffffffffffffffffffffffffffff16815260200190815260200160002060008673ffffffffffffffffffffffffffffffffffffffff1673ffffffffffffffffffffffffffffffffffffffff168152602001908152602001600020819055506117ee826000808673ffffffffffffffffffffffffffffffffffffffff1673ffffffffffffffffffffffffffffffffffffffff16815260200190815260200160002060008873ffffffffffffffffffffffffffffffffffffffff1673ffffffffffffffffffffffffffffffffffffffff16815260200190815260200160002054611e5690919063ffffffff16565b6000808573ffffffffffffffffffffffffffffffffffffffff1673ffffffffffffffffffffffffffffffffffffffff16815260200190815260200160002060008773ffffffffffffffffffffffffffffffffffffffff1673ffffffffffffffffffffffffffffffffffffffff168152602001908152602001600020819055508273ffffffffffffffffffffffffffffffffffffffff1663a9059cbb85846040518363ffffffff167c01000000000000000000000000000000000000000000000000000000000281526004016118c4929190612bcb565b602060405180830381600087803b1580156118de57600080fd5b505af11580156118f2573d6000803e3d6000fd5b505050506040513d601f19601f8201168201806040525061191691908101906129c0565b151561192157600080fd5b7ff341246adaac6f497bc2a656f546ab9e182111d630394f0c57c710a59a2cb5678386846000808873ffffffffffffffffffffffffffffffffffffffff1673ffffffffffffffffffffffffffffffffffffffff16815260200190815260200160002060008a73ffffffffffffffffffffffffffffffffffffffff1673ffffffffffffffffffffffffffffffffffffffff168152602001908152602001600020546040516119d19493929190612b4f565b60405180910390a160019050949350505050565b600080611a2b6040805190810160405280600881526020017f7472616e736665720000000000000000000000000000000000000000000000008152508560000151611e8d565b1515611a3657600080fd5b611a3f84610fcd565b9050611a4c848285611fd1565b1515611a5757600080fd5b611a73846040015185606001518660a001518760c00151610bb5565b1515611a7e57600080fd5b600191505092915050565b60006040518080612f1360cd913960cd0190506040518091039020905090565b600080600080611ab886610fcd565b9250611ac48386612498565b9150856040015173ffffffffffffffffffffffffffffffffffffffff168273ffffffffffffffffffffffffffffffffffffffff16141515611b0457600080fd5b3373ffffffffffffffffffffffffffffffffffffffff16866040015173ffffffffffffffffffffffffffffffffffffffff16141515611b4257600080fd5b6002600084600019166000191681526020019081526020016000205490506002806000856000191660001916815260200190815260200160002081905550600081141515611b8f57600080fd5b6001935050505092915050565b600080611be26040805190810160405280600781526020017f617070726f7665000000000000000000000000000000000000000000000000008152508560000151611e8d565b158015611c2f5750611c2d6040805190810160405280600881526020017f7472616e736665720000000000000000000000000000000000000000000000008152508560000151611e8d565b155b8015611c7b5750611c796040805190810160405280600881526020017f77697468647261770000000000000000000000000000000000000000000000008152508560000151611e8d565b155b1515611c8657600080fd5b611c8f84610fcd565b9050611c9c848285611fd1565b1515611ca757600080fd5b836060015173ffffffffffffffffffffffffffffffffffffffff16638f4ffcb185604001518660c001518760a0015188600001516040518563ffffffff167c0100000000000000000000000000000000000000000000000000000000028152600401611d169493929190612bf4565b600060405180830381600087803b158015611d3057600080fd5b505af1158015611d44573d6000803e3d6000fd5b50505050600191505092915050565b60008060008473ffffffffffffffffffffffffffffffffffffffff1673ffffffffffffffffffffffffffffffffffffffff16815260200190815260200160002060008373ffffffffffffffffffffffffffffffffffffffff1673ffffffffffffffffffffffffffffffffffffffff16815260200190815260200160002054905092915050565b600080611e1f6040805190810160405280600781526020017f617070726f7665000000000000000000000000000000000000000000000000008152508560000151611e8d565b1515611e2a57600080fd5b611e3384610fcd565b9050611e40848285611fd1565b1515611e4b57600080fd5b600191505092915050565b6000828211151515611e6457fe5b818303905092915050565b6000808284019050838110151515611e8357fe5b8091505092915050565b60008082518451141515611ea45760009150611fca565b600090505b8351811015611fc5578281815181101515611ec057fe5b9060200101517f010000000000000000000000000000000000000000000000000000000000000090047f0100000000000000000000000000000000000000000000000000000000000000027effffffffffffffffffffffffffffffffffffffffffffffffffffffffffffff19168482815181101515611f3b57fe5b9060200101517f010000000000000000000000000000000000000000000000000000000000000090047f0100000000000000000000000000000000000000000000000000000000000000027effffffffffffffffffffffffffffffffffffffffffffffffffffffffffffff1916141515611fb85760009150611fca565b8080600101915050611ea9565b600191505b5092915050565b600080600080866020015173ffffffffffffffffffffffffffffffffffffffff16148061204357506120068660200151612560565b1580156120425750856020015173ffffffffffffffffffffffffffffffffffffffff163373ffffffffffffffffffffffffffffffffffffffff16145b5b8061212d57506120568660200151612560565b801561212c5750856020015173ffffffffffffffffffffffffffffffffffffffff16638c0636866040518163ffffffff167c0100000000000000000000000000000000000000000000000000000000028152600401602060405180830381600087803b1580156120c557600080fd5b505af11580156120d9573d6000803e3d6000fd5b505050506040513d601f19601f820116820180604052506120fd91908101906127a3565b73ffffffffffffffffffffffffffffffffffffffff163373ffffffffffffffffffffffffffffffffffffffff16145b5b151561213857600080fd5b6121428585612498565b91508173ffffffffffffffffffffffffffffffffffffffff16866040015173ffffffffffffffffffffffffffffffffffffffff1614151561218257600080fd5b8561012001514310151561219557600080fd5b6002600086600019166000191681526020019081526020016000205490506001600260008760001916600019168152602001908152602001600020819055506000811415156121e357600080fd5b856101000151600160008860e0015173ffffffffffffffffffffffffffffffffffffffff1673ffffffffffffffffffffffffffffffffffffffff1681526020019081526020016000206000886040015173ffffffffffffffffffffffffffffffffffffffff1673ffffffffffffffffffffffffffffffffffffffff16815260200190815260200160002060003373ffffffffffffffffffffffffffffffffffffffff1673ffffffffffffffffffffffffffffffffffffffff168152602001908152602001600020819055508560e0015173ffffffffffffffffffffffffffffffffffffffff16866040015173ffffffffffffffffffffffffffffffffffffffff167fa0175360a15bca328baf7ea85c7b784d58b222a50d0ce760b10dba336d226a613389610100015160405161231a929190612bcb565b60405180910390a361233b8660400151338860e00151896101000151610bb5565b151561234657600080fd5b8560c00151600160008860a0015173ffffffffffffffffffffffffffffffffffffffff1673ffffffffffffffffffffffffffffffffffffffff1681526020019081526020016000206000886040015173ffffffffffffffffffffffffffffffffffffffff1673ffffffffffffffffffffffffffffffffffffffff1681526020019081526020016000206000886060015173ffffffffffffffffffffffffffffffffffffffff1673ffffffffffffffffffffffffffffffffffffffff168152602001908152602001600020819055508560a0015173ffffffffffffffffffffffffffffffffffffffff16866040015173ffffffffffffffffffffffffffffffffffffffff167fa0175360a15bca328baf7ea85c7b784d58b222a50d0ce760b10dba336d226a6188606001518960c00151604051612483929190612bcb565b60405180910390a36001925050509392505050565b600080600080604185511415156124b25760009350612557565b6020850151925060408501519150606085015160001a9050601b8160ff1610156124dd57601b810190505b601b8160ff16141580156124f55750601c8160ff1614155b156125035760009350612557565b600186828585604051600081526020016040526040516125269493929190612d30565b60206040516020810390808403906000865af115801561254a573d6000803e3d6000fd5b5050506020604051035193505b50505092915050565b600080823b905060008111915050919050565b600061257f8235612e6d565b905092915050565b60006125938251612e6d565b905092915050565b60006125a78251612e8d565b905092915050565b60006125bb8235612e99565b905092915050565b600082601f83011215156125d657600080fd5b81356125e96125e482612dbd565b612d90565b9150808252602083016020830185838301111561260557600080fd5b612610838284612ebf565b50505092915050565b600082601f830112151561262c57600080fd5b813561263f61263a82612de9565b612d90565b9150808252602083016020830185838301111561265b57600080fd5b612666838284612ebf565b50505092915050565b6000610160828403121561268257600080fd5b61268d610160612d90565b9050600082013567ffffffffffffffff8111156126a957600080fd5b6126b584828501612619565b60008301525060206126c984828501612573565b60208301525060406126dd84828501612573565b60408301525060606126f184828501612573565b606083015250608061270584828501612573565b60808301525060a061271984828501612573565b60a08301525060c061272d8482850161278f565b60c08301525060e061274184828501612573565b60e0830152506101006127568482850161278f565b6101008301525061012061276c8482850161278f565b610120830152506101406127828482850161278f565b6101408301525092915050565b600061279b8235612ea3565b905092915050565b6000602082840312156127b557600080fd5b60006127c384828501612587565b91505092915050565b600080604083850312156127df57600080fd5b60006127ed85828601612573565b92505060206127fe85828601612573565b9150509250929050565b60008060006060848603121561281d57600080fd5b600061282b86828701612573565b935050602061283c86828701612573565b925050604061284d86828701612573565b9150509250925092565b6000806000806080858703121561286d57600080fd5b600061287b87828801612573565b945050602061288c87828801612573565b935050604061289d87828801612573565b92505060606128ae8782880161278f565b91505092959194509250565b6000806000606084860312156128cf57600080fd5b60006128dd86828701612573565b93505060206128ee86828701612573565b92505060406128ff8682870161278f565b9150509250925092565b6000806040838503121561291c57600080fd5b600061292a85828601612573565b925050602061293b8582860161278f565b9150509250929050565b6000806000806080858703121561295b57600080fd5b600061296987828801612573565b945050602061297a8782880161278f565b935050604061298b87828801612573565b925050606085013567ffffffffffffffff8111156129a857600080fd5b6129b4878288016125c3565b91505092959194509250565b6000602082840312156129d257600080fd5b60006129e08482850161259b565b91505092915050565b6000602082840312156129fb57600080fd5b6000612a09848285016125af565b91505092915050565b600060208284031215612a2457600080fd5b600082013567ffffffffffffffff811115612a3e57600080fd5b612a4a8482850161266f565b91505092915050565b60008060408385031215612a6657600080fd5b600083013567ffffffffffffffff811115612a8057600080fd5b612a8c8582860161266f565b925050602083013567ffffffffffffffff811115612aa957600080fd5b612ab5858286016125c3565b9150509250929050565b612ac881612e20565b82525050565b612ad781612e40565b82525050565b612ae681612e4c565b82525050565b6000612af782612e15565b808452612b0b816020860160208601612ece565b612b1481612f01565b602085010191505092915050565b612b2b81612ead565b82525050565b612b3a81612e56565b82525050565b612b4981612e60565b82525050565b6000608082019050612b646000830187612abf565b612b716020830186612abf565b612b7e6040830185612b31565b612b8b6060830184612b31565b95945050505050565b6000606082019050612ba96000830186612abf565b612bb66020830185612b22565b612bc36040830184612b31565b949350505050565b6000604082019050612be06000830185612abf565b612bed6020830184612b31565b9392505050565b6000608082019050612c096000830187612abf565b612c166020830186612b31565b612c236040830185612abf565b8181036060830152612c358184612aec565b905095945050505050565b6000602082019050612c556000830184612ace565b92915050565b6000602082019050612c706000830184612add565b92915050565b600061018082019050612c8c600083018f612add565b612c99602083018e612add565b612ca6604083018d612abf565b612cb3606083018c612abf565b612cc0608083018b612abf565b612ccd60a083018a612abf565b612cda60c0830189612abf565b612ce760e0830188612b31565b612cf5610100830187612abf565b612d03610120830186612b31565b612d11610140830185612b31565b612d1f610160830184612b31565b9d9c50505050505050505050505050565b6000608082019050612d456000830187612add565b612d526020830186612b40565b612d5f6040830185612add565b612d6c6060830184612add565b95945050505050565b6000602082019050612d8a6000830184612b31565b92915050565b6000604051905081810181811067ffffffffffffffff82111715612db357600080fd5b8060405250919050565b600067ffffffffffffffff821115612dd457600080fd5b601f19601f8301169050602081019050919050565b600067ffffffffffffffff821115612e0057600080fd5b601f19601f8301169050602081019050919050565b600081519050919050565b600073ffffffffffffffffffffffffffffffffffffffff82169050919050565b60008115159050919050565b6000819050919050565b6000819050919050565b600060ff82169050919050565b600073ffffffffffffffffffffffffffffffffffffffff82169050919050565b60008115159050919050565b6000819050919050565b6000819050919050565b6000612eb882612e20565b9050919050565b82818337600083830152505050565b60005b83811015612eec578082015181840152602081019050612ed1565b83811115612efb576000848401525b50505050565b6000601f19601f830116905091905056004c6176615061636b657428737472696e67206d6574686f644e616d652c616464726573732072656c6179417574686f726974792c616464726573732066726f6d2c6164647265737320746f2c616464726573732077616c6c65742c6164647265737320746f6b656e2c75696e7432353620746f6b656e732c616464726573732072656c61796572526577617264546f6b656e2c75696e743235362072656c61796572526577617264546f6b656e732c75696e7432353620657870697265732c75696e74323536206e6f6e636529a265627a7a72305820521bf8f480a4b3ad208a2a9786c231d67a725c289858f952ed30d7b2e8e7d98f6c6578706572696d656e74616cf50037",
  "source": "pragma solidity ^0.4.24;\n\n\npragma experimental ABIEncoderV2;\n\n/**\n * @title SafeMath\n * @dev Math operations with safety checks that throw on error\n */\nlibrary SafeMath {\n\n  /**\n  * @dev Multiplies two numbers, throws on overflow.\n  */\n  function mul(uint256 a, uint256 b) internal pure returns (uint256) {\n    if (a == 0) {\n      return 0;\n    }\n    uint256 c = a * b;\n    assert(c / a == b);\n    return c;\n  }\n\n  /**\n  * @dev Integer division of two numbers, truncating the quotient.\n  */\n  function div(uint256 a, uint256 b) internal pure returns (uint256) {\n    // assert(b > 0); // Solidity automatically throws when dividing by 0\n    uint256 c = a / b;\n    // assert(a == b * c + a % b); // There is no case in which this doesn't hold\n    return c;\n  }\n\n  /**\n  * @dev Substracts two numbers, throws on overflow (i.e. if subtrahend is greater than minuend).\n  */\n  function sub(uint256 a, uint256 b) internal pure returns (uint256) {\n    assert(b <= a);\n    return a - b;\n  }\n\n  /**\n  * @dev Adds two numbers, throws on overflow.\n  */\n  function add(uint256 a, uint256 b) internal pure returns (uint256) {\n    uint256 c = a + b;\n    assert(c >= a);\n    return c;\n  }\n}\n\n\ncontract ECRecovery {\n\n  /**\n   * @dev Recover signer address from a message by using their signature\n   * @param hash bytes32 message, the hash is the signed message. What is recovered is the signer address.\n   * @param sig bytes signature, the signature is generated using web3.eth.sign()\n   */\n  function recover(bytes32 hash, bytes sig) internal  pure returns (address) {\n    bytes32 r;\n    bytes32 s;\n    uint8 v;\n\n    //Check the signature length\n    if (sig.length != 65) {\n      return (address(0));\n    }\n\n    // Divide the signature in r, s and v variables\n    assembly {\n      r := mload(add(sig, 32))\n      s := mload(add(sig, 64))\n      v := byte(0, mload(add(sig, 96)))\n    }\n\n    // Version of signature should be 27 or 28, but 0 and 1 are also possible versions\n    if (v < 27) {\n      v += 27;\n    }\n\n    // If the version is correct return the signer address\n    if (v != 27 && v != 28) {\n      return (address(0));\n    } else {\n      return ecrecover(hash, v, r, s);\n    }\n  }\n\n}\n\n\n\n/*\n\nThis is a token wallet contract\n\nStore your tokens in this contract to give them super powers\n\nTokens can be spent from the contract with only an ecSignature from the owner - onchain approve is not needed\n\n\n*/\n\ncontract ERC20Interface {\n    function totalSupply() public constant returns (uint);\n    function balanceOf(address tokenOwner) public constant returns (uint balance);\n    function allowance(address tokenOwner, address spender) public constant returns (uint remaining);\n    function transfer(address to, uint tokens) public returns (bool success);\n    function approve(address spender, uint tokens) public returns (bool success);\n    function transferFrom(address from, address to, uint tokens) public returns (bool success);\n\n    event Transfer(address indexed from, address indexed to, uint tokens);\n    event Approval(address indexed tokenOwner, address indexed spender, uint tokens);\n}\ncontract ERC918Interface {\n  function totalSupply() public constant returns (uint);\n  function getMiningDifficulty() public constant returns (uint);\n  function getMiningTarget() public constant returns (uint);\n  function getMiningReward() public constant returns (uint);\n  function balanceOf(address tokenOwner) public constant returns (uint balance);\n\n  function mint(uint256 nonce, bytes32 challenge_digest) public returns (bool success);\n\n  event Mint(address indexed from, uint reward_amount, uint epochCount, bytes32 newChallengeNumber);\n\n}\n\n/*contract MiningKingInterface {\n    function getMiningKing() public returns (address);\n    function transferKing(address newKing) public;\n    function mint(uint256 nonce, bytes32 challenge_digest) returns (bool);\n\n    event TransferKing(address from, address to);\n}*/\n\ncontract RelayAuthorityInterface {\n    function getRelayAuthority() public returns (address);\n}\n\ncontract ApproveAndCallFallBack {\n    function receiveApproval(address from, uint256 tokens, address token, bytes data) public;\n}\n\n\n\n\n\n\ncontract LavaWallet is ECRecovery{\n\n  using SafeMath for uint;\n\n  // balances[tokenContractAddress][EthereumAccountAddress] = 0\n   mapping(address => mapping (address => uint256)) balances;\n\n   //token => owner => spender : amount\n   mapping(address => mapping (address => mapping (address => uint256))) allowed;\n\n   //mapping(address => uint256) depositedTokens;\n\n   mapping(bytes32 => uint256) burnedSignatures;\n\n\n  event Deposit(address token, address user, uint amount, uint balance);\n  event Withdraw(address token, address user, uint amount, uint balance);\n  event Transfer(address indexed from, address indexed to,address token, uint tokens);\n  event Approval(address indexed tokenOwner, address indexed spender,address token, uint tokens);\n\n\n\n  /*struct EIP712Domain {\n      string  name;\n      address verifyingContract;\n  }*/\n\n\n  struct LavaPacket {\n    string methodName;\n    address relayAuthority; //either a contract or an account\n    address from;\n    address to;\n    address wallet;  //this contract address\n    address token;\n    uint256 tokens;\n    address relayerRewardToken;\n    uint256 relayerRewardTokens;\n    uint256 expires;\n    uint256 nonce;\n  }\n\n\n  /*\n      MUST update these if architecture changes !!\n      MAKE SURE there are no spaces !\n  */\n//  bytes32 constant EIP712DOMAIN_TYPEHASH = keccak256(\n//      \"EIP712Domain(string name,address verifyingContract)\"\n//  );\n\n  bytes32 constant LAVAPACKET_TYPEHASH = keccak256(\n      \"LavaPacket(string methodName,address relayAuthority,address from,address to,address wallet,address token,uint256 tokens,address relayerRewardToken,uint256 relayerRewardTokens,uint256 expires,uint256 nonce)\"\n  );\n\n\n\n//  function getDomainTypehash()   pure returns (bytes32) {\n//      return EIP712DOMAIN_TYPEHASH;\n//  }\n\n    function getLavaPacketTypehash()   pure returns (bytes32) {\n      return LAVAPACKET_TYPEHASH;\n  }\n\n\n\n\n/*  function getDomainHash(EIP712Domain eip712Domain)  pure returns (bytes32) {\n        return keccak256(abi.encode(\n            EIP712DOMAIN_TYPEHASH,\n            keccak256(bytes(eip712Domain.name)),\n            eip712Domain.verifyingContract\n        ));\n    }*/\n\n    function getLavaPacketHash(LavaPacket packet)  pure returns (bytes32) {\n        return keccak256(abi.encode(\n            LAVAPACKET_TYPEHASH,\n            keccak256(bytes(packet.methodName)),\n            packet.relayAuthority,\n            packet.from,\n            packet.to,\n            packet.wallet,\n            packet.token,\n            packet.tokens,\n            packet.relayerRewardToken,\n            packet.relayerRewardTokens,\n            packet.expires,\n            packet.nonce\n        //    keccak256(bytes(packet.callData))\n        ));\n    }\n\n\n\nconstructor(  )  {\n\n\n  }\n\n\n  //do not allow ether to enter\n  function() public payable {\n      revert();\n  }\n\n\n   //Remember you need pre-approval for this - nice with ApproveAndCall\n  function depositTokens(address from, address token, uint256 tokens ) public returns (bool success)\n  {\n      //we already have approval so lets do a transferFrom - transfer the tokens into this contract\n\n      require(ERC20Interface(token).transferFrom(from, this, tokens));\n\n      balances[token][from] = balances[token][from].add(tokens);\n  //    depositedTokens[token] = depositedTokens[token].add(tokens);\n\n      emit Deposit(token, from, tokens, balances[token][from]);\n\n      return true;\n  }\n\n\n  //No approve needed, only from msg.sender\n  function withdrawTokens(address token, uint256 tokens) public returns (bool success){\n     balances[token][msg.sender] = balances[token][msg.sender].sub(tokens);\n\n     require(ERC20Interface(token).transfer(msg.sender, tokens));\n\n\n     emit Withdraw(token, msg.sender, tokens, balances[token][msg.sender]);\n     return true;\n  }\n\n  //Requires approval so it can be public\n  function withdrawTokensFrom( address from, address to,address token,  uint tokens) public returns (bool success) {\n\n       allowed[token][from][to] = allowed[token][from][to].sub(tokens);\n       balances[token][from] = balances[token][from].sub(tokens);\n\n      require(ERC20Interface(token).transfer(to, tokens));\n\n\n      emit Withdraw(token, from, tokens, balances[token][from]);\n      return true;\n  }\n\n\n  function balanceOf(address token,address user) public constant returns (uint) {\n       return balances[token][user];\n   }\n\n\n\n   function allowance(address token, address tokenOwner, address spender) public constant returns (uint remaining) {\n\n       return allowed[token][tokenOwner][spender];\n\n   }\n\n\n\n\n  //Can also be used to remove approval by using a 'tokens' value of 0.  P.S. it makes no sense to do an ApproveTokensFrom\n  function approveTokens(address spender, address token, uint tokens) public returns (bool success) {\n      allowed[token][msg.sender][spender] = tokens;\n      emit Approval(msg.sender, token, spender, tokens);\n      return true;\n  }\n\n  ///transfer tokens within the lava balances\n  //No approve needed, only from msg.sender\n   function transferTokens(address to, address token, uint tokens) public returns (bool success) {\n        balances[token][msg.sender] = balances[token][msg.sender].sub(tokens);\n        balances[token][to] = balances[token][to].add(tokens);\n        emit Transfer(msg.sender, token, to, tokens);\n        return true;\n    }\n\n\n    ///transfer tokens within the lava balances\n    //Can be public because it requires approval\n   function transferTokensFrom( address from, address to,address token,  uint tokens) public returns (bool success) {\n       balances[token][from] = balances[token][from].sub(tokens);\n       allowed[token][from][to] = allowed[token][from][to].sub(tokens);\n       balances[token][to] = balances[token][to].add(tokens);\n       emit Transfer(token, from, to, tokens);\n       return true;\n   }\n\n\n\n  // function getLavaPacket(address from,)\n\n   //This replaces getLavaTypedDataHash .. how to handle methodName?\n\n   function getLavaTypedDataHash(LavaPacket packet) public  constant returns (bytes32) {\n\n\n          // Note: we need to use `encodePacked` here instead of `encode`.\n          bytes32 digest = keccak256(abi.encodePacked(\n              \"\\x19\\x01\",\n            //  DOMAIN_SEPARATOR,\n              getLavaPacketHash(packet)\n          ));\n          return digest;\n      }\n\n\n\n   //Nonce is the same thing as a 'check number'\n   //EIP 712\n/*   function getLavaTypedDataHash(bytes methodName, LavaPacket packet ) public constant returns (bytes32)\n   {\n\n\n         bytes32 hardcodedSchemaHash = 0x8fd4f9177556bbc74d0710c8bdda543afd18cc84d92d64b5620d5f1881dceb37; //with methodName\n\n\n        bytes32 typedDataHash = sha3(\n            hardcodedSchemaHash,\n            sha3(methodName,packet.from,packet.to,this,packet.token,packet.tokens,packet.relayerReward,packet.expires,packet.nonce)\n          );\n\n        return typedDataHash;\n   }*/\n\n\n\n\n\n\n\n\n   function _tokenApprovalWithSignature(  LavaPacket packet, bytes32 sigHash, bytes signature) internal returns (bool success)\n   {\n\n       /*\n        Always allow relaying if the specified relayAuthority is 0.\n        If the authority address is not a contract, allow it to relay\n        If the authority address is a contract, allow its defined 'getAuthority()' delegate to relay\n       */\n\n       require( packet.relayAuthority == 0x0\n         || (!addressContainsContract(packet.relayAuthority) && msg.sender == packet.relayAuthority)\n         || (addressContainsContract(packet.relayAuthority) && msg.sender == RelayAuthorityInterface(packet.relayAuthority).getRelayAuthority())  );\n\n\n\n      address recoveredSignatureSigner = recover(sigHash,signature);\n\n\n       //make sure the signer is the depositor of the tokens\n       require(packet.from == recoveredSignatureSigner);\n\n\n       //make sure the signature has not expired\n       require(block.number < packet.expires);\n\n       uint burnedSignature = burnedSignatures[sigHash];\n       burnedSignatures[sigHash] = 0x1; //spent\n       require(burnedSignature == 0x0 );\n\n       //approve the relayer reward\n       allowed[packet.relayerRewardToken][packet.from][msg.sender] = packet.relayerRewardTokens;\n       emit Approval(packet.from, packet.relayerRewardToken, msg.sender, packet.relayerRewardTokens);\n\n       //transferRelayerReward\n       require(transferTokensFrom(packet.from, msg.sender, packet.relayerRewardToken, packet.relayerRewardTokens));\n\n       //approve transfer of tokens\n       allowed[packet.token][packet.from][packet.to] = packet.tokens;\n       emit Approval(packet.from, packet.token, packet.to, packet.tokens);\n\n\n       return true;\n   }\n\n\n\n   function approveTokensWithSignature(LavaPacket packet, bytes signature) public returns (bool success)\n   {\n       require(bytesEqual('approve',bytes(packet.methodName)));\n\n       bytes32 sigHash = getLavaTypedDataHash(packet);\n\n       require(_tokenApprovalWithSignature(packet,sigHash,signature));\n\n\n       return true;\n   }\n\n\n   //the tokens remain in lava wallet\n  function transferTokensWithSignature(LavaPacket packet, bytes signature) public returns (bool success)\n  {\n\n      require(bytesEqual('transfer',bytes(packet.methodName)));\n\n      //check to make sure that signature == ecrecover signature\n      bytes32 sigHash = getLavaTypedDataHash(packet);\n\n      require(_tokenApprovalWithSignature(packet,sigHash,signature));\n\n      //it can be requested that fewer tokens be sent that were approved -- the whole approval will be invalidated though\n      require(transferTokensFrom( packet.from, packet.to, packet.token, packet.tokens));\n\n\n      return true;\n\n  }\n\n\n  //the tokens remain in lava wallet\n function withdrawTokensWithSignature(LavaPacket packet, bytes signature) public returns (bool success)\n {\n     require(bytesEqual('withdraw',bytes(packet.methodName)));\n\n     //check to make sure that signature == ecrecover signature\n     bytes32 sigHash = getLavaTypedDataHash(packet);\n\n     require(_tokenApprovalWithSignature(packet,sigHash,signature));\n\n     //it can be requested that fewer tokens be sent that were approved -- the whole approval will be invalidated though\n     require(withdrawTokensFrom( packet.from, packet.to, packet.token, packet.tokens));\n\n\n     return true;\n\n }\n\n\n\n\n\n     function burnSignature( LavaPacket packet,  bytes signature) public returns (bool success)\n     {\n\n\n        bytes32 sigHash = getLavaTypedDataHash( packet);\n\n         address recoveredSignatureSigner = recover(sigHash,signature);\n\n         //make sure the invalidator is the signer\n         require(recoveredSignatureSigner == packet.from);\n\n         //only the original packet owner can burn signature, not a relay\n         require(packet.from == msg.sender);\n\n         //make sure this signature has never been used\n         uint burnedSignature = burnedSignatures[sigHash];\n         burnedSignatures[sigHash] = 0x2; //invalidated\n         require(burnedSignature == 0x0);\n\n         return true;\n     }\n\n\n     function signatureBurnStatus(bytes32 digest) public view returns (uint)\n     {\n       return (burnedSignatures[digest]);\n     }\n\n\n\n\n       /*\n         Receive approval to spend tokens and perform any action all in one transaction\n       */\n     function receiveApproval(address from, uint256 tokens, address token, bytes data) public returns (bool success) {\n\n\n       return depositTokens(from, token, tokens );\n\n     }\n\n     /*\n      Approve lava tokens for a smart contract and call the contracts receiveApproval method all in one fell swoop\n\n\n      */\n     function approveAndCall( LavaPacket packet, bytes signature ) public returns (bool success)   {\n\n      // address from, address to, address token, uint256 tokens, uint256 relayerReward,  uint256 expires, uint256 nonce\n\n\n      require(!bytesEqual('approve',bytes(packet.methodName))\n      && !bytesEqual('transfer',bytes(packet.methodName))\n      && !bytesEqual('withdraw',bytes(packet.methodName)) );\n\n        bytes32 sigHash = getLavaTypedDataHash( packet);\n\n\n        require(_tokenApprovalWithSignature(packet,sigHash,signature));\n\n        ApproveAndCallFallBack(packet.to).receiveApproval(packet.from, packet.tokens, packet.token, bytes(packet.methodName));\n\n        return true;\n     }\n\n\n\n     function addressContainsContract(address _to) view internal returns (bool)\n     {\n       uint codeLength;\n\n        assembly {\n            // Retrieve the size of the code on target address, this needs assembly .\n            codeLength := extcodesize(_to)\n        }\n\n         return (codeLength>0);\n     }\n\n\n     function bytesEqual(bytes b1,bytes b2) pure internal returns (bool)\n        {\n          if(b1.length != b2.length) return false;\n\n          for (uint i=0; i<b1.length; i++) {\n            if(b1[i] != b2[i]) return false;\n          }\n\n          return true;\n        }\n\n\n}\n",
  "sourcePath": "/home/andy/dev/lava-wallet/contracts/LavaWallet.sol",
  "compiler": {
    "name": "solc",
    "version": "0.4.24+commit.e67f0147.Emscripten.clang"
  },
  "schemaVersion": "2.0.1",
  "updatedAt": "2018-11-21T04:11:55.891Z"
}