{
  "contractName": "LavaWallet",
  "abi": [
    {
      "constant": true,
      "inputs": [
        {
          "name": "",
          "type": "address"
        },
        {
          "name": "",
          "type": "bytes32"
        }
      ],
      "name": "signatureApprovalDrained",
      "outputs": [
        {
          "name": "",
          "type": "uint256"
        }
      ],
      "payable": false,
      "stateMutability": "view",
      "type": "function"
    },
    {
      "inputs": [],
      "payable": false,
      "stateMutability": "nonpayable",
      "type": "constructor"
    },
    {
      "payable": true,
      "stateMutability": "payable",
      "type": "fallback"
    },
    {
      "anonymous": false,
      "inputs": [
        {
          "indexed": false,
          "name": "token",
          "type": "address"
        },
        {
          "indexed": false,
          "name": "user",
          "type": "address"
        },
        {
          "indexed": false,
          "name": "amount",
          "type": "uint256"
        },
        {
          "indexed": false,
          "name": "balance",
          "type": "uint256"
        }
      ],
      "name": "Deposit",
      "type": "event"
    },
    {
      "anonymous": false,
      "inputs": [
        {
          "indexed": false,
          "name": "token",
          "type": "address"
        },
        {
          "indexed": false,
          "name": "user",
          "type": "address"
        },
        {
          "indexed": false,
          "name": "amount",
          "type": "uint256"
        },
        {
          "indexed": false,
          "name": "balance",
          "type": "uint256"
        }
      ],
      "name": "Withdraw",
      "type": "event"
    },
    {
      "anonymous": false,
      "inputs": [
        {
          "indexed": true,
          "name": "from",
          "type": "address"
        },
        {
          "indexed": true,
          "name": "to",
          "type": "address"
        },
        {
          "indexed": false,
          "name": "token",
          "type": "address"
        },
        {
          "indexed": false,
          "name": "tokens",
          "type": "uint256"
        }
      ],
      "name": "Transfer",
      "type": "event"
    },
    {
      "anonymous": false,
      "inputs": [
        {
          "indexed": true,
          "name": "tokenOwner",
          "type": "address"
        },
        {
          "indexed": true,
          "name": "spender",
          "type": "address"
        },
        {
          "indexed": false,
          "name": "token",
          "type": "address"
        },
        {
          "indexed": false,
          "name": "tokens",
          "type": "uint256"
        }
      ],
      "name": "Approval",
      "type": "event"
    },
    {
      "constant": false,
      "inputs": [
        {
          "name": "wrappingContract",
          "type": "address"
        },
        {
          "name": "preApprove",
          "type": "address"
        }
      ],
      "name": "depositAndWrap",
      "outputs": [],
      "payable": true,
      "stateMutability": "payable",
      "type": "function"
    },
    {
      "constant": false,
      "inputs": [
        {
          "name": "token",
          "type": "address"
        },
        {
          "name": "tokens",
          "type": "uint256"
        }
      ],
      "name": "unwrapAndWithdraw",
      "outputs": [],
      "payable": false,
      "stateMutability": "nonpayable",
      "type": "function"
    },
    {
      "constant": false,
      "inputs": [
        {
          "name": "from",
          "type": "address"
        },
        {
          "name": "token",
          "type": "address"
        },
        {
          "name": "tokens",
          "type": "uint256"
        },
        {
          "name": "preApprove",
          "type": "address"
        }
      ],
      "name": "depositTokens",
      "outputs": [
        {
          "name": "",
          "type": "bool"
        }
      ],
      "payable": false,
      "stateMutability": "nonpayable",
      "type": "function"
    },
    {
      "constant": false,
      "inputs": [
        {
          "name": "token",
          "type": "address"
        },
        {
          "name": "tokens",
          "type": "uint256"
        }
      ],
      "name": "withdrawTokens",
      "outputs": [],
      "payable": false,
      "stateMutability": "nonpayable",
      "type": "function"
    },
    {
      "constant": false,
      "inputs": [
        {
          "name": "from",
          "type": "address"
        },
        {
          "name": "to",
          "type": "address"
        },
        {
          "name": "token",
          "type": "address"
        },
        {
          "name": "tokens",
          "type": "uint256"
        }
      ],
      "name": "withdrawTokensFrom",
      "outputs": [
        {
          "name": "success",
          "type": "bool"
        }
      ],
      "payable": false,
      "stateMutability": "nonpayable",
      "type": "function"
    },
    {
      "constant": true,
      "inputs": [
        {
          "name": "token",
          "type": "address"
        },
        {
          "name": "user",
          "type": "address"
        }
      ],
      "name": "balanceOf",
      "outputs": [
        {
          "name": "",
          "type": "uint256"
        }
      ],
      "payable": false,
      "stateMutability": "view",
      "type": "function"
    },
    {
      "constant": false,
      "inputs": [
        {
          "name": "spender",
          "type": "address"
        },
        {
          "name": "token",
          "type": "address"
        },
        {
          "name": "tokens",
          "type": "uint256"
        }
      ],
      "name": "approveTokens",
      "outputs": [
        {
          "name": "success",
          "type": "bool"
        }
      ],
      "payable": false,
      "stateMutability": "nonpayable",
      "type": "function"
    },
    {
      "constant": false,
      "inputs": [
        {
          "name": "spender",
          "type": "address"
        },
        {
          "name": "token",
          "type": "address"
        },
        {
          "name": "tokens",
          "type": "uint256"
        }
      ],
      "name": "approveAddTokens",
      "outputs": [
        {
          "name": "success",
          "type": "bool"
        }
      ],
      "payable": false,
      "stateMutability": "nonpayable",
      "type": "function"
    },
    {
      "constant": false,
      "inputs": [
        {
          "name": "to",
          "type": "address"
        },
        {
          "name": "token",
          "type": "address"
        },
        {
          "name": "tokens",
          "type": "uint256"
        }
      ],
      "name": "transferTokens",
      "outputs": [
        {
          "name": "success",
          "type": "bool"
        }
      ],
      "payable": false,
      "stateMutability": "nonpayable",
      "type": "function"
    },
    {
      "constant": false,
      "inputs": [
        {
          "name": "from",
          "type": "address"
        },
        {
          "name": "to",
          "type": "address"
        },
        {
          "name": "token",
          "type": "address"
        },
        {
          "name": "tokens",
          "type": "uint256"
        }
      ],
      "name": "transferTokensFrom",
      "outputs": [
        {
          "name": "success",
          "type": "bool"
        }
      ],
      "payable": false,
      "stateMutability": "nonpayable",
      "type": "function"
    },
    {
      "constant": false,
      "inputs": [
        {
          "name": "from",
          "type": "address"
        },
        {
          "name": "to",
          "type": "address"
        },
        {
          "name": "walletAddress",
          "type": "address"
        },
        {
          "name": "token",
          "type": "address"
        },
        {
          "name": "tokens",
          "type": "uint256"
        },
        {
          "name": "relayerReward",
          "type": "uint256"
        },
        {
          "name": "expires",
          "type": "uint256"
        },
        {
          "name": "nonce",
          "type": "uint256"
        }
      ],
      "name": "getLavaTypedDataHash",
      "outputs": [
        {
          "name": "",
          "type": "bytes32"
        }
      ],
      "payable": false,
      "stateMutability": "nonpayable",
      "type": "function"
    },
    {
      "constant": false,
      "inputs": [
        {
          "name": "from",
          "type": "address"
        },
        {
          "name": "to",
          "type": "address"
        },
        {
          "name": "token",
          "type": "address"
        },
        {
          "name": "tokens",
          "type": "uint256"
        },
        {
          "name": "relayerReward",
          "type": "uint256"
        },
        {
          "name": "expires",
          "type": "uint256"
        },
        {
          "name": "nonce",
          "type": "uint256"
        },
        {
          "name": "signature",
          "type": "bytes"
        }
      ],
      "name": "approveTokensWithSignature",
      "outputs": [
        {
          "name": "",
          "type": "bool"
        }
      ],
      "payable": false,
      "stateMutability": "nonpayable",
      "type": "function"
    },
    {
      "constant": false,
      "inputs": [
        {
          "name": "from",
          "type": "address"
        },
        {
          "name": "to",
          "type": "address"
        },
        {
          "name": "relayerReward",
          "type": "uint256"
        },
        {
          "name": "tokens",
          "type": "uint256"
        },
        {
          "name": "token",
          "type": "address"
        },
        {
          "name": "expires",
          "type": "uint256"
        },
        {
          "name": "nonce",
          "type": "uint256"
        },
        {
          "name": "signature",
          "type": "bytes"
        }
      ],
      "name": "withdrawTokensFromWithSignature",
      "outputs": [
        {
          "name": "",
          "type": "bool"
        }
      ],
      "payable": false,
      "stateMutability": "nonpayable",
      "type": "function"
    },
    {
      "constant": false,
      "inputs": [
        {
          "name": "from",
          "type": "address"
        },
        {
          "name": "to",
          "type": "address"
        },
        {
          "name": "relayerReward",
          "type": "uint256"
        },
        {
          "name": "tokens",
          "type": "uint256"
        },
        {
          "name": "token",
          "type": "address"
        },
        {
          "name": "expires",
          "type": "uint256"
        },
        {
          "name": "nonce",
          "type": "uint256"
        },
        {
          "name": "signature",
          "type": "bytes"
        }
      ],
      "name": "transferTokensFromWithSignature",
      "outputs": [
        {
          "name": "",
          "type": "bool"
        }
      ],
      "payable": false,
      "stateMutability": "nonpayable",
      "type": "function"
    },
    {
      "constant": true,
      "inputs": [
        {
          "name": "token",
          "type": "address"
        },
        {
          "name": "tokenOwner",
          "type": "address"
        },
        {
          "name": "spender",
          "type": "address"
        }
      ],
      "name": "tokenAllowance",
      "outputs": [
        {
          "name": "remaining",
          "type": "uint256"
        }
      ],
      "payable": false,
      "stateMutability": "view",
      "type": "function"
    },
    {
      "constant": false,
      "inputs": [
        {
          "name": "from",
          "type": "address"
        },
        {
          "name": "to",
          "type": "address"
        },
        {
          "name": "tokens",
          "type": "uint256"
        },
        {
          "name": "token",
          "type": "address"
        },
        {
          "name": "expires",
          "type": "uint256"
        },
        {
          "name": "nonce",
          "type": "uint256"
        },
        {
          "name": "signature",
          "type": "bytes"
        }
      ],
      "name": "burnSignature",
      "outputs": [
        {
          "name": "",
          "type": "bool"
        }
      ],
      "payable": false,
      "stateMutability": "nonpayable",
      "type": "function"
    },
    {
      "constant": true,
      "inputs": [
        {
          "name": "digest",
          "type": "bytes32"
        }
      ],
      "name": "signatureBurned",
      "outputs": [
        {
          "name": "",
          "type": "bool"
        }
      ],
      "payable": false,
      "stateMutability": "view",
      "type": "function"
    },
    {
      "constant": false,
      "inputs": [
        {
          "name": "from",
          "type": "address"
        },
        {
          "name": "tokens",
          "type": "uint256"
        },
        {
          "name": "token",
          "type": "address"
        },
        {
          "name": "data",
          "type": "bytes"
        }
      ],
      "name": "receiveApproval",
      "outputs": [
        {
          "name": "",
          "type": "bool"
        }
      ],
      "payable": false,
      "stateMutability": "nonpayable",
      "type": "function"
    },
    {
      "constant": true,
      "inputs": [
        {
          "name": "_address",
          "type": "bytes"
        }
      ],
      "name": "bytesToAddress",
      "outputs": [
        {
          "name": "",
          "type": "address"
        }
      ],
      "payable": false,
      "stateMutability": "pure",
      "type": "function"
    }
  ],
  "bytecode": "0x6060604052341561000f57600080fd5b6133c28061001e6000396000f300606060405260043610610112576000357c0100000000000000000000000000000000000000000000000000000000900463ffffffff16806306b091f9146101175780632486c729146101595780632cfcfe1e1461019b57806339e69c6e1461029157806342526e4e146103675780634b17bdd814610404578063884ddf911461049c5780638e8758d8146105895780638f4ffcb114610614578063912d6e28146106d05780639e64415c14610749578063a51fbb3f146107c2578063a64b6e5f146108b8578063b0e0ef0914610931578063b1d1ec19146109c9578063bf41a23514610a61578063df8f373e14610abb578063ee85284414610afa578063f7888aec14610bf0578063ffbc52de14610c5c575b600080fd5b341561012257600080fd5b610157600480803573ffffffffffffffffffffffffffffffffffffffff16906020019091908035906020019091905050610ca9565b005b341561016457600080fd5b610199600480803573ffffffffffffffffffffffffffffffffffffffff16906020019091908035906020019091905050610fa3565b005b34156101a657600080fd5b610277600480803573ffffffffffffffffffffffffffffffffffffffff1690602001909190803573ffffffffffffffffffffffffffffffffffffffff1690602001909190803590602001909190803590602001909190803573ffffffffffffffffffffffffffffffffffffffff1690602001909190803590602001909190803590602001909190803590602001908201803590602001908080601f016020809104026020016040519081016040528093929190818152602001838380828437820191505050505050919050506111e8565b604051808215151515815260200191505060405180910390f35b341561029c57600080fd5b610349600480803573ffffffffffffffffffffffffffffffffffffffff1690602001909190803573ffffffffffffffffffffffffffffffffffffffff1690602001909190803573ffffffffffffffffffffffffffffffffffffffff1690602001909190803573ffffffffffffffffffffffffffffffffffffffff16906020019091908035906020019091908035906020019091908035906020019091908035906020019091905050611243565b60405180826000191660001916815260200191505060405180910390f35b341561037257600080fd5b6103c2600480803590602001908201803590602001908080601f016020809104026020016040519081016040528093929190818152602001838380828437820191505050505050919050506113e8565b604051808273ffffffffffffffffffffffffffffffffffffffff1673ffffffffffffffffffffffffffffffffffffffff16815260200191505060405180910390f35b341561040f57600080fd5b610482600480803573ffffffffffffffffffffffffffffffffffffffff1690602001909190803573ffffffffffffffffffffffffffffffffffffffff1690602001909190803573ffffffffffffffffffffffffffffffffffffffff169060200190919080359060200190919050506114ac565b604051808215151515815260200191505060405180910390f35b34156104a757600080fd5b61056f600480803573ffffffffffffffffffffffffffffffffffffffff1690602001909190803573ffffffffffffffffffffffffffffffffffffffff1690602001909190803590602001909190803573ffffffffffffffffffffffffffffffffffffffff1690602001909190803590602001909190803590602001909190803590602001908201803590602001908080601f016020809104026020016040519081016040528093929190818152602001838380828437820191505050505050919050506118f6565b604051808215151515815260200191505060405180910390f35b341561059457600080fd5b6105fe600480803573ffffffffffffffffffffffffffffffffffffffff1690602001909190803573ffffffffffffffffffffffffffffffffffffffff1690602001909190803573ffffffffffffffffffffffffffffffffffffffff16906020019091905050611bf7565b6040518082815260200191505060405180910390f35b341561061f57600080fd5b6106b6600480803573ffffffffffffffffffffffffffffffffffffffff1690602001909190803590602001909190803573ffffffffffffffffffffffffffffffffffffffff1690602001909190803590602001908201803590602001908080601f01602080910402602001604051908101604052809392919081815260200183838082843782019150505050505091905050611cbc565b604051808215151515815260200191505060405180910390f35b34156106db57600080fd5b61072f600480803573ffffffffffffffffffffffffffffffffffffffff1690602001909190803573ffffffffffffffffffffffffffffffffffffffff16906020019091908035906020019091905050611cf0565b604051808215151515815260200191505060405180910390f35b341561075457600080fd5b6107a8600480803573ffffffffffffffffffffffffffffffffffffffff1690602001909190803573ffffffffffffffffffffffffffffffffffffffff16906020019091908035906020019091905050611e54565b604051808215151515815260200191505060405180910390f35b34156107cd57600080fd5b61089e600480803573ffffffffffffffffffffffffffffffffffffffff1690602001909190803573ffffffffffffffffffffffffffffffffffffffff1690602001909190803573ffffffffffffffffffffffffffffffffffffffff1690602001909190803590602001909190803590602001909190803590602001909190803590602001909190803590602001908201803590602001908080601f0160208091040260200160405190810160405280939291908181526020018383808284378201915050505050509190505061213c565b604051808215151515815260200191505060405180910390f35b34156108c357600080fd5b610917600480803573ffffffffffffffffffffffffffffffffffffffff1690602001909190803573ffffffffffffffffffffffffffffffffffffffff16906020019091908035906020019091905050612458565b604051808215151515815260200191505060405180910390f35b341561093c57600080fd5b6109af600480803573ffffffffffffffffffffffffffffffffffffffff1690602001909190803573ffffffffffffffffffffffffffffffffffffffff1690602001909190803573ffffffffffffffffffffffffffffffffffffffff16906020019091908035906020019091905050612718565b604051808215151515815260200191505060405180910390f35b34156109d457600080fd5b610a47600480803573ffffffffffffffffffffffffffffffffffffffff1690602001909190803573ffffffffffffffffffffffffffffffffffffffff1690602001909190803590602001909190803573ffffffffffffffffffffffffffffffffffffffff16906020019091905050612ba5565b604051808215151515815260200191505060405180910390f35b3415610a6c57600080fd5b610aa5600480803573ffffffffffffffffffffffffffffffffffffffff1690602001909190803560001916906020019091905050612f0a565b6040518082815260200191505060405180910390f35b3415610ac657600080fd5b610ae0600480803560001916906020019091905050612f2f565b604051808215151515815260200191505060405180910390f35b3415610b0557600080fd5b610bd6600480803573ffffffffffffffffffffffffffffffffffffffff1690602001909190803573ffffffffffffffffffffffffffffffffffffffff1690602001909190803590602001909190803590602001909190803573ffffffffffffffffffffffffffffffffffffffff1690602001909190803590602001909190803590602001909190803590602001908201803590602001908080601f01602080910402602001604051908101604052809392919081815260200183838082843782019150505050505091905050612f57565b604051808215151515815260200191505060405180910390f35b3415610bfb57600080fd5b610c46600480803573ffffffffffffffffffffffffffffffffffffffff1690602001909190803573ffffffffffffffffffffffffffffffffffffffff16906020019091905050612fb2565b6040518082815260200191505060405180910390f35b610ca7600480803573ffffffffffffffffffffffffffffffffffffffff1690602001909190803573ffffffffffffffffffffffffffffffffffffffff16906020019091905050613038565b005b610d37816000808573ffffffffffffffffffffffffffffffffffffffff1673ffffffffffffffffffffffffffffffffffffffff16815260200190815260200160002060003373ffffffffffffffffffffffffffffffffffffffff1673ffffffffffffffffffffffffffffffffffffffff1681526020019081526020016000205461335f90919063ffffffff16565b6000808473ffffffffffffffffffffffffffffffffffffffff1673ffffffffffffffffffffffffffffffffffffffff16815260200190815260200160002060003373ffffffffffffffffffffffffffffffffffffffff1673ffffffffffffffffffffffffffffffffffffffff168152602001908152602001600020819055508173ffffffffffffffffffffffffffffffffffffffff1663a9059cbb33836000604051602001526040518363ffffffff167c0100000000000000000000000000000000000000000000000000000000028152600401808373ffffffffffffffffffffffffffffffffffffffff1673ffffffffffffffffffffffffffffffffffffffff16815260200182815260200192505050602060405180830381600087803b1515610e6157600080fd5b6102c65a03f11515610e7257600080fd5b50505060405180519050507ff341246adaac6f497bc2a656f546ab9e182111d630394f0c57c710a59a2cb5678233836000808773ffffffffffffffffffffffffffffffffffffffff1673ffffffffffffffffffffffffffffffffffffffff16815260200190815260200160002060003373ffffffffffffffffffffffffffffffffffffffff1673ffffffffffffffffffffffffffffffffffffffff16815260200190815260200160002054604051808573ffffffffffffffffffffffffffffffffffffffff1673ffffffffffffffffffffffffffffffffffffffff1681526020018473ffffffffffffffffffffffffffffffffffffffff1673ffffffffffffffffffffffffffffffffffffffff16815260200183815260200182815260200194505050505060405180910390a15050565b60003073ffffffffffffffffffffffffffffffffffffffff16319050610fca838484612458565b508273ffffffffffffffffffffffffffffffffffffffff16632e1a7d4d836040518263ffffffff167c010000000000000000000000000000000000000000000000000000000002815260040180828152602001915050600060405180830381600087803b151561103957600080fd5b6102c65a03f1151561104a57600080fd5b50505081611078823073ffffffffffffffffffffffffffffffffffffffff163161335f90919063ffffffff16565b14151561108157fe5b3373ffffffffffffffffffffffffffffffffffffffff166108fc839081150290604051600060405180830381858888f1935050505015156110c157600080fd5b7ff341246adaac6f497bc2a656f546ab9e182111d630394f0c57c710a59a2cb5678333846000808873ffffffffffffffffffffffffffffffffffffffff1673ffffffffffffffffffffffffffffffffffffffff16815260200190815260200160002060003373ffffffffffffffffffffffffffffffffffffffff1673ffffffffffffffffffffffffffffffffffffffff16815260200190815260200160002054604051808573ffffffffffffffffffffffffffffffffffffffff1673ffffffffffffffffffffffffffffffffffffffff1681526020018473ffffffffffffffffffffffffffffffffffffffff1673ffffffffffffffffffffffffffffffffffffffff16815260200183815260200182815260200194505050505060405180910390a1505050565b60006111fa898987898b89898961213c565b151561120557600080fd5b61121189898789612718565b151561121c57600080fd5b6112288933878a6114ac565b151561123357600080fd5b6001905098975050505050505050565b60008060007f313236b6cd8d12125421e44528d8f5ba070a781aeac3e5ae45e314b818734ec36001029150818b8b8b8b8b8b8b8b604051808973ffffffffffffffffffffffffffffffffffffffff1673ffffffffffffffffffffffffffffffffffffffff166c010000000000000000000000000281526014018873ffffffffffffffffffffffffffffffffffffffff1673ffffffffffffffffffffffffffffffffffffffff166c010000000000000000000000000281526014018773ffffffffffffffffffffffffffffffffffffffff1673ffffffffffffffffffffffffffffffffffffffff166c010000000000000000000000000281526014018673ffffffffffffffffffffffffffffffffffffffff1673ffffffffffffffffffffffffffffffffffffffff166c0100000000000000000000000002815260140185815260200184815260200183815260200182815260200198505050505050505050604051809103902060405180836000191660001916815260200182600019166000191681526020019250505060405180910390209050809250505098975050505050505050565b6000806000806000925060009150600090505b60148160ff1610156114a15761010083029250848160ff1681518110151561141f57fe5b9060200101517f010000000000000000000000000000000000000000000000000000000000000090047f0100000000000000000000000000000000000000000000000000000000000000027f010000000000000000000000000000000000000000000000000000000000000090049150818301925080806001019150506113fb565b829350505050919050565b600061153c826000808673ffffffffffffffffffffffffffffffffffffffff1673ffffffffffffffffffffffffffffffffffffffff16815260200190815260200160002060008873ffffffffffffffffffffffffffffffffffffffff1673ffffffffffffffffffffffffffffffffffffffff1681526020019081526020016000205461335f90919063ffffffff16565b6000808573ffffffffffffffffffffffffffffffffffffffff1673ffffffffffffffffffffffffffffffffffffffff16815260200190815260200160002060008773ffffffffffffffffffffffffffffffffffffffff1673ffffffffffffffffffffffffffffffffffffffff1681526020019081526020016000208190555061168782600160008673ffffffffffffffffffffffffffffffffffffffff1673ffffffffffffffffffffffffffffffffffffffff16815260200190815260200160002060008873ffffffffffffffffffffffffffffffffffffffff1673ffffffffffffffffffffffffffffffffffffffff16815260200190815260200160002060003373ffffffffffffffffffffffffffffffffffffffff1673ffffffffffffffffffffffffffffffffffffffff1681526020019081526020016000205461335f90919063ffffffff16565b600160008573ffffffffffffffffffffffffffffffffffffffff1673ffffffffffffffffffffffffffffffffffffffff16815260200190815260200160002060008773ffffffffffffffffffffffffffffffffffffffff1673ffffffffffffffffffffffffffffffffffffffff16815260200190815260200160002060003373ffffffffffffffffffffffffffffffffffffffff1673ffffffffffffffffffffffffffffffffffffffff168152602001908152602001600020819055506117d2826000808673ffffffffffffffffffffffffffffffffffffffff1673ffffffffffffffffffffffffffffffffffffffff16815260200190815260200160002060008773ffffffffffffffffffffffffffffffffffffffff1673ffffffffffffffffffffffffffffffffffffffff1681526020019081526020016000205461337890919063ffffffff16565b6000808573ffffffffffffffffffffffffffffffffffffffff1673ffffffffffffffffffffffffffffffffffffffff16815260200190815260200160002060008673ffffffffffffffffffffffffffffffffffffffff1673ffffffffffffffffffffffffffffffffffffffff168152602001908152602001600020819055508473ffffffffffffffffffffffffffffffffffffffff168373ffffffffffffffffffffffffffffffffffffffff167fd1398bee19313d6bf672ccb116e51f4a1a947e91c757907f51fbb5b5e56c698f8685604051808373ffffffffffffffffffffffffffffffffffffffff1673ffffffffffffffffffffffffffffffffffffffff1681526020018281526020019250505060405180910390a360019050949350505050565b600080600080308b8b8a8c8b8b60405180807f19457468657265756d205369676e6564204d6573736167653a0a333200000000815250601c018873ffffffffffffffffffffffffffffffffffffffff1673ffffffffffffffffffffffffffffffffffffffff166c010000000000000000000000000281526014018773ffffffffffffffffffffffffffffffffffffffff1673ffffffffffffffffffffffffffffffffffffffff166c010000000000000000000000000281526014018673ffffffffffffffffffffffffffffffffffffffff1673ffffffffffffffffffffffffffffffffffffffff166c010000000000000000000000000281526014018573ffffffffffffffffffffffffffffffffffffffff1673ffffffffffffffffffffffffffffffffffffffff166c010000000000000000000000000281526014018481526020018381526020018281526020019750505050505050506040518091039020925073__ECRecovery____________________________6319045a2584876000604051602001526040518363ffffffff167c010000000000000000000000000000000000000000000000000000000002815260040180836000191660001916815260200180602001828103825283818151815260200191508051906020019080838360005b83811015611af6578082015181840152602081019050611adb565b50505050905090810190601f168015611b235780820380516001836020036101000a031916815260200191505b50935050505060206040518083038186803b1515611b4057600080fd5b6102c65a03f41515611b5157600080fd5b5050506040518051905091508a73ffffffffffffffffffffffffffffffffffffffff168273ffffffffffffffffffffffffffffffffffffffff16141515611b9757600080fd5b600360008460001916600019168152602001908152602001600020549050600260036000856000191660001916815260200190815260200160002081905550600081141515611be557600080fd5b60019350505050979650505050505050565b6000600160008573ffffffffffffffffffffffffffffffffffffffff1673ffffffffffffffffffffffffffffffffffffffff16815260200190815260200160002060008473ffffffffffffffffffffffffffffffffffffffff1673ffffffffffffffffffffffffffffffffffffffff16815260200190815260200160002060008373ffffffffffffffffffffffffffffffffffffffff1673ffffffffffffffffffffffffffffffffffffffff1681526020019081526020016000205490509392505050565b60008060009050601483511415611cd957611cd6836113e8565b90505b611ce586858784612ba5565b915050949350505050565b600081600160008573ffffffffffffffffffffffffffffffffffffffff1673ffffffffffffffffffffffffffffffffffffffff16815260200190815260200160002060003373ffffffffffffffffffffffffffffffffffffffff1673ffffffffffffffffffffffffffffffffffffffff16815260200190815260200160002060008673ffffffffffffffffffffffffffffffffffffffff1673ffffffffffffffffffffffffffffffffffffffff168152602001908152602001600020819055508273ffffffffffffffffffffffffffffffffffffffff163373ffffffffffffffffffffffffffffffffffffffff167fa0175360a15bca328baf7ea85c7b784d58b222a50d0ce760b10dba336d226a618685604051808373ffffffffffffffffffffffffffffffffffffffff1673ffffffffffffffffffffffffffffffffffffffff1681526020018281526020019250505060405180910390a3600190509392505050565b6000611f2282600160008673ffffffffffffffffffffffffffffffffffffffff1673ffffffffffffffffffffffffffffffffffffffff16815260200190815260200160002060003373ffffffffffffffffffffffffffffffffffffffff1673ffffffffffffffffffffffffffffffffffffffff16815260200190815260200160002060008773ffffffffffffffffffffffffffffffffffffffff1673ffffffffffffffffffffffffffffffffffffffff1681526020019081526020016000205461337890919063ffffffff16565b600160008573ffffffffffffffffffffffffffffffffffffffff1673ffffffffffffffffffffffffffffffffffffffff16815260200190815260200160002060003373ffffffffffffffffffffffffffffffffffffffff1673ffffffffffffffffffffffffffffffffffffffff16815260200190815260200160002060008673ffffffffffffffffffffffffffffffffffffffff1673ffffffffffffffffffffffffffffffffffffffff168152602001908152602001600020819055508273ffffffffffffffffffffffffffffffffffffffff163373ffffffffffffffffffffffffffffffffffffffff167fa0175360a15bca328baf7ea85c7b784d58b222a50d0ce760b10dba336d226a6186600160008873ffffffffffffffffffffffffffffffffffffffff1673ffffffffffffffffffffffffffffffffffffffff16815260200190815260200160002060003373ffffffffffffffffffffffffffffffffffffffff1673ffffffffffffffffffffffffffffffffffffffff16815260200190815260200160002060008973ffffffffffffffffffffffffffffffffffffffff1673ffffffffffffffffffffffffffffffffffffffff16815260200190815260200160002054604051808373ffffffffffffffffffffffffffffffffffffffff1673ffffffffffffffffffffffffffffffffffffffff1681526020018281526020019250505060405180910390a3600190509392505050565b6000806000806121528c8c308d8d8d8d8d611243565b925073__ECRecovery____________________________6319045a2584876000604051602001526040518363ffffffff167c010000000000000000000000000000000000000000000000000000000002815260040180836000191660001916815260200180602001828103825283818151815260200191508051906020019080838360005b838110156121f25780820151818401526020810190506121d7565b50505050905090810190601f16801561221f5780820380516001836020036101000a031916815260200191505b50935050505060206040518083038186803b151561223c57600080fd5b6102c65a03f4151561224d57600080fd5b5050506040518051905091508173ffffffffffffffffffffffffffffffffffffffff168c73ffffffffffffffffffffffffffffffffffffffff1614151561229357600080fd5b864311156122a057600080fd5b6003600084600019166000191681526020019081526020016000205490506001600360008560001916600019168152602001908152602001600020819055506000811415156122ee57600080fd5b88600160008c73ffffffffffffffffffffffffffffffffffffffff1673ffffffffffffffffffffffffffffffffffffffff16815260200190815260200160002060008e73ffffffffffffffffffffffffffffffffffffffff1673ffffffffffffffffffffffffffffffffffffffff16815260200190815260200160002060008d73ffffffffffffffffffffffffffffffffffffffff1673ffffffffffffffffffffffffffffffffffffffff168152602001908152602001600020819055508973ffffffffffffffffffffffffffffffffffffffff168c73ffffffffffffffffffffffffffffffffffffffff167fa0175360a15bca328baf7ea85c7b784d58b222a50d0ce760b10dba336d226a618d8c604051808373ffffffffffffffffffffffffffffffffffffffff1673ffffffffffffffffffffffffffffffffffffffff1681526020018281526020019250505060405180910390a36001935050505098975050505050505050565b60006124e8826000808673ffffffffffffffffffffffffffffffffffffffff1673ffffffffffffffffffffffffffffffffffffffff16815260200190815260200160002060003373ffffffffffffffffffffffffffffffffffffffff1673ffffffffffffffffffffffffffffffffffffffff1681526020019081526020016000205461335f90919063ffffffff16565b6000808573ffffffffffffffffffffffffffffffffffffffff1673ffffffffffffffffffffffffffffffffffffffff16815260200190815260200160002060003373ffffffffffffffffffffffffffffffffffffffff1673ffffffffffffffffffffffffffffffffffffffff168152602001908152602001600020819055506125f5826000808673ffffffffffffffffffffffffffffffffffffffff1673ffffffffffffffffffffffffffffffffffffffff16815260200190815260200160002060008773ffffffffffffffffffffffffffffffffffffffff1673ffffffffffffffffffffffffffffffffffffffff1681526020019081526020016000205461337890919063ffffffff16565b6000808573ffffffffffffffffffffffffffffffffffffffff1673ffffffffffffffffffffffffffffffffffffffff16815260200190815260200160002060008673ffffffffffffffffffffffffffffffffffffffff1673ffffffffffffffffffffffffffffffffffffffff168152602001908152602001600020819055508273ffffffffffffffffffffffffffffffffffffffff163373ffffffffffffffffffffffffffffffffffffffff167fd1398bee19313d6bf672ccb116e51f4a1a947e91c757907f51fbb5b5e56c698f8685604051808373ffffffffffffffffffffffffffffffffffffffff1673ffffffffffffffffffffffffffffffffffffffff1681526020018281526020019250505060405180910390a3600190509392505050565b60006127a8826000808673ffffffffffffffffffffffffffffffffffffffff1673ffffffffffffffffffffffffffffffffffffffff16815260200190815260200160002060008873ffffffffffffffffffffffffffffffffffffffff1673ffffffffffffffffffffffffffffffffffffffff1681526020019081526020016000205461335f90919063ffffffff16565b6000808573ffffffffffffffffffffffffffffffffffffffff1673ffffffffffffffffffffffffffffffffffffffff16815260200190815260200160002060008773ffffffffffffffffffffffffffffffffffffffff1673ffffffffffffffffffffffffffffffffffffffff168152602001908152602001600020819055506128f382600160008673ffffffffffffffffffffffffffffffffffffffff1673ffffffffffffffffffffffffffffffffffffffff16815260200190815260200160002060008873ffffffffffffffffffffffffffffffffffffffff1673ffffffffffffffffffffffffffffffffffffffff16815260200190815260200160002060008773ffffffffffffffffffffffffffffffffffffffff1673ffffffffffffffffffffffffffffffffffffffff1681526020019081526020016000205461335f90919063ffffffff16565b600160008573ffffffffffffffffffffffffffffffffffffffff1673ffffffffffffffffffffffffffffffffffffffff16815260200190815260200160002060008773ffffffffffffffffffffffffffffffffffffffff1673ffffffffffffffffffffffffffffffffffffffff16815260200190815260200160002060008673ffffffffffffffffffffffffffffffffffffffff1673ffffffffffffffffffffffffffffffffffffffff168152602001908152602001600020819055508273ffffffffffffffffffffffffffffffffffffffff1663a9059cbb85846000604051602001526040518363ffffffff167c0100000000000000000000000000000000000000000000000000000000028152600401808373ffffffffffffffffffffffffffffffffffffffff1673ffffffffffffffffffffffffffffffffffffffff16815260200182815260200192505050602060405180830381600087803b1515612a5b57600080fd5b6102c65a03f11515612a6c57600080fd5b50505060405180519050507ff341246adaac6f497bc2a656f546ab9e182111d630394f0c57c710a59a2cb5678386846000808873ffffffffffffffffffffffffffffffffffffffff1673ffffffffffffffffffffffffffffffffffffffff16815260200190815260200160002060008a73ffffffffffffffffffffffffffffffffffffffff1673ffffffffffffffffffffffffffffffffffffffff16815260200190815260200160002054604051808573ffffffffffffffffffffffffffffffffffffffff1673ffffffffffffffffffffffffffffffffffffffff1681526020018473ffffffffffffffffffffffffffffffffffffffff1673ffffffffffffffffffffffffffffffffffffffff16815260200183815260200182815260200194505050505060405180910390a160019050949350505050565b60008373ffffffffffffffffffffffffffffffffffffffff166323b872dd8630866000604051602001526040518463ffffffff167c0100000000000000000000000000000000000000000000000000000000028152600401808473ffffffffffffffffffffffffffffffffffffffff1673ffffffffffffffffffffffffffffffffffffffff1681526020018373ffffffffffffffffffffffffffffffffffffffff1673ffffffffffffffffffffffffffffffffffffffff1681526020018281526020019350505050602060405180830381600087803b1515612c8657600080fd5b6102c65a03f11515612c9757600080fd5b5050506040518051905050612d30836000808773ffffffffffffffffffffffffffffffffffffffff1673ffffffffffffffffffffffffffffffffffffffff16815260200190815260200160002060008873ffffffffffffffffffffffffffffffffffffffff1673ffffffffffffffffffffffffffffffffffffffff1681526020019081526020016000205461337890919063ffffffff16565b6000808673ffffffffffffffffffffffffffffffffffffffff1673ffffffffffffffffffffffffffffffffffffffff16815260200190815260200160002060008773ffffffffffffffffffffffffffffffffffffffff1673ffffffffffffffffffffffffffffffffffffffff1681526020019081526020016000208190555060008273ffffffffffffffffffffffffffffffffffffffff16141515612ddc57612dda828585611e54565b505b7fdcbc1c05240f31ff3ad067ef1ee35ce4997762752e3a095284754544f4c709d78486856000808973ffffffffffffffffffffffffffffffffffffffff1673ffffffffffffffffffffffffffffffffffffffff16815260200190815260200160002060008a73ffffffffffffffffffffffffffffffffffffffff1673ffffffffffffffffffffffffffffffffffffffff16815260200190815260200160002054604051808573ffffffffffffffffffffffffffffffffffffffff1673ffffffffffffffffffffffffffffffffffffffff1681526020018473ffffffffffffffffffffffffffffffffffffffff1673ffffffffffffffffffffffffffffffffffffffff16815260200183815260200182815260200194505050505060405180910390a160019050949350505050565b6002602052816000526040600020602052806000526040600020600091509150505481565b6000806003600084600019166000191681526020019081526020016000205414159050919050565b6000612f69898987898b89898961213c565b1515612f7457600080fd5b612f80898987896114ac565b1515612f8b57600080fd5b612f978933878a6114ac565b1515612fa257600080fd5b6001905098975050505050505050565b60008060008473ffffffffffffffffffffffffffffffffffffffff1673ffffffffffffffffffffffffffffffffffffffff16815260200190815260200160002060008373ffffffffffffffffffffffffffffffffffffffff1673ffffffffffffffffffffffffffffffffffffffff16815260200190815260200160002054905092915050565b8173ffffffffffffffffffffffffffffffffffffffff1663a9059cbb30346000604051602001526040518363ffffffff167c0100000000000000000000000000000000000000000000000000000000028152600401808373ffffffffffffffffffffffffffffffffffffffff1673ffffffffffffffffffffffffffffffffffffffff16815260200182815260200192505050602060405180830381600087803b15156130e357600080fd5b6102c65a03f115156130f457600080fd5b505050604051805190505061318d346000808573ffffffffffffffffffffffffffffffffffffffff1673ffffffffffffffffffffffffffffffffffffffff16815260200190815260200160002060003373ffffffffffffffffffffffffffffffffffffffff1673ffffffffffffffffffffffffffffffffffffffff1681526020019081526020016000205461337890919063ffffffff16565b6000808473ffffffffffffffffffffffffffffffffffffffff1673ffffffffffffffffffffffffffffffffffffffff16815260200190815260200160002060003373ffffffffffffffffffffffffffffffffffffffff1673ffffffffffffffffffffffffffffffffffffffff1681526020019081526020016000208190555060008173ffffffffffffffffffffffffffffffffffffffff1614151561323957613237818334611e54565b505b7fdcbc1c05240f31ff3ad067ef1ee35ce4997762752e3a095284754544f4c709d78233346000808773ffffffffffffffffffffffffffffffffffffffff1673ffffffffffffffffffffffffffffffffffffffff16815260200190815260200160002060003373ffffffffffffffffffffffffffffffffffffffff1673ffffffffffffffffffffffffffffffffffffffff16815260200190815260200160002054604051808573ffffffffffffffffffffffffffffffffffffffff1673ffffffffffffffffffffffffffffffffffffffff1681526020018473ffffffffffffffffffffffffffffffffffffffff1673ffffffffffffffffffffffffffffffffffffffff16815260200183815260200182815260200194505050505060405180910390a15050565b600082821115151561336d57fe5b818303905092915050565b600080828401905083811015151561338c57fe5b80915050929150505600a165627a7a72305820e09d77074fdc08a2a15f5c41fd74f0b39092e0da1151bd4fc168ce3c4ff8ed580029",
  "source": "pragma solidity ^0.4.18;\n\nimport \"./ECRecovery.sol\";\nimport \"./SignTypedDataBeta.sol\";\n\nimport \"./SafeMath.sol\";\n\n\n/*\n\nThis is a token wallet contract\n\nStore your tokens in this contract to give them super powers\n\nTokens can be spent from the contract with only an ecSignature from the owner - onchain approve is not needed\n\n\n*/\n\ncontract ERC20Interface {\n    function totalSupply() public constant returns (uint);\n    function balanceOf(address tokenOwner) public constant returns (uint balance);\n    function allowance(address tokenOwner, address spender) public constant returns (uint remaining);\n    function transfer(address to, uint tokens) public returns (bool success);\n    function approve(address spender, uint tokens) public returns (bool success);\n    function transferFrom(address from, address to, uint tokens) public returns (bool success);\n\n    event Transfer(address indexed from, address indexed to, uint tokens);\n    event Approval(address indexed tokenOwner, address indexed spender, uint tokens);\n}\n\n\n//wEth interface\ncontract WrapperInterface\n{\n  function() public payable;\n  function deposit() public payable ;\n  function withdraw(uint wad) public;\n  function totalSupply() public view returns (uint);\n  function approve(address guy, uint wad) public returns (bool);\n  function transfer(address dst, uint wad) public returns (bool);\n  function transferFrom(address src, address dst, uint wad);\n\n\n  event  Approval(address indexed src, address indexed guy, uint wad);\n  event  Transfer(address indexed src, address indexed dst, uint wad);\n  event  Deposit(address indexed dst, uint wad);\n  event  Withdrawal(address indexed src, uint wad);\n\n}\n\n\n\n\n\ncontract LavaWallet {\n\n\n  using SafeMath for uint;\n\n  // balances[tokenContractAddress][EthereumAccountAddress] = 0\n   mapping(address => mapping (address => uint256)) balances;\n\n   //token => owner => spender : amount\n   mapping(address => mapping (address => mapping (address => uint256))) allowed;\n\n\n   //like orderFills in lavadex..\n   //how much of the offchain sig approval has been 'drained' or used up\n   mapping (address => mapping (bytes32 => uint)) public signatureApprovalDrained; //mapping of user accounts to mapping of order hashes to uints (amount of order that has been filled)\n\n\n   //deprecated\n   mapping(bytes32 => uint256) burnedSignatures;\n\n\n  event Deposit(address token, address user, uint amount, uint balance);\n  event Withdraw(address token, address user, uint amount, uint balance);\n  event Transfer(address indexed from, address indexed to,address token, uint tokens);\n  event Approval(address indexed tokenOwner, address indexed spender,address token, uint tokens);\n\n  function LavaWallet() public  {\n\n  }\n\n\n  //do not allow ether to enter\n  function() public payable {\n      revert();\n  }\n\n\n  //send Ether into this method, it gets wrapped and then deposited in this contract as a token balance assigned to the sender\n  function depositAndWrap(address wrappingContract, address preApprove) public payable\n  {\n\n    //forward this payable ether into the wrapping contract\n    WrapperInterface(wrappingContract).deposit.value(msg.value);\n\n\n    //send the tokens from the wrapping contract to here\n    WrapperInterface(wrappingContract).transfer(this, msg.value);\n\n    // make sure that the amount of tokens we got are equal to the amount of ether we got\n    //assert(this.balance.sub(balanceBefore) == tokens);\n\n\n    //since the token balance is recorded in terms of the exact ether balance, no assert is needed\n    balances[wrappingContract][msg.sender] = balances[wrappingContract][msg.sender].add(msg.value);\n\n    //assert(this.balance == 0); //make sure it is not a faulty wrapping contract\n\n    if(preApprove != 0x0)\n    {\n      //preapprove an account (typically a contract) to spend these tokens immediately\n      approveAddTokens(preApprove,wrappingContract,msg.value);\n    }\n\n    Deposit(wrappingContract, msg.sender, msg.value, balances[wrappingContract][msg.sender]);\n  }\n\n  //when this contract has control of wrapped eth, this is a way to easily withdraw it as ether\n  //if there is any Ether in the contract before this function is called, it can be withdrawn using this method and a false wrapping contract.\n  function unwrapAndWithdraw(address token, uint256 tokens) public\n  {\n      //transfer the tokens into the wrapping contract which is also the token contract\n\n      uint balanceBefore = this.balance;\n\n      transferTokens(token,token,tokens);\n\n      WrapperInterface(token).withdraw(tokens);\n\n      //make sure it is not a faulty wrapping contract\n      //make sure the wrapper contract just sent us ether equal to 'tokens'\n      assert(this.balance.sub(balanceBefore) == tokens);\n\n      //send ether to the token-sender\n      msg.sender.transfer(tokens);\n\n\n      Withdraw(token, msg.sender, tokens, balances[token][msg.sender]);\n\n  }\n\n\n   //remember you need pre-approval for this - nice with ApproveAndCall\n  function depositTokens(address from, address token, uint256 tokens, address preApprove) public returns (bool)\n  {\n      //we already have approval so lets do a transferFrom - transfer the tokens into this contract\n      ERC20Interface(token).transferFrom(from, this, tokens);\n      balances[token][from] = balances[token][from].add(tokens);\n\n      if(preApprove != 0x0)\n      {\n        //preapprove an account (typically a contract) to spend these tokens immediately\n        approveAddTokens(preApprove,token,tokens);\n      }\n\n      Deposit(token, from, tokens, balances[token][from]);\n\n      return true;\n  }\n\n\n  //no approve needed\n  function withdrawTokens(address token, uint256 tokens) {\n    balances[token][msg.sender] = balances[token][msg.sender].sub(tokens);\n\n    ERC20Interface(token).transfer(msg.sender, tokens);\n\n    Withdraw(token, msg.sender, tokens, balances[token][msg.sender]);\n  }\n\n\n  function withdrawTokensFrom( address from, address to,address token,  uint tokens) public returns (bool success) {\n      balances[token][from] = balances[token][from].sub(tokens);\n      allowed[token][from][to] = allowed[token][from][to].sub(tokens);\n\n      ERC20Interface(token).transfer(to, tokens);\n\n      Withdraw(token, from, tokens, balances[token][from]);\n      return true;\n  }\n\n\n\n  function balanceOf(address token,address user) public constant returns (uint) {\n       return balances[token][user];\n   }\n\n\n\n\n  //remember... can also be used to remove approval by using a 'tokens' value of 0\n  function approveTokens(address spender, address token, uint tokens) public returns (bool success) {\n      allowed[token][msg.sender][spender] = tokens;\n      Approval(msg.sender, token, spender, tokens);\n      return true;\n  }\n\n   function approveAddTokens(address spender, address token, uint tokens) public returns (bool success) {\n       allowed[token][msg.sender][spender] = allowed[token][msg.sender][spender].add(tokens);\n       Approval(msg.sender, token, spender, allowed[token][msg.sender][spender]);\n       return true;\n   }\n\n  //no approve needed\n   function transferTokens(address to, address token, uint tokens) public returns (bool success) {\n        balances[token][msg.sender] = balances[token][msg.sender].sub(tokens);\n        balances[token][to] = balances[token][to].add(tokens);\n        Transfer(msg.sender, token, to, tokens);\n        return true;\n    }\n\n\n   function transferTokensFrom( address from, address to,address token,  uint tokens) public returns (bool success) {\n       balances[token][from] = balances[token][from].sub(tokens);\n       allowed[token][from][msg.sender] = allowed[token][from][msg.sender].sub(tokens);\n       balances[token][to] = balances[token][to].add(tokens);\n       Transfer(token, from, to, tokens);\n       return true;\n   }\n\n   //nonce is the same thing as a 'check number'\n\n\n   function getLavaTypedDataHash( address from, address to, address walletAddress, address token, uint256 tokens, uint256 relayerReward,\n                                     uint256 expires, uint256 nonce) public returns (bytes32)\n   {\n        bytes32 hardcodedSchemaHash = 0x313236b6cd8d12125421e44528d8f5ba070a781aeac3e5ae45e314b818734ec3 ;\n\n        bytes32 typedDataHash = sha3(\n            hardcodedSchemaHash,\n            sha3(from,to,walletAddress,token,tokens,relayerReward,expires,nonce)\n          );\n\n        return typedDataHash;\n   }\n\n\n\n   function approveTokensWithSignature(address from, address to, address token, uint256 tokens, uint256 relayerReward,\n                                     uint256 expires, uint256 nonce, bytes signature) public returns (bool)\n   {\n       //bytes32 sigHash = sha3(\"\\x19Ethereum Signed Message:\\n32\",this, from, to, token, tokens, relayerReward, expires, nonce);\n\n       bytes32 sigHash = getLavaTypedDataHash(from,to,this,token,tokens,relayerReward,expires,nonce);\n\n       address recoveredSignatureSigner = ECRecovery.recover(sigHash,signature);\n\n       //make sure the signer is the depositor of the tokens\n       if(from != recoveredSignatureSigner) revert();\n\n       //make sure the signature has not expired\n       if(block.number > expires) revert();\n\n       uint burnedSignature = burnedSignatures[sigHash];\n       burnedSignatures[sigHash] = 0x1; //spent\n       if(burnedSignature != 0x0 ) revert();\n\n\n\n       allowed[token][from][to] = tokens;\n       Approval(from, token, to, tokens);\n       return true;\n   }\n\n   //the tokens leave lava wallet\n   function withdrawTokensFromWithSignature(address from, address to,  uint256 relayerReward, uint256 tokens, address token,\n                                    uint256 expires, uint256 nonce, bytes signature) public returns (bool)\n  {\n      //check to make sure that signature == ecrecover signature\n\n      if(!approveTokensWithSignature(from,to,token,tokens,relayerReward,expires,nonce,signature)) revert();\n\n      //it can be requested that fewer tokens be sent that were approved -- the whole approval will be invalidated though\n      if(!withdrawTokensFrom( from, to, token, tokens)) revert();\n\n\n      //transferRelayerReward\n      if(!transferTokensFrom(from, msg.sender, token, relayerReward)) revert();\n\n      return true;\n\n  }\n\n   //the tokens remain in lava wallet\n  function transferTokensFromWithSignature(address from, address to,  uint256 relayerReward, uint256 tokens, address token,\n                                    uint256 expires, uint256 nonce, bytes signature) public returns (bool)\n  {\n      //check to make sure that signature == ecrecover signature\n\n      if(!approveTokensWithSignature(from,to,token,tokens,relayerReward,expires,nonce,signature)) revert();\n\n      //it can be requested that fewer tokens be sent that were approved -- the whole approval will be invalidated though\n      if(!transferTokensFrom( from, to, token, tokens)) revert();\n\n\n      //transferRelayerReward\n      if(!transferTokensFrom(from, msg.sender, token, relayerReward)) revert();\n\n\n      return true;\n\n  }\n\n\n    function tokenAllowance(address token, address tokenOwner, address spender) public constant returns (uint remaining) {\n\n        return allowed[token][tokenOwner][spender];\n\n    }\n\n\n\n     function burnSignature(address from, address to, uint256 tokens, address token, uint256 expires, uint256 nonce,  bytes signature) public returns (bool)\n     {\n\n       bytes32 sigHash = sha3(\"\\x19Ethereum Signed Message:\\n32\",this, from, to, token, tokens, expires, nonce);\n\n\n         address recoveredSignatureSigner = ECRecovery.recover(sigHash,signature);\n\n         //maker sure the invalidator is the signer\n         if(recoveredSignatureSigner != from) revert();\n\n\n         //make sure this signature has never been used\n         uint burnedSignature = burnedSignatures[sigHash];\n         burnedSignatures[sigHash] = 0x2; //invalidated\n         if(burnedSignature != 0x0 ) revert();\n\n         return true;\n     }\n\n     function signatureBurned(bytes32 digest) public view returns (bool)\n     {\n       return (burnedSignatures[digest] != 0x0);\n     }\n\n\n   /*\n     Receive approval to spend tokens and perform any action all in one transaction\n   */\n function receiveApproval(address from, uint256 tokens, address token, bytes data) public returns (bool) {\n\n   //parse the data:   first byte is for 'action_id'\n   //byte action_id = data[0];\n\n    address preApprove = 0x0;\n   //will this work ?\n   if(data.length == 20)\n   {\n     preApprove = bytesToAddress(data);\n   }\n\n   return depositTokens(from, token, tokens, preApprove);\n\n }\n\n //Usage\n//address addr = bytesToAddress(\"0xa462d983B4b8C855e1876e8c24889CBa466A67EB\");\nfunction bytesToAddress(bytes _address) public pure returns (address) {\n   uint160 m = 0;\n   uint160 b = 0;\n\n   for (uint8 i = 0; i < 20; i++) {\n     m *= 256;\n     b = uint160(_address[i]);\n     m += (b);\n   }\n\n   return address(m);\n }\n\n\n\n}\n",
  "sourcePath": "/home/andy/dev/lava-wallet/contracts/LavaWallet.sol",
  "compiler": {
    "name": "solc",
    "version": "0.4.19+commit.c4cbbb05.Emscripten.clang"
  },
  "schemaVersion": "2.0.0",
  "updatedAt": "2018-05-01T16:51:38.300Z"
}