{
  "contractName": "LavaWallet",
  "abi": [
    {
      "inputs": [
        {
          "name": "wrappingContract",
          "type": "address"
        }
      ],
      "payable": true,
      "stateMutability": "payable",
      "type": "function",
      "constant": false,
      "name": "depositAndWrap",
      "outputs": []
    },
    {
      "constant": false,
      "inputs": [
        {
          "name": "from",
          "type": "address"
        },
        {
          "name": "to",
          "type": "address"
        },
        {
          "name": "token",
          "type": "address"
        },
        {
          "name": "tokens",
          "type": "uint256"
        }
      ],
      "name": "transferFrom",
      "outputs": [
        {
          "name": "success",
          "type": "bool"
        }
      ],
      "payable": false,
      "stateMutability": "nonpayable",
      "type": "function"
    },
    {
      "constant": false,
      "inputs": [
        {
          "name": "token",
          "type": "address"
        },
        {
          "name": "tokens",
          "type": "uint256"
        },
        {
          "name": "token",
          "type": "address"
        },
        {
          "name": "checkNumber",
          "type": "uint256"
        },
        {
          "name": "sigHash",
          "type": "bytes32"
        },
        {
          "name": "signature",
          "type": "bytes"
        }
      ],
      "name": "unwrapAndWithdraw",
      "outputs": [
        {
          "name": "",
          "type": "bool"
        }
      ],
      "payable": false,
      "stateMutability": "nonpayable",
      "type": "function"
    },
    {
      "constant": false,
      "inputs": [
        {
          "name": "from",
          "type": "address"
        },
        {
          "name": "tokens",
          "type": "uint256"
        },
        {
          "name": "token",
          "type": "address"
        },
        {
          "name": "checkNumber",
          "type": "uint256"
        },
        {
          "name": "sigHash",
          "type": "bytes32"
        },
        {
          "name": "signature",
          "type": "bytes"
        }
      ],
      "name": "transferFromWithSignature",
      "outputs": [
        {
          "name": "",
          "type": "bool"
        }
      ],
      "payable": false,
      "stateMutability": "nonpayable",
      "type": "function"
    },
    {
      "constant": false,
      "inputs": [
        {
          "name": "to",
          "type": "address"
        },
        {
          "name": "tokens",
          "type": "uint256"
        },
        {
          "name": "token",
          "type": "address"
        },
        {
          "name": "checkNumber",
          "type": "uint256"
        },
        {
          "name": "sigHash",
          "type": "bytes32"
        },
        {
          "name": "signature",
          "type": "bytes"
        }
      ],
      "name": "burnSignature",
      "outputs": [
        {
          "name": "",
          "type": "bool"
        }
      ],
      "payable": false,
      "stateMutability": "nonpayable",
      "type": "function"
    },
    {
      "constant": false,
      "inputs": [
        {
          "name": "from",
          "type": "address"
        },
        {
          "name": "tokens",
          "type": "uint256"
        },
        {
          "name": "token",
          "type": "address"
        },
        {
          "name": "data",
          "type": "bytes"
        }
      ],
      "name": "receiveApproval",
      "outputs": [
        {
          "name": "",
          "type": "bool"
        }
      ],
      "payable": false,
      "stateMutability": "nonpayable",
      "type": "function"
    },
    {
      "constant": false,
      "inputs": [
        {
          "name": "token",
          "type": "address"
        },
        {
          "name": "tokens",
          "type": "uint256"
        },
        {
          "name": "tokens",
          "type": "uint256"
        }
      ],
      "name": "withdrawToken",
      "outputs": [
        {
          "name": "success",
          "type": "bool"
        }
      ],
      "payable": false,
      "stateMutability": "nonpayable",
      "type": "function"
    },
    {
      "constant": false,
      "inputs": [
        {
          "name": "to",
          "type": "address"
        },
        {
          "name": "token",
          "type": "address"
        },
        {
          "name": "tokens",
          "type": "uint256"
        },
        {
          "name": "checkNumber",
          "type": "uint256"
        },
        {
          "name": "sigHash",
          "type": "bytes32"
        },
        {
          "name": "signature",
          "type": "bytes"
        }
      ],
      "name": "transfer",
      "outputs": [
        {
          "name": "success",
          "type": "bool"
        }
      ],
      "payable": false,
      "stateMutability": "nonpayable",
      "type": "function"
    },
    {
      "constant": true,
      "inputs": [
        {
          "name": "digest",
          "type": "bytes32"
        },
        {
          "name": "user",
          "type": "address"
        }
      ],
      "name": "signatureBurned",
      "outputs": [
        {
          "name": "",
          "type": "bool"
        }
      ],
      "payable": false,
      "stateMutability": "view",
      "type": "function"
    },
    {
      "constant": false,
      "inputs": [
        {
          "name": "spender",
          "type": "address"
        },
        {
          "name": "token",
          "type": "address"
        },
        {
          "name": "tokens",
          "type": "uint256"
        }
      ],
      "name": "approve",
      "outputs": [
        {
          "name": "success",
          "type": "bool"
        }
      ],
      "payable": false,
      "stateMutability": "nonpayable",
      "type": "function"
    },
    {
      "inputs": [
        {
          "name": "token",
          "type": "address"
        },
        {
          "name": "user",
          "type": "address"
        }
      ],
      "payable": false,
      "stateMutability": "view",
      "type": "function",
      "constant": true,
      "name": "balanceOf",
      "outputs": [
        {
          "name": "",
          "type": "uint256"
        }
      ]
    },
    {
      "payable": false,
      "stateMutability": "nonpayable",
      "type": "function",
      "constant": false,
      "inputs": [
        {
          "name": "from",
          "type": "address"
        },
        {
          "name": "token",
          "type": "address"
        },
        {
          "name": "tokens",
          "type": "uint256"
        }
      ],
      "name": "depositToken",
      "outputs": [
        {
          "name": "",
          "type": "bool"
        }
      ]
    },
    {
      "anonymous": false,
      "inputs": [
        {
          "indexed": false,
          "name": "token",
          "type": "address"
        },
        {
          "indexed": false,
          "name": "user",
          "type": "address"
        },
        {
          "indexed": false,
          "name": "amount",
          "type": "uint256"
        },
        {
          "indexed": false,
          "name": "balance",
          "type": "uint256"
        }
      ],
      "name": "Deposit",
      "type": "constructor",
      "payable": false,
      "stateMutability": "nonpayable"
    },
    {
      "anonymous": false,
      "inputs": [
        {
          "indexed": false,
          "name": "token",
          "type": "address"
        },
        {
          "indexed": false,
          "name": "user",
          "type": "address"
        },
        {
          "indexed": false,
          "name": "amount",
          "type": "uint256"
        },
        {
          "indexed": false,
          "name": "balance",
          "type": "uint256"
        }
      ],
      "name": "Withdraw",
      "type": "fallback",
      "payable": true,
      "stateMutability": "payable"
    },
    {
      "anonymous": false,
      "inputs": [
        {
          "indexed": false,
          "name": "token",
          "type": "address"
        },
        {
          "indexed": false,
          "name": "user",
          "type": "address"
        },
        {
          "indexed": false,
          "name": "amount",
          "type": "uint256"
        },
        {
          "indexed": false,
          "name": "balance",
          "type": "uint256"
        }
      ],
      "name": "Deposit",
      "type": "event"
    },
    {
      "anonymous": false,
      "inputs": [
        {
          "indexed": false,
          "name": "token",
          "type": "address"
        },
        {
          "indexed": false,
          "name": "user",
          "type": "address"
        },
        {
          "indexed": false,
          "name": "amount",
          "type": "uint256"
        },
        {
          "indexed": false,
          "name": "balance",
          "type": "uint256"
        }
      ],
      "name": "Withdraw",
      "type": "event"
    },
    {
      "anonymous": false,
      "inputs": [
        {
          "indexed": true,
          "name": "from",
          "type": "address"
        },
        {
          "indexed": true,
          "name": "to",
          "type": "address"
        },
        {
          "indexed": false,
          "name": "token",
          "type": "address"
        },
        {
          "indexed": false,
          "name": "tokens",
          "type": "uint256"
        }
      ],
      "name": "Transfer",
      "type": "event"
    },
    {
      "anonymous": false,
      "inputs": [
        {
          "indexed": true,
          "name": "tokenOwner",
          "type": "address"
        },
        {
          "indexed": true,
          "name": "spender",
          "type": "address"
        },
        {
          "indexed": false,
          "name": "token",
          "type": "address"
        },
        {
          "indexed": false,
          "name": "tokens",
          "type": "uint256"
        }
      ],
      "name": "Approval",
      "type": "event"
    }
  ],
  "bytecode": "0x6060604052341561000f57600080fd5b61236a8061001e6000396000f3006060604052600436106100ba576000357c0100000000000000000000000000000000000000000000000000000000900463ffffffff168063141bc506146100bf57806315dacbea146100ed5780632486c729146101855780637fb9b215146101c7578063833f7339146102995780638f4ffcb11461036b5780639e281a9814610427578063beabacc814610469578063df8f373e146104e2578063e1f21c6714610521578063f7888aec1461059a578063fb0f97a814610606575b600080fd5b6100eb600480803573ffffffffffffffffffffffffffffffffffffffff1690602001909190505061067f565b005b34156100f857600080fd5b61016b600480803573ffffffffffffffffffffffffffffffffffffffff1690602001909190803573ffffffffffffffffffffffffffffffffffffffff1690602001909190803573ffffffffffffffffffffffffffffffffffffffff169060200190919080359060200190919050506109db565b604051808215151515815260200191505060405180910390f35b341561019057600080fd5b6101c5600480803573ffffffffffffffffffffffffffffffffffffffff16906020019091908035906020019091905050610e25565b005b34156101d257600080fd5b61027f600480803573ffffffffffffffffffffffffffffffffffffffff1690602001909190803590602001909190803573ffffffffffffffffffffffffffffffffffffffff169060200190919080359060200190919080356000191690602001909190803590602001908201803590602001908080601f0160208091040260200160405190810160405280939291908181526020018383808284378201915050505050509190505061103c565b604051808215151515815260200191505060405180910390f35b34156102a457600080fd5b610351600480803573ffffffffffffffffffffffffffffffffffffffff1690602001909190803590602001909190803573ffffffffffffffffffffffffffffffffffffffff169060200190919080359060200190919080356000191690602001909190803590602001908201803590602001908080601f01602080910402602001604051908101604052809392919081815260200183838082843782019150505050505091905050611408565b604051808215151515815260200191505060405180910390f35b341561037657600080fd5b61040d600480803573ffffffffffffffffffffffffffffffffffffffff1690602001909190803590602001909190803573ffffffffffffffffffffffffffffffffffffffff1690602001909190803590602001908201803590602001908080601f01602080910402602001604051908101604052809392919081815260200183838082843782019150505050505091905050611667565b604051808215151515815260200191505060405180910390f35b341561043257600080fd5b610467600480803573ffffffffffffffffffffffffffffffffffffffff16906020019091908035906020019091905050611733565b005b341561047457600080fd5b6104c8600480803573ffffffffffffffffffffffffffffffffffffffff1690602001909190803573ffffffffffffffffffffffffffffffffffffffff16906020019091908035906020019091905050611ada565b604051808215151515815260200191505060405180910390f35b34156104ed57600080fd5b610507600480803560001916906020019091905050611d9a565b604051808215151515815260200191505060405180910390f35b341561052c57600080fd5b610580600480803573ffffffffffffffffffffffffffffffffffffffff1690602001909190803573ffffffffffffffffffffffffffffffffffffffff16906020019091908035906020019091905050611dc2565b604051808215151515815260200191505060405180910390f35b34156105a557600080fd5b6105f0600480803573ffffffffffffffffffffffffffffffffffffffff1690602001909190803573ffffffffffffffffffffffffffffffffffffffff16906020019091905050611f26565b6040518082815260200191505060405180910390f35b341561061157600080fd5b610665600480803573ffffffffffffffffffffffffffffffffffffffff1690602001909190803573ffffffffffffffffffffffffffffffffffffffff16906020019091908035906020019091905050611fac565b604051808215151515815260200191505060405180910390f35b8073ffffffffffffffffffffffffffffffffffffffff166108fc349081150290604051600060405180830381858888f1935050505015156106bf57600080fd5b8073ffffffffffffffffffffffffffffffffffffffff1663a9059cbb30346000604051602001526040518363ffffffff167c0100000000000000000000000000000000000000000000000000000000028152600401808373ffffffffffffffffffffffffffffffffffffffff1673ffffffffffffffffffffffffffffffffffffffff16815260200182815260200192505050602060405180830381600087803b151561076a57600080fd5b6102c65a03f1151561077b57600080fd5b5050506040518051905050610814346000808473ffffffffffffffffffffffffffffffffffffffff1673ffffffffffffffffffffffffffffffffffffffff16815260200190815260200160002060003373ffffffffffffffffffffffffffffffffffffffff1673ffffffffffffffffffffffffffffffffffffffff1681526020019081526020016000205461230790919063ffffffff16565b6000808373ffffffffffffffffffffffffffffffffffffffff1673ffffffffffffffffffffffffffffffffffffffff16815260200190815260200160002060003373ffffffffffffffffffffffffffffffffffffffff1673ffffffffffffffffffffffffffffffffffffffff1681526020019081526020016000208190555060003073ffffffffffffffffffffffffffffffffffffffff16311415156108b657fe5b7fdcbc1c05240f31ff3ad067ef1ee35ce4997762752e3a095284754544f4c709d78133346000808673ffffffffffffffffffffffffffffffffffffffff1673ffffffffffffffffffffffffffffffffffffffff16815260200190815260200160002060003373ffffffffffffffffffffffffffffffffffffffff1673ffffffffffffffffffffffffffffffffffffffff16815260200190815260200160002054604051808573ffffffffffffffffffffffffffffffffffffffff1673ffffffffffffffffffffffffffffffffffffffff1681526020018473ffffffffffffffffffffffffffffffffffffffff1673ffffffffffffffffffffffffffffffffffffffff16815260200183815260200182815260200194505050505060405180910390a150565b6000610a6b826000808673ffffffffffffffffffffffffffffffffffffffff1673ffffffffffffffffffffffffffffffffffffffff16815260200190815260200160002060008873ffffffffffffffffffffffffffffffffffffffff1673ffffffffffffffffffffffffffffffffffffffff1681526020019081526020016000205461232590919063ffffffff16565b6000808573ffffffffffffffffffffffffffffffffffffffff1673ffffffffffffffffffffffffffffffffffffffff16815260200190815260200160002060008773ffffffffffffffffffffffffffffffffffffffff1673ffffffffffffffffffffffffffffffffffffffff16815260200190815260200160002081905550610bb682600160008673ffffffffffffffffffffffffffffffffffffffff1673ffffffffffffffffffffffffffffffffffffffff16815260200190815260200160002060008873ffffffffffffffffffffffffffffffffffffffff1673ffffffffffffffffffffffffffffffffffffffff16815260200190815260200160002060003373ffffffffffffffffffffffffffffffffffffffff1673ffffffffffffffffffffffffffffffffffffffff1681526020019081526020016000205461232590919063ffffffff16565b600160008573ffffffffffffffffffffffffffffffffffffffff1673ffffffffffffffffffffffffffffffffffffffff16815260200190815260200160002060008773ffffffffffffffffffffffffffffffffffffffff1673ffffffffffffffffffffffffffffffffffffffff16815260200190815260200160002060003373ffffffffffffffffffffffffffffffffffffffff1673ffffffffffffffffffffffffffffffffffffffff16815260200190815260200160002081905550610d01826000808673ffffffffffffffffffffffffffffffffffffffff1673ffffffffffffffffffffffffffffffffffffffff16815260200190815260200160002060008773ffffffffffffffffffffffffffffffffffffffff1673ffffffffffffffffffffffffffffffffffffffff1681526020019081526020016000205461230790919063ffffffff16565b6000808573ffffffffffffffffffffffffffffffffffffffff1673ffffffffffffffffffffffffffffffffffffffff16815260200190815260200160002060008673ffffffffffffffffffffffffffffffffffffffff1673ffffffffffffffffffffffffffffffffffffffff168152602001908152602001600020819055508473ffffffffffffffffffffffffffffffffffffffff168373ffffffffffffffffffffffffffffffffffffffff167fd1398bee19313d6bf672ccb116e51f4a1a947e91c757907f51fbb5b5e56c698f8685604051808373ffffffffffffffffffffffffffffffffffffffff1673ffffffffffffffffffffffffffffffffffffffff1681526020018281526020019250505060405180910390a360019050949350505050565b610e30828383611ada565b508173ffffffffffffffffffffffffffffffffffffffff16632e1a7d4d826040518263ffffffff167c010000000000000000000000000000000000000000000000000000000002815260040180828152602001915050600060405180830381600087803b1515610e9f57600080fd5b6102c65a03f11515610eb057600080fd5b5050503373ffffffffffffffffffffffffffffffffffffffff166108fc829081150290604051600060405180830381858888f193505050501515610ef357600080fd5b60003073ffffffffffffffffffffffffffffffffffffffff1631141515610f1657fe5b7ff341246adaac6f497bc2a656f546ab9e182111d630394f0c57c710a59a2cb5678233836000808773ffffffffffffffffffffffffffffffffffffffff1673ffffffffffffffffffffffffffffffffffffffff16815260200190815260200160002060003373ffffffffffffffffffffffffffffffffffffffff1673ffffffffffffffffffffffffffffffffffffffff16815260200190815260200160002054604051808573ffffffffffffffffffffffffffffffffffffffff1673ffffffffffffffffffffffffffffffffffffffff1681526020018473ffffffffffffffffffffffffffffffffffffffff1673ffffffffffffffffffffffffffffffffffffffff16815260200183815260200182815260200194505050505060405180910390a15050565b60008060008073__ECRecovery____________________________6319045a2587876000604051602001526040518363ffffffff167c010000000000000000000000000000000000000000000000000000000002815260040180836000191660001916815260200180602001828103825283818151815260200191508051906020019080838360005b838110156110e05780820151818401526020810190506110c5565b50505050905090810190601f16801561110d5780820380516001836020036101000a031916815260200191505b50935050505060206040518083038186803b151561112a57600080fd5b6102c65a03f4151561113b57600080fd5b5050506040518051905092508273ffffffffffffffffffffffffffffffffffffffff168a73ffffffffffffffffffffffffffffffffffffffff1614151561118157600080fd5b33898989604051808573ffffffffffffffffffffffffffffffffffffffff1673ffffffffffffffffffffffffffffffffffffffff166c010000000000000000000000000281526014018481526020018373ffffffffffffffffffffffffffffffffffffffff1673ffffffffffffffffffffffffffffffffffffffff166c010000000000000000000000000281526014018281526020019450505050506040518091039020915060026000836000191660001916815260200190815260200160002054905060016002600084600019166000191681526020019081526020016000208190555060008114151561127557600080fd5b8560001916826000191614151561128b57600080fd5b88611296898c611f26565b10156112a157600080fd5b61132f896000808b73ffffffffffffffffffffffffffffffffffffffff1673ffffffffffffffffffffffffffffffffffffffff16815260200190815260200160002060008d73ffffffffffffffffffffffffffffffffffffffff1673ffffffffffffffffffffffffffffffffffffffff1681526020019081526020016000205461232590919063ffffffff16565b508773ffffffffffffffffffffffffffffffffffffffff1663a9059cbb338b6000604051602001526040518363ffffffff167c0100000000000000000000000000000000000000000000000000000000028152600401808373ffffffffffffffffffffffffffffffffffffffff1673ffffffffffffffffffffffffffffffffffffffff16815260200182815260200192505050602060405180830381600087803b15156113db57600080fd5b6102c65a03f115156113ec57600080fd5b5050506040518051905050600193505050509695505050505050565b60008060008073__ECRecovery____________________________6319045a2587876000604051602001526040518363ffffffff167c010000000000000000000000000000000000000000000000000000000002815260040180836000191660001916815260200180602001828103825283818151815260200191508051906020019080838360005b838110156114ac578082015181840152602081019050611491565b50505050905090810190601f1680156114d95780820380516001836020036101000a031916815260200191505b50935050505060206040518083038186803b15156114f657600080fd5b6102c65a03f4151561150757600080fd5b5050506040518051905092503373ffffffffffffffffffffffffffffffffffffffff168373ffffffffffffffffffffffffffffffffffffffff1614151561154d57600080fd5b89898989604051808573ffffffffffffffffffffffffffffffffffffffff1673ffffffffffffffffffffffffffffffffffffffff166c010000000000000000000000000281526014018481526020018373ffffffffffffffffffffffffffffffffffffffff1673ffffffffffffffffffffffffffffffffffffffff166c01000000000000000000000000028152601401828152602001945050505050604051809103902091508560001916826000191614151561160957600080fd5b600260008360001916600019168152602001908152602001600020549050600280600084600019166000191681526020019081526020016000208190555060008114151561165657600080fd5b600193505050509695505050505050565b60008082600081518110151561167957fe5b9060200101517f010000000000000000000000000000000000000000000000000000000000000090047f010000000000000000000000000000000000000000000000000000000000000002905060017f010000000000000000000000000000000000000000000000000000000000000002817effffffffffffffffffffffffffffffffffffffffffffffffffffffffffffff191614156117255761171e868587611fac565b915061172a565b600091505b50949350505050565b60008273ffffffffffffffffffffffffffffffffffffffff1611151561175857600080fd5b806000808473ffffffffffffffffffffffffffffffffffffffff1673ffffffffffffffffffffffffffffffffffffffff16815260200190815260200160002060003373ffffffffffffffffffffffffffffffffffffffff1673ffffffffffffffffffffffffffffffffffffffff1681526020019081526020016000205410156117e057600080fd5b61186e816000808573ffffffffffffffffffffffffffffffffffffffff1673ffffffffffffffffffffffffffffffffffffffff16815260200190815260200160002060003373ffffffffffffffffffffffffffffffffffffffff1673ffffffffffffffffffffffffffffffffffffffff1681526020019081526020016000205461232590919063ffffffff16565b6000808473ffffffffffffffffffffffffffffffffffffffff1673ffffffffffffffffffffffffffffffffffffffff16815260200190815260200160002060003373ffffffffffffffffffffffffffffffffffffffff1673ffffffffffffffffffffffffffffffffffffffff168152602001908152602001600020819055508173ffffffffffffffffffffffffffffffffffffffff1663a9059cbb33836000604051602001526040518363ffffffff167c0100000000000000000000000000000000000000000000000000000000028152600401808373ffffffffffffffffffffffffffffffffffffffff1673ffffffffffffffffffffffffffffffffffffffff16815260200182815260200192505050602060405180830381600087803b151561199857600080fd5b6102c65a03f115156119a957600080fd5b50505060405180519050507ff341246adaac6f497bc2a656f546ab9e182111d630394f0c57c710a59a2cb5678233836000808773ffffffffffffffffffffffffffffffffffffffff1673ffffffffffffffffffffffffffffffffffffffff16815260200190815260200160002060003373ffffffffffffffffffffffffffffffffffffffff1673ffffffffffffffffffffffffffffffffffffffff16815260200190815260200160002054604051808573ffffffffffffffffffffffffffffffffffffffff1673ffffffffffffffffffffffffffffffffffffffff1681526020018473ffffffffffffffffffffffffffffffffffffffff1673ffffffffffffffffffffffffffffffffffffffff16815260200183815260200182815260200194505050505060405180910390a15050565b6000611b6a826000808673ffffffffffffffffffffffffffffffffffffffff1673ffffffffffffffffffffffffffffffffffffffff16815260200190815260200160002060003373ffffffffffffffffffffffffffffffffffffffff1673ffffffffffffffffffffffffffffffffffffffff1681526020019081526020016000205461232590919063ffffffff16565b6000808573ffffffffffffffffffffffffffffffffffffffff1673ffffffffffffffffffffffffffffffffffffffff16815260200190815260200160002060003373ffffffffffffffffffffffffffffffffffffffff1673ffffffffffffffffffffffffffffffffffffffff16815260200190815260200160002081905550611c77826000808673ffffffffffffffffffffffffffffffffffffffff1673ffffffffffffffffffffffffffffffffffffffff16815260200190815260200160002060008773ffffffffffffffffffffffffffffffffffffffff1673ffffffffffffffffffffffffffffffffffffffff1681526020019081526020016000205461230790919063ffffffff16565b6000808573ffffffffffffffffffffffffffffffffffffffff1673ffffffffffffffffffffffffffffffffffffffff16815260200190815260200160002060008673ffffffffffffffffffffffffffffffffffffffff1673ffffffffffffffffffffffffffffffffffffffff168152602001908152602001600020819055508273ffffffffffffffffffffffffffffffffffffffff163373ffffffffffffffffffffffffffffffffffffffff167fd1398bee19313d6bf672ccb116e51f4a1a947e91c757907f51fbb5b5e56c698f8685604051808373ffffffffffffffffffffffffffffffffffffffff1673ffffffffffffffffffffffffffffffffffffffff1681526020018281526020019250505060405180910390a3600190509392505050565b6000806002600084600019166000191681526020019081526020016000205414159050919050565b600081600160008573ffffffffffffffffffffffffffffffffffffffff1673ffffffffffffffffffffffffffffffffffffffff16815260200190815260200160002060003373ffffffffffffffffffffffffffffffffffffffff1673ffffffffffffffffffffffffffffffffffffffff16815260200190815260200160002060008673ffffffffffffffffffffffffffffffffffffffff1673ffffffffffffffffffffffffffffffffffffffff168152602001908152602001600020819055508273ffffffffffffffffffffffffffffffffffffffff163373ffffffffffffffffffffffffffffffffffffffff167fa0175360a15bca328baf7ea85c7b784d58b222a50d0ce760b10dba336d226a618685604051808373ffffffffffffffffffffffffffffffffffffffff1673ffffffffffffffffffffffffffffffffffffffff1681526020018281526020019250505060405180910390a3600190509392505050565b60008060008473ffffffffffffffffffffffffffffffffffffffff1673ffffffffffffffffffffffffffffffffffffffff16815260200190815260200160002060008373ffffffffffffffffffffffffffffffffffffffff1673ffffffffffffffffffffffffffffffffffffffff16815260200190815260200160002054905092915050565b6000808373ffffffffffffffffffffffffffffffffffffffff16111515611fd257600080fd5b8273ffffffffffffffffffffffffffffffffffffffff166323b872dd8530856000604051602001526040518463ffffffff167c0100000000000000000000000000000000000000000000000000000000028152600401808473ffffffffffffffffffffffffffffffffffffffff1673ffffffffffffffffffffffffffffffffffffffff1681526020018373ffffffffffffffffffffffffffffffffffffffff1673ffffffffffffffffffffffffffffffffffffffff1681526020018281526020019350505050602060405180830381600087803b15156120b157600080fd5b6102c65a03f115156120c257600080fd5b505050604051805190505061215b826000808673ffffffffffffffffffffffffffffffffffffffff1673ffffffffffffffffffffffffffffffffffffffff16815260200190815260200160002060008773ffffffffffffffffffffffffffffffffffffffff1673ffffffffffffffffffffffffffffffffffffffff1681526020019081526020016000205461230790919063ffffffff16565b6000808573ffffffffffffffffffffffffffffffffffffffff1673ffffffffffffffffffffffffffffffffffffffff16815260200190815260200160002060008673ffffffffffffffffffffffffffffffffffffffff1673ffffffffffffffffffffffffffffffffffffffff168152602001908152602001600020819055507fdcbc1c05240f31ff3ad067ef1ee35ce4997762752e3a095284754544f4c709d78385846000808873ffffffffffffffffffffffffffffffffffffffff1673ffffffffffffffffffffffffffffffffffffffff16815260200190815260200160002060008973ffffffffffffffffffffffffffffffffffffffff1673ffffffffffffffffffffffffffffffffffffffff16815260200190815260200160002054604051808573ffffffffffffffffffffffffffffffffffffffff1673ffffffffffffffffffffffffffffffffffffffff1681526020018473ffffffffffffffffffffffffffffffffffffffff1673ffffffffffffffffffffffffffffffffffffffff16815260200183815260200182815260200194505050505060405180910390a1600190509392505050565b600080828401905083811015151561231b57fe5b8091505092915050565b600082821115151561233357fe5b8183039050929150505600a165627a7a723058207bfb6d992d24090ad8a0ecb8aa98d3bfe42930a84f016e0d2046272cab1b25e90029",
  "source": "pragma solidity ^0.4.18;\n\nimport \"./ECRecovery.sol\";\nimport \"./SafeMath.sol\";\n\n\ncontract ERC20Interface {\n    function totalSupply() public constant returns (uint);\n    function balanceOf(address tokenOwner) public constant returns (uint balance);\n    function allowance(address tokenOwner, address spender) public constant returns (uint remaining);\n    function transfer(address to, uint tokens) public returns (bool success);\n    function approve(address spender, uint tokens) public returns (bool success);\n    function transferFrom(address from, address to, uint tokens) public returns (bool success);\n\n    event Transfer(address indexed from, address indexed to, uint tokens);\n    event Approval(address indexed tokenOwner, address indexed spender, uint tokens);\n}\n\n\n//wEth interface\ncontract WrapperInterface\n{\n  function() public payable;\n  function deposit() public payable ;\n  function withdraw(uint wad) public;\n  function totalSupply() public view returns (uint);\n  function approve(address guy, uint wad) public returns (bool);\n  function transfer(address dst, uint wad) public returns (bool);\n  function transferFrom(address src, address dst, uint wad);\n\n\n  event  Approval(address indexed src, address indexed guy, uint wad);\n  event  Transfer(address indexed src, address indexed dst, uint wad);\n  event  Deposit(address indexed dst, uint wad);\n  event  Withdrawal(address indexed src, uint wad);\n\n}\n\n\n\n\n\ncontract LavaWallet {\n\n\n  using SafeMath for uint;\n\n  // balances[tokenContractAddress][EthereumAccountAddress] = 0\n   mapping(address => mapping (address => uint256)) balances;\n\n   //token => owner => spender : amount\n   mapping(address => mapping (address => mapping (address => uint256))) allowed;\n\n   mapping(bytes32 => uint256) burnedSignatures;\n\n\n  event Deposit(address token, address user, uint amount, uint balance);\n  event Withdraw(address token, address user, uint amount, uint balance);\n  event Transfer(address indexed from, address indexed to,address token, uint tokens);\n  event Approval(address indexed tokenOwner, address indexed spender,address token, uint tokens);\n\n  function LavaWallet() public  {\n\n  }\n\n\n  //do not allow ether to enter\n  function() public payable {\n      revert();\n  }\n\n\n  //send Ether into this method, it gets wrapped and then deposited in this contract as a token balance assigned to the sender\n  function depositAndWrap(address wrappingContract) public payable\n  {\n    //convert the eth into wEth\n\n    //send this payable ether into the wrapping contract\n    wrappingContract.transfer(msg.value);\n\n    //send the tokens from the wrapping contract to here\n    WrapperInterface(wrappingContract).transfer(this, msg.value);\n\n    balances[wrappingContract][msg.sender] = balances[wrappingContract][msg.sender].add(msg.value);\n\n    assert(this.balance == 0); //make sure it is not a faulty wrapping contract\n\n    Deposit(wrappingContract, msg.sender, msg.value, balances[wrappingContract][msg.sender]);\n  }\n\n  //when this contract has control of wrapped eth, this is a way to easily withdraw it as ether\n  function unwrapAndWithdraw(address token, uint256 tokens) public\n  {\n      //transfer the tokens into the wrapping contract which is also the token contract\n      transfer(token,token,tokens);\n\n      WrapperInterface(token).withdraw(tokens);\n\n      //send ether to the token-sender\n      msg.sender.transfer(tokens);\n\n      assert(this.balance == 0); //make sure it is not a faulty wrapping contract\n\n      Withdraw(token, msg.sender, tokens, balances[token][msg.sender]);\n\n  }\n\n\n   //remember you need pre-approval for this - nice with ApproveAndCall\n  function depositToken(address from, address token, uint256 tokens) public returns (bool)\n  {\n    ///  if(msg.sender != token) revert(); //must come from ApproveAndCall\n      if(token <= 0) revert(); //need to deposit some tokens\n\n      //we already have approval so lets do a transferFrom - transfer the tokens into this contract\n      ERC20Interface(token).transferFrom(from, this, tokens);\n      balances[token][from] = balances[token][from].add(tokens);\n\n      Deposit(token, from, tokens, balances[token][from]);\n\n      return true;\n  }\n\n  function withdrawToken(address token, uint256 tokens) {\n    if(token <= 0) revert();\n    if (balances[token][msg.sender] < tokens) revert();\n\n    balances[token][msg.sender] = balances[token][msg.sender].sub(tokens);\n\n    ERC20Interface(token).transfer(msg.sender, tokens);\n\n    Withdraw(token, msg.sender, tokens, balances[token][msg.sender]);\n  }\n\n  function balanceOf(address token,address user) public constant returns (uint) {\n       return balances[token][user];\n   }\n\n function transfer(address to, address token, uint tokens) public returns (bool success) {\n      balances[token][msg.sender] = balances[token][msg.sender].sub(tokens);\n      balances[token][to] = balances[token][to].add(tokens);\n      Transfer(msg.sender, token, to, tokens);\n      return true;\n  }\n\n   function approve(address spender, address token, uint tokens) public returns (bool success) {\n       allowed[token][msg.sender][spender] = tokens;\n       Approval(msg.sender, token, spender, tokens);\n       return true;\n   }\n\n\n   function transferFrom( address from, address to,address token,  uint tokens) public returns (bool success) {\n       balances[token][from] = balances[token][from].sub(tokens);\n       allowed[token][from][msg.sender] = allowed[token][from][msg.sender].sub(tokens);\n       balances[token][to] = balances[token][to].add(tokens);\n       Transfer(token, from, to, tokens);\n       return true;\n   }\n\n   //allows transfer without approval as long as you get an EC signature\n  function transferFromWithSignature(address from, uint256 tokens, address token, uint256 checkNumber, bytes32 sigHash, bytes signature) public returns (bool)\n  {\n      //check to make sure that signature == ecrecover signature\n\n      address recoveredSignatureSigner = ECRecovery.recover(sigHash,signature);\n\n      //make sure the signer is the depositor of the tokens\n      if(from != recoveredSignatureSigner) revert();\n\n      //make sure the signed hash incorporates the token recipient, quantity to withdraw, and the check number\n      bytes32 sigDigest = keccak256(msg.sender, tokens, token, checkNumber);\n\n      //make sure this signature has never been used\n      uint burnedSignature = burnedSignatures[sigDigest];\n      burnedSignatures[sigDigest] = 0x1; //spent\n      if(burnedSignature != 0x0 ) revert();\n\n      //make sure the data being signed (sigHash) really does match the msg.sender, tokens, and checkNumber\n      if(sigDigest != sigHash) revert();\n\n      //make sure the token-depositor has enough tokens in escrow\n      if(balanceOf(token, from) < tokens) revert();\n\n      //finally, transfer the tokens out of this contracts escrow to msg.sender\n      balances[token][from].sub(tokens);\n      ERC20Interface(token).transfer(msg.sender, tokens);\n\n\n      return true;\n  }\n\n\n\n     function signatureBurned(bytes32 digest) public view returns (bool)\n     {\n       return (burnedSignatures[digest] != 0x0);\n     }\n\n\n     function burnSignature(address to, uint256 tokens, address token, uint256 checkNumber, bytes32 sigHash, bytes signature) public returns (bool)\n     {\n         address recoveredSignatureSigner = ECRecovery.recover(sigHash,signature);\n\n         //maker sure the invalidator is the signer\n         if(recoveredSignatureSigner != msg.sender) revert();\n\n         bytes32 sigDigest = keccak256(to, tokens, token, checkNumber);\n\n         if(sigDigest != sigHash) revert();\n\n         //make sure this signature has never been used\n         uint burnedSignature = burnedSignatures[sigDigest];\n         burnedSignatures[sigDigest] = 0x2; //invalidated\n         if(burnedSignature != 0x0 ) revert();\n\n         return true;\n     }\n\n\n   /*\n     Receive approval to spend tokens and perform any action all in one transaction\n   */\n function receiveApproval(address from, uint256 tokens, address token, bytes data) public returns (bool) {\n\n   //parse the data:   first byte is for 'action_id'\n   byte action_id = data[0];\n\n   if(action_id == 0x1)\n   {\n     return depositToken(from, token, tokens);\n   }\n\n   return false;\n   //return false;\n\n }\n\n\n}\n",
  "sourcePath": "/home/andy/dev/lava-wallet/contracts/LavaWallet.sol",
  "compiler": {
    "name": "solc",
    "version": "0.4.18+commit.9cf6e910.Emscripten.clang"
  },
  "schemaVersion": "1.0.1",
  "updatedAt": "2018-04-05T20:43:41.928Z"
}