{
  "contractName": "LavaWallet",
  "abi": [
    {
      "inputs": [
        {
          "name": "relayKingContractAddress",
          "type": "address"
        }
      ],
      "payable": false,
      "stateMutability": "nonpayable",
      "type": "constructor"
    },
    {
      "payable": true,
      "stateMutability": "payable",
      "type": "fallback"
    },
    {
      "anonymous": false,
      "inputs": [
        {
          "indexed": false,
          "name": "token",
          "type": "address"
        },
        {
          "indexed": false,
          "name": "user",
          "type": "address"
        },
        {
          "indexed": false,
          "name": "amount",
          "type": "uint256"
        },
        {
          "indexed": false,
          "name": "balance",
          "type": "uint256"
        }
      ],
      "name": "Deposit",
      "type": "event"
    },
    {
      "anonymous": false,
      "inputs": [
        {
          "indexed": false,
          "name": "token",
          "type": "address"
        },
        {
          "indexed": false,
          "name": "user",
          "type": "address"
        },
        {
          "indexed": false,
          "name": "amount",
          "type": "uint256"
        },
        {
          "indexed": false,
          "name": "balance",
          "type": "uint256"
        }
      ],
      "name": "Withdraw",
      "type": "event"
    },
    {
      "anonymous": false,
      "inputs": [
        {
          "indexed": true,
          "name": "from",
          "type": "address"
        },
        {
          "indexed": true,
          "name": "to",
          "type": "address"
        },
        {
          "indexed": false,
          "name": "token",
          "type": "address"
        },
        {
          "indexed": false,
          "name": "tokens",
          "type": "uint256"
        }
      ],
      "name": "Transfer",
      "type": "event"
    },
    {
      "anonymous": false,
      "inputs": [
        {
          "indexed": true,
          "name": "tokenOwner",
          "type": "address"
        },
        {
          "indexed": true,
          "name": "spender",
          "type": "address"
        },
        {
          "indexed": false,
          "name": "token",
          "type": "address"
        },
        {
          "indexed": false,
          "name": "tokens",
          "type": "uint256"
        }
      ],
      "name": "Approval",
      "type": "event"
    },
    {
      "constant": false,
      "inputs": [
        {
          "name": "from",
          "type": "address"
        },
        {
          "name": "token",
          "type": "address"
        },
        {
          "name": "tokens",
          "type": "uint256"
        }
      ],
      "name": "depositTokens",
      "outputs": [
        {
          "name": "success",
          "type": "bool"
        }
      ],
      "payable": false,
      "stateMutability": "nonpayable",
      "type": "function"
    },
    {
      "constant": false,
      "inputs": [
        {
          "name": "token",
          "type": "address"
        },
        {
          "name": "tokens",
          "type": "uint256"
        }
      ],
      "name": "withdrawTokens",
      "outputs": [
        {
          "name": "success",
          "type": "bool"
        }
      ],
      "payable": false,
      "stateMutability": "nonpayable",
      "type": "function"
    },
    {
      "constant": false,
      "inputs": [
        {
          "name": "from",
          "type": "address"
        },
        {
          "name": "to",
          "type": "address"
        },
        {
          "name": "token",
          "type": "address"
        },
        {
          "name": "tokens",
          "type": "uint256"
        }
      ],
      "name": "withdrawTokensFrom",
      "outputs": [
        {
          "name": "success",
          "type": "bool"
        }
      ],
      "payable": false,
      "stateMutability": "nonpayable",
      "type": "function"
    },
    {
      "constant": true,
      "inputs": [
        {
          "name": "token",
          "type": "address"
        },
        {
          "name": "user",
          "type": "address"
        }
      ],
      "name": "balanceOf",
      "outputs": [
        {
          "name": "",
          "type": "uint256"
        }
      ],
      "payable": false,
      "stateMutability": "view",
      "type": "function"
    },
    {
      "constant": true,
      "inputs": [
        {
          "name": "token",
          "type": "address"
        },
        {
          "name": "tokenOwner",
          "type": "address"
        },
        {
          "name": "spender",
          "type": "address"
        }
      ],
      "name": "allowance",
      "outputs": [
        {
          "name": "remaining",
          "type": "uint256"
        }
      ],
      "payable": false,
      "stateMutability": "view",
      "type": "function"
    },
    {
      "constant": false,
      "inputs": [
        {
          "name": "spender",
          "type": "address"
        },
        {
          "name": "token",
          "type": "address"
        },
        {
          "name": "tokens",
          "type": "uint256"
        }
      ],
      "name": "approveTokens",
      "outputs": [
        {
          "name": "success",
          "type": "bool"
        }
      ],
      "payable": false,
      "stateMutability": "nonpayable",
      "type": "function"
    },
    {
      "constant": false,
      "inputs": [
        {
          "name": "to",
          "type": "address"
        },
        {
          "name": "token",
          "type": "address"
        },
        {
          "name": "tokens",
          "type": "uint256"
        }
      ],
      "name": "transferTokens",
      "outputs": [
        {
          "name": "success",
          "type": "bool"
        }
      ],
      "payable": false,
      "stateMutability": "nonpayable",
      "type": "function"
    },
    {
      "constant": false,
      "inputs": [
        {
          "name": "from",
          "type": "address"
        },
        {
          "name": "to",
          "type": "address"
        },
        {
          "name": "token",
          "type": "address"
        },
        {
          "name": "tokens",
          "type": "uint256"
        }
      ],
      "name": "transferTokensFrom",
      "outputs": [
        {
          "name": "success",
          "type": "bool"
        }
      ],
      "payable": false,
      "stateMutability": "nonpayable",
      "type": "function"
    },
    {
      "constant": false,
      "inputs": [
        {
          "components": [
            {
              "name": "methodname",
              "type": "bytes"
            },
            {
              "name": "requireKingRelay",
              "type": "bool"
            },
            {
              "name": "from",
              "type": "address"
            },
            {
              "name": "to",
              "type": "address"
            },
            {
              "name": "wallet",
              "type": "address"
            },
            {
              "name": "token",
              "type": "address"
            },
            {
              "name": "tokens",
              "type": "uint256"
            },
            {
              "name": "relayerReward",
              "type": "uint256"
            },
            {
              "name": "expires",
              "type": "uint256"
            },
            {
              "name": "nonce",
              "type": "uint256"
            }
          ],
          "name": "packet",
          "type": "tuple"
        },
        {
          "name": "signature",
          "type": "bytes"
        }
      ],
      "name": "approveTokensWithSignature",
      "outputs": [
        {
          "name": "success",
          "type": "bool"
        }
      ],
      "payable": false,
      "stateMutability": "nonpayable",
      "type": "function"
    },
    {
      "constant": false,
      "inputs": [
        {
          "components": [
            {
              "name": "methodname",
              "type": "bytes"
            },
            {
              "name": "requireKingRelay",
              "type": "bool"
            },
            {
              "name": "from",
              "type": "address"
            },
            {
              "name": "to",
              "type": "address"
            },
            {
              "name": "wallet",
              "type": "address"
            },
            {
              "name": "token",
              "type": "address"
            },
            {
              "name": "tokens",
              "type": "uint256"
            },
            {
              "name": "relayerReward",
              "type": "uint256"
            },
            {
              "name": "expires",
              "type": "uint256"
            },
            {
              "name": "nonce",
              "type": "uint256"
            }
          ],
          "name": "packet",
          "type": "tuple"
        },
        {
          "name": "signature",
          "type": "bytes"
        }
      ],
      "name": "transferTokensWithSignature",
      "outputs": [
        {
          "name": "success",
          "type": "bool"
        }
      ],
      "payable": false,
      "stateMutability": "nonpayable",
      "type": "function"
    },
    {
      "constant": false,
      "inputs": [
        {
          "components": [
            {
              "name": "methodname",
              "type": "bytes"
            },
            {
              "name": "requireKingRelay",
              "type": "bool"
            },
            {
              "name": "from",
              "type": "address"
            },
            {
              "name": "to",
              "type": "address"
            },
            {
              "name": "wallet",
              "type": "address"
            },
            {
              "name": "token",
              "type": "address"
            },
            {
              "name": "tokens",
              "type": "uint256"
            },
            {
              "name": "relayerReward",
              "type": "uint256"
            },
            {
              "name": "expires",
              "type": "uint256"
            },
            {
              "name": "nonce",
              "type": "uint256"
            }
          ],
          "name": "packet",
          "type": "tuple"
        },
        {
          "name": "signature",
          "type": "bytes"
        }
      ],
      "name": "withdrawTokensWithSignature",
      "outputs": [
        {
          "name": "success",
          "type": "bool"
        }
      ],
      "payable": false,
      "stateMutability": "nonpayable",
      "type": "function"
    },
    {
      "constant": false,
      "inputs": [
        {
          "name": "methodname",
          "type": "bytes"
        },
        {
          "components": [
            {
              "name": "methodname",
              "type": "bytes"
            },
            {
              "name": "requireKingRelay",
              "type": "bool"
            },
            {
              "name": "from",
              "type": "address"
            },
            {
              "name": "to",
              "type": "address"
            },
            {
              "name": "wallet",
              "type": "address"
            },
            {
              "name": "token",
              "type": "address"
            },
            {
              "name": "tokens",
              "type": "uint256"
            },
            {
              "name": "relayerReward",
              "type": "uint256"
            },
            {
              "name": "expires",
              "type": "uint256"
            },
            {
              "name": "nonce",
              "type": "uint256"
            }
          ],
          "name": "packet",
          "type": "tuple"
        },
        {
          "name": "signature",
          "type": "bytes"
        }
      ],
      "name": "burnSignature",
      "outputs": [
        {
          "name": "success",
          "type": "bool"
        }
      ],
      "payable": false,
      "stateMutability": "nonpayable",
      "type": "function"
    },
    {
      "constant": true,
      "inputs": [
        {
          "name": "digest",
          "type": "bytes32"
        }
      ],
      "name": "signatureBurnStatus",
      "outputs": [
        {
          "name": "",
          "type": "uint256"
        }
      ],
      "payable": false,
      "stateMutability": "view",
      "type": "function"
    },
    {
      "constant": false,
      "inputs": [
        {
          "name": "from",
          "type": "address"
        },
        {
          "name": "tokens",
          "type": "uint256"
        },
        {
          "name": "token",
          "type": "address"
        },
        {
          "name": "data",
          "type": "bytes"
        }
      ],
      "name": "receiveApproval",
      "outputs": [
        {
          "name": "success",
          "type": "bool"
        }
      ],
      "payable": false,
      "stateMutability": "nonpayable",
      "type": "function"
    },
    {
      "constant": false,
      "inputs": [
        {
          "name": "methodname",
          "type": "bytes"
        },
        {
          "components": [
            {
              "name": "methodname",
              "type": "bytes"
            },
            {
              "name": "requireKingRelay",
              "type": "bool"
            },
            {
              "name": "from",
              "type": "address"
            },
            {
              "name": "to",
              "type": "address"
            },
            {
              "name": "wallet",
              "type": "address"
            },
            {
              "name": "token",
              "type": "address"
            },
            {
              "name": "tokens",
              "type": "uint256"
            },
            {
              "name": "relayerReward",
              "type": "uint256"
            },
            {
              "name": "expires",
              "type": "uint256"
            },
            {
              "name": "nonce",
              "type": "uint256"
            }
          ],
          "name": "packet",
          "type": "tuple"
        },
        {
          "name": "signature",
          "type": "bytes"
        }
      ],
      "name": "approveAndCall",
      "outputs": [
        {
          "name": "success",
          "type": "bool"
        }
      ],
      "payable": false,
      "stateMutability": "nonpayable",
      "type": "function"
    },
    {
      "constant": false,
      "inputs": [],
      "name": "getRelayingKing",
      "outputs": [
        {
          "name": "",
          "type": "address"
        }
      ],
      "payable": false,
      "stateMutability": "nonpayable",
      "type": "function"
    }
  ],
  "bytecode": "0x60806040523480156200001157600080fd5b506040516020806200300583398101806040526200003391908101906200026e565b80600360006101000a81548173ffffffffffffffffffffffffffffffffffffffff021916908373ffffffffffffffffffffffffffffffffffffffff160217905550620000ed60408051908101604052806040805190810160405280600b81526020017f4c6176612057616c6c657400000000000000000000000000000000000000000081525081526020013073ffffffffffffffffffffffffffffffffffffffff16815250620000fe640100000000026401000000009004565b600481600019169055505062000343565b600060405180807f454950373132446f6d61696e28737472696e67206e616d652c6164647265737381526020017f20766572696679696e67436f6e747261637429000000000000000000000000008152506033019050604051809103902082600001516040518082805190602001908083835b60208310151562000198578051825260208201915060208101905060208303925062000171565b6001836020036101000a03801982511681845116808217855250505050505090500191505060405180910390208360200151604051602001620001de93929190620002bc565b6040516020818303038152906040526040518082805190602001908083835b602083101515620002245780518252602082019150602081019050602083039250620001fd565b6001836020036101000a03801982511681845116808217855250505050505090500191505060405180910390209050919050565b600062000266825162000323565b905092915050565b6000602082840312156200028157600080fd5b6000620002918482850162000258565b91505092915050565b620002a581620002f9565b82525050565b620002b68162000319565b82525050565b6000606082019050620002d36000830186620002ab565b620002e26020830185620002ab565b620002f160408301846200029a565b949350505050565b600073ffffffffffffffffffffffffffffffffffffffff82169050919050565b6000819050919050565b600073ffffffffffffffffffffffffffffffffffffffff82169050919050565b612cb280620003536000396000f3006080604052600436106100e6576000357c0100000000000000000000000000000000000000000000000000000000900463ffffffff16806306b091f9146100eb578063094171101461012857806327a8befb1461016557806339dc5ef2146101a25780633c7e03c1146101df5780634b17bdd81461020a5780635f285596146102475780637fc6e1cd146102845780638f4ffcb1146102c1578063912d6e28146102fe578063927da1051461033b578063a64b6e5f14610378578063af8c50e4146103b5578063b0e0ef09146103f2578063deee67761461042f578063f7888aec1461046c575b600080fd5b3480156100f757600080fd5b50610112600480360361010d9190810190612593565b6104a9565b60405161011f919061293b565b60405180910390f35b34801561013457600080fd5b5061014f600480360361014a9190810190612673565b61072e565b60405161015c9190612a46565b60405180910390f35b34801561017157600080fd5b5061018c6004803603610187919081019061269c565b610753565b604051610199919061293b565b60405180910390f35b3480156101ae57600080fd5b506101c960048036036101c49190810190612544565b610848565b6040516101d6919061293b565b60405180910390f35b3480156101eb57600080fd5b506101f4610ad0565b604051610201919061282f565b60405180910390f35b34801561021657600080fd5b50610231600480360361022c91908101906124e1565b610b95565b60405161023e919061293b565b60405180910390f35b34801561025357600080fd5b5061026e60048036036102699190810190612733565b610fad565b60405161027b919061293b565b60405180910390f35b34801561029057600080fd5b506102ab60048036036102a69190810190612733565b611039565b6040516102b8919061293b565b60405180910390f35b3480156102cd57600080fd5b506102e860048036036102e391908101906125cf565b6110c5565b6040516102f5919061293b565b60405180910390f35b34801561030a57600080fd5b5061032560048036036103209190810190612544565b6110dc565b604051610332919061293b565b60405180910390f35b34801561034757600080fd5b50610362600480360361035d9190810190612492565b61120e565b60405161036f9190612a46565b60405180910390f35b34801561038457600080fd5b5061039f600480360361039a9190810190612544565b6112d3565b6040516103ac919061293b565b60405180910390f35b3480156103c157600080fd5b506103dc60048036036103d7919081019061269c565b611561565b6040516103e9919061293b565b60405180910390f35b3480156103fe57600080fd5b50610419600480360361041491908101906124e1565b61162f565b604051610426919061293b565b60405180910390f35b34801561043b57600080fd5b5061045660048036036104519190810190612733565b611a3f565b604051610463919061293b565b60405180910390f35b34801561047857600080fd5b50610493600480360361048e9190810190612456565b611aa4565b6040516104a09190612a46565b60405180910390f35b6000610539826000808673ffffffffffffffffffffffffffffffffffffffff1673ffffffffffffffffffffffffffffffffffffffff16815260200190815260200160002060003373ffffffffffffffffffffffffffffffffffffffff1673ffffffffffffffffffffffffffffffffffffffff16815260200190815260200160002054611b2a90919063ffffffff16565b6000808573ffffffffffffffffffffffffffffffffffffffff1673ffffffffffffffffffffffffffffffffffffffff16815260200190815260200160002060003373ffffffffffffffffffffffffffffffffffffffff1673ffffffffffffffffffffffffffffffffffffffff168152602001908152602001600020819055508273ffffffffffffffffffffffffffffffffffffffff1663a9059cbb33846040518363ffffffff167c010000000000000000000000000000000000000000000000000000000002815260040161060f9291906128c6565b602060405180830381600087803b15801561062957600080fd5b505af115801561063d573d6000803e3d6000fd5b505050506040513d601f19601f82011682018060405250610661919081019061264a565b151561066c57600080fd5b7ff341246adaac6f497bc2a656f546ab9e182111d630394f0c57c710a59a2cb5678333846000808873ffffffffffffffffffffffffffffffffffffffff1673ffffffffffffffffffffffffffffffffffffffff16815260200190815260200160002060003373ffffffffffffffffffffffffffffffffffffffff1673ffffffffffffffffffffffffffffffffffffffff1681526020019081526020016000205460405161071c949392919061284a565b60405180910390a16001905092915050565b6000600260008360001916600019168152602001908152602001600020549050919050565b6000806000806107638787611b43565b925061076f8386611c27565b9150856040015173ffffffffffffffffffffffffffffffffffffffff168273ffffffffffffffffffffffffffffffffffffffff161415156107af57600080fd5b3373ffffffffffffffffffffffffffffffffffffffff16866040015173ffffffffffffffffffffffffffffffffffffffff161415156107ed57600080fd5b600260008460001916600019168152602001908152602001600020549050600280600085600019166000191681526020019081526020016000208190555060008114151561083a57600080fd5b600193505050509392505050565b60008273ffffffffffffffffffffffffffffffffffffffff166323b872dd8530856040518463ffffffff167c01000000000000000000000000000000000000000000000000000000000281526004016108a39392919061288f565b602060405180830381600087803b1580156108bd57600080fd5b505af11580156108d1573d6000803e3d6000fd5b505050506040513d601f19601f820116820180604052506108f5919081019061264a565b151561090057600080fd5b61098e826000808673ffffffffffffffffffffffffffffffffffffffff1673ffffffffffffffffffffffffffffffffffffffff16815260200190815260200160002060008773ffffffffffffffffffffffffffffffffffffffff1673ffffffffffffffffffffffffffffffffffffffff16815260200190815260200160002054611cef90919063ffffffff16565b6000808573ffffffffffffffffffffffffffffffffffffffff1673ffffffffffffffffffffffffffffffffffffffff16815260200190815260200160002060008673ffffffffffffffffffffffffffffffffffffffff1673ffffffffffffffffffffffffffffffffffffffff168152602001908152602001600020819055507fdcbc1c05240f31ff3ad067ef1ee35ce4997762752e3a095284754544f4c709d78385846000808873ffffffffffffffffffffffffffffffffffffffff1673ffffffffffffffffffffffffffffffffffffffff16815260200190815260200160002060008973ffffffffffffffffffffffffffffffffffffffff1673ffffffffffffffffffffffffffffffffffffffff16815260200190815260200160002054604051610abd949392919061284a565b60405180910390a1600190509392505050565b6000600360009054906101000a900473ffffffffffffffffffffffffffffffffffffffff1673ffffffffffffffffffffffffffffffffffffffff1663fe4d62f96040518163ffffffff167c0100000000000000000000000000000000000000000000000000000000028152600401602060405180830381600087803b158015610b5857600080fd5b505af1158015610b6c573d6000803e3d6000fd5b505050506040513d601f19601f82011682018060405250610b90919081019061242d565b905090565b6000610c25826000808673ffffffffffffffffffffffffffffffffffffffff1673ffffffffffffffffffffffffffffffffffffffff16815260200190815260200160002060008873ffffffffffffffffffffffffffffffffffffffff1673ffffffffffffffffffffffffffffffffffffffff16815260200190815260200160002054611b2a90919063ffffffff16565b6000808573ffffffffffffffffffffffffffffffffffffffff1673ffffffffffffffffffffffffffffffffffffffff16815260200190815260200160002060008773ffffffffffffffffffffffffffffffffffffffff1673ffffffffffffffffffffffffffffffffffffffff16815260200190815260200160002081905550610d7082600160008673ffffffffffffffffffffffffffffffffffffffff1673ffffffffffffffffffffffffffffffffffffffff16815260200190815260200160002060008873ffffffffffffffffffffffffffffffffffffffff1673ffffffffffffffffffffffffffffffffffffffff16815260200190815260200160002060008773ffffffffffffffffffffffffffffffffffffffff1673ffffffffffffffffffffffffffffffffffffffff16815260200190815260200160002054611b2a90919063ffffffff16565b600160008573ffffffffffffffffffffffffffffffffffffffff1673ffffffffffffffffffffffffffffffffffffffff16815260200190815260200160002060008773ffffffffffffffffffffffffffffffffffffffff1673ffffffffffffffffffffffffffffffffffffffff16815260200190815260200160002060008673ffffffffffffffffffffffffffffffffffffffff1673ffffffffffffffffffffffffffffffffffffffff16815260200190815260200160002081905550610ebb826000808673ffffffffffffffffffffffffffffffffffffffff1673ffffffffffffffffffffffffffffffffffffffff16815260200190815260200160002060008773ffffffffffffffffffffffffffffffffffffffff1673ffffffffffffffffffffffffffffffffffffffff16815260200190815260200160002054611cef90919063ffffffff16565b6000808573ffffffffffffffffffffffffffffffffffffffff1673ffffffffffffffffffffffffffffffffffffffff16815260200190815260200160002060008673ffffffffffffffffffffffffffffffffffffffff1673ffffffffffffffffffffffffffffffffffffffff168152602001908152602001600020819055508473ffffffffffffffffffffffffffffffffffffffff168373ffffffffffffffffffffffffffffffffffffffff167fd1398bee19313d6bf672ccb116e51f4a1a947e91c757907f51fbb5b5e56c698f8685604051610f999291906128c6565b60405180910390a360019050949350505050565b600080610fef6040805190810160405280600881526020017f7472616e7366657200000000000000000000000000000000000000000000000081525085611b43565b9050610ffc848285611d0d565b151561100757600080fd5b611023846040015185606001518660a001518760c00151610b95565b151561102e57600080fd5b600191505092915050565b60008061107b6040805190810160405280600881526020017f776974686472617700000000000000000000000000000000000000000000000081525085611b43565b9050611088848285611d0d565b151561109357600080fd5b6110af846040015185606001518660a001518760c0015161162f565b15156110ba57600080fd5b600191505092915050565b60006110d2858486610848565b9050949350505050565b600081600160008573ffffffffffffffffffffffffffffffffffffffff1673ffffffffffffffffffffffffffffffffffffffff16815260200190815260200160002060003373ffffffffffffffffffffffffffffffffffffffff1673ffffffffffffffffffffffffffffffffffffffff16815260200190815260200160002060008673ffffffffffffffffffffffffffffffffffffffff1673ffffffffffffffffffffffffffffffffffffffff168152602001908152602001600020819055508273ffffffffffffffffffffffffffffffffffffffff163373ffffffffffffffffffffffffffffffffffffffff167fa0175360a15bca328baf7ea85c7b784d58b222a50d0ce760b10dba336d226a6186856040516111fb9291906128c6565b60405180910390a3600190509392505050565b6000600160008573ffffffffffffffffffffffffffffffffffffffff1673ffffffffffffffffffffffffffffffffffffffff16815260200190815260200160002060008473ffffffffffffffffffffffffffffffffffffffff1673ffffffffffffffffffffffffffffffffffffffff16815260200190815260200160002060008373ffffffffffffffffffffffffffffffffffffffff1673ffffffffffffffffffffffffffffffffffffffff1681526020019081526020016000205490509392505050565b6000611363826000808673ffffffffffffffffffffffffffffffffffffffff1673ffffffffffffffffffffffffffffffffffffffff16815260200190815260200160002060003373ffffffffffffffffffffffffffffffffffffffff1673ffffffffffffffffffffffffffffffffffffffff16815260200190815260200160002054611b2a90919063ffffffff16565b6000808573ffffffffffffffffffffffffffffffffffffffff1673ffffffffffffffffffffffffffffffffffffffff16815260200190815260200160002060003373ffffffffffffffffffffffffffffffffffffffff1673ffffffffffffffffffffffffffffffffffffffff16815260200190815260200160002081905550611470826000808673ffffffffffffffffffffffffffffffffffffffff1673ffffffffffffffffffffffffffffffffffffffff16815260200190815260200160002060008773ffffffffffffffffffffffffffffffffffffffff1673ffffffffffffffffffffffffffffffffffffffff16815260200190815260200160002054611cef90919063ffffffff16565b6000808573ffffffffffffffffffffffffffffffffffffffff1673ffffffffffffffffffffffffffffffffffffffff16815260200190815260200160002060008673ffffffffffffffffffffffffffffffffffffffff1673ffffffffffffffffffffffffffffffffffffffff168152602001908152602001600020819055508273ffffffffffffffffffffffffffffffffffffffff163373ffffffffffffffffffffffffffffffffffffffff167fd1398bee19313d6bf672ccb116e51f4a1a947e91c757907f51fbb5b5e56c698f868560405161154e9291906128c6565b60405180910390a3600190509392505050565b60008061156e8585611b43565b905061157b848285611d0d565b151561158657600080fd5b836060015173ffffffffffffffffffffffffffffffffffffffff16638f4ffcb185604001518660c001518760a00151896040518563ffffffff167c01000000000000000000000000000000000000000000000000000000000281526004016115f194939291906128ef565b600060405180830381600087803b15801561160b57600080fd5b505af115801561161f573d6000803e3d6000fd5b5050505060019150509392505050565b60006116bf826000808673ffffffffffffffffffffffffffffffffffffffff1673ffffffffffffffffffffffffffffffffffffffff16815260200190815260200160002060008873ffffffffffffffffffffffffffffffffffffffff1673ffffffffffffffffffffffffffffffffffffffff16815260200190815260200160002054611b2a90919063ffffffff16565b6000808573ffffffffffffffffffffffffffffffffffffffff1673ffffffffffffffffffffffffffffffffffffffff16815260200190815260200160002060008773ffffffffffffffffffffffffffffffffffffffff1673ffffffffffffffffffffffffffffffffffffffff1681526020019081526020016000208190555061180a82600160008673ffffffffffffffffffffffffffffffffffffffff1673ffffffffffffffffffffffffffffffffffffffff16815260200190815260200160002060008873ffffffffffffffffffffffffffffffffffffffff1673ffffffffffffffffffffffffffffffffffffffff16815260200190815260200160002060008773ffffffffffffffffffffffffffffffffffffffff1673ffffffffffffffffffffffffffffffffffffffff16815260200190815260200160002054611b2a90919063ffffffff16565b600160008573ffffffffffffffffffffffffffffffffffffffff1673ffffffffffffffffffffffffffffffffffffffff16815260200190815260200160002060008773ffffffffffffffffffffffffffffffffffffffff1673ffffffffffffffffffffffffffffffffffffffff16815260200190815260200160002060008673ffffffffffffffffffffffffffffffffffffffff1673ffffffffffffffffffffffffffffffffffffffff168152602001908152602001600020819055508273ffffffffffffffffffffffffffffffffffffffff1663a9059cbb85846040518363ffffffff167c010000000000000000000000000000000000000000000000000000000002815260040161191e9291906128c6565b602060405180830381600087803b15801561193857600080fd5b505af115801561194c573d6000803e3d6000fd5b505050506040513d601f19601f82011682018060405250611970919081019061264a565b151561197b57600080fd5b7ff341246adaac6f497bc2a656f546ab9e182111d630394f0c57c710a59a2cb5678386846000808873ffffffffffffffffffffffffffffffffffffffff1673ffffffffffffffffffffffffffffffffffffffff16815260200190815260200160002060008a73ffffffffffffffffffffffffffffffffffffffff1673ffffffffffffffffffffffffffffffffffffffff16815260200190815260200160002054604051611a2b949392919061284a565b60405180910390a160019050949350505050565b600080611a816040805190810160405280600781526020017f617070726f76650000000000000000000000000000000000000000000000000081525085611b43565b9050611a8e848285611d0d565b1515611a9957600080fd5b600191505092915050565b60008060008473ffffffffffffffffffffffffffffffffffffffff1673ffffffffffffffffffffffffffffffffffffffff16815260200190815260200160002060008373ffffffffffffffffffffffffffffffffffffffff1673ffffffffffffffffffffffffffffffffffffffff16815260200190815260200160002054905092915050565b6000828211151515611b3857fe5b818303905092915050565b600080838360000181905250600454611b5b846120bc565b60405160200180807f190100000000000000000000000000000000000000000000000000000000000081525060020183600019166000191681526020018260001916600019168152602001925050506040516020818303038152906040526040518082805190602001908083835b602083101515611bee5780518252602082019150602081019050602083039250611bc9565b6001836020036101000a038019825116818451168082178552505050505050905001915050604051809103902090508091505092915050565b60008060008060418551141515611c415760009350611ce6565b6020850151925060408501519150606085015160001a9050601b8160ff161015611c6c57601b810190505b601b8160ff1614158015611c845750601c8160ff1614155b15611c925760009350611ce6565b60018682858560405160008152602001604052604051611cb59493929190612a01565b60206040516020810390808403906000865af1158015611cd9573d6000803e3d6000fd5b5050506020604051035193505b50505092915050565b6000808284019050838110151515611d0357fe5b8091505092915050565b6000806000611d1c8585611c27565b91508173ffffffffffffffffffffffffffffffffffffffff16866040015173ffffffffffffffffffffffffffffffffffffffff16141515611d5c57600080fd5b611d64610ad0565b73ffffffffffffffffffffffffffffffffffffffff163373ffffffffffffffffffffffffffffffffffffffff1614158015611da0575085602001515b15611daa57600080fd5b856101000151431115611dbc57600080fd5b600260008660001916600019168152602001908152602001600020549050600160026000876000191660001916815260200190815260200160002081905550600081141515611e0a57600080fd5b8560e00151600160008860a0015173ffffffffffffffffffffffffffffffffffffffff1673ffffffffffffffffffffffffffffffffffffffff1681526020019081526020016000206000886040015173ffffffffffffffffffffffffffffffffffffffff1673ffffffffffffffffffffffffffffffffffffffff16815260200190815260200160002060003373ffffffffffffffffffffffffffffffffffffffff1673ffffffffffffffffffffffffffffffffffffffff168152602001908152602001600020819055508560a0015173ffffffffffffffffffffffffffffffffffffffff16866040015173ffffffffffffffffffffffffffffffffffffffff167fa0175360a15bca328baf7ea85c7b784d58b222a50d0ce760b10dba336d226a61338960e00151604051611f3f9291906128c6565b60405180910390a3611f5f8660400151338860a001518960e00151610b95565b1515611f6a57600080fd5b8560c00151600160008860a0015173ffffffffffffffffffffffffffffffffffffffff1673ffffffffffffffffffffffffffffffffffffffff1681526020019081526020016000206000886040015173ffffffffffffffffffffffffffffffffffffffff1673ffffffffffffffffffffffffffffffffffffffff1681526020019081526020016000206000886060015173ffffffffffffffffffffffffffffffffffffffff1673ffffffffffffffffffffffffffffffffffffffff168152602001908152602001600020819055508560a0015173ffffffffffffffffffffffffffffffffffffffff16866040015173ffffffffffffffffffffffffffffffffffffffff167fa0175360a15bca328baf7ea85c7b784d58b222a50d0ce760b10dba336d226a6188606001518960c001516040516120a79291906128c6565b60405180910390a36001925050509392505050565b60006040518080612be4609591396095019050604051809103902082600001516040518082805190602001908083835b60208310151561211157805182526020820191506020810190506020830392506120ec565b6001836020036101000a038019825116818451168082178552505050505050905001915050604051809103902083602001518460400151856060015186608001518760a001518860c001518960e001518a61010001518b61012001516040516020016121879b9a99989796959493929190612956565b6040516020818303038152906040526040518082805190602001908083835b6020831015156121cb57805182526020820191506020810190506020830392506121a6565b6001836020036101000a03801982511681845116808217855250505050505090500191505060405180910390209050919050565b600061220b8235612b3e565b905092915050565b600061221f8251612b3e565b905092915050565b60006122338235612b5e565b905092915050565b60006122478251612b5e565b905092915050565b600061225b8235612b6a565b905092915050565b600082601f830112151561227657600080fd5b813561228961228482612a8e565b612a61565b915080825260208301602083018583830111156122a557600080fd5b6122b0838284612b90565b50505092915050565b600082601f83011215156122cc57600080fd5b81356122df6122da82612aba565b612a61565b915080825260208301602083018583830111156122fb57600080fd5b612306838284612b90565b50505092915050565b6000610140828403121561232257600080fd5b61232d610140612a61565b9050600082013567ffffffffffffffff81111561234957600080fd5b61235584828501612263565b600083015250602061236984828501612227565b602083015250604061237d848285016121ff565b6040830152506060612391848285016121ff565b60608301525060806123a5848285016121ff565b60808301525060a06123b9848285016121ff565b60a08301525060c06123cd84828501612419565b60c08301525060e06123e184828501612419565b60e0830152506101006123f684828501612419565b6101008301525061012061240c84828501612419565b6101208301525092915050565b60006124258235612b74565b905092915050565b60006020828403121561243f57600080fd5b600061244d84828501612213565b91505092915050565b6000806040838503121561246957600080fd5b6000612477858286016121ff565b9250506020612488858286016121ff565b9150509250929050565b6000806000606084860312156124a757600080fd5b60006124b5868287016121ff565b93505060206124c6868287016121ff565b92505060406124d7868287016121ff565b9150509250925092565b600080600080608085870312156124f757600080fd5b6000612505878288016121ff565b9450506020612516878288016121ff565b9350506040612527878288016121ff565b925050606061253887828801612419565b91505092959194509250565b60008060006060848603121561255957600080fd5b6000612567868287016121ff565b9350506020612578868287016121ff565b925050604061258986828701612419565b9150509250925092565b600080604083850312156125a657600080fd5b60006125b4858286016121ff565b92505060206125c585828601612419565b9150509250929050565b600080600080608085870312156125e557600080fd5b60006125f3878288016121ff565b945050602061260487828801612419565b9350506040612615878288016121ff565b925050606085013567ffffffffffffffff81111561263257600080fd5b61263e878288016122b9565b91505092959194509250565b60006020828403121561265c57600080fd5b600061266a8482850161223b565b91505092915050565b60006020828403121561268557600080fd5b60006126938482850161224f565b91505092915050565b6000806000606084860312156126b157600080fd5b600084013567ffffffffffffffff8111156126cb57600080fd5b6126d7868287016122b9565b935050602084013567ffffffffffffffff8111156126f457600080fd5b6127008682870161230f565b925050604084013567ffffffffffffffff81111561271d57600080fd5b612729868287016122b9565b9150509250925092565b6000806040838503121561274657600080fd5b600083013567ffffffffffffffff81111561276057600080fd5b61276c8582860161230f565b925050602083013567ffffffffffffffff81111561278957600080fd5b612795858286016122b9565b9150509250929050565b6127a881612af1565b82525050565b6127b781612b11565b82525050565b6127c681612b1d565b82525050565b60006127d782612ae6565b8084526127eb816020860160208601612b9f565b6127f481612bd2565b602085010191505092915050565b61280b81612b7e565b82525050565b61281a81612b27565b82525050565b61282981612b31565b82525050565b6000602082019050612844600083018461279f565b92915050565b600060808201905061285f600083018761279f565b61286c602083018661279f565b6128796040830185612811565b6128866060830184612811565b95945050505050565b60006060820190506128a4600083018661279f565b6128b16020830185612802565b6128be6040830184612811565b949350505050565b60006040820190506128db600083018561279f565b6128e86020830184612811565b9392505050565b6000608082019050612904600083018761279f565b6129116020830186612811565b61291e604083018561279f565b818103606083015261293081846127cc565b905095945050505050565b600060208201905061295060008301846127ae565b92915050565b60006101608201905061296c600083018e6127bd565b612979602083018d6127bd565b612986604083018c6127ae565b612993606083018b61279f565b6129a0608083018a61279f565b6129ad60a083018961279f565b6129ba60c083018861279f565b6129c760e0830187612811565b6129d5610100830186612811565b6129e3610120830185612811565b6129f1610140830184612811565b9c9b505050505050505050505050565b6000608082019050612a1660008301876127bd565b612a236020830186612820565b612a3060408301856127bd565b612a3d60608301846127bd565b95945050505050565b6000602082019050612a5b6000830184612811565b92915050565b6000604051905081810181811067ffffffffffffffff82111715612a8457600080fd5b8060405250919050565b600067ffffffffffffffff821115612aa557600080fd5b601f19601f8301169050602081019050919050565b600067ffffffffffffffff821115612ad157600080fd5b601f19601f8301169050602081019050919050565b600081519050919050565b600073ffffffffffffffffffffffffffffffffffffffff82169050919050565b60008115159050919050565b6000819050919050565b6000819050919050565b600060ff82169050919050565b600073ffffffffffffffffffffffffffffffffffffffff82169050919050565b60008115159050919050565b6000819050919050565b6000819050919050565b6000612b8982612af1565b9050919050565b82818337600083830152505050565b60005b83811015612bbd578082015181840152602081019050612ba2565b83811115612bcc576000848401525b50505050565b6000601f19601f830116905091905056004c6176615061636b657428737472696e67206d6574686f646e616d652c616464726573732066726f6d2c6164647265737320746f2c616464726573732077616c6c65742c6164647265737320746f6b656e2c75696e7432353620746f6b656e732c75696e743235362072656c617965725265776172642c75696e7432353620657870697265732c75696e74323536206e6f6e636529a265627a7a7230582077c4e64d88e882918b732e80cb491f03efa69b38103380a274c4e2bd00ed42396c6578706572696d656e74616cf50037",
  "source": "pragma solidity ^0.4.24;\n\n\npragma experimental ABIEncoderV2;\n\n/**\n * @title SafeMath\n * @dev Math operations with safety checks that throw on error\n */\nlibrary SafeMath {\n\n  /**\n  * @dev Multiplies two numbers, throws on overflow.\n  */\n  function mul(uint256 a, uint256 b) internal pure returns (uint256) {\n    if (a == 0) {\n      return 0;\n    }\n    uint256 c = a * b;\n    assert(c / a == b);\n    return c;\n  }\n\n  /**\n  * @dev Integer division of two numbers, truncating the quotient.\n  */\n  function div(uint256 a, uint256 b) internal pure returns (uint256) {\n    // assert(b > 0); // Solidity automatically throws when dividing by 0\n    uint256 c = a / b;\n    // assert(a == b * c + a % b); // There is no case in which this doesn't hold\n    return c;\n  }\n\n  /**\n  * @dev Substracts two numbers, throws on overflow (i.e. if subtrahend is greater than minuend).\n  */\n  function sub(uint256 a, uint256 b) internal pure returns (uint256) {\n    assert(b <= a);\n    return a - b;\n  }\n\n  /**\n  * @dev Adds two numbers, throws on overflow.\n  */\n  function add(uint256 a, uint256 b) internal pure returns (uint256) {\n    uint256 c = a + b;\n    assert(c >= a);\n    return c;\n  }\n}\n\n\ncontract ECRecovery {\n\n  /**\n   * @dev Recover signer address from a message by using their signature\n   * @param hash bytes32 message, the hash is the signed message. What is recovered is the signer address.\n   * @param sig bytes signature, the signature is generated using web3.eth.sign()\n   */\n  function recover(bytes32 hash, bytes sig) internal  pure returns (address) {\n    bytes32 r;\n    bytes32 s;\n    uint8 v;\n\n    //Check the signature length\n    if (sig.length != 65) {\n      return (address(0));\n    }\n\n    // Divide the signature in r, s and v variables\n    assembly {\n      r := mload(add(sig, 32))\n      s := mload(add(sig, 64))\n      v := byte(0, mload(add(sig, 96)))\n    }\n\n    // Version of signature should be 27 or 28, but 0 and 1 are also possible versions\n    if (v < 27) {\n      v += 27;\n    }\n\n    // If the version is correct return the signer address\n    if (v != 27 && v != 28) {\n      return (address(0));\n    } else {\n      return ecrecover(hash, v, r, s);\n    }\n  }\n\n}\n\n\n\n/*\n\nThis is a token wallet contract\n\nStore your tokens in this contract to give them super powers\n\nTokens can be spent from the contract with only an ecSignature from the owner - onchain approve is not needed\n\n\n*/\n\ncontract ERC20Interface {\n    function totalSupply() public constant returns (uint);\n    function balanceOf(address tokenOwner) public constant returns (uint balance);\n    function allowance(address tokenOwner, address spender) public constant returns (uint remaining);\n    function transfer(address to, uint tokens) public returns (bool success);\n    function approve(address spender, uint tokens) public returns (bool success);\n    function transferFrom(address from, address to, uint tokens) public returns (bool success);\n\n    event Transfer(address indexed from, address indexed to, uint tokens);\n    event Approval(address indexed tokenOwner, address indexed spender, uint tokens);\n}\ncontract ERC918Interface {\n  function totalSupply() public constant returns (uint);\n  function getMiningDifficulty() public constant returns (uint);\n  function getMiningTarget() public constant returns (uint);\n  function getMiningReward() public constant returns (uint);\n  function balanceOf(address tokenOwner) public constant returns (uint balance);\n\n  function mint(uint256 nonce, bytes32 challenge_digest) public returns (bool success);\n\n  event Mint(address indexed from, uint reward_amount, uint epochCount, bytes32 newChallengeNumber);\n\n}\n\ncontract MiningKingInterface {\n    function getMiningKing() public returns (address);\n    function transferKing(address newKing) public;\n    function mint(uint256 nonce, bytes32 challenge_digest) returns (bool);\n\n    event TransferKing(address from, address to);\n}\n\ncontract ApproveAndCallFallBack {\n\n    function receiveApproval(address from, uint256 tokens, address token, bytes data) public;\n\n}\n\n\n\n\n\n\ncontract LavaWallet is ECRecovery{\n\n  using SafeMath for uint;\n\n  // balances[tokenContractAddress][EthereumAccountAddress] = 0\n   mapping(address => mapping (address => uint256)) balances;\n\n   //token => owner => spender : amount\n   mapping(address => mapping (address => mapping (address => uint256))) allowed;\n\n   //mapping(address => uint256) depositedTokens;\n\n   mapping(bytes32 => uint256) burnedSignatures;\n\n   address relayKingContract;\n\n  event Deposit(address token, address user, uint amount, uint balance);\n  event Withdraw(address token, address user, uint amount, uint balance);\n  event Transfer(address indexed from, address indexed to,address token, uint tokens);\n  event Approval(address indexed tokenOwner, address indexed spender,address token, uint tokens);\n\n\n\n  struct EIP712Domain {\n      string  name;\n      address verifyingContract;\n  }\n\n\n  struct LavaPacket {\n    bytes methodname;\n    bool requireKingRelay; //only allow kings to relay the packet\n    address from;\n    address to;\n    address wallet;  //this contract address\n    address token;\n    uint256 tokens;\n    uint256 relayerReward;\n    uint256 expires;\n    uint256 nonce;\n  }\n\n  bytes32 constant EIP712DOMAIN_TYPEHASH = keccak256(\n      \"EIP712Domain(string name,address verifyingContract)\"\n  );\n\n  bytes32 constant LAVAPACKET_TYPEHASH = keccak256(\n      \"LavaPacket(string methodname,address from,address to,address wallet,address token,uint256 tokens,uint256 relayerReward,uint256 expires,uint256 nonce)\"\n  );\n\n\n  function hash(EIP712Domain eip712Domain) internal pure returns (bytes32) {\n        return keccak256(abi.encode(\n            EIP712DOMAIN_TYPEHASH,\n            keccak256(bytes(eip712Domain.name)),\n            eip712Domain.verifyingContract\n        ));\n    }\n\n    function hash(LavaPacket packet) internal pure returns (bytes32) {\n        return keccak256(abi.encode(\n            LAVAPACKET_TYPEHASH,\n            keccak256(bytes(packet.methodname)),\n            packet.requireKingRelay,\n            packet.from,\n            packet.to,\n            packet.wallet,\n            packet.token,\n            packet.tokens,\n            packet.relayerReward,\n            packet.expires,\n            packet.nonce\n        ));\n    }\n\n\n\n bytes32 DOMAIN_SEPARATOR;\n\n  function LavaWallet(address relayKingContractAddress ) public  {\n    relayKingContract = relayKingContractAddress;\n\n    DOMAIN_SEPARATOR = hash(EIP712Domain({\n           name: \"Lava Wallet\",\n           verifyingContract: this\n          // verifyingContract: 0xCcCCccccCCCCcCCCCCCcCcCccCcCCCcCcccccccC //comment this out\n       }));\n  }\n\n\n  //do not allow ether to enter\n  function() public payable {\n      revert();\n  }\n\n\n   //Remember you need pre-approval for this - nice with ApproveAndCall\n  function depositTokens(address from, address token, uint256 tokens ) public returns (bool success)\n  {\n      //we already have approval so lets do a transferFrom - transfer the tokens into this contract\n\n      if(!ERC20Interface(token).transferFrom(from, this, tokens)) revert();\n\n\n      balances[token][from] = balances[token][from].add(tokens);\n  //    depositedTokens[token] = depositedTokens[token].add(tokens);\n\n      emit Deposit(token, from, tokens, balances[token][from]);\n\n      return true;\n  }\n\n\n  //No approve needed, only from msg.sender\n  function withdrawTokens(address token, uint256 tokens) public returns (bool success){\n    balances[token][msg.sender] = balances[token][msg.sender].sub(tokens);\n\n    if(!ERC20Interface(token).transfer(msg.sender, tokens)) revert();\n\n\n     emit Withdraw(token, msg.sender, tokens, balances[token][msg.sender]);\n     return true;\n  }\n\n  //Requires approval so it can be public\n  function withdrawTokensFrom( address from, address to,address token,  uint tokens) public returns (bool success) {\n      balances[token][from] = balances[token][from].sub(tokens);\n       allowed[token][from][to] = allowed[token][from][to].sub(tokens);\n\n      if(!ERC20Interface(token).transfer(to, tokens)) revert();\n\n\n      emit Withdraw(token, from, tokens, balances[token][from]);\n      return true;\n  }\n\n\n  function balanceOf(address token,address user) public constant returns (uint) {\n       return balances[token][user];\n   }\n\n\n\n   function allowance(address token, address tokenOwner, address spender) public constant returns (uint remaining) {\n\n       return allowed[token][tokenOwner][spender];\n\n   }\n\n\n\n\n  //Can also be used to remove approval by using a 'tokens' value of 0.  P.S. it makes no sense to do an ApproveTokensFrom\n  function approveTokens(address spender, address token, uint tokens) public returns (bool success) {\n      allowed[token][msg.sender][spender] = tokens;\n      Approval(msg.sender, token, spender, tokens);\n      return true;\n  }\n\n  ///transfer tokens within the lava balances\n  //No approve needed, only from msg.sender\n   function transferTokens(address to, address token, uint tokens) public returns (bool success) {\n        balances[token][msg.sender] = balances[token][msg.sender].sub(tokens);\n        balances[token][to] = balances[token][to].add(tokens);\n        emit Transfer(msg.sender, token, to, tokens);\n        return true;\n    }\n\n\n    ///transfer tokens within the lava balances\n    //Can be public because it requires approval\n   function transferTokensFrom( address from, address to,address token,  uint tokens) public returns (bool success) {\n       balances[token][from] = balances[token][from].sub(tokens);\n       allowed[token][from][to] = allowed[token][from][to].sub(tokens);\n       balances[token][to] = balances[token][to].add(tokens);\n       emit Transfer(token, from, to, tokens);\n       return true;\n   }\n\n\n\n\n\n   //This replaces getLavaTypedDataHash .. how to handle Methodname?\n\n   function getLavaTypedDataHash(bytes methodname, LavaPacket packet) internal constant returns (bytes32) {\n\n          packet.methodname = methodname;\n\n          // Note: we need to use `encodePacked` here instead of `encode`.\n          bytes32 digest = keccak256(abi.encodePacked(\n              \"\\x19\\x01\",\n              DOMAIN_SEPARATOR,\n              hash(packet)\n          ));\n          return digest;\n      }\n\n\n\n   //Nonce is the same thing as a 'check number'\n   //EIP 712\n/*   function getLavaTypedDataHash(bytes methodname, LavaPacket packet ) public constant returns (bytes32)\n   {\n\n\n         bytes32 hardcodedSchemaHash = 0x8fd4f9177556bbc74d0710c8bdda543afd18cc84d92d64b5620d5f1881dceb37; //with methodname\n\n\n        bytes32 typedDataHash = sha3(\n            hardcodedSchemaHash,\n            sha3(methodname,packet.from,packet.to,this,packet.token,packet.tokens,packet.relayerReward,packet.expires,packet.nonce)\n          );\n\n        return typedDataHash;\n   }*/\n\n\n\n\n\n\n\n\n   function _tokenApprovalWithSignature(  LavaPacket packet, bytes32 sigHash, bytes signature) internal returns (bool success)\n   {\n\n       address recoveredSignatureSigner = recover(sigHash,signature);\n\n       //make sure the signer is the depositor of the tokens\n       if(packet.from != recoveredSignatureSigner) revert();\n\n       if(msg.sender != getRelayingKing() && packet.requireKingRelay ) revert();  // you must be the 'king of the hill' to relay\n\n       //make sure the signature has not expired\n       if(block.number > packet.expires) revert();\n\n       uint burnedSignature = burnedSignatures[sigHash];\n       burnedSignatures[sigHash] = 0x1; //spent\n       if(burnedSignature != 0x0 ) revert();\n\n       //approve the relayer reward\n       allowed[packet.token][packet.from][msg.sender] = packet.relayerReward;\n       Approval(packet.from, packet.token, msg.sender, packet.relayerReward);\n\n       //transferRelayerReward\n       if(!transferTokensFrom(packet.from, msg.sender, packet.token, packet.relayerReward)) revert();\n\n       //approve transfer of tokens\n       allowed[packet.token][packet.from][packet.to] = packet.tokens;\n       Approval(packet.from, packet.token, packet.to, packet.tokens);\n\n\n       return true;\n   }\n\n   function approveTokensWithSignature(LavaPacket packet, bytes signature) public returns (bool success)\n   {\n\n\n       bytes32 sigHash = getLavaTypedDataHash('approve',packet);\n\n       if(!_tokenApprovalWithSignature(packet,sigHash,signature)) revert();\n\n\n       return true;\n   }\n\n\n   //the tokens remain in lava wallet\n  function transferTokensWithSignature(LavaPacket packet, bytes signature) public returns (bool success)\n  {\n\n      //check to make sure that signature == ecrecover signature\n      bytes32 sigHash = getLavaTypedDataHash('transfer',packet);\n\n      if(!_tokenApprovalWithSignature(packet,sigHash,signature)) revert();\n\n      //it can be requested that fewer tokens be sent that were approved -- the whole approval will be invalidated though\n      if(!transferTokensFrom( packet.from, packet.to, packet.token, packet.tokens)) revert();\n\n\n      return true;\n\n  }\n\n\n  //the tokens remain in lava wallet\n function withdrawTokensWithSignature(LavaPacket packet, bytes signature) public returns (bool success)\n {\n\n\n     //check to make sure that signature == ecrecover signature\n     bytes32 sigHash = getLavaTypedDataHash('withdraw',packet);\n\n     if(!_tokenApprovalWithSignature(packet,sigHash,signature)) revert();\n\n\n     //it can be requested that fewer tokens be sent that were approved -- the whole approval will be invalidated though\n     if(!withdrawTokensFrom( packet.from, packet.to, packet.token, packet.tokens)) revert();\n\n\n     return true;\n\n }\n\n\n\n\n\n\n     function burnSignature(bytes methodname, LavaPacket packet,  bytes signature) public returns (bool success)\n     {\n\n\n        bytes32 sigHash = getLavaTypedDataHash(methodname,packet);\n\n         address recoveredSignatureSigner = recover(sigHash,signature);\n\n         //make sure the invalidator is the signer\n         if(recoveredSignatureSigner != packet.from) revert();\n\n         //only the original packet owner can burn signature, not a relay\n         if(packet.from != msg.sender) revert();\n\n         //make sure this signature has never been used\n         uint burnedSignature = burnedSignatures[sigHash];\n         burnedSignatures[sigHash] = 0x2; //invalidated\n         if(burnedSignature != 0x0 ) revert();\n\n         return true;\n     }\n\n\n     function signatureBurnStatus(bytes32 digest) public view returns (uint)\n     {\n       return (burnedSignatures[digest]);\n     }\n\n\n\n\n       /*\n         Receive approval to spend tokens and perform any action all in one transaction\n       */\n     function receiveApproval(address from, uint256 tokens, address token, bytes data) public returns (bool success) {\n\n\n       return depositTokens(from, token, tokens );\n\n     }\n\n     /*\n      Approve lava tokens for a smart contract and call the contracts receiveApproval method all in one fell swoop\n\n\n      */\n     function approveAndCall(bytes methodname, LavaPacket packet, bytes signature ) public returns (bool success)   {\n\n      // address from, address to, address token, uint256 tokens, uint256 relayerReward,  uint256 expires, uint256 nonce\n\n        bytes32 sigHash = getLavaTypedDataHash(methodname,packet);\n\n\n\n        if(!_tokenApprovalWithSignature(packet,sigHash,signature)) revert();\n\n        ApproveAndCallFallBack(packet.to).receiveApproval(packet.from, packet.tokens, packet.token, methodname);\n\n        return true;\n     }\n\n     function getRelayingKing() public returns (address)\n     {\n       return MiningKingInterface(relayKingContract).getMiningKing();\n     }\n\n  \n\n\n\n\n}\n",
  "sourcePath": "/home/andy/dev/lava-wallet/contracts/LavaWallet.sol",
  "compiler": {
    "name": "solc",
    "version": "0.4.24+commit.e67f0147.Emscripten.clang"
  },
  "schemaVersion": "2.0.1",
  "updatedAt": "2018-10-18T03:18:58.051Z"
}