{
  "contractName": "LavaWallet",
  "abi": [
    {
      "inputs": [
        {
          "name": "relayKingContractAddress",
          "type": "address"
        }
      ],
      "payable": false,
      "stateMutability": "nonpayable",
      "type": "constructor"
    },
    {
      "payable": true,
      "stateMutability": "payable",
      "type": "fallback"
    },
    {
      "anonymous": false,
      "inputs": [
        {
          "indexed": false,
          "name": "token",
          "type": "address"
        },
        {
          "indexed": false,
          "name": "user",
          "type": "address"
        },
        {
          "indexed": false,
          "name": "amount",
          "type": "uint256"
        },
        {
          "indexed": false,
          "name": "balance",
          "type": "uint256"
        }
      ],
      "name": "Deposit",
      "type": "event"
    },
    {
      "anonymous": false,
      "inputs": [
        {
          "indexed": false,
          "name": "token",
          "type": "address"
        },
        {
          "indexed": false,
          "name": "user",
          "type": "address"
        },
        {
          "indexed": false,
          "name": "amount",
          "type": "uint256"
        },
        {
          "indexed": false,
          "name": "balance",
          "type": "uint256"
        }
      ],
      "name": "Withdraw",
      "type": "event"
    },
    {
      "anonymous": false,
      "inputs": [
        {
          "indexed": true,
          "name": "from",
          "type": "address"
        },
        {
          "indexed": true,
          "name": "to",
          "type": "address"
        },
        {
          "indexed": false,
          "name": "token",
          "type": "address"
        },
        {
          "indexed": false,
          "name": "tokens",
          "type": "uint256"
        }
      ],
      "name": "Transfer",
      "type": "event"
    },
    {
      "anonymous": false,
      "inputs": [
        {
          "indexed": true,
          "name": "tokenOwner",
          "type": "address"
        },
        {
          "indexed": true,
          "name": "spender",
          "type": "address"
        },
        {
          "indexed": false,
          "name": "token",
          "type": "address"
        },
        {
          "indexed": false,
          "name": "tokens",
          "type": "uint256"
        }
      ],
      "name": "Approval",
      "type": "event"
    },
    {
      "constant": true,
      "inputs": [],
      "name": "getDomainTypehash",
      "outputs": [
        {
          "name": "",
          "type": "bytes32"
        }
      ],
      "payable": false,
      "stateMutability": "pure",
      "type": "function"
    },
    {
      "constant": true,
      "inputs": [],
      "name": "getLavaPacketTypehash",
      "outputs": [
        {
          "name": "",
          "type": "bytes32"
        }
      ],
      "payable": false,
      "stateMutability": "pure",
      "type": "function"
    },
    {
      "constant": false,
      "inputs": [
        {
          "name": "from",
          "type": "address"
        },
        {
          "name": "token",
          "type": "address"
        },
        {
          "name": "tokens",
          "type": "uint256"
        }
      ],
      "name": "depositTokens",
      "outputs": [
        {
          "name": "success",
          "type": "bool"
        }
      ],
      "payable": false,
      "stateMutability": "nonpayable",
      "type": "function"
    },
    {
      "constant": false,
      "inputs": [
        {
          "name": "token",
          "type": "address"
        },
        {
          "name": "tokens",
          "type": "uint256"
        }
      ],
      "name": "withdrawTokens",
      "outputs": [
        {
          "name": "success",
          "type": "bool"
        }
      ],
      "payable": false,
      "stateMutability": "nonpayable",
      "type": "function"
    },
    {
      "constant": false,
      "inputs": [
        {
          "name": "from",
          "type": "address"
        },
        {
          "name": "to",
          "type": "address"
        },
        {
          "name": "token",
          "type": "address"
        },
        {
          "name": "tokens",
          "type": "uint256"
        }
      ],
      "name": "withdrawTokensFrom",
      "outputs": [
        {
          "name": "success",
          "type": "bool"
        }
      ],
      "payable": false,
      "stateMutability": "nonpayable",
      "type": "function"
    },
    {
      "constant": true,
      "inputs": [
        {
          "name": "token",
          "type": "address"
        },
        {
          "name": "user",
          "type": "address"
        }
      ],
      "name": "balanceOf",
      "outputs": [
        {
          "name": "",
          "type": "uint256"
        }
      ],
      "payable": false,
      "stateMutability": "view",
      "type": "function"
    },
    {
      "constant": true,
      "inputs": [
        {
          "name": "token",
          "type": "address"
        },
        {
          "name": "tokenOwner",
          "type": "address"
        },
        {
          "name": "spender",
          "type": "address"
        }
      ],
      "name": "allowance",
      "outputs": [
        {
          "name": "remaining",
          "type": "uint256"
        }
      ],
      "payable": false,
      "stateMutability": "view",
      "type": "function"
    },
    {
      "constant": false,
      "inputs": [
        {
          "name": "spender",
          "type": "address"
        },
        {
          "name": "token",
          "type": "address"
        },
        {
          "name": "tokens",
          "type": "uint256"
        }
      ],
      "name": "approveTokens",
      "outputs": [
        {
          "name": "success",
          "type": "bool"
        }
      ],
      "payable": false,
      "stateMutability": "nonpayable",
      "type": "function"
    },
    {
      "constant": false,
      "inputs": [
        {
          "name": "to",
          "type": "address"
        },
        {
          "name": "token",
          "type": "address"
        },
        {
          "name": "tokens",
          "type": "uint256"
        }
      ],
      "name": "transferTokens",
      "outputs": [
        {
          "name": "success",
          "type": "bool"
        }
      ],
      "payable": false,
      "stateMutability": "nonpayable",
      "type": "function"
    },
    {
      "constant": false,
      "inputs": [
        {
          "name": "from",
          "type": "address"
        },
        {
          "name": "to",
          "type": "address"
        },
        {
          "name": "token",
          "type": "address"
        },
        {
          "name": "tokens",
          "type": "uint256"
        }
      ],
      "name": "transferTokensFrom",
      "outputs": [
        {
          "name": "success",
          "type": "bool"
        }
      ],
      "payable": false,
      "stateMutability": "nonpayable",
      "type": "function"
    },
    {
      "constant": true,
      "inputs": [
        {
          "components": [
            {
              "name": "methodname",
              "type": "bytes"
            },
            {
              "name": "relayMode",
              "type": "string"
            },
            {
              "name": "from",
              "type": "address"
            },
            {
              "name": "to",
              "type": "address"
            },
            {
              "name": "wallet",
              "type": "address"
            },
            {
              "name": "token",
              "type": "address"
            },
            {
              "name": "tokens",
              "type": "uint256"
            },
            {
              "name": "relayerReward",
              "type": "uint256"
            },
            {
              "name": "expires",
              "type": "uint256"
            },
            {
              "name": "nonce",
              "type": "uint256"
            }
          ],
          "name": "packet",
          "type": "tuple"
        }
      ],
      "name": "getLavaTypedDataHash",
      "outputs": [
        {
          "name": "",
          "type": "bytes32"
        }
      ],
      "payable": false,
      "stateMutability": "view",
      "type": "function"
    },
    {
      "constant": false,
      "inputs": [
        {
          "components": [
            {
              "name": "methodname",
              "type": "bytes"
            },
            {
              "name": "relayMode",
              "type": "string"
            },
            {
              "name": "from",
              "type": "address"
            },
            {
              "name": "to",
              "type": "address"
            },
            {
              "name": "wallet",
              "type": "address"
            },
            {
              "name": "token",
              "type": "address"
            },
            {
              "name": "tokens",
              "type": "uint256"
            },
            {
              "name": "relayerReward",
              "type": "uint256"
            },
            {
              "name": "expires",
              "type": "uint256"
            },
            {
              "name": "nonce",
              "type": "uint256"
            }
          ],
          "name": "packet",
          "type": "tuple"
        },
        {
          "name": "signature",
          "type": "bytes"
        }
      ],
      "name": "approveTokensWithSignature",
      "outputs": [
        {
          "name": "success",
          "type": "bool"
        }
      ],
      "payable": false,
      "stateMutability": "nonpayable",
      "type": "function"
    },
    {
      "constant": false,
      "inputs": [
        {
          "components": [
            {
              "name": "methodname",
              "type": "bytes"
            },
            {
              "name": "relayMode",
              "type": "string"
            },
            {
              "name": "from",
              "type": "address"
            },
            {
              "name": "to",
              "type": "address"
            },
            {
              "name": "wallet",
              "type": "address"
            },
            {
              "name": "token",
              "type": "address"
            },
            {
              "name": "tokens",
              "type": "uint256"
            },
            {
              "name": "relayerReward",
              "type": "uint256"
            },
            {
              "name": "expires",
              "type": "uint256"
            },
            {
              "name": "nonce",
              "type": "uint256"
            }
          ],
          "name": "packet",
          "type": "tuple"
        },
        {
          "name": "signature",
          "type": "bytes"
        }
      ],
      "name": "transferTokensWithSignature",
      "outputs": [
        {
          "name": "success",
          "type": "bool"
        }
      ],
      "payable": false,
      "stateMutability": "nonpayable",
      "type": "function"
    },
    {
      "constant": false,
      "inputs": [
        {
          "components": [
            {
              "name": "methodname",
              "type": "bytes"
            },
            {
              "name": "relayMode",
              "type": "string"
            },
            {
              "name": "from",
              "type": "address"
            },
            {
              "name": "to",
              "type": "address"
            },
            {
              "name": "wallet",
              "type": "address"
            },
            {
              "name": "token",
              "type": "address"
            },
            {
              "name": "tokens",
              "type": "uint256"
            },
            {
              "name": "relayerReward",
              "type": "uint256"
            },
            {
              "name": "expires",
              "type": "uint256"
            },
            {
              "name": "nonce",
              "type": "uint256"
            }
          ],
          "name": "packet",
          "type": "tuple"
        },
        {
          "name": "signature",
          "type": "bytes"
        }
      ],
      "name": "withdrawTokensWithSignature",
      "outputs": [
        {
          "name": "success",
          "type": "bool"
        }
      ],
      "payable": false,
      "stateMutability": "nonpayable",
      "type": "function"
    },
    {
      "constant": false,
      "inputs": [
        {
          "components": [
            {
              "name": "methodname",
              "type": "bytes"
            },
            {
              "name": "relayMode",
              "type": "string"
            },
            {
              "name": "from",
              "type": "address"
            },
            {
              "name": "to",
              "type": "address"
            },
            {
              "name": "wallet",
              "type": "address"
            },
            {
              "name": "token",
              "type": "address"
            },
            {
              "name": "tokens",
              "type": "uint256"
            },
            {
              "name": "relayerReward",
              "type": "uint256"
            },
            {
              "name": "expires",
              "type": "uint256"
            },
            {
              "name": "nonce",
              "type": "uint256"
            }
          ],
          "name": "packet",
          "type": "tuple"
        },
        {
          "name": "signature",
          "type": "bytes"
        }
      ],
      "name": "burnSignature",
      "outputs": [
        {
          "name": "success",
          "type": "bool"
        }
      ],
      "payable": false,
      "stateMutability": "nonpayable",
      "type": "function"
    },
    {
      "constant": true,
      "inputs": [
        {
          "name": "digest",
          "type": "bytes32"
        }
      ],
      "name": "signatureBurnStatus",
      "outputs": [
        {
          "name": "",
          "type": "uint256"
        }
      ],
      "payable": false,
      "stateMutability": "view",
      "type": "function"
    },
    {
      "constant": false,
      "inputs": [
        {
          "name": "from",
          "type": "address"
        },
        {
          "name": "tokens",
          "type": "uint256"
        },
        {
          "name": "token",
          "type": "address"
        },
        {
          "name": "data",
          "type": "bytes"
        }
      ],
      "name": "receiveApproval",
      "outputs": [
        {
          "name": "success",
          "type": "bool"
        }
      ],
      "payable": false,
      "stateMutability": "nonpayable",
      "type": "function"
    },
    {
      "constant": false,
      "inputs": [
        {
          "components": [
            {
              "name": "methodname",
              "type": "bytes"
            },
            {
              "name": "relayMode",
              "type": "string"
            },
            {
              "name": "from",
              "type": "address"
            },
            {
              "name": "to",
              "type": "address"
            },
            {
              "name": "wallet",
              "type": "address"
            },
            {
              "name": "token",
              "type": "address"
            },
            {
              "name": "tokens",
              "type": "uint256"
            },
            {
              "name": "relayerReward",
              "type": "uint256"
            },
            {
              "name": "expires",
              "type": "uint256"
            },
            {
              "name": "nonce",
              "type": "uint256"
            }
          ],
          "name": "packet",
          "type": "tuple"
        },
        {
          "name": "signature",
          "type": "bytes"
        }
      ],
      "name": "approveAndCall",
      "outputs": [
        {
          "name": "success",
          "type": "bool"
        }
      ],
      "payable": false,
      "stateMutability": "nonpayable",
      "type": "function"
    },
    {
      "constant": false,
      "inputs": [],
      "name": "getRelayingKing",
      "outputs": [
        {
          "name": "",
          "type": "address"
        }
      ],
      "payable": false,
      "stateMutability": "nonpayable",
      "type": "function"
    }
  ],
  "bytecode": "0x60806040523480156200001157600080fd5b50604051602080620033c083398101806040526200003391908101906200026e565b80600360006101000a81548173ffffffffffffffffffffffffffffffffffffffff021916908373ffffffffffffffffffffffffffffffffffffffff160217905550620000ed60408051908101604052806040805190810160405280600b81526020017f4c6176612057616c6c657400000000000000000000000000000000000000000081525081526020013073ffffffffffffffffffffffffffffffffffffffff16815250620000fe640100000000026401000000009004565b600481600019169055505062000343565b600060405180807f454950373132446f6d61696e28737472696e67206e616d652c6164647265737381526020017f20766572696679696e67436f6e747261637429000000000000000000000000008152506033019050604051809103902082600001516040518082805190602001908083835b60208310151562000198578051825260208201915060208101905060208303925062000171565b6001836020036101000a03801982511681845116808217855250505050505090500191505060405180910390208360200151604051602001620001de93929190620002bc565b6040516020818303038152906040526040518082805190602001908083835b602083101515620002245780518252602082019150602081019050602083039250620001fd565b6001836020036101000a03801982511681845116808217855250505050505090500191505060405180910390209050919050565b600062000266825162000323565b905092915050565b6000602082840312156200028157600080fd5b6000620002918482850162000258565b91505092915050565b620002a581620002f9565b82525050565b620002b68162000319565b82525050565b6000606082019050620002d36000830186620002ab565b620002e26020830185620002ab565b620002f160408301846200029a565b949350505050565b600073ffffffffffffffffffffffffffffffffffffffff82169050919050565b6000819050919050565b600073ffffffffffffffffffffffffffffffffffffffff82169050919050565b61306d80620003536000396000f300608060405260043610610107576000357c0100000000000000000000000000000000000000000000000000000000900463ffffffff16806306b091f91461010c57806309417110146101495780631fde86f01461018657806339dc5ef2146101c35780633c7e03c1146102005780634b17bdd81461022b5780634ec1a8701461026857806355d61d4d146102a55780636c840ee8146102e25780636cdbcab51461031f5780636eecb7c21461035c5780638f4ffcb114610387578063912d6e28146103c4578063927da10514610401578063a64b6e5f1461043e578063b0e0ef091461047b578063c375ba8a146104b8578063f7888aec146104e3578063fc4c8e1e14610520575b600080fd5b34801561011857600080fd5b50610133600480360361012e919081019061294c565b61055d565b6040516101409190612c9e565b60405180910390f35b34801561015557600080fd5b50610170600480360361016b9190810190612a2c565b6107e2565b60405161017d9190612dc4565b60405180910390f35b34801561019257600080fd5b506101ad60048036036101a89190810190612a96565b610807565b6040516101ba9190612c9e565b60405180910390f35b3480156101cf57600080fd5b506101ea60048036036101e591908101906128fd565b610884565b6040516101f79190612c9e565b60405180910390f35b34801561020c57600080fd5b50610215610b0c565b6040516102229190612b92565b60405180910390f35b34801561023757600080fd5b50610252600480360361024d919081019061289a565b610bd1565b60405161025f9190612c9e565b60405180910390f35b34801561027457600080fd5b5061028f600480360361028a9190810190612a55565b610fe9565b60405161029c9190612cb9565b60405180910390f35b3480156102b157600080fd5b506102cc60048036036102c79190810190612a96565b6110c3565b6040516102d99190612c9e565b60405180910390f35b3480156102ee57600080fd5b5061030960048036036103049190810190612a96565b611167565b6040516103169190612c9e565b60405180910390f35b34801561032b57600080fd5b5061034660048036036103419190810190612a96565b61120b565b6040516103539190612c9e565b60405180910390f35b34801561036857600080fd5b506103716112fe565b60405161037e9190612cb9565b60405180910390f35b34801561039357600080fd5b506103ae60048036036103a99190810190612988565b611361565b6040516103bb9190612c9e565b60405180910390f35b3480156103d057600080fd5b506103eb60048036036103e691908101906128fd565b611378565b6040516103f89190612c9e565b60405180910390f35b34801561040d57600080fd5b506104286004803603610423919081019061284b565b6114aa565b6040516104359190612dc4565b60405180910390f35b34801561044a57600080fd5b50610465600480360361046091908101906128fd565b61156f565b6040516104729190612c9e565b60405180910390f35b34801561048757600080fd5b506104a2600480360361049d919081019061289a565b6117fd565b6040516104af9190612c9e565b60405180910390f35b3480156104c457600080fd5b506104cd611c0d565b6040516104da9190612cb9565b60405180910390f35b3480156104ef57600080fd5b5061050a6004803603610505919081019061280f565b611c2d565b6040516105179190612dc4565b60405180910390f35b34801561052c57600080fd5b5061054760048036036105429190810190612a96565b611cb3565b6040516105549190612c9e565b60405180910390f35b60006105ed826000808673ffffffffffffffffffffffffffffffffffffffff1673ffffffffffffffffffffffffffffffffffffffff16815260200190815260200160002060003373ffffffffffffffffffffffffffffffffffffffff1673ffffffffffffffffffffffffffffffffffffffff16815260200190815260200160002054611d8390919063ffffffff16565b6000808573ffffffffffffffffffffffffffffffffffffffff1673ffffffffffffffffffffffffffffffffffffffff16815260200190815260200160002060003373ffffffffffffffffffffffffffffffffffffffff1673ffffffffffffffffffffffffffffffffffffffff168152602001908152602001600020819055508273ffffffffffffffffffffffffffffffffffffffff1663a9059cbb33846040518363ffffffff167c01000000000000000000000000000000000000000000000000000000000281526004016106c3929190612c29565b602060405180830381600087803b1580156106dd57600080fd5b505af11580156106f1573d6000803e3d6000fd5b505050506040513d601f19601f820116820180604052506107159190810190612a03565b151561072057600080fd5b7ff341246adaac6f497bc2a656f546ab9e182111d630394f0c57c710a59a2cb5678333846000808873ffffffffffffffffffffffffffffffffffffffff1673ffffffffffffffffffffffffffffffffffffffff16815260200190815260200160002060003373ffffffffffffffffffffffffffffffffffffffff1673ffffffffffffffffffffffffffffffffffffffff168152602001908152602001600020546040516107d09493929190612bad565b60405180910390a16001905092915050565b6000600260008360001916600019168152602001908152602001600020549050919050565b60008061084d6040805190810160405280600781526020017f617070726f7665000000000000000000000000000000000000000000000000008152508560000151611d9c565b151561085857600080fd5b61086184610fe9565b905061086e848285611ee0565b151561087957600080fd5b600191505092915050565b60008273ffffffffffffffffffffffffffffffffffffffff166323b872dd8530856040518463ffffffff167c01000000000000000000000000000000000000000000000000000000000281526004016108df93929190612bf2565b602060405180830381600087803b1580156108f957600080fd5b505af115801561090d573d6000803e3d6000fd5b505050506040513d601f19601f820116820180604052506109319190810190612a03565b151561093c57600080fd5b6109ca826000808673ffffffffffffffffffffffffffffffffffffffff1673ffffffffffffffffffffffffffffffffffffffff16815260200190815260200160002060008773ffffffffffffffffffffffffffffffffffffffff1673ffffffffffffffffffffffffffffffffffffffff168152602001908152602001600020546122d390919063ffffffff16565b6000808573ffffffffffffffffffffffffffffffffffffffff1673ffffffffffffffffffffffffffffffffffffffff16815260200190815260200160002060008673ffffffffffffffffffffffffffffffffffffffff1673ffffffffffffffffffffffffffffffffffffffff168152602001908152602001600020819055507fdcbc1c05240f31ff3ad067ef1ee35ce4997762752e3a095284754544f4c709d78385846000808873ffffffffffffffffffffffffffffffffffffffff1673ffffffffffffffffffffffffffffffffffffffff16815260200190815260200160002060008973ffffffffffffffffffffffffffffffffffffffff1673ffffffffffffffffffffffffffffffffffffffff16815260200190815260200160002054604051610af99493929190612bad565b60405180910390a1600190509392505050565b6000600360009054906101000a900473ffffffffffffffffffffffffffffffffffffffff1673ffffffffffffffffffffffffffffffffffffffff1663fe4d62f96040518163ffffffff167c0100000000000000000000000000000000000000000000000000000000028152600401602060405180830381600087803b158015610b9457600080fd5b505af1158015610ba8573d6000803e3d6000fd5b505050506040513d601f19601f82011682018060405250610bcc91908101906127e6565b905090565b6000610c61826000808673ffffffffffffffffffffffffffffffffffffffff1673ffffffffffffffffffffffffffffffffffffffff16815260200190815260200160002060008873ffffffffffffffffffffffffffffffffffffffff1673ffffffffffffffffffffffffffffffffffffffff16815260200190815260200160002054611d8390919063ffffffff16565b6000808573ffffffffffffffffffffffffffffffffffffffff1673ffffffffffffffffffffffffffffffffffffffff16815260200190815260200160002060008773ffffffffffffffffffffffffffffffffffffffff1673ffffffffffffffffffffffffffffffffffffffff16815260200190815260200160002081905550610dac82600160008673ffffffffffffffffffffffffffffffffffffffff1673ffffffffffffffffffffffffffffffffffffffff16815260200190815260200160002060008873ffffffffffffffffffffffffffffffffffffffff1673ffffffffffffffffffffffffffffffffffffffff16815260200190815260200160002060008773ffffffffffffffffffffffffffffffffffffffff1673ffffffffffffffffffffffffffffffffffffffff16815260200190815260200160002054611d8390919063ffffffff16565b600160008573ffffffffffffffffffffffffffffffffffffffff1673ffffffffffffffffffffffffffffffffffffffff16815260200190815260200160002060008773ffffffffffffffffffffffffffffffffffffffff1673ffffffffffffffffffffffffffffffffffffffff16815260200190815260200160002060008673ffffffffffffffffffffffffffffffffffffffff1673ffffffffffffffffffffffffffffffffffffffff16815260200190815260200160002081905550610ef7826000808673ffffffffffffffffffffffffffffffffffffffff1673ffffffffffffffffffffffffffffffffffffffff16815260200190815260200160002060008773ffffffffffffffffffffffffffffffffffffffff1673ffffffffffffffffffffffffffffffffffffffff168152602001908152602001600020546122d390919063ffffffff16565b6000808573ffffffffffffffffffffffffffffffffffffffff1673ffffffffffffffffffffffffffffffffffffffff16815260200190815260200160002060008673ffffffffffffffffffffffffffffffffffffffff1673ffffffffffffffffffffffffffffffffffffffff168152602001908152602001600020819055508473ffffffffffffffffffffffffffffffffffffffff168373ffffffffffffffffffffffffffffffffffffffff167fd1398bee19313d6bf672ccb116e51f4a1a947e91c757907f51fbb5b5e56c698f8685604051610fd5929190612c29565b60405180910390a360019050949350505050565b600080600454610ff8846122f1565b60405160200180807f190100000000000000000000000000000000000000000000000000000000000081525060020183600019166000191681526020018260001916600019168152602001925050506040516020818303038152906040526040518082805190602001908083835b60208310151561108b5780518252602082019150602081019050602083039250611066565b6001836020036101000a0380198251168184511680821785525050505050509050019150506040518091039020905080915050919050565b6000806111096040805190810160405280600881526020017f7472616e736665720000000000000000000000000000000000000000000000008152508560000151611d9c565b151561111457600080fd5b61111d84610fe9565b905061112a848285611ee0565b151561113557600080fd5b611151846040015185606001518660a001518760c00151610bd1565b151561115c57600080fd5b600191505092915050565b6000806111ad6040805190810160405280600881526020017f77697468647261770000000000000000000000000000000000000000000000008152508560000151611d9c565b15156111b857600080fd5b6111c184610fe9565b90506111ce848285611ee0565b15156111d957600080fd5b6111f5846040015185606001518660a001518760c001516117fd565b151561120057600080fd5b600191505092915050565b60008060008061121a86610fe9565b92506112268386612496565b9150856040015173ffffffffffffffffffffffffffffffffffffffff168273ffffffffffffffffffffffffffffffffffffffff1614151561126657600080fd5b3373ffffffffffffffffffffffffffffffffffffffff16866040015173ffffffffffffffffffffffffffffffffffffffff161415156112a457600080fd5b60026000846000191660001916815260200190815260200160002054905060028060008560001916600019168152602001908152602001600020819055506000811415156112f157600080fd5b6001935050505092915050565b600060405180807f454950373132446f6d61696e28737472696e67206e616d652c6164647265737381526020017f20766572696679696e67436f6e7472616374290000000000000000000000000081525060330190506040518091039020905090565b600061136e858486610884565b9050949350505050565b600081600160008573ffffffffffffffffffffffffffffffffffffffff1673ffffffffffffffffffffffffffffffffffffffff16815260200190815260200160002060003373ffffffffffffffffffffffffffffffffffffffff1673ffffffffffffffffffffffffffffffffffffffff16815260200190815260200160002060008673ffffffffffffffffffffffffffffffffffffffff1673ffffffffffffffffffffffffffffffffffffffff168152602001908152602001600020819055508273ffffffffffffffffffffffffffffffffffffffff163373ffffffffffffffffffffffffffffffffffffffff167fa0175360a15bca328baf7ea85c7b784d58b222a50d0ce760b10dba336d226a618685604051611497929190612c29565b60405180910390a3600190509392505050565b6000600160008573ffffffffffffffffffffffffffffffffffffffff1673ffffffffffffffffffffffffffffffffffffffff16815260200190815260200160002060008473ffffffffffffffffffffffffffffffffffffffff1673ffffffffffffffffffffffffffffffffffffffff16815260200190815260200160002060008373ffffffffffffffffffffffffffffffffffffffff1673ffffffffffffffffffffffffffffffffffffffff1681526020019081526020016000205490509392505050565b60006115ff826000808673ffffffffffffffffffffffffffffffffffffffff1673ffffffffffffffffffffffffffffffffffffffff16815260200190815260200160002060003373ffffffffffffffffffffffffffffffffffffffff1673ffffffffffffffffffffffffffffffffffffffff16815260200190815260200160002054611d8390919063ffffffff16565b6000808573ffffffffffffffffffffffffffffffffffffffff1673ffffffffffffffffffffffffffffffffffffffff16815260200190815260200160002060003373ffffffffffffffffffffffffffffffffffffffff1673ffffffffffffffffffffffffffffffffffffffff1681526020019081526020016000208190555061170c826000808673ffffffffffffffffffffffffffffffffffffffff1673ffffffffffffffffffffffffffffffffffffffff16815260200190815260200160002060008773ffffffffffffffffffffffffffffffffffffffff1673ffffffffffffffffffffffffffffffffffffffff168152602001908152602001600020546122d390919063ffffffff16565b6000808573ffffffffffffffffffffffffffffffffffffffff1673ffffffffffffffffffffffffffffffffffffffff16815260200190815260200160002060008673ffffffffffffffffffffffffffffffffffffffff1673ffffffffffffffffffffffffffffffffffffffff168152602001908152602001600020819055508273ffffffffffffffffffffffffffffffffffffffff163373ffffffffffffffffffffffffffffffffffffffff167fd1398bee19313d6bf672ccb116e51f4a1a947e91c757907f51fbb5b5e56c698f86856040516117ea929190612c29565b60405180910390a3600190509392505050565b600061188d826000808673ffffffffffffffffffffffffffffffffffffffff1673ffffffffffffffffffffffffffffffffffffffff16815260200190815260200160002060008873ffffffffffffffffffffffffffffffffffffffff1673ffffffffffffffffffffffffffffffffffffffff16815260200190815260200160002054611d8390919063ffffffff16565b6000808573ffffffffffffffffffffffffffffffffffffffff1673ffffffffffffffffffffffffffffffffffffffff16815260200190815260200160002060008773ffffffffffffffffffffffffffffffffffffffff1673ffffffffffffffffffffffffffffffffffffffff168152602001908152602001600020819055506119d882600160008673ffffffffffffffffffffffffffffffffffffffff1673ffffffffffffffffffffffffffffffffffffffff16815260200190815260200160002060008873ffffffffffffffffffffffffffffffffffffffff1673ffffffffffffffffffffffffffffffffffffffff16815260200190815260200160002060008773ffffffffffffffffffffffffffffffffffffffff1673ffffffffffffffffffffffffffffffffffffffff16815260200190815260200160002054611d8390919063ffffffff16565b600160008573ffffffffffffffffffffffffffffffffffffffff1673ffffffffffffffffffffffffffffffffffffffff16815260200190815260200160002060008773ffffffffffffffffffffffffffffffffffffffff1673ffffffffffffffffffffffffffffffffffffffff16815260200190815260200160002060008673ffffffffffffffffffffffffffffffffffffffff1673ffffffffffffffffffffffffffffffffffffffff168152602001908152602001600020819055508273ffffffffffffffffffffffffffffffffffffffff1663a9059cbb85846040518363ffffffff167c0100000000000000000000000000000000000000000000000000000000028152600401611aec929190612c29565b602060405180830381600087803b158015611b0657600080fd5b505af1158015611b1a573d6000803e3d6000fd5b505050506040513d601f19601f82011682018060405250611b3e9190810190612a03565b1515611b4957600080fd5b7ff341246adaac6f497bc2a656f546ab9e182111d630394f0c57c710a59a2cb5678386846000808873ffffffffffffffffffffffffffffffffffffffff1673ffffffffffffffffffffffffffffffffffffffff16815260200190815260200160002060008a73ffffffffffffffffffffffffffffffffffffffff1673ffffffffffffffffffffffffffffffffffffffff16815260200190815260200160002054604051611bf99493929190612bad565b60405180910390a160019050949350505050565b60006040518080612f8e60a6913960a60190506040518091039020905090565b60008060008473ffffffffffffffffffffffffffffffffffffffff1673ffffffffffffffffffffffffffffffffffffffff16815260200190815260200160002060008373ffffffffffffffffffffffffffffffffffffffff1673ffffffffffffffffffffffffffffffffffffffff16815260200190815260200160002054905092915050565b600080611cbf84610fe9565b9050611ccc848285611ee0565b1515611cd757600080fd5b836060015173ffffffffffffffffffffffffffffffffffffffff16638f4ffcb185604001518660c001518760a0015188600001516040518563ffffffff167c0100000000000000000000000000000000000000000000000000000000028152600401611d469493929190612c52565b600060405180830381600087803b158015611d6057600080fd5b505af1158015611d74573d6000803e3d6000fd5b50505050600191505092915050565b6000828211151515611d9157fe5b818303905092915050565b60008082518451141515611db35760009150611ed9565b600090505b8351811015611ed4578281815181101515611dcf57fe5b9060200101517f010000000000000000000000000000000000000000000000000000000000000090047f0100000000000000000000000000000000000000000000000000000000000000027effffffffffffffffffffffffffffffffffffffffffffffffffffffffffffff19168482815181101515611e4a57fe5b9060200101517f010000000000000000000000000000000000000000000000000000000000000090047f0100000000000000000000000000000000000000000000000000000000000000027effffffffffffffffffffffffffffffffffffffffffffffffffffffffffffff1916141515611ec75760009150611ed9565b8080600101915050611db8565b600191505b5092915050565b600080600080611ef08686612496565b9250611f3587602001516040805190810160405280600481526020017f6b696e6700000000000000000000000000000000000000000000000000000000815250611d9c565b91508273ffffffffffffffffffffffffffffffffffffffff16876040015173ffffffffffffffffffffffffffffffffffffffff16141515611f7557600080fd5b611f7d610b0c565b73ffffffffffffffffffffffffffffffffffffffff163373ffffffffffffffffffffffffffffffffffffffff161480611fb4575081155b1515611fbf57600080fd5b86610100015143101515611fd257600080fd5b60026000876000191660001916815260200190815260200160002054905060016002600088600019166000191681526020019081526020016000208190555060008114151561202057600080fd5b8660e00151600160008960a0015173ffffffffffffffffffffffffffffffffffffffff1673ffffffffffffffffffffffffffffffffffffffff1681526020019081526020016000206000896040015173ffffffffffffffffffffffffffffffffffffffff1673ffffffffffffffffffffffffffffffffffffffff16815260200190815260200160002060003373ffffffffffffffffffffffffffffffffffffffff1673ffffffffffffffffffffffffffffffffffffffff168152602001908152602001600020819055508660a0015173ffffffffffffffffffffffffffffffffffffffff16876040015173ffffffffffffffffffffffffffffffffffffffff167fa0175360a15bca328baf7ea85c7b784d58b222a50d0ce760b10dba336d226a61338a60e00151604051612155929190612c29565b60405180910390a36121758760400151338960a001518a60e00151610bd1565b151561218057600080fd5b8660c00151600160008960a0015173ffffffffffffffffffffffffffffffffffffffff1673ffffffffffffffffffffffffffffffffffffffff1681526020019081526020016000206000896040015173ffffffffffffffffffffffffffffffffffffffff1673ffffffffffffffffffffffffffffffffffffffff1681526020019081526020016000206000896060015173ffffffffffffffffffffffffffffffffffffffff1673ffffffffffffffffffffffffffffffffffffffff168152602001908152602001600020819055508660a0015173ffffffffffffffffffffffffffffffffffffffff16876040015173ffffffffffffffffffffffffffffffffffffffff167fa0175360a15bca328baf7ea85c7b784d58b222a50d0ce760b10dba336d226a6189606001518a60c001516040516122bd929190612c29565b60405180910390a3600193505050509392505050565b60008082840190508381101515156122e757fe5b8091505092915050565b60006040518080612f8e60a6913960a6019050604051809103902082600001516040518082805190602001908083835b6020831015156123465780518252602082019150602081019050602083039250612321565b6001836020036101000a038019825116818451168082178552505050505050905001915050604051809103902083602001516040518082805190602001908083835b6020831015156123ad5780518252602082019150602081019050602083039250612388565b6001836020036101000a03801982511681845116808217855250505050505090500191505060405180910390208460400151856060015186608001518760a001518860c001518960e001518a61010001518b610120015160405160200161241e9b9a99989796959493929190612cd4565b6040516020818303038152906040526040518082805190602001908083835b602083101515612462578051825260208201915060208101905060208303925061243d565b6001836020036101000a03801982511681845116808217855250505050505090500191505060405180910390209050919050565b600080600080604185511415156124b05760009350612555565b6020850151925060408501519150606085015160001a9050601b8160ff1610156124db57601b810190505b601b8160ff16141580156124f35750601c8160ff1614155b156125015760009350612555565b600186828585604051600081526020016040526040516125249493929190612d7f565b60206040516020810390808403906000865af1158015612548573d6000803e3d6000fd5b5050506020604051035193505b50505092915050565b600061256a8235612ee8565b905092915050565b600061257e8251612ee8565b905092915050565b60006125928251612f08565b905092915050565b60006125a68235612f14565b905092915050565b600082601f83011215156125c157600080fd5b81356125d46125cf82612e0c565b612ddf565b915080825260208301602083018583830111156125f057600080fd5b6125fb838284612f3a565b50505092915050565b600082601f830112151561261757600080fd5b813561262a61262582612e38565b612ddf565b9150808252602083016020830185838301111561264657600080fd5b612651838284612f3a565b50505092915050565b600082601f830112151561266d57600080fd5b813561268061267b82612e64565b612ddf565b9150808252602083016020830185838301111561269c57600080fd5b6126a7838284612f3a565b50505092915050565b600061014082840312156126c357600080fd5b6126ce610140612ddf565b9050600082013567ffffffffffffffff8111156126ea57600080fd5b6126f6848285016125ae565b600083015250602082013567ffffffffffffffff81111561271657600080fd5b6127228482850161265a565b60208301525060406127368482850161255e565b604083015250606061274a8482850161255e565b606083015250608061275e8482850161255e565b60808301525060a06127728482850161255e565b60a08301525060c0612786848285016127d2565b60c08301525060e061279a848285016127d2565b60e0830152506101006127af848285016127d2565b610100830152506101206127c5848285016127d2565b6101208301525092915050565b60006127de8235612f1e565b905092915050565b6000602082840312156127f857600080fd5b600061280684828501612572565b91505092915050565b6000806040838503121561282257600080fd5b60006128308582860161255e565b92505060206128418582860161255e565b9150509250929050565b60008060006060848603121561286057600080fd5b600061286e8682870161255e565b935050602061287f8682870161255e565b92505060406128908682870161255e565b9150509250925092565b600080600080608085870312156128b057600080fd5b60006128be8782880161255e565b94505060206128cf8782880161255e565b93505060406128e08782880161255e565b92505060606128f1878288016127d2565b91505092959194509250565b60008060006060848603121561291257600080fd5b60006129208682870161255e565b93505060206129318682870161255e565b9250506040612942868287016127d2565b9150509250925092565b6000806040838503121561295f57600080fd5b600061296d8582860161255e565b925050602061297e858286016127d2565b9150509250929050565b6000806000806080858703121561299e57600080fd5b60006129ac8782880161255e565b94505060206129bd878288016127d2565b93505060406129ce8782880161255e565b925050606085013567ffffffffffffffff8111156129eb57600080fd5b6129f787828801612604565b91505092959194509250565b600060208284031215612a1557600080fd5b6000612a2384828501612586565b91505092915050565b600060208284031215612a3e57600080fd5b6000612a4c8482850161259a565b91505092915050565b600060208284031215612a6757600080fd5b600082013567ffffffffffffffff811115612a8157600080fd5b612a8d848285016126b0565b91505092915050565b60008060408385031215612aa957600080fd5b600083013567ffffffffffffffff811115612ac357600080fd5b612acf858286016126b0565b925050602083013567ffffffffffffffff811115612aec57600080fd5b612af885828601612604565b9150509250929050565b612b0b81612e9b565b82525050565b612b1a81612ebb565b82525050565b612b2981612ec7565b82525050565b6000612b3a82612e90565b808452612b4e816020860160208601612f49565b612b5781612f7c565b602085010191505092915050565b612b6e81612f28565b82525050565b612b7d81612ed1565b82525050565b612b8c81612edb565b82525050565b6000602082019050612ba76000830184612b02565b92915050565b6000608082019050612bc26000830187612b02565b612bcf6020830186612b02565b612bdc6040830185612b74565b612be96060830184612b74565b95945050505050565b6000606082019050612c076000830186612b02565b612c146020830185612b65565b612c216040830184612b74565b949350505050565b6000604082019050612c3e6000830185612b02565b612c4b6020830184612b74565b9392505050565b6000608082019050612c676000830187612b02565b612c746020830186612b74565b612c816040830185612b02565b8181036060830152612c938184612b2f565b905095945050505050565b6000602082019050612cb36000830184612b11565b92915050565b6000602082019050612cce6000830184612b20565b92915050565b600061016082019050612cea600083018e612b20565b612cf7602083018d612b20565b612d04604083018c612b20565b612d11606083018b612b02565b612d1e608083018a612b02565b612d2b60a0830189612b02565b612d3860c0830188612b02565b612d4560e0830187612b74565b612d53610100830186612b74565b612d61610120830185612b74565b612d6f610140830184612b74565b9c9b505050505050505050505050565b6000608082019050612d946000830187612b20565b612da16020830186612b83565b612dae6040830185612b20565b612dbb6060830184612b20565b95945050505050565b6000602082019050612dd96000830184612b74565b92915050565b6000604051905081810181811067ffffffffffffffff82111715612e0257600080fd5b8060405250919050565b600067ffffffffffffffff821115612e2357600080fd5b601f19601f8301169050602081019050919050565b600067ffffffffffffffff821115612e4f57600080fd5b601f19601f8301169050602081019050919050565b600067ffffffffffffffff821115612e7b57600080fd5b601f19601f8301169050602081019050919050565b600081519050919050565b600073ffffffffffffffffffffffffffffffffffffffff82169050919050565b60008115159050919050565b6000819050919050565b6000819050919050565b600060ff82169050919050565b600073ffffffffffffffffffffffffffffffffffffffff82169050919050565b60008115159050919050565b6000819050919050565b6000819050919050565b6000612f3382612e9b565b9050919050565b82818337600083830152505050565b60005b83811015612f67578082015181840152602081019050612f4c565b83811115612f76576000848401525b50505050565b6000601f19601f830116905091905056004c6176615061636b6574286279746573206d6574686f646e616d652c737472696e672072656c61794d6f64652c20616464726573732066726f6d2c6164647265737320746f2c616464726573732077616c6c65742c6164647265737320746f6b656e2c75696e7432353620746f6b656e732c75696e743235362072656c617965725265776172642c75696e7432353620657870697265732c75696e74323536206e6f6e636529a265627a7a7230582068eec3bdf8ec8836e72dd17901e016a4793658f9602db860c1ee6714d1ccc97e6c6578706572696d656e74616cf50037",
  "source": "pragma solidity ^0.4.24;\n\n\npragma experimental ABIEncoderV2;\n\n/**\n * @title SafeMath\n * @dev Math operations with safety checks that throw on error\n */\nlibrary SafeMath {\n\n  /**\n  * @dev Multiplies two numbers, throws on overflow.\n  */\n  function mul(uint256 a, uint256 b) internal pure returns (uint256) {\n    if (a == 0) {\n      return 0;\n    }\n    uint256 c = a * b;\n    assert(c / a == b);\n    return c;\n  }\n\n  /**\n  * @dev Integer division of two numbers, truncating the quotient.\n  */\n  function div(uint256 a, uint256 b) internal pure returns (uint256) {\n    // assert(b > 0); // Solidity automatically throws when dividing by 0\n    uint256 c = a / b;\n    // assert(a == b * c + a % b); // There is no case in which this doesn't hold\n    return c;\n  }\n\n  /**\n  * @dev Substracts two numbers, throws on overflow (i.e. if subtrahend is greater than minuend).\n  */\n  function sub(uint256 a, uint256 b) internal pure returns (uint256) {\n    assert(b <= a);\n    return a - b;\n  }\n\n  /**\n  * @dev Adds two numbers, throws on overflow.\n  */\n  function add(uint256 a, uint256 b) internal pure returns (uint256) {\n    uint256 c = a + b;\n    assert(c >= a);\n    return c;\n  }\n}\n\n\ncontract ECRecovery {\n\n  /**\n   * @dev Recover signer address from a message by using their signature\n   * @param hash bytes32 message, the hash is the signed message. What is recovered is the signer address.\n   * @param sig bytes signature, the signature is generated using web3.eth.sign()\n   */\n  function recover(bytes32 hash, bytes sig) internal  pure returns (address) {\n    bytes32 r;\n    bytes32 s;\n    uint8 v;\n\n    //Check the signature length\n    if (sig.length != 65) {\n      return (address(0));\n    }\n\n    // Divide the signature in r, s and v variables\n    assembly {\n      r := mload(add(sig, 32))\n      s := mload(add(sig, 64))\n      v := byte(0, mload(add(sig, 96)))\n    }\n\n    // Version of signature should be 27 or 28, but 0 and 1 are also possible versions\n    if (v < 27) {\n      v += 27;\n    }\n\n    // If the version is correct return the signer address\n    if (v != 27 && v != 28) {\n      return (address(0));\n    } else {\n      return ecrecover(hash, v, r, s);\n    }\n  }\n\n}\n\n\n\n/*\n\nThis is a token wallet contract\n\nStore your tokens in this contract to give them super powers\n\nTokens can be spent from the contract with only an ecSignature from the owner - onchain approve is not needed\n\n\n*/\n\ncontract ERC20Interface {\n    function totalSupply() public constant returns (uint);\n    function balanceOf(address tokenOwner) public constant returns (uint balance);\n    function allowance(address tokenOwner, address spender) public constant returns (uint remaining);\n    function transfer(address to, uint tokens) public returns (bool success);\n    function approve(address spender, uint tokens) public returns (bool success);\n    function transferFrom(address from, address to, uint tokens) public returns (bool success);\n\n    event Transfer(address indexed from, address indexed to, uint tokens);\n    event Approval(address indexed tokenOwner, address indexed spender, uint tokens);\n}\ncontract ERC918Interface {\n  function totalSupply() public constant returns (uint);\n  function getMiningDifficulty() public constant returns (uint);\n  function getMiningTarget() public constant returns (uint);\n  function getMiningReward() public constant returns (uint);\n  function balanceOf(address tokenOwner) public constant returns (uint balance);\n\n  function mint(uint256 nonce, bytes32 challenge_digest) public returns (bool success);\n\n  event Mint(address indexed from, uint reward_amount, uint epochCount, bytes32 newChallengeNumber);\n\n}\n\ncontract MiningKingInterface {\n    function getMiningKing() public returns (address);\n    function transferKing(address newKing) public;\n    function mint(uint256 nonce, bytes32 challenge_digest) returns (bool);\n\n    event TransferKing(address from, address to);\n}\n\ncontract ApproveAndCallFallBack {\n\n    function receiveApproval(address from, uint256 tokens, address token, bytes data) public;\n\n}\n\n\n\n\n\n\ncontract LavaWallet is ECRecovery{\n\n  using SafeMath for uint;\n\n  // balances[tokenContractAddress][EthereumAccountAddress] = 0\n   mapping(address => mapping (address => uint256)) balances;\n\n   //token => owner => spender : amount\n   mapping(address => mapping (address => mapping (address => uint256))) allowed;\n\n   //mapping(address => uint256) depositedTokens;\n\n   mapping(bytes32 => uint256) burnedSignatures;\n\n   address relayKingContract;\n\n  event Deposit(address token, address user, uint amount, uint balance);\n  event Withdraw(address token, address user, uint amount, uint balance);\n  event Transfer(address indexed from, address indexed to,address token, uint tokens);\n  event Approval(address indexed tokenOwner, address indexed spender,address token, uint tokens);\n\n\n\n  struct EIP712Domain {\n      string  name;\n      address verifyingContract;\n  }\n\n\n  struct LavaPacket {\n    bytes methodname;\n    string relayMode; //only allow kings to relay the packet\n    address from;\n    address to;\n    address wallet;  //this contract address\n    address token;\n    uint256 tokens;\n    uint256 relayerReward;\n    uint256 expires;\n    uint256 nonce;\n  }\n\n\n  /*\n      MUST update these if architecture changes !!\n  */\n  bytes32 constant EIP712DOMAIN_TYPEHASH = keccak256(\n      \"EIP712Domain(string name,address verifyingContract)\"\n  );\n\n  bytes32 constant LAVAPACKET_TYPEHASH = keccak256(\n      \"LavaPacket(bytes methodname,string relayMode, address from,address to,address wallet,address token,uint256 tokens,uint256 relayerReward,uint256 expires,uint256 nonce)\"\n  );\n\n\n  function getDomainTypehash()   pure returns (bytes32) {\n      return EIP712DOMAIN_TYPEHASH;\n  }\n\n    function getLavaPacketTypehash()   pure returns (bytes32) {\n      return LAVAPACKET_TYPEHASH;\n  }\n\n\n\n\n  function getDomainHash(EIP712Domain eip712Domain) internal pure returns (bytes32) {\n        return keccak256(abi.encode(\n            EIP712DOMAIN_TYPEHASH,\n            keccak256(bytes(eip712Domain.name)),\n            eip712Domain.verifyingContract\n        ));\n    }\n\n    function getLavaPacketHash(LavaPacket packet) internal pure returns (bytes32) {\n        return keccak256(abi.encode(\n            LAVAPACKET_TYPEHASH,\n            keccak256(bytes(packet.methodname)),\n            keccak256(bytes(packet.relayMode)),\n            packet.from,\n            packet.to,\n            packet.wallet,\n            packet.token,\n            packet.tokens,\n            packet.relayerReward,\n            packet.expires,\n            packet.nonce\n        ));\n    }\n\n\n\n bytes32 DOMAIN_SEPARATOR;\n\n  function LavaWallet(address relayKingContractAddress ) public  {\n    relayKingContract = relayKingContractAddress;\n\n    DOMAIN_SEPARATOR = getDomainHash(EIP712Domain({\n           name: \"Lava Wallet\",\n           verifyingContract: this\n          // verifyingContract: 0xCcCCccccCCCCcCCCCCCcCcCccCcCCCcCcccccccC //comment this out\n       }));\n  }\n\n\n  //do not allow ether to enter\n  function() public payable {\n      revert();\n  }\n\n\n   //Remember you need pre-approval for this - nice with ApproveAndCall\n  function depositTokens(address from, address token, uint256 tokens ) public returns (bool success)\n  {\n      //we already have approval so lets do a transferFrom - transfer the tokens into this contract\n\n      if(!ERC20Interface(token).transferFrom(from, this, tokens)) revert();\n\n\n      balances[token][from] = balances[token][from].add(tokens);\n  //    depositedTokens[token] = depositedTokens[token].add(tokens);\n\n      emit Deposit(token, from, tokens, balances[token][from]);\n\n      return true;\n  }\n\n\n  //No approve needed, only from msg.sender\n  function withdrawTokens(address token, uint256 tokens) public returns (bool success){\n    balances[token][msg.sender] = balances[token][msg.sender].sub(tokens);\n\n    if(!ERC20Interface(token).transfer(msg.sender, tokens)) revert();\n\n\n     emit Withdraw(token, msg.sender, tokens, balances[token][msg.sender]);\n     return true;\n  }\n\n  //Requires approval so it can be public\n  function withdrawTokensFrom( address from, address to,address token,  uint tokens) public returns (bool success) {\n      balances[token][from] = balances[token][from].sub(tokens);\n       allowed[token][from][to] = allowed[token][from][to].sub(tokens);\n\n      if(!ERC20Interface(token).transfer(to, tokens)) revert();\n\n\n      emit Withdraw(token, from, tokens, balances[token][from]);\n      return true;\n  }\n\n\n  function balanceOf(address token,address user) public constant returns (uint) {\n       return balances[token][user];\n   }\n\n\n\n   function allowance(address token, address tokenOwner, address spender) public constant returns (uint remaining) {\n\n       return allowed[token][tokenOwner][spender];\n\n   }\n\n\n\n\n  //Can also be used to remove approval by using a 'tokens' value of 0.  P.S. it makes no sense to do an ApproveTokensFrom\n  function approveTokens(address spender, address token, uint tokens) public returns (bool success) {\n      allowed[token][msg.sender][spender] = tokens;\n      Approval(msg.sender, token, spender, tokens);\n      return true;\n  }\n\n  ///transfer tokens within the lava balances\n  //No approve needed, only from msg.sender\n   function transferTokens(address to, address token, uint tokens) public returns (bool success) {\n        balances[token][msg.sender] = balances[token][msg.sender].sub(tokens);\n        balances[token][to] = balances[token][to].add(tokens);\n        emit Transfer(msg.sender, token, to, tokens);\n        return true;\n    }\n\n\n    ///transfer tokens within the lava balances\n    //Can be public because it requires approval\n   function transferTokensFrom( address from, address to,address token,  uint tokens) public returns (bool success) {\n       balances[token][from] = balances[token][from].sub(tokens);\n       allowed[token][from][to] = allowed[token][from][to].sub(tokens);\n       balances[token][to] = balances[token][to].add(tokens);\n       emit Transfer(token, from, to, tokens);\n       return true;\n   }\n\n\n\n  // function getLavaPacket(address from,)\n\n   //This replaces getLavaTypedDataHash .. how to handle Methodname?\n\n   function getLavaTypedDataHash(LavaPacket packet) public  constant returns (bytes32) {\n\n\n          // Note: we need to use `encodePacked` here instead of `encode`.\n          bytes32 digest = keccak256(abi.encodePacked(\n              \"\\x19\\x01\",\n              DOMAIN_SEPARATOR,\n              getLavaPacketHash(packet)\n          ));\n          return digest;\n      }\n\n\n\n   //Nonce is the same thing as a 'check number'\n   //EIP 712\n/*   function getLavaTypedDataHash(bytes methodname, LavaPacket packet ) public constant returns (bytes32)\n   {\n\n\n         bytes32 hardcodedSchemaHash = 0x8fd4f9177556bbc74d0710c8bdda543afd18cc84d92d64b5620d5f1881dceb37; //with methodname\n\n\n        bytes32 typedDataHash = sha3(\n            hardcodedSchemaHash,\n            sha3(methodname,packet.from,packet.to,this,packet.token,packet.tokens,packet.relayerReward,packet.expires,packet.nonce)\n          );\n\n        return typedDataHash;\n   }*/\n\n\n\n\n\n\n\n\n   function _tokenApprovalWithSignature(  LavaPacket packet, bytes32 sigHash, bytes signature) internal returns (bool success)\n   {\n\n       address recoveredSignatureSigner = recover(sigHash,signature);\n\n       bool requireKingRelay = bytesEqual(bytes(packet.relayMode) , 'king');\n\n       //make sure the signer is the depositor of the tokens\n       require(packet.from == recoveredSignatureSigner);\n\n       require(msg.sender == getRelayingKing() || !requireKingRelay);  // you must be the 'king of the hill' to relay\n\n       //make sure the signature has not expired\n       require(block.number < packet.expires);\n\n       uint burnedSignature = burnedSignatures[sigHash];\n       burnedSignatures[sigHash] = 0x1; //spent\n       require(burnedSignature == 0x0 );\n\n       //approve the relayer reward\n       allowed[packet.token][packet.from][msg.sender] = packet.relayerReward;\n       Approval(packet.from, packet.token, msg.sender, packet.relayerReward);\n\n       //transferRelayerReward\n       require(transferTokensFrom(packet.from, msg.sender, packet.token, packet.relayerReward));\n\n       //approve transfer of tokens\n       allowed[packet.token][packet.from][packet.to] = packet.tokens;\n       Approval(packet.from, packet.token, packet.to, packet.tokens);\n\n\n       return true;\n   }\n\n/*\n   function relayLavaPacket(LavaPacket packet, bytes signature)\n   {\n     bytes32 sigHash = getLavaTypedDataHash( packet);\n\n\n\n      if(!_tokenApprovalWithSignature(packet,sigHash,signature)) revert();\n\n      //check relay mode\n\n\n\n      //check methodname\n\n      //if transfer\n      // if(!transferTokensFrom( packet.from, packet.to, packet.token, packet.tokens)) revert();\n\n      // if withdraw\n\n      if(bytesEqual('withdraw',packet.methodname))\n      if(!withdrawTokensFrom( packet.from, packet.to, packet.token, packet.tokens)) revert();\n\n\n        return true;\n\n\n   }*/\n\n\n\n   function approveTokensWithSignature(LavaPacket packet, bytes signature) public returns (bool success)\n   {\n       require(bytesEqual('approve',packet.methodname));\n\n       bytes32 sigHash = getLavaTypedDataHash(packet);\n\n       require(_tokenApprovalWithSignature(packet,sigHash,signature));\n\n\n       return true;\n   }\n\n\n   //the tokens remain in lava wallet\n  function transferTokensWithSignature(LavaPacket packet, bytes signature) public returns (bool success)\n  {\n\n      require(bytesEqual('transfer',packet.methodname));\n\n      //check to make sure that signature == ecrecover signature\n      bytes32 sigHash = getLavaTypedDataHash(packet);\n\n      require(_tokenApprovalWithSignature(packet,sigHash,signature));\n\n      //it can be requested that fewer tokens be sent that were approved -- the whole approval will be invalidated though\n      require(transferTokensFrom( packet.from, packet.to, packet.token, packet.tokens));\n\n\n      return true;\n\n  }\n\n\n  //the tokens remain in lava wallet\n function withdrawTokensWithSignature(LavaPacket packet, bytes signature) public returns (bool success)\n {\n     require(bytesEqual('withdraw',packet.methodname));\n\n     //check to make sure that signature == ecrecover signature\n     bytes32 sigHash = getLavaTypedDataHash(packet);\n\n     require(_tokenApprovalWithSignature(packet,sigHash,signature));\n\n     //it can be requested that fewer tokens be sent that were approved -- the whole approval will be invalidated though\n     require(withdrawTokensFrom( packet.from, packet.to, packet.token, packet.tokens));\n\n\n     return true;\n\n }\n\n\n\n\n\n     function burnSignature( LavaPacket packet,  bytes signature) public returns (bool success)\n     {\n\n\n        bytes32 sigHash = getLavaTypedDataHash( packet);\n\n         address recoveredSignatureSigner = recover(sigHash,signature);\n\n         //make sure the invalidator is the signer\n         if(recoveredSignatureSigner != packet.from) revert();\n\n         //only the original packet owner can burn signature, not a relay\n         if(packet.from != msg.sender) revert();\n\n         //make sure this signature has never been used\n         uint burnedSignature = burnedSignatures[sigHash];\n         burnedSignatures[sigHash] = 0x2; //invalidated\n         if(burnedSignature != 0x0 ) revert();\n\n         return true;\n     }\n\n\n     function signatureBurnStatus(bytes32 digest) public view returns (uint)\n     {\n       return (burnedSignatures[digest]);\n     }\n\n\n\n\n       /*\n         Receive approval to spend tokens and perform any action all in one transaction\n       */\n     function receiveApproval(address from, uint256 tokens, address token, bytes data) public returns (bool success) {\n\n\n       return depositTokens(from, token, tokens );\n\n     }\n\n     /*\n      Approve lava tokens for a smart contract and call the contracts receiveApproval method all in one fell swoop\n\n\n      */\n     function approveAndCall( LavaPacket packet, bytes signature ) public returns (bool success)   {\n\n      // address from, address to, address token, uint256 tokens, uint256 relayerReward,  uint256 expires, uint256 nonce\n\n        bytes32 sigHash = getLavaTypedDataHash( packet);\n\n\n\n        require(_tokenApprovalWithSignature(packet,sigHash,signature));\n\n        ApproveAndCallFallBack(packet.to).receiveApproval(packet.from, packet.tokens, packet.token, packet.methodname);\n\n        return true;\n     }\n\n     function getRelayingKing() public returns (address)\n     {\n       return MiningKingInterface(relayKingContract).getMiningKing();\n     }\n\n\n\n     function bytesEqual(bytes b1,bytes b2) pure internal returns (bool)\n        {\n          if(b1.length != b2.length) return false;\n\n          for (uint i=0; i<b1.length; i++) {\n            if(b1[i] != b2[i]) return false;\n          }\n\n          return true;\n        }\n\n\n}\n",
  "sourcePath": "/home/andy/dev/lava-wallet/contracts/LavaWallet.sol",
  "compiler": {
    "name": "solc",
    "version": "0.4.24+commit.e67f0147.Emscripten.clang"
  },
  "schemaVersion": "2.0.1",
  "updatedAt": "2018-10-19T22:11:16.702Z"
}