{
  "contractName": "LavaWallet",
  "abi": [
    {
      "inputs": [
        {
          "name": "relayKingContractAddress",
          "type": "address"
        }
      ],
      "payable": false,
      "stateMutability": "nonpayable",
      "type": "constructor"
    },
    {
      "payable": true,
      "stateMutability": "payable",
      "type": "fallback"
    },
    {
      "anonymous": false,
      "inputs": [
        {
          "indexed": false,
          "name": "token",
          "type": "address"
        },
        {
          "indexed": false,
          "name": "user",
          "type": "address"
        },
        {
          "indexed": false,
          "name": "amount",
          "type": "uint256"
        },
        {
          "indexed": false,
          "name": "balance",
          "type": "uint256"
        }
      ],
      "name": "Deposit",
      "type": "event"
    },
    {
      "anonymous": false,
      "inputs": [
        {
          "indexed": false,
          "name": "token",
          "type": "address"
        },
        {
          "indexed": false,
          "name": "user",
          "type": "address"
        },
        {
          "indexed": false,
          "name": "amount",
          "type": "uint256"
        },
        {
          "indexed": false,
          "name": "balance",
          "type": "uint256"
        }
      ],
      "name": "Withdraw",
      "type": "event"
    },
    {
      "anonymous": false,
      "inputs": [
        {
          "indexed": true,
          "name": "from",
          "type": "address"
        },
        {
          "indexed": true,
          "name": "to",
          "type": "address"
        },
        {
          "indexed": false,
          "name": "token",
          "type": "address"
        },
        {
          "indexed": false,
          "name": "tokens",
          "type": "uint256"
        }
      ],
      "name": "Transfer",
      "type": "event"
    },
    {
      "anonymous": false,
      "inputs": [
        {
          "indexed": true,
          "name": "tokenOwner",
          "type": "address"
        },
        {
          "indexed": true,
          "name": "spender",
          "type": "address"
        },
        {
          "indexed": false,
          "name": "token",
          "type": "address"
        },
        {
          "indexed": false,
          "name": "tokens",
          "type": "uint256"
        }
      ],
      "name": "Approval",
      "type": "event"
    },
    {
      "constant": false,
      "inputs": [
        {
          "name": "from",
          "type": "address"
        },
        {
          "name": "token",
          "type": "address"
        },
        {
          "name": "tokens",
          "type": "uint256"
        }
      ],
      "name": "depositTokens",
      "outputs": [
        {
          "name": "success",
          "type": "bool"
        }
      ],
      "payable": false,
      "stateMutability": "nonpayable",
      "type": "function"
    },
    {
      "constant": false,
      "inputs": [
        {
          "name": "token",
          "type": "address"
        },
        {
          "name": "tokens",
          "type": "uint256"
        }
      ],
      "name": "withdrawTokens",
      "outputs": [
        {
          "name": "success",
          "type": "bool"
        }
      ],
      "payable": false,
      "stateMutability": "nonpayable",
      "type": "function"
    },
    {
      "constant": false,
      "inputs": [
        {
          "name": "from",
          "type": "address"
        },
        {
          "name": "to",
          "type": "address"
        },
        {
          "name": "token",
          "type": "address"
        },
        {
          "name": "tokens",
          "type": "uint256"
        }
      ],
      "name": "withdrawTokensFrom",
      "outputs": [
        {
          "name": "success",
          "type": "bool"
        }
      ],
      "payable": false,
      "stateMutability": "nonpayable",
      "type": "function"
    },
    {
      "constant": true,
      "inputs": [
        {
          "name": "token",
          "type": "address"
        },
        {
          "name": "user",
          "type": "address"
        }
      ],
      "name": "balanceOf",
      "outputs": [
        {
          "name": "",
          "type": "uint256"
        }
      ],
      "payable": false,
      "stateMutability": "view",
      "type": "function"
    },
    {
      "constant": true,
      "inputs": [
        {
          "name": "token",
          "type": "address"
        },
        {
          "name": "tokenOwner",
          "type": "address"
        },
        {
          "name": "spender",
          "type": "address"
        }
      ],
      "name": "allowance",
      "outputs": [
        {
          "name": "remaining",
          "type": "uint256"
        }
      ],
      "payable": false,
      "stateMutability": "view",
      "type": "function"
    },
    {
      "constant": false,
      "inputs": [
        {
          "name": "spender",
          "type": "address"
        },
        {
          "name": "token",
          "type": "address"
        },
        {
          "name": "tokens",
          "type": "uint256"
        }
      ],
      "name": "approveTokens",
      "outputs": [
        {
          "name": "success",
          "type": "bool"
        }
      ],
      "payable": false,
      "stateMutability": "nonpayable",
      "type": "function"
    },
    {
      "constant": false,
      "inputs": [
        {
          "name": "to",
          "type": "address"
        },
        {
          "name": "token",
          "type": "address"
        },
        {
          "name": "tokens",
          "type": "uint256"
        }
      ],
      "name": "transferTokens",
      "outputs": [
        {
          "name": "success",
          "type": "bool"
        }
      ],
      "payable": false,
      "stateMutability": "nonpayable",
      "type": "function"
    },
    {
      "constant": false,
      "inputs": [
        {
          "name": "from",
          "type": "address"
        },
        {
          "name": "to",
          "type": "address"
        },
        {
          "name": "token",
          "type": "address"
        },
        {
          "name": "tokens",
          "type": "uint256"
        }
      ],
      "name": "transferTokensFrom",
      "outputs": [
        {
          "name": "success",
          "type": "bool"
        }
      ],
      "payable": false,
      "stateMutability": "nonpayable",
      "type": "function"
    },
    {
      "constant": false,
      "inputs": [
        {
          "components": [
            {
              "name": "methodname",
              "type": "bytes"
            },
            {
              "name": "from",
              "type": "address"
            },
            {
              "name": "to",
              "type": "address"
            },
            {
              "name": "wallet",
              "type": "address"
            },
            {
              "name": "token",
              "type": "address"
            },
            {
              "name": "tokens",
              "type": "uint256"
            },
            {
              "name": "relayerReward",
              "type": "uint256"
            },
            {
              "name": "expires",
              "type": "uint256"
            },
            {
              "name": "nonce",
              "type": "uint256"
            }
          ],
          "name": "packet",
          "type": "tuple"
        },
        {
          "name": "signature",
          "type": "bytes"
        }
      ],
      "name": "approveTokensFromAnyWithSignature",
      "outputs": [
        {
          "name": "success",
          "type": "bool"
        }
      ],
      "payable": false,
      "stateMutability": "nonpayable",
      "type": "function"
    },
    {
      "constant": false,
      "inputs": [
        {
          "components": [
            {
              "name": "methodname",
              "type": "bytes"
            },
            {
              "name": "from",
              "type": "address"
            },
            {
              "name": "to",
              "type": "address"
            },
            {
              "name": "wallet",
              "type": "address"
            },
            {
              "name": "token",
              "type": "address"
            },
            {
              "name": "tokens",
              "type": "uint256"
            },
            {
              "name": "relayerReward",
              "type": "uint256"
            },
            {
              "name": "expires",
              "type": "uint256"
            },
            {
              "name": "nonce",
              "type": "uint256"
            }
          ],
          "name": "packet",
          "type": "tuple"
        },
        {
          "name": "signature",
          "type": "bytes"
        }
      ],
      "name": "approveTokensFromKingWithSignature",
      "outputs": [
        {
          "name": "success",
          "type": "bool"
        }
      ],
      "payable": false,
      "stateMutability": "nonpayable",
      "type": "function"
    },
    {
      "constant": false,
      "inputs": [
        {
          "components": [
            {
              "name": "methodname",
              "type": "bytes"
            },
            {
              "name": "from",
              "type": "address"
            },
            {
              "name": "to",
              "type": "address"
            },
            {
              "name": "wallet",
              "type": "address"
            },
            {
              "name": "token",
              "type": "address"
            },
            {
              "name": "tokens",
              "type": "uint256"
            },
            {
              "name": "relayerReward",
              "type": "uint256"
            },
            {
              "name": "expires",
              "type": "uint256"
            },
            {
              "name": "nonce",
              "type": "uint256"
            }
          ],
          "name": "packet",
          "type": "tuple"
        },
        {
          "name": "signature",
          "type": "bytes"
        }
      ],
      "name": "transferTokensFromAnyWithSignature",
      "outputs": [
        {
          "name": "success",
          "type": "bool"
        }
      ],
      "payable": false,
      "stateMutability": "nonpayable",
      "type": "function"
    },
    {
      "constant": false,
      "inputs": [
        {
          "components": [
            {
              "name": "methodname",
              "type": "bytes"
            },
            {
              "name": "from",
              "type": "address"
            },
            {
              "name": "to",
              "type": "address"
            },
            {
              "name": "wallet",
              "type": "address"
            },
            {
              "name": "token",
              "type": "address"
            },
            {
              "name": "tokens",
              "type": "uint256"
            },
            {
              "name": "relayerReward",
              "type": "uint256"
            },
            {
              "name": "expires",
              "type": "uint256"
            },
            {
              "name": "nonce",
              "type": "uint256"
            }
          ],
          "name": "packet",
          "type": "tuple"
        },
        {
          "name": "signature",
          "type": "bytes"
        }
      ],
      "name": "transferTokensFromKingWithSignature",
      "outputs": [
        {
          "name": "success",
          "type": "bool"
        }
      ],
      "payable": false,
      "stateMutability": "nonpayable",
      "type": "function"
    },
    {
      "constant": false,
      "inputs": [
        {
          "components": [
            {
              "name": "methodname",
              "type": "bytes"
            },
            {
              "name": "from",
              "type": "address"
            },
            {
              "name": "to",
              "type": "address"
            },
            {
              "name": "wallet",
              "type": "address"
            },
            {
              "name": "token",
              "type": "address"
            },
            {
              "name": "tokens",
              "type": "uint256"
            },
            {
              "name": "relayerReward",
              "type": "uint256"
            },
            {
              "name": "expires",
              "type": "uint256"
            },
            {
              "name": "nonce",
              "type": "uint256"
            }
          ],
          "name": "packet",
          "type": "tuple"
        },
        {
          "name": "signature",
          "type": "bytes"
        }
      ],
      "name": "withdrawTokensFromAnyWithSignature",
      "outputs": [
        {
          "name": "success",
          "type": "bool"
        }
      ],
      "payable": false,
      "stateMutability": "nonpayable",
      "type": "function"
    },
    {
      "constant": false,
      "inputs": [
        {
          "components": [
            {
              "name": "methodname",
              "type": "bytes"
            },
            {
              "name": "from",
              "type": "address"
            },
            {
              "name": "to",
              "type": "address"
            },
            {
              "name": "wallet",
              "type": "address"
            },
            {
              "name": "token",
              "type": "address"
            },
            {
              "name": "tokens",
              "type": "uint256"
            },
            {
              "name": "relayerReward",
              "type": "uint256"
            },
            {
              "name": "expires",
              "type": "uint256"
            },
            {
              "name": "nonce",
              "type": "uint256"
            }
          ],
          "name": "packet",
          "type": "tuple"
        },
        {
          "name": "signature",
          "type": "bytes"
        }
      ],
      "name": "withdrawTokensFromKingWithSignature",
      "outputs": [
        {
          "name": "success",
          "type": "bool"
        }
      ],
      "payable": false,
      "stateMutability": "nonpayable",
      "type": "function"
    },
    {
      "constant": false,
      "inputs": [
        {
          "name": "methodname",
          "type": "bytes"
        },
        {
          "components": [
            {
              "name": "methodname",
              "type": "bytes"
            },
            {
              "name": "from",
              "type": "address"
            },
            {
              "name": "to",
              "type": "address"
            },
            {
              "name": "wallet",
              "type": "address"
            },
            {
              "name": "token",
              "type": "address"
            },
            {
              "name": "tokens",
              "type": "uint256"
            },
            {
              "name": "relayerReward",
              "type": "uint256"
            },
            {
              "name": "expires",
              "type": "uint256"
            },
            {
              "name": "nonce",
              "type": "uint256"
            }
          ],
          "name": "packet",
          "type": "tuple"
        },
        {
          "name": "signature",
          "type": "bytes"
        }
      ],
      "name": "burnSignature",
      "outputs": [
        {
          "name": "success",
          "type": "bool"
        }
      ],
      "payable": false,
      "stateMutability": "nonpayable",
      "type": "function"
    },
    {
      "constant": true,
      "inputs": [
        {
          "name": "digest",
          "type": "bytes32"
        }
      ],
      "name": "signatureBurnStatus",
      "outputs": [
        {
          "name": "",
          "type": "uint256"
        }
      ],
      "payable": false,
      "stateMutability": "view",
      "type": "function"
    },
    {
      "constant": false,
      "inputs": [
        {
          "name": "from",
          "type": "address"
        },
        {
          "name": "tokens",
          "type": "uint256"
        },
        {
          "name": "token",
          "type": "address"
        },
        {
          "name": "data",
          "type": "bytes"
        }
      ],
      "name": "receiveApproval",
      "outputs": [
        {
          "name": "success",
          "type": "bool"
        }
      ],
      "payable": false,
      "stateMutability": "nonpayable",
      "type": "function"
    },
    {
      "constant": false,
      "inputs": [
        {
          "name": "methodname",
          "type": "bytes"
        },
        {
          "components": [
            {
              "name": "methodname",
              "type": "bytes"
            },
            {
              "name": "from",
              "type": "address"
            },
            {
              "name": "to",
              "type": "address"
            },
            {
              "name": "wallet",
              "type": "address"
            },
            {
              "name": "token",
              "type": "address"
            },
            {
              "name": "tokens",
              "type": "uint256"
            },
            {
              "name": "relayerReward",
              "type": "uint256"
            },
            {
              "name": "expires",
              "type": "uint256"
            },
            {
              "name": "nonce",
              "type": "uint256"
            }
          ],
          "name": "packet",
          "type": "tuple"
        },
        {
          "name": "signature",
          "type": "bytes"
        }
      ],
      "name": "approveAndCall",
      "outputs": [
        {
          "name": "success",
          "type": "bool"
        }
      ],
      "payable": false,
      "stateMutability": "nonpayable",
      "type": "function"
    },
    {
      "constant": false,
      "inputs": [],
      "name": "getRelayingKing",
      "outputs": [
        {
          "name": "",
          "type": "address"
        }
      ],
      "payable": false,
      "stateMutability": "nonpayable",
      "type": "function"
    }
  ],
  "bytecode": "0x60806040523480156200001157600080fd5b506040516020806200345e833981018060405262000033919081019062000282565b80600360006101000a81548173ffffffffffffffffffffffffffffffffffffffff021916908373ffffffffffffffffffffffffffffffffffffffff1602179055506200010160408051908101604052806040805190810160405280600b81526020017f4c6176612057616c6c6574000000000000000000000000000000000000000000815250815260200173cccccccccccccccccccccccccccccccccccccccc73ffffffffffffffffffffffffffffffffffffffff1681525062000112640100000000026401000000009004565b600481600019169055505062000357565b600060405180807f454950373132446f6d61696e28737472696e67206e616d652c6164647265737381526020017f20766572696679696e67436f6e747261637429000000000000000000000000008152506033019050604051809103902082600001516040518082805190602001908083835b602083101515620001ac578051825260208201915060208101905060208303925062000185565b6001836020036101000a03801982511681845116808217855250505050505090500191505060405180910390208360200151604051602001620001f293929190620002d0565b6040516020818303038152906040526040518082805190602001908083835b60208310151562000238578051825260208201915060208101905060208303925062000211565b6001836020036101000a03801982511681845116808217855250505050505090500191505060405180910390209050919050565b60006200027a825162000337565b905092915050565b6000602082840312156200029557600080fd5b6000620002a5848285016200026c565b91505092915050565b620002b9816200030d565b82525050565b620002ca816200032d565b82525050565b6000606082019050620002e76000830186620002bf565b620002f66020830185620002bf565b620003056040830184620002ae565b949350505050565b600073ffffffffffffffffffffffffffffffffffffffff82169050919050565b6000819050919050565b600073ffffffffffffffffffffffffffffffffffffffff82169050919050565b6130f780620003676000396000f300608060405260043610610107576000357c0100000000000000000000000000000000000000000000000000000000900463ffffffff16806306b091f91461010c57806309417110146101495780632db43d27146101865780632e0e094a146101c357806339dc5ef2146102005780633c7e03c11461023d57806349bcd18e146102685780634b17bdd8146102a55780634d2bf34b146102e257806351d19cf31461031f578063665af47f1461035c5780638f4ffcb114610399578063912d6e28146103d6578063927da10514610413578063929a544914610450578063a64b6e5f1461048d578063b0e0ef09146104ca578063bf2094bc14610507578063f7888aec14610544575b600080fd5b34801561011857600080fd5b50610133600480360361012e91908101906129e7565b610581565b6040516101409190612d8f565b60405180910390f35b34801561015557600080fd5b50610170600480360361016b9190810190612ac7565b610806565b60405161017d9190612e8b565b60405180910390f35b34801561019257600080fd5b506101ad60048036036101a89190810190612b87565b61082b565b6040516101ba9190612d8f565b60405180910390f35b3480156101cf57600080fd5b506101ea60048036036101e59190810190612b87565b610892565b6040516101f79190612d8f565b60405180910390f35b34801561020c57600080fd5b5061022760048036036102229190810190612998565b610920565b6040516102349190612d8f565b60405180910390f35b34801561024957600080fd5b50610252610ba8565b60405161025f9190612c83565b60405180910390f35b34801561027457600080fd5b5061028f600480360361028a9190810190612b87565b610c6d565b60405161029c9190612d8f565b60405180910390f35b3480156102b157600080fd5b506102cc60048036036102c79190810190612935565b610cfb565b6040516102d99190612d8f565b60405180910390f35b3480156102ee57600080fd5b5061030960048036036103049190810190612af0565b611113565b6040516103169190612d8f565b60405180910390f35b34801561032b57600080fd5b5061034660048036036103419190810190612af0565b6111f1565b6040516103539190612d8f565b60405180910390f35b34801561036857600080fd5b50610383600480360361037e9190810190612b87565b6112e6565b6040516103909190612d8f565b60405180910390f35b3480156103a557600080fd5b506103c060048036036103bb9190810190612a23565b61134d565b6040516103cd9190612d8f565b60405180910390f35b3480156103e257600080fd5b506103fd60048036036103f89190810190612998565b611364565b60405161040a9190612d8f565b60405180910390f35b34801561041f57600080fd5b5061043a600480360361043591908101906128e6565b611496565b6040516104479190612e8b565b60405180910390f35b34801561045c57600080fd5b5061047760048036036104729190810190612b87565b61155b565b6040516104849190612d8f565b60405180910390f35b34801561049957600080fd5b506104b460048036036104af9190810190612998565b6115e9565b6040516104c19190612d8f565b60405180910390f35b3480156104d657600080fd5b506104f160048036036104ec9190810190612935565b611877565b6040516104fe9190612d8f565b60405180910390f35b34801561051357600080fd5b5061052e60048036036105299190810190612b87565b611c87565b60405161053b9190612d8f565b60405180910390f35b34801561055057600080fd5b5061056b600480360361056691908101906128aa565b611d15565b6040516105789190612e8b565b60405180910390f35b6000610611826000808673ffffffffffffffffffffffffffffffffffffffff1673ffffffffffffffffffffffffffffffffffffffff16815260200190815260200160002060003373ffffffffffffffffffffffffffffffffffffffff1673ffffffffffffffffffffffffffffffffffffffff16815260200190815260200160002054611d9b90919063ffffffff16565b6000808573ffffffffffffffffffffffffffffffffffffffff1673ffffffffffffffffffffffffffffffffffffffff16815260200190815260200160002060003373ffffffffffffffffffffffffffffffffffffffff1673ffffffffffffffffffffffffffffffffffffffff168152602001908152602001600020819055508273ffffffffffffffffffffffffffffffffffffffff1663a9059cbb33846040518363ffffffff167c01000000000000000000000000000000000000000000000000000000000281526004016106e7929190612d1a565b602060405180830381600087803b15801561070157600080fd5b505af1158015610715573d6000803e3d6000fd5b505050506040513d601f19601f820116820180604052506107399190810190612a9e565b151561074457600080fd5b7ff341246adaac6f497bc2a656f546ab9e182111d630394f0c57c710a59a2cb5678333846000808873ffffffffffffffffffffffffffffffffffffffff1673ffffffffffffffffffffffffffffffffffffffff16815260200190815260200160002060003373ffffffffffffffffffffffffffffffffffffffff1673ffffffffffffffffffffffffffffffffffffffff168152602001908152602001600020546040516107f49493929190612c9e565b60405180910390a16001905092915050565b6000600260008360001916600019168152602001908152602001600020549050919050565b60008061086d6040805190810160405280600b81526020017f6b696e67417070726f766500000000000000000000000000000000000000000081525085611db4565b905061087c6001858386611e98565b151561088757600080fd5b600191505092915050565b6000806108d46040805190810160405280600c81526020017f6b696e675769746864726177000000000000000000000000000000000000000081525085611db4565b90506108e36001858386611e98565b15156108ee57600080fd5b61090a8460200151856040015186608001518760a00151611877565b151561091557600080fd5b600191505092915050565b60008273ffffffffffffffffffffffffffffffffffffffff166323b872dd8530856040518463ffffffff167c010000000000000000000000000000000000000000000000000000000002815260040161097b93929190612ce3565b602060405180830381600087803b15801561099557600080fd5b505af11580156109a9573d6000803e3d6000fd5b505050506040513d601f19601f820116820180604052506109cd9190810190612a9e565b15156109d857600080fd5b610a66826000808673ffffffffffffffffffffffffffffffffffffffff1673ffffffffffffffffffffffffffffffffffffffff16815260200190815260200160002060008773ffffffffffffffffffffffffffffffffffffffff1673ffffffffffffffffffffffffffffffffffffffff1681526020019081526020016000205461224390919063ffffffff16565b6000808573ffffffffffffffffffffffffffffffffffffffff1673ffffffffffffffffffffffffffffffffffffffff16815260200190815260200160002060008673ffffffffffffffffffffffffffffffffffffffff1673ffffffffffffffffffffffffffffffffffffffff168152602001908152602001600020819055507fdcbc1c05240f31ff3ad067ef1ee35ce4997762752e3a095284754544f4c709d78385846000808873ffffffffffffffffffffffffffffffffffffffff1673ffffffffffffffffffffffffffffffffffffffff16815260200190815260200160002060008973ffffffffffffffffffffffffffffffffffffffff1673ffffffffffffffffffffffffffffffffffffffff16815260200190815260200160002054604051610b959493929190612c9e565b60405180910390a1600190509392505050565b6000600360009054906101000a900473ffffffffffffffffffffffffffffffffffffffff1673ffffffffffffffffffffffffffffffffffffffff1663fe4d62f96040518163ffffffff167c0100000000000000000000000000000000000000000000000000000000028152600401602060405180830381600087803b158015610c3057600080fd5b505af1158015610c44573d6000803e3d6000fd5b505050506040513d601f19601f82011682018060405250610c689190810190612881565b905090565b600080610caf6040805190810160405280600c81526020017f6b696e675472616e73666572000000000000000000000000000000000000000081525085611db4565b9050610cbe6001858386611e98565b1515610cc957600080fd5b610ce58460200151856040015186608001518760a00151610cfb565b1515610cf057600080fd5b600191505092915050565b6000610d8b826000808673ffffffffffffffffffffffffffffffffffffffff1673ffffffffffffffffffffffffffffffffffffffff16815260200190815260200160002060008873ffffffffffffffffffffffffffffffffffffffff1673ffffffffffffffffffffffffffffffffffffffff16815260200190815260200160002054611d9b90919063ffffffff16565b6000808573ffffffffffffffffffffffffffffffffffffffff1673ffffffffffffffffffffffffffffffffffffffff16815260200190815260200160002060008773ffffffffffffffffffffffffffffffffffffffff1673ffffffffffffffffffffffffffffffffffffffff16815260200190815260200160002081905550610ed682600160008673ffffffffffffffffffffffffffffffffffffffff1673ffffffffffffffffffffffffffffffffffffffff16815260200190815260200160002060008873ffffffffffffffffffffffffffffffffffffffff1673ffffffffffffffffffffffffffffffffffffffff16815260200190815260200160002060008773ffffffffffffffffffffffffffffffffffffffff1673ffffffffffffffffffffffffffffffffffffffff16815260200190815260200160002054611d9b90919063ffffffff16565b600160008573ffffffffffffffffffffffffffffffffffffffff1673ffffffffffffffffffffffffffffffffffffffff16815260200190815260200160002060008773ffffffffffffffffffffffffffffffffffffffff1673ffffffffffffffffffffffffffffffffffffffff16815260200190815260200160002060008673ffffffffffffffffffffffffffffffffffffffff1673ffffffffffffffffffffffffffffffffffffffff16815260200190815260200160002081905550611021826000808673ffffffffffffffffffffffffffffffffffffffff1673ffffffffffffffffffffffffffffffffffffffff16815260200190815260200160002060008773ffffffffffffffffffffffffffffffffffffffff1673ffffffffffffffffffffffffffffffffffffffff1681526020019081526020016000205461224390919063ffffffff16565b6000808573ffffffffffffffffffffffffffffffffffffffff1673ffffffffffffffffffffffffffffffffffffffff16815260200190815260200160002060008673ffffffffffffffffffffffffffffffffffffffff1673ffffffffffffffffffffffffffffffffffffffff168152602001908152602001600020819055508473ffffffffffffffffffffffffffffffffffffffff168373ffffffffffffffffffffffffffffffffffffffff167fd1398bee19313d6bf672ccb116e51f4a1a947e91c757907f51fbb5b5e56c698f86856040516110ff929190612d1a565b60405180910390a360019050949350505050565b60008060006111228686611db4565b915061112d86612261565b905061113c6001868487611e98565b151561114757600080fd5b846040015173ffffffffffffffffffffffffffffffffffffffff16638f4ffcb186602001518760a0015188608001518a6040518563ffffffff167c01000000000000000000000000000000000000000000000000000000000281526004016111b29493929190612d43565b600060405180830381600087803b1580156111cc57600080fd5b505af11580156111e0573d6000803e3d6000fd5b505050506001925050509392505050565b6000806000806112018787611db4565b925061120d8386612335565b9150856020015173ffffffffffffffffffffffffffffffffffffffff168273ffffffffffffffffffffffffffffffffffffffff1614151561124d57600080fd5b3373ffffffffffffffffffffffffffffffffffffffff16866020015173ffffffffffffffffffffffffffffffffffffffff1614151561128b57600080fd5b60026000846000191660001916815260200190815260200160002054905060028060008560001916600019168152602001908152602001600020819055506000811415156112d857600080fd5b600193505050509392505050565b6000806113286040805190810160405280600a81526020017f616e79417070726f76650000000000000000000000000000000000000000000081525085611db4565b90506113376000858386611e98565b151561134257600080fd5b600191505092915050565b600061135a858486610920565b9050949350505050565b600081600160008573ffffffffffffffffffffffffffffffffffffffff1673ffffffffffffffffffffffffffffffffffffffff16815260200190815260200160002060003373ffffffffffffffffffffffffffffffffffffffff1673ffffffffffffffffffffffffffffffffffffffff16815260200190815260200160002060008673ffffffffffffffffffffffffffffffffffffffff1673ffffffffffffffffffffffffffffffffffffffff168152602001908152602001600020819055508273ffffffffffffffffffffffffffffffffffffffff163373ffffffffffffffffffffffffffffffffffffffff167fa0175360a15bca328baf7ea85c7b784d58b222a50d0ce760b10dba336d226a618685604051611483929190612d1a565b60405180910390a3600190509392505050565b6000600160008573ffffffffffffffffffffffffffffffffffffffff1673ffffffffffffffffffffffffffffffffffffffff16815260200190815260200160002060008473ffffffffffffffffffffffffffffffffffffffff1673ffffffffffffffffffffffffffffffffffffffff16815260200190815260200160002060008373ffffffffffffffffffffffffffffffffffffffff1673ffffffffffffffffffffffffffffffffffffffff1681526020019081526020016000205490509392505050565b60008061159d6040805190810160405280600b81526020017f616e79576974686472617700000000000000000000000000000000000000000081525085611db4565b90506115ac6000858386611e98565b15156115b757600080fd5b6115d38460200151856040015186608001518760a00151611877565b15156115de57600080fd5b600191505092915050565b6000611679826000808673ffffffffffffffffffffffffffffffffffffffff1673ffffffffffffffffffffffffffffffffffffffff16815260200190815260200160002060003373ffffffffffffffffffffffffffffffffffffffff1673ffffffffffffffffffffffffffffffffffffffff16815260200190815260200160002054611d9b90919063ffffffff16565b6000808573ffffffffffffffffffffffffffffffffffffffff1673ffffffffffffffffffffffffffffffffffffffff16815260200190815260200160002060003373ffffffffffffffffffffffffffffffffffffffff1673ffffffffffffffffffffffffffffffffffffffff16815260200190815260200160002081905550611786826000808673ffffffffffffffffffffffffffffffffffffffff1673ffffffffffffffffffffffffffffffffffffffff16815260200190815260200160002060008773ffffffffffffffffffffffffffffffffffffffff1673ffffffffffffffffffffffffffffffffffffffff1681526020019081526020016000205461224390919063ffffffff16565b6000808573ffffffffffffffffffffffffffffffffffffffff1673ffffffffffffffffffffffffffffffffffffffff16815260200190815260200160002060008673ffffffffffffffffffffffffffffffffffffffff1673ffffffffffffffffffffffffffffffffffffffff168152602001908152602001600020819055508273ffffffffffffffffffffffffffffffffffffffff163373ffffffffffffffffffffffffffffffffffffffff167fd1398bee19313d6bf672ccb116e51f4a1a947e91c757907f51fbb5b5e56c698f8685604051611864929190612d1a565b60405180910390a3600190509392505050565b6000611907826000808673ffffffffffffffffffffffffffffffffffffffff1673ffffffffffffffffffffffffffffffffffffffff16815260200190815260200160002060008873ffffffffffffffffffffffffffffffffffffffff1673ffffffffffffffffffffffffffffffffffffffff16815260200190815260200160002054611d9b90919063ffffffff16565b6000808573ffffffffffffffffffffffffffffffffffffffff1673ffffffffffffffffffffffffffffffffffffffff16815260200190815260200160002060008773ffffffffffffffffffffffffffffffffffffffff1673ffffffffffffffffffffffffffffffffffffffff16815260200190815260200160002081905550611a5282600160008673ffffffffffffffffffffffffffffffffffffffff1673ffffffffffffffffffffffffffffffffffffffff16815260200190815260200160002060008873ffffffffffffffffffffffffffffffffffffffff1673ffffffffffffffffffffffffffffffffffffffff16815260200190815260200160002060008773ffffffffffffffffffffffffffffffffffffffff1673ffffffffffffffffffffffffffffffffffffffff16815260200190815260200160002054611d9b90919063ffffffff16565b600160008573ffffffffffffffffffffffffffffffffffffffff1673ffffffffffffffffffffffffffffffffffffffff16815260200190815260200160002060008773ffffffffffffffffffffffffffffffffffffffff1673ffffffffffffffffffffffffffffffffffffffff16815260200190815260200160002060008673ffffffffffffffffffffffffffffffffffffffff1673ffffffffffffffffffffffffffffffffffffffff168152602001908152602001600020819055508273ffffffffffffffffffffffffffffffffffffffff1663a9059cbb85846040518363ffffffff167c0100000000000000000000000000000000000000000000000000000000028152600401611b66929190612d1a565b602060405180830381600087803b158015611b8057600080fd5b505af1158015611b94573d6000803e3d6000fd5b505050506040513d601f19601f82011682018060405250611bb89190810190612a9e565b1515611bc357600080fd5b7ff341246adaac6f497bc2a656f546ab9e182111d630394f0c57c710a59a2cb5678386846000808873ffffffffffffffffffffffffffffffffffffffff1673ffffffffffffffffffffffffffffffffffffffff16815260200190815260200160002060008a73ffffffffffffffffffffffffffffffffffffffff1673ffffffffffffffffffffffffffffffffffffffff16815260200190815260200160002054604051611c739493929190612c9e565b60405180910390a160019050949350505050565b600080611cc96040805190810160405280600b81526020017f616e795472616e7366657200000000000000000000000000000000000000000081525085611db4565b9050611cd86000858386611e98565b1515611ce357600080fd5b611cff8460200151856040015186608001518760a00151610cfb565b1515611d0a57600080fd5b600191505092915050565b60008060008473ffffffffffffffffffffffffffffffffffffffff1673ffffffffffffffffffffffffffffffffffffffff16815260200190815260200160002060008373ffffffffffffffffffffffffffffffffffffffff1673ffffffffffffffffffffffffffffffffffffffff16815260200190815260200160002054905092915050565b6000828211151515611da957fe5b818303905092915050565b600080838360000181905250600454611dcc846123fd565b60405160200180807f190100000000000000000000000000000000000000000000000000000000000081525060020183600019166000191681526020018260001916600019168152602001925050506040516020818303038152906040526040518082805190602001908083835b602083101515611e5f5780518252602082019150602081019050602083039250611e3a565b6001836020036101000a038019825116818451168082178552505050505050905001915050604051809103902090508091505092915050565b6000806000611ea78585612335565b91508173ffffffffffffffffffffffffffffffffffffffff16866020015173ffffffffffffffffffffffffffffffffffffffff16141515611ee757600080fd5b611eef610ba8565b73ffffffffffffffffffffffffffffffffffffffff163373ffffffffffffffffffffffffffffffffffffffff1614158015611f275750865b15611f3157600080fd5b8560e00151431115611f4257600080fd5b600260008660001916600019168152602001908152602001600020549050600160026000876000191660001916815260200190815260200160002081905550600081141515611f9057600080fd5b8560c0015160016000886080015173ffffffffffffffffffffffffffffffffffffffff1673ffffffffffffffffffffffffffffffffffffffff1681526020019081526020016000206000886020015173ffffffffffffffffffffffffffffffffffffffff1673ffffffffffffffffffffffffffffffffffffffff16815260200190815260200160002060003373ffffffffffffffffffffffffffffffffffffffff1673ffffffffffffffffffffffffffffffffffffffff16815260200190815260200160002081905550856080015173ffffffffffffffffffffffffffffffffffffffff16866020015173ffffffffffffffffffffffffffffffffffffffff167fa0175360a15bca328baf7ea85c7b784d58b222a50d0ce760b10dba336d226a61338960c001516040516120c5929190612d1a565b60405180910390a36120e586602001513388608001518960c00151610cfb565b15156120f057600080fd5b8560a0015160016000886080015173ffffffffffffffffffffffffffffffffffffffff1673ffffffffffffffffffffffffffffffffffffffff1681526020019081526020016000206000886020015173ffffffffffffffffffffffffffffffffffffffff1673ffffffffffffffffffffffffffffffffffffffff1681526020019081526020016000206000886040015173ffffffffffffffffffffffffffffffffffffffff1673ffffffffffffffffffffffffffffffffffffffff16815260200190815260200160002081905550856080015173ffffffffffffffffffffffffffffffffffffffff16866020015173ffffffffffffffffffffffffffffffffffffffff167fa0175360a15bca328baf7ea85c7b784d58b222a50d0ce760b10dba336d226a6188604001518960a0015160405161222d929190612d1a565b60405180910390a3600192505050949350505050565b600080828401905083811015151561225757fe5b8091505092915050565b60006122a2826040805190810160405280600c81526020017f6b696e675472616e736665720000000000000000000000000000000000000000815250612539565b806122e857506122e7826040805190810160405280600c81526020017f6b696e6757697468647261770000000000000000000000000000000000000000815250612539565b5b8061232e575061232d826040805190810160405280600b81526020017f6b696e67417070726f7665000000000000000000000000000000000000000000815250612539565b5b9050919050565b6000806000806041855114151561234f57600093506123f4565b6020850151925060408501519150606085015160001a9050601b8160ff16101561237a57601b810190505b601b8160ff16141580156123925750601c8160ff1614155b156123a057600093506123f4565b600186828585604051600081526020016040526040516123c39493929190612e46565b60206040516020810390808403906000865af11580156123e7573d6000803e3d6000fd5b5050506020604051035193505b50505092915050565b60006040518080613029609591396095019050604051809103902082600001516040518082805190602001908083835b602083101515612452578051825260208201915060208101905060208303925061242d565b6001836020036101000a038019825116818451168082178552505050505050905001915050604051809103902083602001518460400151856060015186608001518760a001518860c001518960e001518a61010001516040516020016124c19a99989796959493929190612daa565b6040516020818303038152906040526040518082805190602001908083835b60208310151561250557805182526020820191506020810190506020830392506124e0565b6001836020036101000a03801982511681845116808217855250505050505090500191505060405180910390209050919050565b600080825184511415156125505760009150612676565b600090505b835181101561267157828181518110151561256c57fe5b9060200101517f010000000000000000000000000000000000000000000000000000000000000090047f0100000000000000000000000000000000000000000000000000000000000000027effffffffffffffffffffffffffffffffffffffffffffffffffffffffffffff191684828151811015156125e757fe5b9060200101517f010000000000000000000000000000000000000000000000000000000000000090047f0100000000000000000000000000000000000000000000000000000000000000027effffffffffffffffffffffffffffffffffffffffffffffffffffffffffffff19161415156126645760009150612676565b8080600101915050612555565b600191505b5092915050565b60006126898235612f83565b905092915050565b600061269d8251612f83565b905092915050565b60006126b18251612fa3565b905092915050565b60006126c58235612faf565b905092915050565b600082601f83011215156126e057600080fd5b81356126f36126ee82612ed3565b612ea6565b9150808252602083016020830185838301111561270f57600080fd5b61271a838284612fd5565b50505092915050565b600082601f830112151561273657600080fd5b813561274961274482612eff565b612ea6565b9150808252602083016020830185838301111561276557600080fd5b612770838284612fd5565b50505092915050565b6000610120828403121561278c57600080fd5b612797610120612ea6565b9050600082013567ffffffffffffffff8111156127b357600080fd5b6127bf848285016126cd565b60008301525060206127d38482850161267d565b60208301525060406127e78482850161267d565b60408301525060606127fb8482850161267d565b606083015250608061280f8482850161267d565b60808301525060a06128238482850161286d565b60a08301525060c06128378482850161286d565b60c08301525060e061284b8482850161286d565b60e0830152506101006128608482850161286d565b6101008301525092915050565b60006128798235612fb9565b905092915050565b60006020828403121561289357600080fd5b60006128a184828501612691565b91505092915050565b600080604083850312156128bd57600080fd5b60006128cb8582860161267d565b92505060206128dc8582860161267d565b9150509250929050565b6000806000606084860312156128fb57600080fd5b60006129098682870161267d565b935050602061291a8682870161267d565b925050604061292b8682870161267d565b9150509250925092565b6000806000806080858703121561294b57600080fd5b60006129598782880161267d565b945050602061296a8782880161267d565b935050604061297b8782880161267d565b925050606061298c8782880161286d565b91505092959194509250565b6000806000606084860312156129ad57600080fd5b60006129bb8682870161267d565b93505060206129cc8682870161267d565b92505060406129dd8682870161286d565b9150509250925092565b600080604083850312156129fa57600080fd5b6000612a088582860161267d565b9250506020612a198582860161286d565b9150509250929050565b60008060008060808587031215612a3957600080fd5b6000612a478782880161267d565b9450506020612a588782880161286d565b9350506040612a698782880161267d565b925050606085013567ffffffffffffffff811115612a8657600080fd5b612a9287828801612723565b91505092959194509250565b600060208284031215612ab057600080fd5b6000612abe848285016126a5565b91505092915050565b600060208284031215612ad957600080fd5b6000612ae7848285016126b9565b91505092915050565b600080600060608486031215612b0557600080fd5b600084013567ffffffffffffffff811115612b1f57600080fd5b612b2b86828701612723565b935050602084013567ffffffffffffffff811115612b4857600080fd5b612b5486828701612779565b925050604084013567ffffffffffffffff811115612b7157600080fd5b612b7d86828701612723565b9150509250925092565b60008060408385031215612b9a57600080fd5b600083013567ffffffffffffffff811115612bb457600080fd5b612bc085828601612779565b925050602083013567ffffffffffffffff811115612bdd57600080fd5b612be985828601612723565b9150509250929050565b612bfc81612f36565b82525050565b612c0b81612f56565b82525050565b612c1a81612f62565b82525050565b6000612c2b82612f2b565b808452612c3f816020860160208601612fe4565b612c4881613017565b602085010191505092915050565b612c5f81612fc3565b82525050565b612c6e81612f6c565b82525050565b612c7d81612f76565b82525050565b6000602082019050612c986000830184612bf3565b92915050565b6000608082019050612cb36000830187612bf3565b612cc06020830186612bf3565b612ccd6040830185612c65565b612cda6060830184612c65565b95945050505050565b6000606082019050612cf86000830186612bf3565b612d056020830185612c56565b612d126040830184612c65565b949350505050565b6000604082019050612d2f6000830185612bf3565b612d3c6020830184612c65565b9392505050565b6000608082019050612d586000830187612bf3565b612d656020830186612c65565b612d726040830185612bf3565b8181036060830152612d848184612c20565b905095945050505050565b6000602082019050612da46000830184612c02565b92915050565b600061014082019050612dc0600083018d612c11565b612dcd602083018c612c11565b612dda604083018b612bf3565b612de7606083018a612bf3565b612df46080830189612bf3565b612e0160a0830188612bf3565b612e0e60c0830187612c65565b612e1b60e0830186612c65565b612e29610100830185612c65565b612e37610120830184612c65565b9b9a5050505050505050505050565b6000608082019050612e5b6000830187612c11565b612e686020830186612c74565b612e756040830185612c11565b612e826060830184612c11565b95945050505050565b6000602082019050612ea06000830184612c65565b92915050565b6000604051905081810181811067ffffffffffffffff82111715612ec957600080fd5b8060405250919050565b600067ffffffffffffffff821115612eea57600080fd5b601f19601f8301169050602081019050919050565b600067ffffffffffffffff821115612f1657600080fd5b601f19601f8301169050602081019050919050565b600081519050919050565b600073ffffffffffffffffffffffffffffffffffffffff82169050919050565b60008115159050919050565b6000819050919050565b6000819050919050565b600060ff82169050919050565b600073ffffffffffffffffffffffffffffffffffffffff82169050919050565b60008115159050919050565b6000819050919050565b6000819050919050565b6000612fce82612f36565b9050919050565b82818337600083830152505050565b60005b83811015613002578082015181840152602081019050612fe7565b83811115613011576000848401525b50505050565b6000601f19601f830116905091905056004c6176615061636b657428737472696e67206d6574686f646e616d652c616464726573732066726f6d2c6164647265737320746f2c616464726573732077616c6c65742c6164647265737320746f6b656e2c75696e7432353620746f6b656e732c75696e743235362072656c617965725265776172642c75696e7432353620657870697265732c75696e74323536206e6f6e636529a265627a7a7230582029fe3742bbc3cc43f8f046b3001e7ffc55fd0695c78a3ca6af4c598a61b7e8c86c6578706572696d656e74616cf50037",
  "source": "pragma solidity ^0.4.18;\n\npragma experimental ABIEncoderV2;\n\nimport \"./SafeMath.sol\";\n\n\n\n\ncontract ECRecovery {\n\n  /**\n   * @dev Recover signer address from a message by using their signature\n   * @param hash bytes32 message, the hash is the signed message. What is recovered is the signer address.\n   * @param sig bytes signature, the signature is generated using web3.eth.sign()\n   */\n  function recover(bytes32 hash, bytes sig) internal  pure returns (address) {\n    bytes32 r;\n    bytes32 s;\n    uint8 v;\n\n    //Check the signature length\n    if (sig.length != 65) {\n      return (address(0));\n    }\n\n    // Divide the signature in r, s and v variables\n    assembly {\n      r := mload(add(sig, 32))\n      s := mload(add(sig, 64))\n      v := byte(0, mload(add(sig, 96)))\n    }\n\n    // Version of signature should be 27 or 28, but 0 and 1 are also possible versions\n    if (v < 27) {\n      v += 27;\n    }\n\n    // If the version is correct return the signer address\n    if (v != 27 && v != 28) {\n      return (address(0));\n    } else {\n      return ecrecover(hash, v, r, s);\n    }\n  }\n\n}\n\n\n\n/*\n\nThis is a token wallet contract\n\nStore your tokens in this contract to give them super powers\n\nTokens can be spent from the contract with only an ecSignature from the owner - onchain approve is not needed\n\n\n*/\n\ncontract ERC20Interface {\n    function totalSupply() public constant returns (uint);\n    function balanceOf(address tokenOwner) public constant returns (uint balance);\n    function allowance(address tokenOwner, address spender) public constant returns (uint remaining);\n    function transfer(address to, uint tokens) public returns (bool success);\n    function approve(address spender, uint tokens) public returns (bool success);\n    function transferFrom(address from, address to, uint tokens) public returns (bool success);\n\n    event Transfer(address indexed from, address indexed to, uint tokens);\n    event Approval(address indexed tokenOwner, address indexed spender, uint tokens);\n}\ncontract ERC918Interface {\n  function totalSupply() public constant returns (uint);\n  function getMiningDifficulty() public constant returns (uint);\n  function getMiningTarget() public constant returns (uint);\n  function getMiningReward() public constant returns (uint);\n  function balanceOf(address tokenOwner) public constant returns (uint balance);\n\n  function mint(uint256 nonce, bytes32 challenge_digest) public returns (bool success);\n\n  event Mint(address indexed from, uint reward_amount, uint epochCount, bytes32 newChallengeNumber);\n\n}\n\ncontract MiningKingInterface {\n    function getMiningKing() public returns (address);\n    function transferKing(address newKing) public;\n    function mint(uint256 nonce, bytes32 challenge_digest) returns (bool);\n\n    event TransferKing(address from, address to);\n}\n\ncontract ApproveAndCallFallBack {\n\n    function receiveApproval(address from, uint256 tokens, address token, bytes data) public;\n\n}\n\n\n\n\n\n\ncontract LavaWallet is ECRecovery{\n\n  using SafeMath for uint;\n\n  // balances[tokenContractAddress][EthereumAccountAddress] = 0\n   mapping(address => mapping (address => uint256)) balances;\n\n   //token => owner => spender : amount\n   mapping(address => mapping (address => mapping (address => uint256))) allowed;\n\n   //mapping(address => uint256) depositedTokens;\n\n   mapping(bytes32 => uint256) burnedSignatures;\n\n   address relayKingContract;\n\n  event Deposit(address token, address user, uint amount, uint balance);\n  event Withdraw(address token, address user, uint amount, uint balance);\n  event Transfer(address indexed from, address indexed to,address token, uint tokens);\n  event Approval(address indexed tokenOwner, address indexed spender,address token, uint tokens);\n\n\n\n  struct EIP712Domain {\n      string  name;\n      address verifyingContract;\n  }\n\n\n  struct LavaPacket {\n    bytes methodname;\n    address from;\n    address to;\n    address wallet;  //this contract address\n    address token;\n    uint256 tokens;\n    uint256 relayerReward;\n    uint256 expires;\n    uint256 nonce;\n  }\n\n  bytes32 constant EIP712DOMAIN_TYPEHASH = keccak256(\n      \"EIP712Domain(string name,address verifyingContract)\"\n  );\n\n  bytes32 constant LAVAPACKET_TYPEHASH = keccak256(\n      \"LavaPacket(string methodname,address from,address to,address wallet,address token,uint256 tokens,uint256 relayerReward,uint256 expires,uint256 nonce)\"\n  );\n\n\n  function hash(EIP712Domain eip712Domain) internal pure returns (bytes32) {\n        return keccak256(abi.encode(\n            EIP712DOMAIN_TYPEHASH,\n            keccak256(bytes(eip712Domain.name)),\n            eip712Domain.verifyingContract\n        ));\n    }\n\n    function hash(LavaPacket packet) internal pure returns (bytes32) {\n        return keccak256(abi.encode(\n            LAVAPACKET_TYPEHASH,\n            keccak256(bytes(packet.methodname)),\n            packet.from,\n            packet.to,\n            packet.wallet,\n            packet.token,\n            packet.tokens,\n            packet.relayerReward,\n            packet.expires,\n            packet.nonce\n        ));\n    }\n\n\n\n bytes32 DOMAIN_SEPARATOR;\n\n  function LavaWallet(address relayKingContractAddress ) public  {\n    relayKingContract = relayKingContractAddress;\n\n    DOMAIN_SEPARATOR = hash(EIP712Domain({\n           name: \"Lava Wallet\",\n           //contract: this,\n           verifyingContract: 0xCcCCccccCCCCcCCCCCCcCcCccCcCCCcCcccccccC //comment this out\n       }));\n  }\n\n\n  //do not allow ether to enter\n  function() public payable {\n      revert();\n  }\n\n\n   //Remember you need pre-approval for this - nice with ApproveAndCall\n  function depositTokens(address from, address token, uint256 tokens ) public returns (bool success)\n  {\n      //we already have approval so lets do a transferFrom - transfer the tokens into this contract\n\n      if(!ERC20Interface(token).transferFrom(from, this, tokens)) revert();\n\n\n      balances[token][from] = balances[token][from].add(tokens);\n  //    depositedTokens[token] = depositedTokens[token].add(tokens);\n\n      Deposit(token, from, tokens, balances[token][from]);\n\n      return true;\n  }\n\n\n  //No approve needed, only from msg.sender\n  function withdrawTokens(address token, uint256 tokens) public returns (bool success){\n    balances[token][msg.sender] = balances[token][msg.sender].sub(tokens);\n\n    if(!ERC20Interface(token).transfer(msg.sender, tokens)) revert();\n\n\n     Withdraw(token, msg.sender, tokens, balances[token][msg.sender]);\n     return true;\n  }\n\n  //Requires approval so it can be public\n  function withdrawTokensFrom( address from, address to,address token,  uint tokens) public returns (bool success) {\n      balances[token][from] = balances[token][from].sub(tokens);\n       allowed[token][from][to] = allowed[token][from][to].sub(tokens);\n\n      if(!ERC20Interface(token).transfer(to, tokens)) revert();\n\n\n      Withdraw(token, from, tokens, balances[token][from]);\n      return true;\n  }\n\n\n  function balanceOf(address token,address user) public constant returns (uint) {\n       return balances[token][user];\n   }\n\n\n\n   function allowance(address token, address tokenOwner, address spender) public constant returns (uint remaining) {\n\n       return allowed[token][tokenOwner][spender];\n\n   }\n\n\n\n\n  //Can also be used to remove approval by using a 'tokens' value of 0.  P.S. it makes no sense to do an ApproveTokensFrom\n  function approveTokens(address spender, address token, uint tokens) public returns (bool success) {\n      allowed[token][msg.sender][spender] = tokens;\n      Approval(msg.sender, token, spender, tokens);\n      return true;\n  }\n\n  ///transfer tokens within the lava balances\n  //No approve needed, only from msg.sender\n   function transferTokens(address to, address token, uint tokens) public returns (bool success) {\n        balances[token][msg.sender] = balances[token][msg.sender].sub(tokens);\n        balances[token][to] = balances[token][to].add(tokens);\n        Transfer(msg.sender, token, to, tokens);\n        return true;\n    }\n\n\n    ///transfer tokens within the lava balances\n    //Can be public because it requires approval\n   function transferTokensFrom( address from, address to,address token,  uint tokens) public returns (bool success) {\n       balances[token][from] = balances[token][from].sub(tokens);\n       allowed[token][from][to] = allowed[token][from][to].sub(tokens);\n       balances[token][to] = balances[token][to].add(tokens);\n       Transfer(token, from, to, tokens);\n       return true;\n   }\n\n\n\n\n\n   //This replaces getLavaTypedDataHash .. how to handle Methodname?\n\n   function getLavaTypedDataHash(bytes methodname, LavaPacket packet) internal constant returns (bytes32) {\n\n          packet.methodname = methodname;\n\n          // Note: we need to use `encodePacked` here instead of `encode`.\n          bytes32 digest = keccak256(abi.encodePacked(\n              \"\\x19\\x01\",\n              DOMAIN_SEPARATOR,\n              hash(packet)\n          ));\n          return digest;\n      }\n\n\n\n   //Nonce is the same thing as a 'check number'\n   //EIP 712\n/*   function getLavaTypedDataHash(bytes methodname, LavaPacket packet ) public constant returns (bytes32)\n   {\n\n\n         bytes32 hardcodedSchemaHash = 0x8fd4f9177556bbc74d0710c8bdda543afd18cc84d92d64b5620d5f1881dceb37; //with methodname\n\n\n        bytes32 typedDataHash = sha3(\n            hardcodedSchemaHash,\n            sha3(methodname,packet.from,packet.to,this,packet.token,packet.tokens,packet.relayerReward,packet.expires,packet.nonce)\n          );\n\n        return typedDataHash;\n   }*/\n\n\n\n\n\n\n\n\n   function tokenApprovalWithSignature(bool requiresKing, LavaPacket packet, bytes32 sigHash, bytes signature) internal returns (bool success)\n   {\n\n       address recoveredSignatureSigner = recover(sigHash,signature);\n\n       //make sure the signer is the depositor of the tokens\n       if(packet.from != recoveredSignatureSigner) revert();\n\n       if(msg.sender != getRelayingKing() && requiresKing ) revert();  // you must be the 'king of the hill' to relay\n\n       //make sure the signature has not expired\n       if(block.number > packet.expires) revert();\n\n       uint burnedSignature = burnedSignatures[sigHash];\n       burnedSignatures[sigHash] = 0x1; //spent\n       if(burnedSignature != 0x0 ) revert();\n\n       //approve the relayer reward\n       allowed[packet.token][packet.from][msg.sender] = packet.relayerReward;\n       Approval(packet.from, packet.token, msg.sender, packet.relayerReward);\n\n       //transferRelayerReward\n       if(!transferTokensFrom(packet.from, msg.sender, packet.token, packet.relayerReward)) revert();\n\n       //approve transfer of tokens\n       allowed[packet.token][packet.from][packet.to] = packet.tokens;\n       Approval(packet.from, packet.token, packet.to, packet.tokens);\n\n\n       return true;\n   }\n\n   function approveTokensFromAnyWithSignature(LavaPacket packet, bytes signature) public returns (bool success)\n   {\n\n\n       bytes32 sigHash = getLavaTypedDataHash('anyApprove',packet);\n\n       if(!tokenApprovalWithSignature(false,packet,sigHash,signature)) revert();\n\n\n       return true;\n   }\n\n   function approveTokensFromKingWithSignature(LavaPacket packet, bytes signature) public returns (bool success)\n   {\n\n\n       bytes32 sigHash = getLavaTypedDataHash('kingApprove',packet);\n\n       if(!tokenApprovalWithSignature(true,packet,sigHash,signature)) revert();\n\n       return true;\n   }\n\n   //the tokens remain in lava wallet\n  function transferTokensFromAnyWithSignature(LavaPacket packet, bytes signature) public returns (bool success)\n  {\n\n      //check to make sure that signature == ecrecover signature\n      bytes32 sigHash = getLavaTypedDataHash('anyTransfer',packet);\n\n      if(!tokenApprovalWithSignature(false,packet,sigHash,signature)) revert();\n\n      //it can be requested that fewer tokens be sent that were approved -- the whole approval will be invalidated though\n      if(!transferTokensFrom( packet.from, packet.to, packet.token, packet.tokens)) revert();\n\n\n      return true;\n\n  }\n\n   //The tokens are withdrawn from the lava wallet and transferred into the To account\n  function transferTokensFromKingWithSignature(LavaPacket packet, bytes signature) public returns (bool success)\n  {\n\n      //check to make sure that signature == ecrecover signature\n      bytes32 sigHash = getLavaTypedDataHash('kingTransfer',packet);\n\n      if(!tokenApprovalWithSignature(true,packet,sigHash,signature)) revert();\n\n      //it can be requested that fewer tokens be sent that were approved -- the whole approval will be invalidated though\n      if(!transferTokensFrom( packet.from, packet.to, packet.token, packet.tokens)) revert();\n\n\n      return true;\n\n  }\n\n  //the tokens remain in lava wallet\n function withdrawTokensFromAnyWithSignature(LavaPacket packet, bytes signature) public returns (bool success)\n {\n\n\n     //check to make sure that signature == ecrecover signature\n     bytes32 sigHash = getLavaTypedDataHash('anyWithdraw',packet);\n\n     if(!tokenApprovalWithSignature(false,packet,sigHash,signature)) revert();\n\n\n     //it can be requested that fewer tokens be sent that were approved -- the whole approval will be invalidated though\n     if(!withdrawTokensFrom( packet.from, packet.to, packet.token, packet.tokens)) revert();\n\n\n     return true;\n\n }\n\n  //The tokens are withdrawn from the lava wallet and transferred into the To account\n function withdrawTokensFromKingWithSignature(LavaPacket packet, bytes signature) public returns (bool success)\n {\n\n     //check to make sure that signature == ecrecover signature\n     bytes32 sigHash = getLavaTypedDataHash('kingWithdraw',packet);\n\n     if(!tokenApprovalWithSignature(true,packet,sigHash,signature)) revert();\n\n\n     //it can be requested that fewer tokens be sent that were approved -- the whole approval will be invalidated though\n     if(!withdrawTokensFrom( packet.from, packet.to, packet.token, packet.tokens)) revert();\n\n\n     return true;\n\n }\n\n\n\n\n\n     function burnSignature(bytes methodname, LavaPacket packet,  bytes signature) public returns (bool success)\n     {\n\n\n        bytes32 sigHash = getLavaTypedDataHash(methodname,packet);\n\n         address recoveredSignatureSigner = recover(sigHash,signature);\n\n         //make sure the invalidator is the signer\n         if(recoveredSignatureSigner != packet.from) revert();\n\n         //only the original packet owner can burn signature, not a relay\n         if(packet.from != msg.sender) revert();\n\n         //make sure this signature has never been used\n         uint burnedSignature = burnedSignatures[sigHash];\n         burnedSignatures[sigHash] = 0x2; //invalidated\n         if(burnedSignature != 0x0 ) revert();\n\n         return true;\n     }\n\n\n     function signatureBurnStatus(bytes32 digest) public view returns (uint)\n     {\n       return (burnedSignatures[digest]);\n     }\n\n\n\n\n       /*\n         Receive approval to spend tokens and perform any action all in one transaction\n       */\n     function receiveApproval(address from, uint256 tokens, address token, bytes data) public returns (bool success) {\n\n\n       return depositTokens(from, token, tokens );\n\n     }\n\n     /*\n      Approve lava tokens for a smart contract and call the contracts receiveApproval method all in one fell swoop\n\n      One issue: the data is not being signed and so it could be manipulated\n      */\n     function approveAndCall(bytes methodname, LavaPacket packet, bytes signature ) public returns (bool success)   {\n\n      // address from, address to, address token, uint256 tokens, uint256 relayerReward,  uint256 expires, uint256 nonce\n\n        bytes32 sigHash = getLavaTypedDataHash(methodname,packet);\n\n          bool requiresKing = getRequiresKing(methodname);\n\n\n        if(!tokenApprovalWithSignature(true,packet,sigHash,signature)) revert();\n\n        ApproveAndCallFallBack(packet.to).receiveApproval(packet.from, packet.tokens, packet.token, methodname);\n\n        return true;\n     }\n\n     function getRelayingKing() public returns (address)\n     {\n       return MiningKingInterface(relayKingContract).getMiningKing();\n     }\n\n\n\n     function getRequiresKing(bytes methodname) pure internal returns (bool)\n    {\n      return (bytesEqual(methodname,'kingTransfer') || bytesEqual(methodname,'kingWithdraw') || bytesEqual(methodname,'kingApprove'));\n    }\n\n    function bytesEqual(bytes b1,bytes b2) pure internal returns (bool)\n    {\n      if(b1.length != b2.length) return false;\n\n      for (uint i=0; i<b1.length; i++) {\n        if(b1[i] != b2[i]) return false;\n      }\n\n      return true;\n    }\n\n\n\n\n}\n",
  "sourcePath": "/home/andy/dev/lava-wallet/contracts/LavaWallet.sol",
  "compiler": {
    "name": "solc",
    "version": "0.4.24+commit.e67f0147.Emscripten.clang"
  },
  "schemaVersion": "2.0.1",
  "updatedAt": "2018-10-12T22:08:01.502Z"
}