{
  "contractName": "LavaWallet",
  "abi": [
    {
      "constant": true,
      "inputs": [
        {
          "name": "",
          "type": "address"
        },
        {
          "name": "",
          "type": "bytes32"
        }
      ],
      "name": "signatureApprovalDrained",
      "outputs": [
        {
          "name": "",
          "type": "uint256"
        }
      ],
      "payable": false,
      "stateMutability": "view",
      "type": "function"
    },
    {
      "inputs": [],
      "payable": false,
      "stateMutability": "nonpayable",
      "type": "constructor"
    },
    {
      "payable": true,
      "stateMutability": "payable",
      "type": "fallback"
    },
    {
      "anonymous": false,
      "inputs": [
        {
          "indexed": false,
          "name": "token",
          "type": "address"
        },
        {
          "indexed": false,
          "name": "user",
          "type": "address"
        },
        {
          "indexed": false,
          "name": "amount",
          "type": "uint256"
        },
        {
          "indexed": false,
          "name": "balance",
          "type": "uint256"
        }
      ],
      "name": "Deposit",
      "type": "event"
    },
    {
      "anonymous": false,
      "inputs": [
        {
          "indexed": false,
          "name": "token",
          "type": "address"
        },
        {
          "indexed": false,
          "name": "user",
          "type": "address"
        },
        {
          "indexed": false,
          "name": "amount",
          "type": "uint256"
        },
        {
          "indexed": false,
          "name": "balance",
          "type": "uint256"
        }
      ],
      "name": "Withdraw",
      "type": "event"
    },
    {
      "anonymous": false,
      "inputs": [
        {
          "indexed": true,
          "name": "from",
          "type": "address"
        },
        {
          "indexed": true,
          "name": "to",
          "type": "address"
        },
        {
          "indexed": false,
          "name": "token",
          "type": "address"
        },
        {
          "indexed": false,
          "name": "tokens",
          "type": "uint256"
        }
      ],
      "name": "Transfer",
      "type": "event"
    },
    {
      "anonymous": false,
      "inputs": [
        {
          "indexed": true,
          "name": "tokenOwner",
          "type": "address"
        },
        {
          "indexed": true,
          "name": "spender",
          "type": "address"
        },
        {
          "indexed": false,
          "name": "token",
          "type": "address"
        },
        {
          "indexed": false,
          "name": "tokens",
          "type": "uint256"
        }
      ],
      "name": "Approval",
      "type": "event"
    },
    {
      "constant": false,
      "inputs": [
        {
          "name": "wrappingContract",
          "type": "address"
        },
        {
          "name": "preApprove",
          "type": "address"
        }
      ],
      "name": "depositAndWrap",
      "outputs": [],
      "payable": true,
      "stateMutability": "payable",
      "type": "function"
    },
    {
      "constant": false,
      "inputs": [
        {
          "name": "token",
          "type": "address"
        },
        {
          "name": "tokens",
          "type": "uint256"
        }
      ],
      "name": "unwrapAndWithdraw",
      "outputs": [],
      "payable": false,
      "stateMutability": "nonpayable",
      "type": "function"
    },
    {
      "constant": false,
      "inputs": [
        {
          "name": "from",
          "type": "address"
        },
        {
          "name": "token",
          "type": "address"
        },
        {
          "name": "tokens",
          "type": "uint256"
        },
        {
          "name": "preApprove",
          "type": "address"
        }
      ],
      "name": "depositTokens",
      "outputs": [
        {
          "name": "",
          "type": "bool"
        }
      ],
      "payable": false,
      "stateMutability": "nonpayable",
      "type": "function"
    },
    {
      "constant": false,
      "inputs": [
        {
          "name": "token",
          "type": "address"
        },
        {
          "name": "tokens",
          "type": "uint256"
        }
      ],
      "name": "withdrawTokens",
      "outputs": [],
      "payable": false,
      "stateMutability": "nonpayable",
      "type": "function"
    },
    {
      "constant": true,
      "inputs": [
        {
          "name": "token",
          "type": "address"
        },
        {
          "name": "user",
          "type": "address"
        }
      ],
      "name": "balanceOf",
      "outputs": [
        {
          "name": "",
          "type": "uint256"
        }
      ],
      "payable": false,
      "stateMutability": "view",
      "type": "function"
    },
    {
      "constant": false,
      "inputs": [
        {
          "name": "to",
          "type": "address"
        },
        {
          "name": "token",
          "type": "address"
        },
        {
          "name": "tokens",
          "type": "uint256"
        }
      ],
      "name": "transferTokens",
      "outputs": [
        {
          "name": "success",
          "type": "bool"
        }
      ],
      "payable": false,
      "stateMutability": "nonpayable",
      "type": "function"
    },
    {
      "constant": false,
      "inputs": [
        {
          "name": "spender",
          "type": "address"
        },
        {
          "name": "token",
          "type": "address"
        },
        {
          "name": "tokens",
          "type": "uint256"
        }
      ],
      "name": "approveTokens",
      "outputs": [
        {
          "name": "success",
          "type": "bool"
        }
      ],
      "payable": false,
      "stateMutability": "nonpayable",
      "type": "function"
    },
    {
      "constant": false,
      "inputs": [
        {
          "name": "spender",
          "type": "address"
        },
        {
          "name": "token",
          "type": "address"
        },
        {
          "name": "tokens",
          "type": "uint256"
        }
      ],
      "name": "approveMoreTokens",
      "outputs": [
        {
          "name": "success",
          "type": "bool"
        }
      ],
      "payable": false,
      "stateMutability": "nonpayable",
      "type": "function"
    },
    {
      "constant": false,
      "inputs": [
        {
          "name": "from",
          "type": "address"
        },
        {
          "name": "to",
          "type": "address"
        },
        {
          "name": "token",
          "type": "address"
        },
        {
          "name": "tokens",
          "type": "uint256"
        }
      ],
      "name": "transferTokensFrom",
      "outputs": [
        {
          "name": "success",
          "type": "bool"
        }
      ],
      "payable": false,
      "stateMutability": "nonpayable",
      "type": "function"
    },
    {
      "constant": false,
      "inputs": [
        {
          "name": "from",
          "type": "address"
        },
        {
          "name": "to",
          "type": "address"
        },
        {
          "name": "tokens",
          "type": "uint256"
        },
        {
          "name": "token",
          "type": "address"
        },
        {
          "name": "expires",
          "type": "uint256"
        },
        {
          "name": "nonce",
          "type": "uint256"
        },
        {
          "name": "signature",
          "type": "bytes"
        }
      ],
      "name": "approveTokensWithSignature",
      "outputs": [
        {
          "name": "",
          "type": "bool"
        }
      ],
      "payable": false,
      "stateMutability": "nonpayable",
      "type": "function"
    },
    {
      "constant": false,
      "inputs": [
        {
          "name": "from",
          "type": "address"
        },
        {
          "name": "to",
          "type": "address"
        },
        {
          "name": "tokensApproved",
          "type": "uint256"
        },
        {
          "name": "tokens",
          "type": "uint256"
        },
        {
          "name": "token",
          "type": "address"
        },
        {
          "name": "expires",
          "type": "uint256"
        },
        {
          "name": "nonce",
          "type": "uint256"
        },
        {
          "name": "signature",
          "type": "bytes"
        }
      ],
      "name": "transferTokensFromWithSignature",
      "outputs": [
        {
          "name": "",
          "type": "bool"
        }
      ],
      "payable": false,
      "stateMutability": "nonpayable",
      "type": "function"
    },
    {
      "constant": true,
      "inputs": [
        {
          "name": "token",
          "type": "address"
        },
        {
          "name": "tokenOwner",
          "type": "address"
        },
        {
          "name": "spender",
          "type": "address"
        }
      ],
      "name": "tokenAllowance",
      "outputs": [
        {
          "name": "remaining",
          "type": "uint256"
        }
      ],
      "payable": false,
      "stateMutability": "view",
      "type": "function"
    },
    {
      "constant": false,
      "inputs": [
        {
          "name": "from",
          "type": "address"
        },
        {
          "name": "to",
          "type": "address"
        },
        {
          "name": "tokens",
          "type": "uint256"
        },
        {
          "name": "token",
          "type": "address"
        },
        {
          "name": "expires",
          "type": "uint256"
        },
        {
          "name": "nonce",
          "type": "uint256"
        },
        {
          "name": "signature",
          "type": "bytes"
        }
      ],
      "name": "burnSignature",
      "outputs": [
        {
          "name": "",
          "type": "bool"
        }
      ],
      "payable": false,
      "stateMutability": "nonpayable",
      "type": "function"
    },
    {
      "constant": true,
      "inputs": [
        {
          "name": "digest",
          "type": "bytes32"
        }
      ],
      "name": "signatureBurned",
      "outputs": [
        {
          "name": "",
          "type": "bool"
        }
      ],
      "payable": false,
      "stateMutability": "view",
      "type": "function"
    },
    {
      "constant": false,
      "inputs": [
        {
          "name": "from",
          "type": "address"
        },
        {
          "name": "tokens",
          "type": "uint256"
        },
        {
          "name": "token",
          "type": "address"
        },
        {
          "name": "data",
          "type": "bytes"
        }
      ],
      "name": "receiveApproval",
      "outputs": [
        {
          "name": "",
          "type": "bool"
        }
      ],
      "payable": false,
      "stateMutability": "nonpayable",
      "type": "function"
    },
    {
      "constant": true,
      "inputs": [
        {
          "name": "_address",
          "type": "bytes"
        }
      ],
      "name": "bytesToAddress",
      "outputs": [
        {
          "name": "",
          "type": "address"
        }
      ],
      "payable": false,
      "stateMutability": "pure",
      "type": "function"
    }
  ],
  "bytecode": "0x6060604052341561000f57600080fd5b612c888061001e6000396000f3006060604052600436106100f1576000357c0100000000000000000000000000000000000000000000000000000000900463ffffffff16806306b091f9146100f65780632486c7291461013857806342526e4e1461017a5780634b17bdd8146102175780636e8a64ea146102af578063884ddf91146103285780638e8758d8146104155780638f4ffcb1146104a0578063912d6e281461055c578063a64b6e5f146105d5578063b1d1ec191461064e578063bf41a235146106e6578063c9d23cad14610740578063df8f373e1461082d578063ee8528441461086c578063f7888aec14610962578063ffbc52de146109ce575b600080fd5b341561010157600080fd5b610136600480803573ffffffffffffffffffffffffffffffffffffffff16906020019091908035906020019091905050610a1b565b005b341561014357600080fd5b610178600480803573ffffffffffffffffffffffffffffffffffffffff16906020019091908035906020019091905050610d9d565b005b341561018557600080fd5b6101d5600480803590602001908201803590602001908080601f01602080910402602001604051908101604052809392919081815260200183838082843782019150505050505091905050610fb4565b604051808273ffffffffffffffffffffffffffffffffffffffff1673ffffffffffffffffffffffffffffffffffffffff16815260200191505060405180910390f35b341561022257600080fd5b610295600480803573ffffffffffffffffffffffffffffffffffffffff1690602001909190803573ffffffffffffffffffffffffffffffffffffffff1690602001909190803573ffffffffffffffffffffffffffffffffffffffff16906020019091908035906020019091905050611078565b604051808215151515815260200191505060405180910390f35b34156102ba57600080fd5b61030e600480803573ffffffffffffffffffffffffffffffffffffffff1690602001909190803573ffffffffffffffffffffffffffffffffffffffff169060200190919080359060200190919050506114c2565b604051808215151515815260200191505060405180910390f35b341561033357600080fd5b6103fb600480803573ffffffffffffffffffffffffffffffffffffffff1690602001909190803573ffffffffffffffffffffffffffffffffffffffff1690602001909190803590602001909190803573ffffffffffffffffffffffffffffffffffffffff1690602001909190803590602001909190803590602001909190803590602001908201803590602001908080601f016020809104026020016040519081016040528093929190818152602001838380828437820191505050505050919050506117aa565b604051808215151515815260200191505060405180910390f35b341561042057600080fd5b61048a600480803573ffffffffffffffffffffffffffffffffffffffff1690602001909190803573ffffffffffffffffffffffffffffffffffffffff1690602001909190803573ffffffffffffffffffffffffffffffffffffffff16906020019091905050611aab565b6040518082815260200191505060405180910390f35b34156104ab57600080fd5b610542600480803573ffffffffffffffffffffffffffffffffffffffff1690602001909190803590602001909190803573ffffffffffffffffffffffffffffffffffffffff1690602001909190803590602001908201803590602001908080601f01602080910402602001604051908101604052809392919081815260200183838082843782019150505050505091905050611b70565b604051808215151515815260200191505060405180910390f35b341561056757600080fd5b6105bb600480803573ffffffffffffffffffffffffffffffffffffffff1690602001909190803573ffffffffffffffffffffffffffffffffffffffff16906020019091908035906020019091905050611ba4565b604051808215151515815260200191505060405180910390f35b34156105e057600080fd5b610634600480803573ffffffffffffffffffffffffffffffffffffffff1690602001909190803573ffffffffffffffffffffffffffffffffffffffff16906020019091908035906020019091905050611d08565b604051808215151515815260200191505060405180910390f35b341561065957600080fd5b6106cc600480803573ffffffffffffffffffffffffffffffffffffffff1690602001909190803573ffffffffffffffffffffffffffffffffffffffff1690602001909190803590602001909190803573ffffffffffffffffffffffffffffffffffffffff16906020019091905050611fc8565b604051808215151515815260200191505060405180910390f35b34156106f157600080fd5b61072a600480803573ffffffffffffffffffffffffffffffffffffffff169060200190919080356000191690602001909190505061232d565b6040518082815260200191505060405180910390f35b341561074b57600080fd5b610813600480803573ffffffffffffffffffffffffffffffffffffffff1690602001909190803573ffffffffffffffffffffffffffffffffffffffff1690602001909190803590602001909190803573ffffffffffffffffffffffffffffffffffffffff1690602001909190803590602001909190803590602001909190803590602001908201803590602001908080601f01602080910402602001604051908101604052809392919081815260200183838082843782019150505050505091905050612352565b604051808215151515815260200191505060405180910390f35b341561083857600080fd5b6108526004808035600019169060200190919050506127b7565b604051808215151515815260200191505060405180910390f35b341561087757600080fd5b610948600480803573ffffffffffffffffffffffffffffffffffffffff1690602001909190803573ffffffffffffffffffffffffffffffffffffffff1690602001909190803590602001909190803590602001909190803573ffffffffffffffffffffffffffffffffffffffff1690602001909190803590602001909190803590602001909190803590602001908201803590602001908080601f016020809104026020016040519081016040528093929190818152602001838380828437820191505050505050919050506127df565b604051808215151515815260200191505060405180910390f35b341561096d57600080fd5b6109b8600480803573ffffffffffffffffffffffffffffffffffffffff1690602001909190803573ffffffffffffffffffffffffffffffffffffffff16906020019091905050612815565b6040518082815260200191505060405180910390f35b610a19600480803573ffffffffffffffffffffffffffffffffffffffff1690602001909190803573ffffffffffffffffffffffffffffffffffffffff1690602001909190505061289b565b005b806000808473ffffffffffffffffffffffffffffffffffffffff1673ffffffffffffffffffffffffffffffffffffffff16815260200190815260200160002060003373ffffffffffffffffffffffffffffffffffffffff1673ffffffffffffffffffffffffffffffffffffffff168152602001908152602001600020541015610aa357600080fd5b610b31816000808573ffffffffffffffffffffffffffffffffffffffff1673ffffffffffffffffffffffffffffffffffffffff16815260200190815260200160002060003373ffffffffffffffffffffffffffffffffffffffff1673ffffffffffffffffffffffffffffffffffffffff16815260200190815260200160002054612c2590919063ffffffff16565b6000808473ffffffffffffffffffffffffffffffffffffffff1673ffffffffffffffffffffffffffffffffffffffff16815260200190815260200160002060003373ffffffffffffffffffffffffffffffffffffffff1673ffffffffffffffffffffffffffffffffffffffff168152602001908152602001600020819055508173ffffffffffffffffffffffffffffffffffffffff1663a9059cbb33836000604051602001526040518363ffffffff167c0100000000000000000000000000000000000000000000000000000000028152600401808373ffffffffffffffffffffffffffffffffffffffff1673ffffffffffffffffffffffffffffffffffffffff16815260200182815260200192505050602060405180830381600087803b1515610c5b57600080fd5b6102c65a03f11515610c6c57600080fd5b50505060405180519050507ff341246adaac6f497bc2a656f546ab9e182111d630394f0c57c710a59a2cb5678233836000808773ffffffffffffffffffffffffffffffffffffffff1673ffffffffffffffffffffffffffffffffffffffff16815260200190815260200160002060003373ffffffffffffffffffffffffffffffffffffffff1673ffffffffffffffffffffffffffffffffffffffff16815260200190815260200160002054604051808573ffffffffffffffffffffffffffffffffffffffff1673ffffffffffffffffffffffffffffffffffffffff1681526020018473ffffffffffffffffffffffffffffffffffffffff1673ffffffffffffffffffffffffffffffffffffffff16815260200183815260200182815260200194505050505060405180910390a15050565b610da8828383611d08565b508173ffffffffffffffffffffffffffffffffffffffff16632e1a7d4d826040518263ffffffff167c010000000000000000000000000000000000000000000000000000000002815260040180828152602001915050600060405180830381600087803b1515610e1757600080fd5b6102c65a03f11515610e2857600080fd5b5050503373ffffffffffffffffffffffffffffffffffffffff166108fc829081150290604051600060405180830381858888f193505050501515610e6b57600080fd5b60003073ffffffffffffffffffffffffffffffffffffffff1631141515610e8e57fe5b7ff341246adaac6f497bc2a656f546ab9e182111d630394f0c57c710a59a2cb5678233836000808773ffffffffffffffffffffffffffffffffffffffff1673ffffffffffffffffffffffffffffffffffffffff16815260200190815260200160002060003373ffffffffffffffffffffffffffffffffffffffff1673ffffffffffffffffffffffffffffffffffffffff16815260200190815260200160002054604051808573ffffffffffffffffffffffffffffffffffffffff1673ffffffffffffffffffffffffffffffffffffffff1681526020018473ffffffffffffffffffffffffffffffffffffffff1673ffffffffffffffffffffffffffffffffffffffff16815260200183815260200182815260200194505050505060405180910390a15050565b6000806000806000925060009150600090505b60148160ff16101561106d5761010083029250848160ff16815181101515610feb57fe5b9060200101517f010000000000000000000000000000000000000000000000000000000000000090047f0100000000000000000000000000000000000000000000000000000000000000027f01000000000000000000000000000000000000000000000000000000000000009004915081830192508080600101915050610fc7565b829350505050919050565b6000611108826000808673ffffffffffffffffffffffffffffffffffffffff1673ffffffffffffffffffffffffffffffffffffffff16815260200190815260200160002060008873ffffffffffffffffffffffffffffffffffffffff1673ffffffffffffffffffffffffffffffffffffffff16815260200190815260200160002054612c2590919063ffffffff16565b6000808573ffffffffffffffffffffffffffffffffffffffff1673ffffffffffffffffffffffffffffffffffffffff16815260200190815260200160002060008773ffffffffffffffffffffffffffffffffffffffff1673ffffffffffffffffffffffffffffffffffffffff1681526020019081526020016000208190555061125382600160008673ffffffffffffffffffffffffffffffffffffffff1673ffffffffffffffffffffffffffffffffffffffff16815260200190815260200160002060008873ffffffffffffffffffffffffffffffffffffffff1673ffffffffffffffffffffffffffffffffffffffff16815260200190815260200160002060003373ffffffffffffffffffffffffffffffffffffffff1673ffffffffffffffffffffffffffffffffffffffff16815260200190815260200160002054612c2590919063ffffffff16565b600160008573ffffffffffffffffffffffffffffffffffffffff1673ffffffffffffffffffffffffffffffffffffffff16815260200190815260200160002060008773ffffffffffffffffffffffffffffffffffffffff1673ffffffffffffffffffffffffffffffffffffffff16815260200190815260200160002060003373ffffffffffffffffffffffffffffffffffffffff1673ffffffffffffffffffffffffffffffffffffffff1681526020019081526020016000208190555061139e826000808673ffffffffffffffffffffffffffffffffffffffff1673ffffffffffffffffffffffffffffffffffffffff16815260200190815260200160002060008773ffffffffffffffffffffffffffffffffffffffff1673ffffffffffffffffffffffffffffffffffffffff16815260200190815260200160002054612c3e90919063ffffffff16565b6000808573ffffffffffffffffffffffffffffffffffffffff1673ffffffffffffffffffffffffffffffffffffffff16815260200190815260200160002060008673ffffffffffffffffffffffffffffffffffffffff1673ffffffffffffffffffffffffffffffffffffffff168152602001908152602001600020819055508473ffffffffffffffffffffffffffffffffffffffff168373ffffffffffffffffffffffffffffffffffffffff167fd1398bee19313d6bf672ccb116e51f4a1a947e91c757907f51fbb5b5e56c698f8685604051808373ffffffffffffffffffffffffffffffffffffffff1673ffffffffffffffffffffffffffffffffffffffff1681526020018281526020019250505060405180910390a360019050949350505050565b600061159082600160008673ffffffffffffffffffffffffffffffffffffffff1673ffffffffffffffffffffffffffffffffffffffff16815260200190815260200160002060003373ffffffffffffffffffffffffffffffffffffffff1673ffffffffffffffffffffffffffffffffffffffff16815260200190815260200160002060008773ffffffffffffffffffffffffffffffffffffffff1673ffffffffffffffffffffffffffffffffffffffff16815260200190815260200160002054612c3e90919063ffffffff16565b600160008573ffffffffffffffffffffffffffffffffffffffff1673ffffffffffffffffffffffffffffffffffffffff16815260200190815260200160002060003373ffffffffffffffffffffffffffffffffffffffff1673ffffffffffffffffffffffffffffffffffffffff16815260200190815260200160002060008673ffffffffffffffffffffffffffffffffffffffff1673ffffffffffffffffffffffffffffffffffffffff168152602001908152602001600020819055508273ffffffffffffffffffffffffffffffffffffffff163373ffffffffffffffffffffffffffffffffffffffff167fa0175360a15bca328baf7ea85c7b784d58b222a50d0ce760b10dba336d226a6186600160008873ffffffffffffffffffffffffffffffffffffffff1673ffffffffffffffffffffffffffffffffffffffff16815260200190815260200160002060003373ffffffffffffffffffffffffffffffffffffffff1673ffffffffffffffffffffffffffffffffffffffff16815260200190815260200160002060008973ffffffffffffffffffffffffffffffffffffffff1673ffffffffffffffffffffffffffffffffffffffff16815260200190815260200160002054604051808373ffffffffffffffffffffffffffffffffffffffff1673ffffffffffffffffffffffffffffffffffffffff1681526020018281526020019250505060405180910390a3600190509392505050565b600080600080308b8b8a8c8b8b60405180807f19457468657265756d205369676e6564204d6573736167653a0a333200000000815250601c018873ffffffffffffffffffffffffffffffffffffffff1673ffffffffffffffffffffffffffffffffffffffff166c010000000000000000000000000281526014018773ffffffffffffffffffffffffffffffffffffffff1673ffffffffffffffffffffffffffffffffffffffff166c010000000000000000000000000281526014018673ffffffffffffffffffffffffffffffffffffffff1673ffffffffffffffffffffffffffffffffffffffff166c010000000000000000000000000281526014018573ffffffffffffffffffffffffffffffffffffffff1673ffffffffffffffffffffffffffffffffffffffff166c010000000000000000000000000281526014018481526020018381526020018281526020019750505050505050506040518091039020925073__ECRecovery____________________________6319045a2584876000604051602001526040518363ffffffff167c010000000000000000000000000000000000000000000000000000000002815260040180836000191660001916815260200180602001828103825283818151815260200191508051906020019080838360005b838110156119aa57808201518184015260208101905061198f565b50505050905090810190601f1680156119d75780820380516001836020036101000a031916815260200191505b50935050505060206040518083038186803b15156119f457600080fd5b6102c65a03f41515611a0557600080fd5b5050506040518051905091508a73ffffffffffffffffffffffffffffffffffffffff168273ffffffffffffffffffffffffffffffffffffffff16141515611a4b57600080fd5b600360008460001916600019168152602001908152602001600020549050600260036000856000191660001916815260200190815260200160002081905550600081141515611a9957600080fd5b60019350505050979650505050505050565b6000600160008573ffffffffffffffffffffffffffffffffffffffff1673ffffffffffffffffffffffffffffffffffffffff16815260200190815260200160002060008473ffffffffffffffffffffffffffffffffffffffff1673ffffffffffffffffffffffffffffffffffffffff16815260200190815260200160002060008373ffffffffffffffffffffffffffffffffffffffff1673ffffffffffffffffffffffffffffffffffffffff1681526020019081526020016000205490509392505050565b60008060009050601483511415611b8d57611b8a83610fb4565b90505b611b9986858784611fc8565b915050949350505050565b600081600160008573ffffffffffffffffffffffffffffffffffffffff1673ffffffffffffffffffffffffffffffffffffffff16815260200190815260200160002060003373ffffffffffffffffffffffffffffffffffffffff1673ffffffffffffffffffffffffffffffffffffffff16815260200190815260200160002060008673ffffffffffffffffffffffffffffffffffffffff1673ffffffffffffffffffffffffffffffffffffffff168152602001908152602001600020819055508273ffffffffffffffffffffffffffffffffffffffff163373ffffffffffffffffffffffffffffffffffffffff167fa0175360a15bca328baf7ea85c7b784d58b222a50d0ce760b10dba336d226a618685604051808373ffffffffffffffffffffffffffffffffffffffff1673ffffffffffffffffffffffffffffffffffffffff1681526020018281526020019250505060405180910390a3600190509392505050565b6000611d98826000808673ffffffffffffffffffffffffffffffffffffffff1673ffffffffffffffffffffffffffffffffffffffff16815260200190815260200160002060003373ffffffffffffffffffffffffffffffffffffffff1673ffffffffffffffffffffffffffffffffffffffff16815260200190815260200160002054612c2590919063ffffffff16565b6000808573ffffffffffffffffffffffffffffffffffffffff1673ffffffffffffffffffffffffffffffffffffffff16815260200190815260200160002060003373ffffffffffffffffffffffffffffffffffffffff1673ffffffffffffffffffffffffffffffffffffffff16815260200190815260200160002081905550611ea5826000808673ffffffffffffffffffffffffffffffffffffffff1673ffffffffffffffffffffffffffffffffffffffff16815260200190815260200160002060008773ffffffffffffffffffffffffffffffffffffffff1673ffffffffffffffffffffffffffffffffffffffff16815260200190815260200160002054612c3e90919063ffffffff16565b6000808573ffffffffffffffffffffffffffffffffffffffff1673ffffffffffffffffffffffffffffffffffffffff16815260200190815260200160002060008673ffffffffffffffffffffffffffffffffffffffff1673ffffffffffffffffffffffffffffffffffffffff168152602001908152602001600020819055508273ffffffffffffffffffffffffffffffffffffffff163373ffffffffffffffffffffffffffffffffffffffff167fd1398bee19313d6bf672ccb116e51f4a1a947e91c757907f51fbb5b5e56c698f8685604051808373ffffffffffffffffffffffffffffffffffffffff1673ffffffffffffffffffffffffffffffffffffffff1681526020018281526020019250505060405180910390a3600190509392505050565b60008373ffffffffffffffffffffffffffffffffffffffff166323b872dd8630866000604051602001526040518463ffffffff167c0100000000000000000000000000000000000000000000000000000000028152600401808473ffffffffffffffffffffffffffffffffffffffff1673ffffffffffffffffffffffffffffffffffffffff1681526020018373ffffffffffffffffffffffffffffffffffffffff1673ffffffffffffffffffffffffffffffffffffffff1681526020018281526020019350505050602060405180830381600087803b15156120a957600080fd5b6102c65a03f115156120ba57600080fd5b5050506040518051905050612153836000808773ffffffffffffffffffffffffffffffffffffffff1673ffffffffffffffffffffffffffffffffffffffff16815260200190815260200160002060008873ffffffffffffffffffffffffffffffffffffffff1673ffffffffffffffffffffffffffffffffffffffff16815260200190815260200160002054612c3e90919063ffffffff16565b6000808673ffffffffffffffffffffffffffffffffffffffff1673ffffffffffffffffffffffffffffffffffffffff16815260200190815260200160002060008773ffffffffffffffffffffffffffffffffffffffff1673ffffffffffffffffffffffffffffffffffffffff1681526020019081526020016000208190555060008273ffffffffffffffffffffffffffffffffffffffff161415156121ff576121fd8285856114c2565b505b7fdcbc1c05240f31ff3ad067ef1ee35ce4997762752e3a095284754544f4c709d78486856000808973ffffffffffffffffffffffffffffffffffffffff1673ffffffffffffffffffffffffffffffffffffffff16815260200190815260200160002060008a73ffffffffffffffffffffffffffffffffffffffff1673ffffffffffffffffffffffffffffffffffffffff16815260200190815260200160002054604051808573ffffffffffffffffffffffffffffffffffffffff1673ffffffffffffffffffffffffffffffffffffffff1681526020018473ffffffffffffffffffffffffffffffffffffffff1673ffffffffffffffffffffffffffffffffffffffff16815260200183815260200182815260200194505050505060405180910390a160019050949350505050565b6002602052816000526040600020602052806000526040600020600091509150505481565b600080600080308b8b8a8c8b8b60405180807f19457468657265756d205369676e6564204d6573736167653a0a333200000000815250601c018873ffffffffffffffffffffffffffffffffffffffff1673ffffffffffffffffffffffffffffffffffffffff166c010000000000000000000000000281526014018773ffffffffffffffffffffffffffffffffffffffff1673ffffffffffffffffffffffffffffffffffffffff166c010000000000000000000000000281526014018673ffffffffffffffffffffffffffffffffffffffff1673ffffffffffffffffffffffffffffffffffffffff166c010000000000000000000000000281526014018573ffffffffffffffffffffffffffffffffffffffff1673ffffffffffffffffffffffffffffffffffffffff166c010000000000000000000000000281526014018481526020018381526020018281526020019750505050505050506040518091039020925073__ECRecovery____________________________6319045a2584876000604051602001526040518363ffffffff167c010000000000000000000000000000000000000000000000000000000002815260040180836000191660001916815260200180602001828103825283818151815260200191508051906020019080838360005b83811015612552578082015181840152602081019050612537565b50505050905090810190601f16801561257f5780820380516001836020036101000a031916815260200191505b50935050505060206040518083038186803b151561259c57600080fd5b6102c65a03f415156125ad57600080fd5b5050506040518051905091508173ffffffffffffffffffffffffffffffffffffffff168b73ffffffffffffffffffffffffffffffffffffffff161415156125f357600080fd5b8643111561260057600080fd5b60036000846000191660001916815260200190815260200160002054905060016003600085600019166000191681526020019081526020016000208190555060008114151561264e57600080fd5b88600160008a73ffffffffffffffffffffffffffffffffffffffff1673ffffffffffffffffffffffffffffffffffffffff16815260200190815260200160002060008d73ffffffffffffffffffffffffffffffffffffffff1673ffffffffffffffffffffffffffffffffffffffff16815260200190815260200160002060008c73ffffffffffffffffffffffffffffffffffffffff1673ffffffffffffffffffffffffffffffffffffffff168152602001908152602001600020819055508773ffffffffffffffffffffffffffffffffffffffff168b73ffffffffffffffffffffffffffffffffffffffff167fa0175360a15bca328baf7ea85c7b784d58b222a50d0ce760b10dba336d226a618c8c604051808373ffffffffffffffffffffffffffffffffffffffff1673ffffffffffffffffffffffffffffffffffffffff1681526020018281526020019250505060405180910390a360019350505050979650505050505050565b6000806003600084600019166000191681526020019081526020016000205414159050919050565b60006127f089898988888888612352565b15156127fb57600080fd5b61280789898789611078565b905098975050505050505050565b60008060008473ffffffffffffffffffffffffffffffffffffffff1673ffffffffffffffffffffffffffffffffffffffff16815260200190815260200160002060008373ffffffffffffffffffffffffffffffffffffffff1673ffffffffffffffffffffffffffffffffffffffff16815260200190815260200160002054905092915050565b8173ffffffffffffffffffffffffffffffffffffffff166108fc349081150290604051600060405180830381858888f1935050505015156128db57600080fd5b8173ffffffffffffffffffffffffffffffffffffffff1663a9059cbb30346000604051602001526040518363ffffffff167c0100000000000000000000000000000000000000000000000000000000028152600401808373ffffffffffffffffffffffffffffffffffffffff1673ffffffffffffffffffffffffffffffffffffffff16815260200182815260200192505050602060405180830381600087803b151561298657600080fd5b6102c65a03f1151561299757600080fd5b5050506040518051905050612a30346000808573ffffffffffffffffffffffffffffffffffffffff1673ffffffffffffffffffffffffffffffffffffffff16815260200190815260200160002060003373ffffffffffffffffffffffffffffffffffffffff1673ffffffffffffffffffffffffffffffffffffffff16815260200190815260200160002054612c3e90919063ffffffff16565b6000808473ffffffffffffffffffffffffffffffffffffffff1673ffffffffffffffffffffffffffffffffffffffff16815260200190815260200160002060003373ffffffffffffffffffffffffffffffffffffffff1673ffffffffffffffffffffffffffffffffffffffff1681526020019081526020016000208190555060003073ffffffffffffffffffffffffffffffffffffffff1631141515612ad257fe5b60008173ffffffffffffffffffffffffffffffffffffffff16141515612aff57612afd8183346114c2565b505b7fdcbc1c05240f31ff3ad067ef1ee35ce4997762752e3a095284754544f4c709d78233346000808773ffffffffffffffffffffffffffffffffffffffff1673ffffffffffffffffffffffffffffffffffffffff16815260200190815260200160002060003373ffffffffffffffffffffffffffffffffffffffff1673ffffffffffffffffffffffffffffffffffffffff16815260200190815260200160002054604051808573ffffffffffffffffffffffffffffffffffffffff1673ffffffffffffffffffffffffffffffffffffffff1681526020018473ffffffffffffffffffffffffffffffffffffffff1673ffffffffffffffffffffffffffffffffffffffff16815260200183815260200182815260200194505050505060405180910390a15050565b6000828211151515612c3357fe5b818303905092915050565b6000808284019050838110151515612c5257fe5b80915050929150505600a165627a7a72305820f45ee19cb3c4f68df1b9bd36145c946b18184d0e63d3c56dd6f7fa5d43fc40750029",
  "source": "pragma solidity ^0.4.18;\n\nimport \"./ECRecovery.sol\";\nimport \"./SafeMath.sol\";\n\n\n/*\n\nThis is a token wallet contract\n\nStore your tokens in this contract to give them super powers\n\nTokens can be spent from the contract with only an ecSignature from the owner - onchain approve is not needed\n\n\n*/\n\ncontract ERC20Interface {\n    function totalSupply() public constant returns (uint);\n    function balanceOf(address tokenOwner) public constant returns (uint balance);\n    function allowance(address tokenOwner, address spender) public constant returns (uint remaining);\n    function transfer(address to, uint tokens) public returns (bool success);\n    function approve(address spender, uint tokens) public returns (bool success);\n    function transferFrom(address from, address to, uint tokens) public returns (bool success);\n\n    event Transfer(address indexed from, address indexed to, uint tokens);\n    event Approval(address indexed tokenOwner, address indexed spender, uint tokens);\n}\n\n\n//wEth interface\ncontract WrapperInterface\n{\n  function() public payable;\n  function deposit() public payable ;\n  function withdraw(uint wad) public;\n  function totalSupply() public view returns (uint);\n  function approve(address guy, uint wad) public returns (bool);\n  function transfer(address dst, uint wad) public returns (bool);\n  function transferFrom(address src, address dst, uint wad);\n\n\n  event  Approval(address indexed src, address indexed guy, uint wad);\n  event  Transfer(address indexed src, address indexed dst, uint wad);\n  event  Deposit(address indexed dst, uint wad);\n  event  Withdrawal(address indexed src, uint wad);\n\n}\n\n\n\n\n\ncontract LavaWallet {\n\n\n  using SafeMath for uint;\n\n  // balances[tokenContractAddress][EthereumAccountAddress] = 0\n   mapping(address => mapping (address => uint256)) balances;\n\n   //token => owner => spender : amount\n   mapping(address => mapping (address => mapping (address => uint256))) allowed;\n\n\n   //like orderFills in lavadex..\n   //how much of the offchain sig approval has been 'drained' or used up\n   mapping (address => mapping (bytes32 => uint)) public signatureApprovalDrained; //mapping of user accounts to mapping of order hashes to uints (amount of order that has been filled)\n\n\n   //deprecated\n   mapping(bytes32 => uint256) burnedSignatures;\n\n\n  event Deposit(address token, address user, uint amount, uint balance);\n  event Withdraw(address token, address user, uint amount, uint balance);\n  event Transfer(address indexed from, address indexed to,address token, uint tokens);\n  event Approval(address indexed tokenOwner, address indexed spender,address token, uint tokens);\n\n  function LavaWallet() public  {\n\n  }\n\n\n  //do not allow ether to enter\n  function() public payable {\n      revert();\n  }\n\n\n  //send Ether into this method, it gets wrapped and then deposited in this contract as a token balance assigned to the sender\n  function depositAndWrap(address wrappingContract, address preApprove) public payable\n  {\n    //convert the eth into wEth\n\n    //send this payable ether into the wrapping contract\n    wrappingContract.transfer(msg.value);\n\n    //send the tokens from the wrapping contract to here\n    WrapperInterface(wrappingContract).transfer(this, msg.value);\n\n    balances[wrappingContract][msg.sender] = balances[wrappingContract][msg.sender].add(msg.value);\n\n    assert(this.balance == 0); //make sure it is not a faulty wrapping contract\n\n    if(preApprove != 0x0)\n    {\n      approveMoreTokens(preApprove,wrappingContract,msg.value);\n    }\n\n    Deposit(wrappingContract, msg.sender, msg.value, balances[wrappingContract][msg.sender]);\n  }\n\n  //when this contract has control of wrapped eth, this is a way to easily withdraw it as ether\n  function unwrapAndWithdraw(address token, uint256 tokens) public\n  {\n      //transfer the tokens into the wrapping contract which is also the token contract\n      transferTokens(token,token,tokens);\n\n      WrapperInterface(token).withdraw(tokens);\n\n      //send ether to the token-sender\n      msg.sender.transfer(tokens);\n\n      assert(this.balance == 0); //make sure it is not a faulty wrapping contract\n\n      Withdraw(token, msg.sender, tokens, balances[token][msg.sender]);\n\n  }\n\n\n   //remember you need pre-approval for this - nice with ApproveAndCall\n  function depositTokens(address from, address token, uint256 tokens, address preApprove) public returns (bool)\n  {\n      //we already have approval so lets do a transferFrom - transfer the tokens into this contract\n      ERC20Interface(token).transferFrom(from, this, tokens);\n      balances[token][from] = balances[token][from].add(tokens);\n\n      if(preApprove != 0x0)\n      {\n        approveMoreTokens(preApprove,token,tokens);\n      }\n\n      Deposit(token, from, tokens, balances[token][from]);\n\n      return true;\n  }\n\n  function withdrawTokens(address token, uint256 tokens) {\n\n    if (balances[token][msg.sender] < tokens) revert();\n\n    balances[token][msg.sender] = balances[token][msg.sender].sub(tokens);\n\n    ERC20Interface(token).transfer(msg.sender, tokens);\n\n    Withdraw(token, msg.sender, tokens, balances[token][msg.sender]);\n  }\n\n  function balanceOf(address token,address user) public constant returns (uint) {\n       return balances[token][user];\n   }\n\n function transferTokens(address to, address token, uint tokens) public returns (bool success) {\n      balances[token][msg.sender] = balances[token][msg.sender].sub(tokens);\n      balances[token][to] = balances[token][to].add(tokens);\n      Transfer(msg.sender, token, to, tokens);\n      return true;\n  }\n\n\n  //remember... can also be used to remove approval by using a 'tokens' value of 0\n  function approveTokens(address spender, address token, uint tokens) public returns (bool success) {\n      allowed[token][msg.sender][spender] = tokens;\n      Approval(msg.sender, token, spender, tokens);\n      return true;\n  }\n\n   function approveMoreTokens(address spender, address token, uint tokens) public returns (bool success) {\n       allowed[token][msg.sender][spender] = allowed[token][msg.sender][spender].add(tokens);\n       Approval(msg.sender, token, spender, allowed[token][msg.sender][spender]);\n       return true;\n   }\n\n\n   function transferTokensFrom( address from, address to,address token,  uint tokens) public returns (bool success) {\n       balances[token][from] = balances[token][from].sub(tokens);\n       allowed[token][from][msg.sender] = allowed[token][from][msg.sender].sub(tokens);\n       balances[token][to] = balances[token][to].add(tokens);\n       Transfer(token, from, to, tokens);\n       return true;\n   }\n\n   //nonce is the same thing as a 'check number'\n\n\n   function approveTokensWithSignature(address from, address to,  uint256 tokens, address token,\n                                     uint256 expires, uint256 nonce, bytes signature) public returns (bool)\n   {\n      bytes32 sigHash = sha3(\"\\x19Ethereum Signed Message:\\n32\",this, from, to, token, tokens, expires, nonce);\n\n       address recoveredSignatureSigner = ECRecovery.recover(sigHash,signature);\n\n       //make sure the signer is the depositor of the tokens\n       if(from != recoveredSignatureSigner) revert();\n\n       //make sure the signature has not expired\n       if(block.number > expires) revert();\n\n\n\n       uint burnedSignature = burnedSignatures[sigHash];\n       burnedSignatures[sigHash] = 0x1; //spent\n       if(burnedSignature != 0x0 ) revert();\n\n\n       allowed[token][from][to] = tokens;\n       Approval(from, token, to, tokens);\n       return true;\n\n\n   }\n\n   //allows transfer without approval as long as you get an EC signature\n  function transferTokensFromWithSignature(address from, address to, uint256 tokensApproved, uint256 tokens, address token,\n                                    uint256 expires, uint256 nonce, bytes signature) public returns (bool)\n  {\n      //check to make sure that signature == ecrecover signature\n\n      if(!approveTokensWithSignature(from,to,tokensApproved,token,expires,nonce,signature)) revert();\n\n      //it can be requested that fewer tokens be sent that were approved -- the whole approval will be invalidated though\n      return transferTokensFrom( from, to, token, tokens);\n\n  }\n\n\n    function tokenAllowance(address token, address tokenOwner, address spender) public constant returns (uint remaining) {\n\n        return allowed[token][tokenOwner][spender];\n\n    }\n\n\n\n     function burnSignature(address from, address to, uint256 tokens, address token, uint256 expires, uint256 nonce,  bytes signature) public returns (bool)\n     {\n\n       bytes32 sigHash = sha3(\"\\x19Ethereum Signed Message:\\n32\",this, from, to, token, tokens, expires, nonce);\n\n\n         address recoveredSignatureSigner = ECRecovery.recover(sigHash,signature);\n\n         //maker sure the invalidator is the signer\n         if(recoveredSignatureSigner != from) revert();\n\n\n         //make sure this signature has never been used\n         uint burnedSignature = burnedSignatures[sigHash];\n         burnedSignatures[sigHash] = 0x2; //invalidated\n         if(burnedSignature != 0x0 ) revert();\n\n         return true;\n     }\n\n     function signatureBurned(bytes32 digest) public view returns (bool)\n     {\n       return (burnedSignatures[digest] != 0x0);\n     }\n\n\n   /*\n     Receive approval to spend tokens and perform any action all in one transaction\n   */\n function receiveApproval(address from, uint256 tokens, address token, bytes data) public returns (bool) {\n\n   //parse the data:   first byte is for 'action_id'\n   //byte action_id = data[0];\n\n    address preApprove = 0x0;\n   //will this work ?\n   if(data.length == 20)\n   {\n     preApprove = bytesToAddress(data);\n   }\n\n   return depositTokens(from, token, tokens, preApprove);\n\n }\n\n //Usage\n//address addr = bytesToAddress(\"0xa462d983B4b8C855e1876e8c24889CBa466A67EB\");\nfunction bytesToAddress(bytes _address) public pure returns (address) {\n   uint160 m = 0;\n   uint160 b = 0;\n\n   for (uint8 i = 0; i < 20; i++) {\n     m *= 256;\n     b = uint160(_address[i]);\n     m += (b);\n   }\n\n   return address(m);\n }\n\n\n\n}\n",
  "sourcePath": "/home/andy/dev/lava-wallet/contracts/LavaWallet.sol",
  "compiler": {
    "name": "solc",
    "version": "0.4.19+commit.c4cbbb05.Emscripten.clang"
  },
  "schemaVersion": "2.0.0",
  "updatedAt": "2018-04-10T04:02:51.202Z"
}