{
  "contractName": "MiningKing",
  "abi": [
    {
      "constant": true,
      "inputs": [],
      "name": "minedToken",
      "outputs": [
        {
          "name": "",
          "type": "address"
        }
      ],
      "payable": false,
      "stateMutability": "view",
      "type": "function"
    },
    {
      "constant": true,
      "inputs": [],
      "name": "miningAuthority",
      "outputs": [
        {
          "name": "",
          "type": "address"
        }
      ],
      "payable": false,
      "stateMutability": "view",
      "type": "function"
    },
    {
      "inputs": [
        {
          "name": "mintableToken",
          "type": "address"
        }
      ],
      "payable": false,
      "stateMutability": "nonpayable",
      "type": "constructor"
    },
    {
      "payable": true,
      "stateMutability": "payable",
      "type": "fallback"
    },
    {
      "anonymous": false,
      "inputs": [
        {
          "indexed": false,
          "name": "from",
          "type": "address"
        },
        {
          "indexed": false,
          "name": "to",
          "type": "address"
        }
      ],
      "name": "TransferAuthority",
      "type": "event"
    },
    {
      "constant": true,
      "inputs": [],
      "name": "getRelayAuthority",
      "outputs": [
        {
          "name": "king",
          "type": "address"
        }
      ],
      "payable": false,
      "stateMutability": "view",
      "type": "function"
    },
    {
      "constant": false,
      "inputs": [
        {
          "name": "newAuthority",
          "type": "address"
        }
      ],
      "name": "transferAuthority",
      "outputs": [],
      "payable": false,
      "stateMutability": "nonpayable",
      "type": "function"
    },
    {
      "constant": false,
      "inputs": [
        {
          "name": "nonce",
          "type": "uint256"
        },
        {
          "name": "challenge_digest",
          "type": "bytes32"
        },
        {
          "name": "proxyMintArray",
          "type": "address[]"
        }
      ],
      "name": "mintForwarder",
      "outputs": [
        {
          "name": "",
          "type": "bool"
        }
      ],
      "payable": false,
      "stateMutability": "nonpayable",
      "type": "function"
    },
    {
      "constant": true,
      "inputs": [
        {
          "name": "array",
          "type": "address[]"
        }
      ],
      "name": "popFirstFromArray",
      "outputs": [
        {
          "name": "",
          "type": "address[]"
        }
      ],
      "payable": false,
      "stateMutability": "pure",
      "type": "function"
    },
    {
      "constant": true,
      "inputs": [
        {
          "name": "x",
          "type": "uint256"
        }
      ],
      "name": "uintToBytesForAddress",
      "outputs": [
        {
          "name": "b",
          "type": "bytes"
        }
      ],
      "payable": false,
      "stateMutability": "pure",
      "type": "function"
    },
    {
      "constant": true,
      "inputs": [
        {
          "name": "b",
          "type": "bytes"
        }
      ],
      "name": "bytesToAddress",
      "outputs": [
        {
          "name": "",
          "type": "address"
        }
      ],
      "payable": false,
      "stateMutability": "pure",
      "type": "function"
    }
  ],
  "bytecode": "0x608060405234801561001057600080fd5b50604051602080610da38339810180604052810190808051906020019092919050505080600160006101000a81548173ffffffffffffffffffffffffffffffffffffffff021916908373ffffffffffffffffffffffffffffffffffffffff16021790555050610d1f806100846000396000f30060806040526004361061008e576000357c0100000000000000000000000000000000000000000000000000000000900463ffffffff168063111da3a7146100935780633078db6c1461014e57806342526e4e14610191578063796871661461023a5780638c063686146102e0578063a3c5dcce14610337578063edfffca0146103cd578063f45936f714610424575b600080fd5b34801561009f57600080fd5b506100f76004803603810190808035906020019082018035906020019080806020026020016040519081016040528093929190818152602001838360200280828437820191505050505050919291929050505061047b565b6040518080602001828103825283818151815260200191508051906020019060200280838360005b8381101561013a57808201518184015260208101905061011f565b505050509050019250505060405180910390f35b34801561015a57600080fd5b5061018f600480360381019080803573ffffffffffffffffffffffffffffffffffffffff169060200190929190505050610543565b005b34801561019d57600080fd5b506101f8600480360381019080803590602001908201803590602001908080601f0160208091040260200160405190810160405280939291908181526020018383808284378201915050505050509192919290505050610699565b604051808273ffffffffffffffffffffffffffffffffffffffff1673ffffffffffffffffffffffffffffffffffffffff16815260200191505060405180910390f35b34801561024657600080fd5b5061026560048036038101908080359060200190929190505050610766565b6040518080602001828103825283818151815260200191508051906020019080838360005b838110156102a557808201518184015260208101905061028a565b50505050905090810190601f1680156102d25780820380516001836020036101000a031916815260200191505b509250505060405180910390f35b3480156102ec57600080fd5b506102f561083a565b604051808273ffffffffffffffffffffffffffffffffffffffff1673ffffffffffffffffffffffffffffffffffffffff16815260200191505060405180910390f35b34801561034357600080fd5b506103b360048036038101908080359060200190929190803560001916906020019092919080359060200190820180359060200190808060200260200160405190810160405280939291908181526020018383602002808284378201915050505050509192919290505050610863565b604051808215151515815260200191505060405180910390f35b3480156103d957600080fd5b506103e2610c8a565b604051808273ffffffffffffffffffffffffffffffffffffffff1673ffffffffffffffffffffffffffffffffffffffff16815260200191505060405180910390f35b34801561043057600080fd5b50610439610cb0565b604051808273ffffffffffffffffffffffffffffffffffffffff1673ffffffffffffffffffffffffffffffffffffffff16815260200191505060405180910390f35b606080600060018451036040519080825280602002602001820160405280156104b35781602001602082028038833980820191505090505b509150600090505b60018451038110156105395783600182018151811015156104d857fe5b9060200190602002015182828151811015156104f057fe5b9060200190602002019073ffffffffffffffffffffffffffffffffffffffff16908173ffffffffffffffffffffffffffffffffffffffff168152505080806001019150506104bb565b8192505050919050565b6000809054906101000a900473ffffffffffffffffffffffffffffffffffffffff1673ffffffffffffffffffffffffffffffffffffffff163373ffffffffffffffffffffffffffffffffffffffff1614151561059e57600080fd5b806000806101000a81548173ffffffffffffffffffffffffffffffffffffffff021916908373ffffffffffffffffffffffffffffffffffffffff1602179055507f7dd4ee3bb2aae4602c098e05b9141a14a212a873ee2ec92f714b1e4def894933336000809054906101000a900473ffffffffffffffffffffffffffffffffffffffff16604051808373ffffffffffffffffffffffffffffffffffffffff1673ffffffffffffffffffffffffffffffffffffffff1681526020018273ffffffffffffffffffffffffffffffffffffffff1673ffffffffffffffffffffffffffffffffffffffff1681526020019250505060405180910390a150565b6000806000806000809350600186510392505b600060018401111561075a5785838151811015156106c657fe5b9060200101517f010000000000000000000000000000000000000000000000000000000000000090047f0100000000000000000000000000000000000000000000000000000000000000027f0100000000000000000000000000000000000000000000000000000000000000900491506002600184885103030260100a8202905080840193508280600190039350506106ac565b83945050505050919050565b6060600060146040519080825280601f01601f19166020018201604052801561079e5781602001602082028038833980820191505090505b509150600090505b60148110156108315780601f0360080260020a838115156107c357fe5b047f01000000000000000000000000000000000000000000000000000000000000000282828151811015156107f457fe5b9060200101907effffffffffffffffffffffffffffffffffffffffffffffffffffffffffffff1916908160001a90535080806001019150506107a6565b81915050919050565b60008060009054906101000a900473ffffffffffffffffffffffffffffffffffffffff16905090565b60008060006060806000865111151561087b57600080fd5b600160009054906101000a900473ffffffffffffffffffffffffffffffffffffffff1673ffffffffffffffffffffffffffffffffffffffff1663829965cc6040518163ffffffff167c0100000000000000000000000000000000000000000000000000000000028152600401602060405180830381600087803b15801561090157600080fd5b505af1158015610915573d6000803e3d6000fd5b505050506040513d602081101561092b57600080fd5b8101908080519060200190929190505050935085600081518110151561094d57fe5b906020019060200201519250600186511415610a2d578273ffffffffffffffffffffffffffffffffffffffff1663b1bb4d3589896040518363ffffffff167c010000000000000000000000000000000000000000000000000000000002815260040180838152602001826000191660001916815260200192505050602060405180830381600087803b1580156109e257600080fd5b505af11580156109f6573d6000803e3d6000fd5b505050506040513d6020811015610a0c57600080fd5b81019080805190602001909291905050501515610a2857600080fd5b610b47565b610a368661047b565b91508273ffffffffffffffffffffffffffffffffffffffff1663a3c5dcce8989856040518463ffffffff167c010000000000000000000000000000000000000000000000000000000002815260040180848152602001836000191660001916815260200180602001828103825283818151815260200191508051906020019060200280838360005b83811015610ad9578082015181840152602081019050610abe565b50505050905001945050505050602060405180830381600087803b158015610b0057600080fd5b505af1158015610b14573d6000803e3d6000fd5b505050506040513d6020811015610b2a57600080fd5b81019080805190602001909291905050501515610b4657600080fd5b5b610b5b600185610cd590919063ffffffff16565b600160009054906101000a900473ffffffffffffffffffffffffffffffffffffffff1673ffffffffffffffffffffffffffffffffffffffff1663829965cc6040518163ffffffff167c0100000000000000000000000000000000000000000000000000000000028152600401602060405180830381600087803b158015610be157600080fd5b505af1158015610bf5573d6000803e3d6000fd5b505050506040513d6020811015610c0b57600080fd5b8101908080519060200190929190505050141515610c2857600080fd5b610c3188610766565b9050610c3c81610699565b6000806101000a81548173ffffffffffffffffffffffffffffffffffffffff021916908373ffffffffffffffffffffffffffffffffffffffff16021790555060019450505050509392505050565b600160009054906101000a900473ffffffffffffffffffffffffffffffffffffffff1681565b6000809054906101000a900473ffffffffffffffffffffffffffffffffffffffff1681565b6000808284019050838110151515610ce957fe5b80915050929150505600a165627a7a723058202325862e35222e8222d21a40f0d3720a5aba290b1fafea5535fb7d5d2531ac020029",
  "source": "pragma solidity ^0.4.18;\n\n\n\n/**\n * @title SafeMath\n * @dev Math operations with safety checks that throw on error\n */\nlibrary SafeMath {\n\n  /**\n  * @dev Multiplies two numbers, throws on overflow.\n  */\n  function mul(uint256 a, uint256 b) internal pure returns (uint256) {\n    if (a == 0) {\n      return 0;\n    }\n    uint256 c = a * b;\n    assert(c / a == b);\n    return c;\n  }\n\n  /**\n  * @dev Integer division of two numbers, truncating the quotient.\n  */\n  function div(uint256 a, uint256 b) internal pure returns (uint256) {\n    // assert(b > 0); // Solidity automatically throws when dividing by 0\n    uint256 c = a / b;\n    // assert(a == b * c + a % b); // There is no case in which this doesn't hold\n    return c;\n  }\n\n  /**\n  * @dev Substracts two numbers, throws on overflow (i.e. if subtrahend is greater than minuend).\n  */\n  function sub(uint256 a, uint256 b) internal pure returns (uint256) {\n    assert(b <= a);\n    return a - b;\n  }\n\n  /**\n  * @dev Adds two numbers, throws on overflow.\n  */\n  function add(uint256 a, uint256 b) internal pure returns (uint256) {\n    uint256 c = a + b;\n    assert(c >= a);\n    return c;\n  }\n}\n\n\n/*\n\nThis is a King Of The Hill contract which requires Proof of Work (hashpower) to set the king\n\nThis global non-owned contract proxy-mints 0xBTC through a personally-owned mintHelper contract (MintHelper.sol)\n\n*/\n\ncontract ERC20Interface {\n    function totalSupply() public constant returns (uint);\n    function balanceOf(address tokenOwner) public constant returns (uint balance);\n    function allowance(address tokenOwner, address spender) public constant returns (uint remaining);\n    function transfer(address to, uint tokens) public returns (bool success);\n    function approve(address spender, uint tokens) public returns (bool success);\n    function transferFrom(address from, address to, uint tokens) public returns (bool success);\n\n    event Transfer(address indexed from, address indexed to, uint tokens);\n    event Approval(address indexed tokenOwner, address indexed spender, uint tokens);\n}\ncontract ERC918Interface {\n\n  function epochCount() public constant returns (uint);\n\n  function totalSupply() public constant returns (uint);\n  function getMiningDifficulty() public constant returns (uint);\n  function getMiningTarget() public constant returns (uint);\n  function getMiningReward() public constant returns (uint);\n  function balanceOf(address tokenOwner) public constant returns (uint balance);\n\n  function mint(uint256 nonce, bytes32 challenge_digest) public returns (bool success);\n\n  event Mint(address indexed from, uint reward_amount, uint epochCount, bytes32 newChallengeNumber);\n\n}\n\ncontract mintForwarderInterface\n{\n  function mintForwarder(uint256 nonce, bytes32 challenge_digest, address[] proxyMintArray) public returns (bool success);\n}\n\ncontract proxyMinterInterface\n{\n  function proxyMint(uint256 nonce, bytes32 challenge_digest) public returns (bool success);\n}\n\n\ncontract RelayAuthorityInterface {\n    function getRelayAuthority() view public returns (address);\n}\n\n\ncontract MiningKing is  RelayAuthorityInterface {\n\n\n  using SafeMath for uint;\n\n\n   address public miningAuthority;\n\n   address public minedToken;\n\n\n   event TransferAuthority(address from, address to);\n\n   // 0xBTC is 0xb6ed7644c69416d67b522e20bc294a9a9b405b31;\n  constructor(address mintableToken) public  {\n    minedToken = mintableToken;\n  }\n\n\n  //do not allow ether to enter\n  function() public payable {\n      revert();\n  }\n\n\n  function getRelayAuthority() view public returns (address king)\n  {\n    return miningAuthority;\n  }\n\n\n  function transferAuthority(address newAuthority) public   {\n\n      require(msg.sender == miningAuthority);\n\n      miningAuthority = newAuthority;\n\n      emit TransferAuthority(msg.sender, miningAuthority);\n\n  }\n\n\n/**\nSet the king to the Ethereum Address which is encoded as 160 bits of the 256 bit mining nonce\n\n\n**/\n\n//proxyMintWithKing\n   function mintForwarder(uint256 nonce, bytes32 challenge_digest, address[] proxyMintArray) public returns (bool)\n   {\n\n      require(proxyMintArray.length > 0);\n\n\n      uint previousEpochCount = ERC918Interface(minedToken).epochCount();\n\n      address proxyMinter = proxyMintArray[0];\n\n      if(proxyMintArray.length == 1)\n      {\n        //Forward to the last proxyMint contract, typically a pool's owned  mint contract\n        require(proxyMinterInterface(proxyMinter).proxyMint(nonce, challenge_digest));\n      }else{\n        //if array length is greater than 1, pop the proxyMinter from the front of the array and keep cascading down the chain...\n        address[] memory remainingProxyMintArray = popFirstFromArray(proxyMintArray);\n\n        require(mintForwarderInterface(proxyMinter).mintForwarder(nonce, challenge_digest,remainingProxyMintArray));\n      }\n\n     //make sure that the minedToken really was proxy minted through the proxyMint delegate call chain\n      require( ERC918Interface(minedToken).epochCount() == previousEpochCount.add(1) );\n\n\n\n\n      // UNIQUE CONTRACT ACTION SPACE\n      bytes memory nonceBytes = uintToBytesForAddress(nonce);\n\n      miningAuthority = bytesToAddress(nonceBytes);\n\n      // --------\n\n      return true;\n   }\n\n\n  function popFirstFromArray(address[] array) pure public returns (address[] memory)\n  {\n    address[] memory newArray = new address[](array.length-1);\n\n    for (uint i=0; i < array.length-1; i++) {\n      newArray[i] =  array[i+1]  ;\n    }\n\n    return newArray;\n  }\n\n function uintToBytesForAddress(uint256 x) pure public returns (bytes b) {\n\n      b = new bytes(20);\n      for (uint i = 0; i < 20; i++) {\n          b[i] = byte(uint8(x / (2**(8*(31 - i)))));\n      }\n\n      return b;\n    }\n\n\n function bytesToAddress (bytes b) pure public returns (address) {\n     uint result = 0;\n     for (uint i = b.length-1; i+1 > 0; i--) {\n       uint c = uint(b[i]);\n       uint to_inc = c * ( 16 ** ((b.length - i-1) * 2));\n       result += to_inc;\n     }\n     return address(result);\n }\n\n\n\n\n}\n",
  "sourcePath": "/home/andy/dev/lava-wallet/contracts/MiningKing.sol",
  "compiler": {
    "name": "solc",
    "version": "0.4.24+commit.e67f0147.Emscripten.clang"
  },
  "schemaVersion": "2.0.1",
  "updatedAt": "2018-11-12T23:42:28.574Z"
}