{
  "contractName": "MiningKing",
  "abi": [
    {
      "constant": true,
      "inputs": [],
      "name": "miningKing",
      "outputs": [
        {
          "name": "",
          "type": "address"
        }
      ],
      "payable": false,
      "stateMutability": "view",
      "type": "function"
    },
    {
      "constant": true,
      "inputs": [],
      "name": "minedToken",
      "outputs": [
        {
          "name": "",
          "type": "address"
        }
      ],
      "payable": false,
      "stateMutability": "view",
      "type": "function"
    },
    {
      "inputs": [
        {
          "name": "mintableToken",
          "type": "address"
        }
      ],
      "payable": false,
      "stateMutability": "nonpayable",
      "type": "constructor"
    },
    {
      "payable": true,
      "stateMutability": "payable",
      "type": "fallback"
    },
    {
      "anonymous": false,
      "inputs": [
        {
          "indexed": false,
          "name": "from",
          "type": "address"
        },
        {
          "indexed": false,
          "name": "to",
          "type": "address"
        }
      ],
      "name": "TransferKing",
      "type": "event"
    },
    {
      "constant": false,
      "inputs": [],
      "name": "getMiningKing",
      "outputs": [
        {
          "name": "king",
          "type": "address"
        }
      ],
      "payable": false,
      "stateMutability": "nonpayable",
      "type": "function"
    },
    {
      "constant": false,
      "inputs": [
        {
          "name": "newKing",
          "type": "address"
        }
      ],
      "name": "transferKing",
      "outputs": [],
      "payable": false,
      "stateMutability": "nonpayable",
      "type": "function"
    },
    {
      "constant": false,
      "inputs": [
        {
          "name": "nonce",
          "type": "uint256"
        },
        {
          "name": "challenge_digest",
          "type": "bytes32"
        }
      ],
      "name": "proxyMintWithKing",
      "outputs": [
        {
          "name": "",
          "type": "bool"
        }
      ],
      "payable": false,
      "stateMutability": "nonpayable",
      "type": "function"
    },
    {
      "constant": true,
      "inputs": [
        {
          "name": "x",
          "type": "uint256"
        }
      ],
      "name": "toBytesAddress",
      "outputs": [
        {
          "name": "b",
          "type": "bytes"
        }
      ],
      "payable": false,
      "stateMutability": "view",
      "type": "function"
    },
    {
      "constant": true,
      "inputs": [
        {
          "name": "b",
          "type": "bytes"
        }
      ],
      "name": "bytesToAddress",
      "outputs": [
        {
          "name": "",
          "type": "address"
        }
      ],
      "payable": false,
      "stateMutability": "view",
      "type": "function"
    }
  ],
  "bytecode": "0x608060405234801561001057600080fd5b50604051602080610ad28339810180604052810190808051906020019092919050505080600160006101000a81548173ffffffffffffffffffffffffffffffffffffffff021916908373ffffffffffffffffffffffffffffffffffffffff16021790555050610a4e806100846000396000f300608060405260043610610083576000357c0100000000000000000000000000000000000000000000000000000000900463ffffffff16806306d8619b146100885780630d08872e146100cb5780630dc118a31461017157806340510399146101c457806342526e4e1461021b578063edfffca0146102c4578063fe4d62f91461031b575b600080fd5b34801561009457600080fd5b506100c9600480360381019080803573ffffffffffffffffffffffffffffffffffffffff169060200190929190505050610372565b005b3480156100d757600080fd5b506100f6600480360381019080803590602001909291905050506104a7565b6040518080602001828103825283818151815260200191508051906020019080838360005b8381101561013657808201518184015260208101905061011b565b50505050905090810190601f1680156101635780820380516001836020036101000a031916815260200191505b509250505060405180910390f35b34801561017d57600080fd5b506101aa600480360381019080803590602001909291908035600019169060200190929190505050610578565b604051808215151515815260200191505060405180910390f35b3480156101d057600080fd5b506101d9610897565b604051808273ffffffffffffffffffffffffffffffffffffffff1673ffffffffffffffffffffffffffffffffffffffff16815260200191505060405180910390f35b34801561022757600080fd5b50610282600480360381019080803590602001908201803590602001908080601f01602080910402602001604051908101604052809392919081815260200183838082843782019150505050505091929192905050506108bc565b604051808273ffffffffffffffffffffffffffffffffffffffff1673ffffffffffffffffffffffffffffffffffffffff16815260200191505060405180910390f35b3480156102d057600080fd5b506102d96109d3565b604051808273ffffffffffffffffffffffffffffffffffffffff1673ffffffffffffffffffffffffffffffffffffffff16815260200191505060405180910390f35b34801561032757600080fd5b506103306109f9565b604051808273ffffffffffffffffffffffffffffffffffffffff1673ffffffffffffffffffffffffffffffffffffffff16815260200191505060405180910390f35b6000809054906101000a900473ffffffffffffffffffffffffffffffffffffffff1673ffffffffffffffffffffffffffffffffffffffff163373ffffffffffffffffffffffffffffffffffffffff161415156103cd57600080fd5b806000806101000a81548173ffffffffffffffffffffffffffffffffffffffff021916908373ffffffffffffffffffffffffffffffffffffffff1602179055507fcb21dc7de62e70efdb467b866050922f2845c8b005b478e6ca5dd975819943dd3382604051808373ffffffffffffffffffffffffffffffffffffffff1673ffffffffffffffffffffffffffffffffffffffff1681526020018273ffffffffffffffffffffffffffffffffffffffff1673ffffffffffffffffffffffffffffffffffffffff1681526020019250505060405180910390a150565b6060600060146040519080825280601f01601f1916602001820160405280156104df5781602001602082028038833980820191505090505b509150600090505b6014811015610572578060130360080260020a8381151561050457fe5b047f010000000000000000000000000000000000000000000000000000000000000002828281518110151561053557fe5b9060200101907effffffffffffffffffffffffffffffffffffffffffffffffffffffffffffff1916908160001a90535080806001019150506104e7565b50919050565b60006060600080610588866104a7565b9250610593836108bc565b9150600160009054906101000a900473ffffffffffffffffffffffffffffffffffffffff1673ffffffffffffffffffffffffffffffffffffffff1663490203a76040518163ffffffff167c0100000000000000000000000000000000000000000000000000000000028152600401602060405180830381600087803b15801561061b57600080fd5b505af115801561062f573d6000803e3d6000fd5b505050506040513d602081101561064557600080fd5b81019080805190602001909291905050509050600160009054906101000a900473ffffffffffffffffffffffffffffffffffffffff1673ffffffffffffffffffffffffffffffffffffffff16631801fbe587876040518363ffffffff167c010000000000000000000000000000000000000000000000000000000002815260040180838152602001826000191660001916815260200192505050602060405180830381600087803b1580156106f957600080fd5b505af115801561070d573d6000803e3d6000fd5b505050506040513d602081101561072357600080fd5b8101908080519060200190929190505050151561073f57600080fd5b600160009054906101000a900473ffffffffffffffffffffffffffffffffffffffff1673ffffffffffffffffffffffffffffffffffffffff1663a9059cbb33836040518363ffffffff167c0100000000000000000000000000000000000000000000000000000000028152600401808373ffffffffffffffffffffffffffffffffffffffff1673ffffffffffffffffffffffffffffffffffffffff16815260200182815260200192505050602060405180830381600087803b15801561080457600080fd5b505af1158015610818573d6000803e3d6000fd5b505050506040513d602081101561082e57600080fd5b8101908080519060200190929190505050151561084a57600080fd5b816000806101000a81548173ffffffffffffffffffffffffffffffffffffffff021916908373ffffffffffffffffffffffffffffffffffffffff1602179055506001935050505092915050565b6000809054906101000a900473ffffffffffffffffffffffffffffffffffffffff1681565b60008060008060009250600091505b84518210156109c85784828151811015156108e257fe5b9060200101517f010000000000000000000000000000000000000000000000000000000000000090047f0100000000000000000000000000000000000000000000000000000000000000027f01000000000000000000000000000000000000000000000000000000000000009004905060308110158015610964575060398111155b156109755760308103601084020192505b604181101580156109875750605a8111155b156109985760378103601084020192505b606181101580156109aa5750607a8111155b156109bb5760578103601084020192505b81806001019250506108cb565b829350505050919050565b600160009054906101000a900473ffffffffffffffffffffffffffffffffffffffff1681565b60008060009054906101000a900473ffffffffffffffffffffffffffffffffffffffff169050905600a165627a7a7230582093b63ee71c6925943251fa7c55dce9a1683ded20caaea90dcc145b17dd876df90029",
  "source": "pragma solidity ^0.4.18;\n\n\nimport \"./SafeMath.sol\";\n\n\n/*\n\nThis is a token wallet contract\n\nStore your tokens in this contract to give them super powers\n\nTokens can be spent from the contract with only an ecSignature from the owner - onchain approve is not needed\n\n\n*/\n\ncontract ERC20Interface {\n    function totalSupply() public constant returns (uint);\n    function balanceOf(address tokenOwner) public constant returns (uint balance);\n    function allowance(address tokenOwner, address spender) public constant returns (uint remaining);\n    function transfer(address to, uint tokens) public returns (bool success);\n    function approve(address spender, uint tokens) public returns (bool success);\n    function transferFrom(address from, address to, uint tokens) public returns (bool success);\n\n    event Transfer(address indexed from, address indexed to, uint tokens);\n    event Approval(address indexed tokenOwner, address indexed spender, uint tokens);\n}\ncontract ERC918Interface {\n  function totalSupply() public constant returns (uint);\n  function getMiningDifficulty() public constant returns (uint);\n  function getMiningTarget() public constant returns (uint);\n  function getMiningReward() public constant returns (uint);\n  function balanceOf(address tokenOwner) public constant returns (uint balance);\n\n  function mint(uint256 nonce, bytes32 challenge_digest) public returns (bool success);\n\n  event Mint(address indexed from, uint reward_amount, uint epochCount, bytes32 newChallengeNumber);\n\n}\n\n\n\n\n\n\ncontract MiningKing   {\n\n\n  using SafeMath for uint;\n\n\n   address public miningKing;\n\n   address public minedToken; // = 0xb6ed7644c69416d67b522e20bc294a9a9b405b31;\n\n\n   event TransferKing(address from, address to);\n\n  function MiningKing(address mintableToken) public  {\n    minedToken = mintableToken;\n  }\n\n\n  //do not allow ether to enter\n  function() public payable {\n      revert();\n  }\n\n  function getMiningKing() public returns (address king)\n  {\n    return miningKing;\n  }\n\n   function transferKing(address newKing) public   {\n\n       require(msg.sender == miningKing);\n\n       miningKing = newKing;\n\n       TransferKing(msg.sender, newKing);\n\n   }\n\n   function proxyMintWithKing(uint256 nonce, bytes32 challenge_digest) returns (bool)\n   {\n\n     bytes memory nonceBytes = toBytesAddress(nonce);\n\n     address newKing = bytesToAddress(nonceBytes);\n\n     uint totalReward = ERC918Interface(minedToken).getMiningReward();\n     require(ERC918Interface(minedToken).mint(nonce, challenge_digest));\n     require(ERC20Interface(minedToken).transfer(msg.sender, totalReward));\n\n     miningKing = newKing;\n\n     return true;\n   }\n\n\n\n function toBytesAddress(uint256 x) constant returns (bytes b) {\n        //b = new bytes(20);\n        //assembly { mstore(add(b, 20), x) }\n\n        b = new bytes(20);\n       for (uint i = 0; i < 20; i++) {\n           b[i] = byte(uint8(x / (2**(8*(19 - i)))));\n       }\n\n\n    }\n\n\n function bytesToAddress (bytes b) constant returns (address) {\n     uint result = 0;\n     for (uint i = 0; i < b.length; i++) {\n         uint c = uint(b[i]);\n         if (c >= 48 && c <= 57) {\n             result = result * 16 + (c - 48);\n         }\n         if(c >= 65 && c<= 90) {\n             result = result * 16 + (c - 55);\n         }\n         if(c >= 97 && c<= 122) {\n             result = result * 16 + (c - 87);\n         }\n     }\n     return address(result);\n }\n\n\n\n\n}\n",
  "sourcePath": "/home/andy/dev/lava-wallet/contracts/MiningKing.sol",
  "compiler": {
    "name": "solc",
    "version": "0.4.24+commit.e67f0147.Emscripten.clang"
  },
  "schemaVersion": "2.0.1",
  "updatedAt": "2018-07-19T05:27:17.503Z"
}