{
  "contractName": "MintHelper",
  "abi": [
    {
      "constant": true,
      "inputs": [],
      "name": "name",
      "outputs": [
        {
          "name": "",
          "type": "string"
        }
      ],
      "payable": false,
      "stateMutability": "view",
      "type": "function"
    },
    {
      "constant": true,
      "inputs": [],
      "name": "owner",
      "outputs": [
        {
          "name": "",
          "type": "address"
        }
      ],
      "payable": false,
      "stateMutability": "view",
      "type": "function"
    },
    {
      "constant": true,
      "inputs": [],
      "name": "minterWallet",
      "outputs": [
        {
          "name": "",
          "type": "address"
        }
      ],
      "payable": false,
      "stateMutability": "view",
      "type": "function"
    },
    {
      "constant": true,
      "inputs": [],
      "name": "mintableToken",
      "outputs": [
        {
          "name": "",
          "type": "address"
        }
      ],
      "payable": false,
      "stateMutability": "view",
      "type": "function"
    },
    {
      "constant": true,
      "inputs": [],
      "name": "minterFeePercent",
      "outputs": [
        {
          "name": "",
          "type": "uint256"
        }
      ],
      "payable": false,
      "stateMutability": "view",
      "type": "function"
    },
    {
      "constant": true,
      "inputs": [],
      "name": "payoutsWallet",
      "outputs": [
        {
          "name": "",
          "type": "address"
        }
      ],
      "payable": false,
      "stateMutability": "view",
      "type": "function"
    },
    {
      "constant": false,
      "inputs": [
        {
          "name": "newOwner",
          "type": "address"
        }
      ],
      "name": "transferOwnership",
      "outputs": [],
      "payable": false,
      "stateMutability": "nonpayable",
      "type": "function"
    },
    {
      "inputs": [
        {
          "name": "mToken",
          "type": "address"
        },
        {
          "name": "pWallet",
          "type": "address"
        },
        {
          "name": "mWallet",
          "type": "address"
        }
      ],
      "payable": false,
      "stateMutability": "nonpayable",
      "type": "constructor"
    },
    {
      "constant": false,
      "inputs": [
        {
          "name": "mToken",
          "type": "address"
        }
      ],
      "name": "setMintableToken",
      "outputs": [
        {
          "name": "",
          "type": "bool"
        }
      ],
      "payable": false,
      "stateMutability": "nonpayable",
      "type": "function"
    },
    {
      "constant": false,
      "inputs": [
        {
          "name": "pWallet",
          "type": "address"
        }
      ],
      "name": "setPayoutsWallet",
      "outputs": [
        {
          "name": "",
          "type": "bool"
        }
      ],
      "payable": false,
      "stateMutability": "nonpayable",
      "type": "function"
    },
    {
      "constant": false,
      "inputs": [
        {
          "name": "mWallet",
          "type": "address"
        }
      ],
      "name": "setMinterWallet",
      "outputs": [
        {
          "name": "",
          "type": "bool"
        }
      ],
      "payable": false,
      "stateMutability": "nonpayable",
      "type": "function"
    },
    {
      "constant": false,
      "inputs": [
        {
          "name": "fee",
          "type": "uint256"
        }
      ],
      "name": "setMinterFeePercent",
      "outputs": [
        {
          "name": "",
          "type": "bool"
        }
      ],
      "payable": false,
      "stateMutability": "nonpayable",
      "type": "function"
    },
    {
      "constant": false,
      "inputs": [
        {
          "name": "newName",
          "type": "string"
        }
      ],
      "name": "setName",
      "outputs": [
        {
          "name": "",
          "type": "bool"
        }
      ],
      "payable": false,
      "stateMutability": "nonpayable",
      "type": "function"
    },
    {
      "constant": false,
      "inputs": [
        {
          "name": "nonce",
          "type": "uint256"
        },
        {
          "name": "challenge_digest",
          "type": "bytes32"
        }
      ],
      "name": "proxyMint",
      "outputs": [
        {
          "name": "",
          "type": "bool"
        }
      ],
      "payable": false,
      "stateMutability": "nonpayable",
      "type": "function"
    },
    {
      "constant": false,
      "inputs": [],
      "name": "withdraw",
      "outputs": [],
      "payable": false,
      "stateMutability": "nonpayable",
      "type": "function"
    },
    {
      "constant": false,
      "inputs": [
        {
          "name": "_tokenAddr",
          "type": "address"
        },
        {
          "name": "dest",
          "type": "address"
        },
        {
          "name": "value",
          "type": "uint256"
        }
      ],
      "name": "send",
      "outputs": [
        {
          "name": "",
          "type": "bool"
        }
      ],
      "payable": false,
      "stateMutability": "nonpayable",
      "type": "function"
    }
  ],
  "bytecode": "0x608060405234801561001057600080fd5b50604051606080611406833981018060405281019080805190602001909291908051906020019092919080519060200190929190505050336000806101000a81548173ffffffffffffffffffffffffffffffffffffffff021916908373ffffffffffffffffffffffffffffffffffffffff16021790555082600260006101000a81548173ffffffffffffffffffffffffffffffffffffffff021916908373ffffffffffffffffffffffffffffffffffffffff16021790555081600360006101000a81548173ffffffffffffffffffffffffffffffffffffffff021916908373ffffffffffffffffffffffffffffffffffffffff16021790555080600460006101000a81548173ffffffffffffffffffffffffffffffffffffffff021916908373ffffffffffffffffffffffffffffffffffffffff160217905550600580819055505050506112a3806101636000396000f3006080604052600436106100db576000357c0100000000000000000000000000000000000000000000000000000000900463ffffffff16806306fdde03146100e05780630779afe6146101705780632516a18f146101f55780633ccfd60b1461025057806385b6824f146102675780638da5cb5b146102c25780638f1a422c1461031957806395d38ea81461037057806398be7c62146103c7578063a5c102a2146103f2578063b1bb4d3514610437578063b61334b11461048a578063c47f0027146104e5578063d3eb11d614610566578063f2fde38b146105bd575b600080fd5b3480156100ec57600080fd5b506100f5610600565b6040518080602001828103825283818151815260200191508051906020019080838360005b8381101561013557808201518184015260208101905061011a565b50505050905090810190601f1680156101625780820380516001836020036101000a031916815260200191505b509250505060405180910390f35b34801561017c57600080fd5b506101db600480360381019080803573ffffffffffffffffffffffffffffffffffffffff169060200190929190803573ffffffffffffffffffffffffffffffffffffffff1690602001909291908035906020019092919050505061069e565b604051808215151515815260200191505060405180910390f35b34801561020157600080fd5b50610236600480360381019080803573ffffffffffffffffffffffffffffffffffffffff1690602001909291905050506107e2565b604051808215151515815260200191505060405180910390f35b34801561025c57600080fd5b50610265610889565b005b34801561027357600080fd5b506102a8600480360381019080803573ffffffffffffffffffffffffffffffffffffffff169060200190929190505050610944565b604051808215151515815260200191505060405180910390f35b3480156102ce57600080fd5b506102d76109eb565b604051808273ffffffffffffffffffffffffffffffffffffffff1673ffffffffffffffffffffffffffffffffffffffff16815260200191505060405180910390f35b34801561032557600080fd5b5061032e610a10565b604051808273ffffffffffffffffffffffffffffffffffffffff1673ffffffffffffffffffffffffffffffffffffffff16815260200191505060405180910390f35b34801561037c57600080fd5b50610385610a36565b604051808273ffffffffffffffffffffffffffffffffffffffff1673ffffffffffffffffffffffffffffffffffffffff16815260200191505060405180910390f35b3480156103d357600080fd5b506103dc610a5c565b6040518082815260200191505060405180910390f35b3480156103fe57600080fd5b5061041d60048036038101908080359060200190929190505050610a62565b604051808215151515815260200191505060405180910390f35b34801561044357600080fd5b50610470600480360381019080803590602001909291908035600019169060200190929190505050610aec565b604051808215151515815260200191505060405180910390f35b34801561049657600080fd5b506104cb600480360381019080803573ffffffffffffffffffffffffffffffffffffffff169060200190929190505050610f42565b604051808215151515815260200191505060405180910390f35b3480156104f157600080fd5b5061054c600480360381019080803590602001908201803590602001908080601f0160208091040260200160405190810160405280939291908181526020018383808284378201915050505050509192919290505050610fe9565b604051808215151515815260200191505060405180910390f35b34801561057257600080fd5b5061057b611066565b604051808273ffffffffffffffffffffffffffffffffffffffff1673ffffffffffffffffffffffffffffffffffffffff16815260200191505060405180910390f35b3480156105c957600080fd5b506105fe600480360381019080803573ffffffffffffffffffffffffffffffffffffffff16906020019092919050505061108c565b005b60018054600181600116156101000203166002900480601f0160208091040260200160405190810160405280929190818152602001828054600181600116156101000203166002900480156106965780601f1061066b57610100808354040283529160200191610696565b820191906000526020600020905b81548152906001019060200180831161067957829003601f168201915b505050505081565b60008060009054906101000a900473ffffffffffffffffffffffffffffffffffffffff1673ffffffffffffffffffffffffffffffffffffffff163373ffffffffffffffffffffffffffffffffffffffff161415156106fb57600080fd5b8373ffffffffffffffffffffffffffffffffffffffff1663a9059cbb84846040518363ffffffff167c0100000000000000000000000000000000000000000000000000000000028152600401808373ffffffffffffffffffffffffffffffffffffffff1673ffffffffffffffffffffffffffffffffffffffff16815260200182815260200192505050602060405180830381600087803b15801561079e57600080fd5b505af11580156107b2573d6000803e3d6000fd5b505050506040513d60208110156107c857600080fd5b810190808051906020019092919050505090509392505050565b60008060009054906101000a900473ffffffffffffffffffffffffffffffffffffffff1673ffffffffffffffffffffffffffffffffffffffff163373ffffffffffffffffffffffffffffffffffffffff1614151561083f57600080fd5b81600260006101000a81548173ffffffffffffffffffffffffffffffffffffffff021916908373ffffffffffffffffffffffffffffffffffffffff16021790555060019050919050565b6000809054906101000a900473ffffffffffffffffffffffffffffffffffffffff1673ffffffffffffffffffffffffffffffffffffffff163373ffffffffffffffffffffffffffffffffffffffff161415156108e457600080fd5b3373ffffffffffffffffffffffffffffffffffffffff166108fc3073ffffffffffffffffffffffffffffffffffffffff16319081150290604051600060405180830381858888f19350505050158015610941573d6000803e3d6000fd5b50565b60008060009054906101000a900473ffffffffffffffffffffffffffffffffffffffff1673ffffffffffffffffffffffffffffffffffffffff163373ffffffffffffffffffffffffffffffffffffffff161415156109a157600080fd5b81600460006101000a81548173ffffffffffffffffffffffffffffffffffffffff021916908373ffffffffffffffffffffffffffffffffffffffff16021790555060019050919050565b6000809054906101000a900473ffffffffffffffffffffffffffffffffffffffff1681565b600460009054906101000a900473ffffffffffffffffffffffffffffffffffffffff1681565b600260009054906101000a900473ffffffffffffffffffffffffffffffffffffffff1681565b60055481565b60008060009054906101000a900473ffffffffffffffffffffffffffffffffffffffff1673ffffffffffffffffffffffffffffffffffffffff163373ffffffffffffffffffffffffffffffffffffffff16141515610abf57600080fd5b60008210158015610ad1575060648211155b1515610adc57600080fd5b8160058190555060019050919050565b600080600080600260009054906101000a900473ffffffffffffffffffffffffffffffffffffffff1673ffffffffffffffffffffffffffffffffffffffff1663490203a76040518163ffffffff167c0100000000000000000000000000000000000000000000000000000000028152600401602060405180830381600087803b158015610b7857600080fd5b505af1158015610b8c573d6000803e3d6000fd5b505050506040513d6020811015610ba257600080fd5b81019080805190602001909291905050509250610bdd6064610bcf6005548661116190919063ffffffff16565b61119290919063ffffffff16565b9150610bf282846111b690919063ffffffff16565b9050600260009054906101000a900473ffffffffffffffffffffffffffffffffffffffff1673ffffffffffffffffffffffffffffffffffffffff16631801fbe587876040518363ffffffff167c010000000000000000000000000000000000000000000000000000000002815260040180838152602001826000191660001916815260200192505050602060405180830381600087803b158015610c9557600080fd5b505af1158015610ca9573d6000803e3d6000fd5b505050506040513d6020811015610cbf57600080fd5b81019080805190602001909291905050501515610cdb57600080fd5b600260009054906101000a900473ffffffffffffffffffffffffffffffffffffffff1673ffffffffffffffffffffffffffffffffffffffff1663a9059cbb600460009054906101000a900473ffffffffffffffffffffffffffffffffffffffff16846040518363ffffffff167c0100000000000000000000000000000000000000000000000000000000028152600401808373ffffffffffffffffffffffffffffffffffffffff1673ffffffffffffffffffffffffffffffffffffffff16815260200182815260200192505050602060405180830381600087803b158015610dc257600080fd5b505af1158015610dd6573d6000803e3d6000fd5b505050506040513d6020811015610dec57600080fd5b81019080805190602001909291905050501515610e0857600080fd5b600260009054906101000a900473ffffffffffffffffffffffffffffffffffffffff1673ffffffffffffffffffffffffffffffffffffffff1663a9059cbb600360009054906101000a900473ffffffffffffffffffffffffffffffffffffffff16836040518363ffffffff167c0100000000000000000000000000000000000000000000000000000000028152600401808373ffffffffffffffffffffffffffffffffffffffff1673ffffffffffffffffffffffffffffffffffffffff16815260200182815260200192505050602060405180830381600087803b158015610eef57600080fd5b505af1158015610f03573d6000803e3d6000fd5b505050506040513d6020811015610f1957600080fd5b81019080805190602001909291905050501515610f3557600080fd5b6001935050505092915050565b60008060009054906101000a900473ffffffffffffffffffffffffffffffffffffffff1673ffffffffffffffffffffffffffffffffffffffff163373ffffffffffffffffffffffffffffffffffffffff16141515610f9f57600080fd5b81600360006101000a81548173ffffffffffffffffffffffffffffffffffffffff021916908373ffffffffffffffffffffffffffffffffffffffff16021790555060019050919050565b60008060009054906101000a900473ffffffffffffffffffffffffffffffffffffffff1673ffffffffffffffffffffffffffffffffffffffff163373ffffffffffffffffffffffffffffffffffffffff1614151561104657600080fd5b816001908051906020019061105c9291906111d2565b5060019050919050565b600360009054906101000a900473ffffffffffffffffffffffffffffffffffffffff1681565b6000809054906101000a900473ffffffffffffffffffffffffffffffffffffffff1673ffffffffffffffffffffffffffffffffffffffff163373ffffffffffffffffffffffffffffffffffffffff161415156110e757600080fd5b600073ffffffffffffffffffffffffffffffffffffffff168173ffffffffffffffffffffffffffffffffffffffff1614151561115e57806000806101000a81548173ffffffffffffffffffffffffffffffffffffffff021916908373ffffffffffffffffffffffffffffffffffffffff1602179055505b50565b600081830290506000831480611181575081838281151561117e57fe5b04145b151561118c57600080fd5b92915050565b600080821115156111a257600080fd5b81838115156111ad57fe5b04905092915050565b60008282111515156111c757600080fd5b818303905092915050565b828054600181600116156101000203166002900490600052602060002090601f016020900481019282601f1061121357805160ff1916838001178555611241565b82800160010185558215611241579182015b82811115611240578251825591602001919060010190611225565b5b50905061124e9190611252565b5090565b61127491905b80821115611270576000816000905550600101611258565b5090565b905600a165627a7a7230582045964e4d1306cc6e20349c2b29f6cd8626afb0374d1ff07029d840ad6e324e480029",
  "source": "pragma solidity ^0.4.18;\n\n\n\nlibrary SafeMath {\n\n    function add(uint a, uint b) internal pure returns (uint c) {\n\n        c = a + b;\n\n        require(c >= a);\n\n    }\n\n    function sub(uint a, uint b) internal pure returns (uint c) {\n\n        require(b <= a);\n\n        c = a - b;\n\n    }\n\n    function mul(uint a, uint b) internal pure returns (uint c) {\n\n        c = a * b;\n\n        require(a == 0 || c / a == b);\n\n    }\n\n    function div(uint a, uint b) internal pure returns (uint c) {\n\n        require(b > 0);\n\n        c = a / b;\n\n    }\n\n}\n\ncontract Ownable {\n\n\n\n  address public owner;\n\n  /**\n   * @dev The Ownable constructor sets the original `owner` of the contract to the sender\n   * account.\n   */\n  function Ownable() {\n    owner = msg.sender;\n  }\n\n\n  /**\n   * @dev Throws if called by any account other than the owner.\n   */\n  modifier onlyOwner() {\n    if (msg.sender != owner) {\n      throw;\n    }\n    _;\n  }\n\n\n  /**\n   * @dev Allows the current owner to transfer control of the contract to a newOwner.\n   * @param newOwner The address to transfer ownership to.\n   */\n  function transferOwnership(address newOwner) onlyOwner {\n    if (newOwner != address(0)) {\n      owner = newOwner;\n    }\n  }\n\n}\n\n\ncontract ERC20Interface {\n    function totalSupply() public constant returns (uint);\n    function balanceOf(address tokenOwner) public constant returns (uint balance);\n    function allowance(address tokenOwner, address spender) public constant returns (uint remaining);\n    function transfer(address to, uint tokens) public returns (bool success);\n    function approve(address spender, uint tokens) public returns (bool success);\n    function transferFrom(address from, address to, uint tokens) public returns (bool success);\n\n    event Transfer(address indexed from, address indexed to, uint tokens);\n    event Approval(address indexed tokenOwner, address indexed spender, uint tokens);\n}\n\ncontract ERC918Interface {\n  function totalSupply() public constant returns (uint);\n  function getMiningDifficulty() public constant returns (uint);\n  function getMiningTarget() public constant returns (uint);\n  function getMiningReward() public constant returns (uint);\n  function balanceOf(address tokenOwner) public constant returns (uint balance);\n\n  function mint(uint256 nonce, bytes32 challenge_digest) public returns (bool success);\n\n  event Mint(address indexed from, uint reward_amount, uint epochCount, bytes32 newChallengeNumber);\n\n}\n\n/*\nThe owner (or anyone) will deposit tokens in here\nThe owner calls the multisend method to send out payments\n*/\ncontract MintHelper is Ownable {\n\n  using SafeMath for uint;\n\n    string public name;\n\n\n    address public mintableToken;\n\n    address public payoutsWallet;\n    address public minterWallet;\n\n    uint public minterFeePercent;\n\n\n    constructor(address mToken, address pWallet, address mWallet)\n    {\n      mintableToken = mToken;\n      payoutsWallet = pWallet;\n      minterWallet = mWallet;\n      minterFeePercent = 5;\n    }\n\n    function setMintableToken(address mToken)\n    public onlyOwner\n    returns (bool)\n    {\n      mintableToken = mToken;\n      return true;\n    }\n\n    function setPayoutsWallet(address pWallet)\n    public onlyOwner\n    returns (bool)\n    {\n      payoutsWallet = pWallet;\n      return true;\n    }\n\n    function setMinterWallet(address mWallet)\n    public onlyOwner\n    returns (bool)\n    {\n      minterWallet = mWallet;\n      return true;\n    }\n\n    function setMinterFeePercent(uint fee)\n    public onlyOwner\n    returns (bool)\n    {\n      require(fee >= 0 && fee <= 100);\n      minterFeePercent = fee;\n      return true;\n    }\n\n    function setName(string newName)\n    public onlyOwner\n    returns (bool)\n    {\n      name = newName;\n      return true;\n    }\n\n    function proxyMint(uint256 nonce, bytes32 challenge_digest )\n//    public onlyOwner  //does not need to be only owner, owner will get paid\n    returns (bool)\n    {\n      //identify the rewards that will be won and how to split them up\n      uint totalReward = ERC918Interface(mintableToken).getMiningReward();\n\n      uint minterReward = totalReward.mul(minterFeePercent).div(100);\n      uint payoutReward = totalReward.sub(minterReward);\n\n      // get paid in new tokens\n      require(ERC918Interface(mintableToken).mint(nonce, challenge_digest));\n\n      //transfer the tokens to the correct wallets\n      require(ERC20Interface(mintableToken).transfer(minterWallet, minterReward));\n      require(ERC20Interface(mintableToken).transfer(payoutsWallet, payoutReward));\n\n      return true;\n\n    }\n\n\n\n    //withdraw any eth inside\n    function withdraw()\n    public onlyOwner\n    {\n        msg.sender.transfer(this.balance);\n    }\n\n    //send tokens out\n    function send(address _tokenAddr, address dest, uint value)\n    public onlyOwner\n    returns (bool)\n    {\n     return ERC20Interface(_tokenAddr).transfer(dest, value);\n    }\n\n\n\n\n}\n",
  "sourcePath": "/home/andy/dev/lava-wallet/contracts/MintHelper.sol",
  "compiler": {
    "name": "solc",
    "version": "0.4.24+commit.e67f0147.Emscripten.clang"
  },
  "schemaVersion": "2.0.1",
  "updatedAt": "2018-07-21T01:55:52.544Z"
}