{
  "contractName": "MintingProxy",
  "abi": [
    {
      "constant": true,
      "inputs": [],
      "name": "minedToken",
      "outputs": [
        {
          "name": "",
          "type": "address"
        }
      ],
      "payable": false,
      "stateMutability": "view",
      "type": "function"
    },
    {
      "inputs": [
        {
          "name": "mintableToken",
          "type": "address"
        }
      ],
      "payable": false,
      "stateMutability": "nonpayable",
      "type": "constructor"
    },
    {
      "payable": true,
      "stateMutability": "payable",
      "type": "fallback"
    },
    {
      "constant": false,
      "inputs": [
        {
          "name": "nonce",
          "type": "uint256"
        },
        {
          "name": "challenge_digest",
          "type": "bytes32"
        },
        {
          "name": "proxyMintArray",
          "type": "address[]"
        }
      ],
      "name": "mintForwarder",
      "outputs": [
        {
          "name": "",
          "type": "bool"
        }
      ],
      "payable": false,
      "stateMutability": "nonpayable",
      "type": "function"
    },
    {
      "constant": true,
      "inputs": [
        {
          "name": "array",
          "type": "address[]"
        }
      ],
      "name": "popFirstFromArray",
      "outputs": [
        {
          "name": "",
          "type": "address[]"
        }
      ],
      "payable": false,
      "stateMutability": "pure",
      "type": "function"
    },
    {
      "constant": true,
      "inputs": [
        {
          "name": "x",
          "type": "uint256"
        }
      ],
      "name": "uintToBytesForAddress",
      "outputs": [
        {
          "name": "b",
          "type": "bytes"
        }
      ],
      "payable": false,
      "stateMutability": "pure",
      "type": "function"
    },
    {
      "constant": true,
      "inputs": [
        {
          "name": "b",
          "type": "bytes"
        }
      ],
      "name": "bytesToAddress",
      "outputs": [
        {
          "name": "",
          "type": "address"
        }
      ],
      "payable": false,
      "stateMutability": "pure",
      "type": "function"
    }
  ],
  "bytecode": "0x608060405234801561001057600080fd5b50604051602080610ab583398101806040528101908080519060200190929190505050806000806101000a81548173ffffffffffffffffffffffffffffffffffffffff021916908373ffffffffffffffffffffffffffffffffffffffff16021790555050610a32806100836000396000f30060806040526004361061006d576000357c0100000000000000000000000000000000000000000000000000000000900463ffffffff168063111da3a71461007257806342526e4e1461012d57806379687166146101d6578063a3c5dcce1461027c578063edfffca014610312575b600080fd5b34801561007e57600080fd5b506100d660048036038101908080359060200190820180359060200190808060200260200160405190810160405280939291908181526020018383602002808284378201915050505050509192919290505050610369565b6040518080602001828103825283818151815260200191508051906020019060200280838360005b838110156101195780820151818401526020810190506100fe565b505050509050019250505060405180910390f35b34801561013957600080fd5b50610194600480360381019080803590602001908201803590602001908080601f0160208091040260200160405190810160405280939291908181526020018383808284378201915050505050509192919290505050610431565b604051808273ffffffffffffffffffffffffffffffffffffffff1673ffffffffffffffffffffffffffffffffffffffff16815260200191505060405180910390f35b3480156101e257600080fd5b50610201600480360381019080803590602001909291905050506104fe565b6040518080602001828103825283818151815260200191508051906020019080838360005b83811015610241578082015181840152602081019050610226565b50505050905090810190601f16801561026e5780820380516001836020036101000a031916815260200191505b509250505060405180910390f35b34801561028857600080fd5b506102f8600480360381019080803590602001909291908035600019169060200190929190803590602001908201803590602001908080602002602001604051908101604052809392919081815260200183836020028082843782019150505050505091929192905050506105d2565b604051808215151515815260200191505060405180910390f35b34801561031e57600080fd5b506103276109b7565b604051808273ffffffffffffffffffffffffffffffffffffffff1673ffffffffffffffffffffffffffffffffffffffff16815260200191505060405180910390f35b606080600060018451036040519080825280602002602001820160405280156103a15781602001602082028038833980820191505090505b509150600090505b60018451038110156104275783600182018151811015156103c657fe5b9060200190602002015182828151811015156103de57fe5b9060200190602002019073ffffffffffffffffffffffffffffffffffffffff16908173ffffffffffffffffffffffffffffffffffffffff168152505080806001019150506103a9565b8192505050919050565b6000806000806000809350600186510392505b60006001840111156104f257858381518110151561045e57fe5b9060200101517f010000000000000000000000000000000000000000000000000000000000000090047f0100000000000000000000000000000000000000000000000000000000000000027f0100000000000000000000000000000000000000000000000000000000000000900491506002600184885103030260100a820290508084019350828060019003935050610444565b83945050505050919050565b6060600060146040519080825280601f01601f1916602001820160405280156105365781602001602082028038833980820191505090505b509150600090505b60148110156105c95780601f0360080260020a8381151561055b57fe5b047f010000000000000000000000000000000000000000000000000000000000000002828281518110151561058c57fe5b9060200101907effffffffffffffffffffffffffffffffffffffffffffffffffffffffffffff1916908160001a905350808060010191505061053e565b81915050919050565b60008060006060600085511115156105e957600080fd5b6000809054906101000a900473ffffffffffffffffffffffffffffffffffffffff1673ffffffffffffffffffffffffffffffffffffffff1663829965cc6040518163ffffffff167c0100000000000000000000000000000000000000000000000000000000028152600401602060405180830381600087803b15801561066e57600080fd5b505af1158015610682573d6000803e3d6000fd5b505050506040513d602081101561069857600080fd5b810190808051906020019092919050505092508460008151811015156106ba57fe5b90602001906020020151915060018551141561079a578173ffffffffffffffffffffffffffffffffffffffff1663b1bb4d3588886040518363ffffffff167c010000000000000000000000000000000000000000000000000000000002815260040180838152602001826000191660001916815260200192505050602060405180830381600087803b15801561074f57600080fd5b505af1158015610763573d6000803e3d6000fd5b505050506040513d602081101561077957600080fd5b8101908080519060200190929190505050151561079557600080fd5b6108b4565b6107a385610369565b90508173ffffffffffffffffffffffffffffffffffffffff1663a3c5dcce8888846040518463ffffffff167c010000000000000000000000000000000000000000000000000000000002815260040180848152602001836000191660001916815260200180602001828103825283818151815260200191508051906020019060200280838360005b8381101561084657808201518184015260208101905061082b565b50505050905001945050505050602060405180830381600087803b15801561086d57600080fd5b505af1158015610881573d6000803e3d6000fd5b505050506040513d602081101561089757600080fd5b810190808051906020019092919050505015156108b357600080fd5b5b6108c86001846109dc90919063ffffffff16565b6000809054906101000a900473ffffffffffffffffffffffffffffffffffffffff1673ffffffffffffffffffffffffffffffffffffffff1663829965cc6040518163ffffffff167c0100000000000000000000000000000000000000000000000000000000028152600401602060405180830381600087803b15801561094d57600080fd5b505af1158015610961573d6000803e3d6000fd5b505050506040513d602081101561097757600080fd5b810190808051906020019092919050505014151561099457600080fd5b61099e87876109fa565b15156109a957600080fd5b600193505050509392505050565b6000809054906101000a900473ffffffffffffffffffffffffffffffffffffffff1681565b60008082840190508381101515156109f057fe5b8091505092915050565b600060019050929150505600a165627a7a72305820051d4db11040339f77a08cd103f92b5c9e7ee1b7d4366229b3e56ab8e09adf4f0029",
  "source": "pragma solidity ^0.4.18;\n\n\n\n/**\n * @title SafeMath\n * @dev Math operations with safety checks that throw on error\n */\nlibrary SafeMath {\n\n  /**\n  * @dev Multiplies two numbers, throws on overflow.\n  */\n  function mul(uint256 a, uint256 b) internal pure returns (uint256) {\n    if (a == 0) {\n      return 0;\n    }\n    uint256 c = a * b;\n    assert(c / a == b);\n    return c;\n  }\n\n  /**\n  * @dev Integer division of two numbers, truncating the quotient.\n  */\n  function div(uint256 a, uint256 b) internal pure returns (uint256) {\n    // assert(b > 0); // Solidity automatically throws when dividing by 0\n    uint256 c = a / b;\n    // assert(a == b * c + a % b); // There is no case in which this doesn't hold\n    return c;\n  }\n\n  /**\n  * @dev Substracts two numbers, throws on overflow (i.e. if subtrahend is greater than minuend).\n  */\n  function sub(uint256 a, uint256 b) internal pure returns (uint256) {\n    assert(b <= a);\n    return a - b;\n  }\n\n  /**\n  * @dev Adds two numbers, throws on overflow.\n  */\n  function add(uint256 a, uint256 b) internal pure returns (uint256) {\n    uint256 c = a + b;\n    assert(c >= a);\n    return c;\n  }\n}\n\n\n/*\n\nThis is a King Of The Hill contract which requires Proof of Work (hashpower) to set the king\n\nThis global non-owned contract proxy-mints 0xBTC through a personally-owned mintHelper contract (MintHelper.sol)\n\n*/\n\ncontract ERC20Interface {\n    function totalSupply() public constant returns (uint);\n    function balanceOf(address tokenOwner) public constant returns (uint balance);\n    function allowance(address tokenOwner, address spender) public constant returns (uint remaining);\n    function transfer(address to, uint tokens) public returns (bool success);\n    function approve(address spender, uint tokens) public returns (bool success);\n    function transferFrom(address from, address to, uint tokens) public returns (bool success);\n\n    event Transfer(address indexed from, address indexed to, uint tokens);\n    event Approval(address indexed tokenOwner, address indexed spender, uint tokens);\n}\ncontract ERC918Interface {\n\n  function epochCount() public constant returns (uint);\n\n  function totalSupply() public constant returns (uint);\n  function getMiningDifficulty() public constant returns (uint);\n  function getMiningTarget() public constant returns (uint);\n  function getMiningReward() public constant returns (uint);\n  function balanceOf(address tokenOwner) public constant returns (uint balance);\n\n  function mint(uint256 nonce, bytes32 challenge_digest) public returns (bool success);\n\n  event Mint(address indexed from, uint reward_amount, uint epochCount, bytes32 newChallengeNumber);\n\n}\n\ncontract mintForwarderInterface\n{\n  function mintForwarder(uint256 nonce, bytes32 challenge_digest, address[] proxyMintArray) public returns (bool success);\n}\n\ncontract proxyMinterInterface\n{\n  function proxyMint(uint256 nonce, bytes32 challenge_digest) public returns (bool success);\n}\n\n\n\n\n\ncontract MintingProxy\n{\n\n  using SafeMath for uint;\n  \n  address public minedToken;\n\n  constructor(address mintableToken) public  {\n    minedToken = mintableToken;\n  }\n\n\n\n  //do not allow ether to enter\n  function() public payable {\n      revert();\n  }\n\n\n\n  /**\n  Set the king to the Ethereum Address which is encoded as 160 bits of the 256 bit mining nonce\n\n\n  **/\n\n\n     function mintForwarder(uint256 nonce, bytes32 challenge_digest, address[] proxyMintArray) returns (bool)\n     {\n\n        require(proxyMintArray.length > 0);\n\n\n        uint previousEpochCount = ERC918Interface(minedToken).epochCount();\n\n\n        address proxyMinter = proxyMintArray[0];\n\n        if(proxyMintArray.length == 1)\n        {\n          //Forward to the last proxyMint contract, typically a pool's owned  mint contract\n          require(proxyMinterInterface(proxyMinter).proxyMint(nonce, challenge_digest));\n        }else{\n          //if array length is greater than 1, pop the proxyMinter from the front of the array and keep cascading down the chain...\n          address[] memory remainingProxyMintArray = popFirstFromArray(proxyMintArray);\n\n          require(mintForwarderInterface(proxyMinter).mintForwarder(nonce, challenge_digest,remainingProxyMintArray));\n        }\n\n       //make sure that the minedToken really was proxy minted through the proxyMint delegate call chain\n        require( ERC918Interface(minedToken).epochCount() == previousEpochCount.add(1) );\n\n\n        require(_performAction( nonce, challenge_digest ));\n\n\n        return true;\n     }\n\n     function _performAction(uint256 nonce, bytes32 challenge_digest) internal returns (bool)\n    {\n\n\n      return true;\n    }\n\n\n    function popFirstFromArray(address[] array) pure public returns (address[] memory)\n    {\n      address[] memory newArray = new address[](array.length-1);\n\n      for (uint i=0; i < array.length-1; i++) {\n        newArray[i] =  array[i+1]  ;\n      }\n\n      return newArray;\n    }\n\n   function uintToBytesForAddress(uint256 x) pure public returns (bytes b) {\n\n        b = new bytes(20);\n        for (uint i = 0; i < 20; i++) {\n            b[i] = byte(uint8(x / (2**(8*(31 - i)))));\n        }\n\n        return b;\n      }\n\n\n   function bytesToAddress (bytes b) pure public returns (address) {\n       uint result = 0;\n       for (uint i = b.length-1; i+1 > 0; i--) {\n         uint c = uint(b[i]);\n         uint to_inc = c * ( 16 ** ((b.length - i-1) * 2));\n         result += to_inc;\n       }\n       return address(result);\n   }\n\n\n\n}\n\n\n\n\n\n\n\n\ncontract MiningKing is MintingProxy  {\n\n\n\n\n\n   address public miningKing;\n\n\n\n\n   event TransferKing(address from, address to);\n\n   // 0xBTC is 0xb6ed7644c69416d67b522e20bc294a9a9b405b31;\n  constructor(address mintableToken) public  {\n    minedToken = mintableToken;\n  }\n\n\n\n\n  function getKing() view public returns (address king)\n  {\n    return miningKing;\n  }\n\n   function transferKing(address newKing) public   {\n\n       require(msg.sender == miningKing);\n\n       miningKing = newKing;\n\n       TransferKing(msg.sender, newKing);\n\n   }\n\n\n   function _performAction(uint256 nonce, bytes32 challenge_digest) internal returns (bool)\n  {\n\n\n    bytes memory nonceBytes = uintToBytesForAddress(nonce);\n\n    address newKing = bytesToAddress(nonceBytes);\n\n    miningKing = newKing;\n\n    return true;\n  }\n\n\n}\n",
  "sourcePath": "/home/andy/dev/lava-wallet/contracts/MiningKing.sol",
  "compiler": {
    "name": "solc",
    "version": "0.4.24+commit.e67f0147.Emscripten.clang"
  },
  "schemaVersion": "2.0.1",
  "updatedAt": "2018-09-15T19:15:02.120Z"
}